{
  "_format": "hh-sol-artifact-1",
  "contractName": "ProfileNFTContract",
  "sourceName": "contracts/ProfileNFTContract.sol",
  "abi": [
    {
      "inputs": [
        {
          "internalType": "address",
          "name": "router",
          "type": "address"
        }
      ],
      "stateMutability": "nonpayable",
      "type": "constructor"
    },
    {
      "inputs": [
        {
          "internalType": "address",
          "name": "sender",
          "type": "address"
        },
        {
          "internalType": "uint256",
          "name": "tokenId",
          "type": "uint256"
        },
        {
          "internalType": "address",
          "name": "owner",
          "type": "address"
        }
      ],
      "name": "ERC721IncorrectOwner",
      "type": "error"
    },
    {
      "inputs": [
        {
          "internalType": "address",
          "name": "operator",
          "type": "address"
        },
        {
          "internalType": "uint256",
          "name": "tokenId",
          "type": "uint256"
        }
      ],
      "name": "ERC721InsufficientApproval",
      "type": "error"
    },
    {
      "inputs": [
        {
          "internalType": "address",
          "name": "approver",
          "type": "address"
        }
      ],
      "name": "ERC721InvalidApprover",
      "type": "error"
    },
    {
      "inputs": [
        {
          "internalType": "address",
          "name": "operator",
          "type": "address"
        }
      ],
      "name": "ERC721InvalidOperator",
      "type": "error"
    },
    {
      "inputs": [
        {
          "internalType": "address",
          "name": "owner",
          "type": "address"
        }
      ],
      "name": "ERC721InvalidOwner",
      "type": "error"
    },
    {
      "inputs": [
        {
          "internalType": "address",
          "name": "receiver",
          "type": "address"
        }
      ],
      "name": "ERC721InvalidReceiver",
      "type": "error"
    },
    {
      "inputs": [
        {
          "internalType": "address",
          "name": "sender",
          "type": "address"
        }
      ],
      "name": "ERC721InvalidSender",
      "type": "error"
    },
    {
      "inputs": [
        {
          "internalType": "uint256",
          "name": "tokenId",
          "type": "uint256"
        }
      ],
      "name": "ERC721NonexistentToken",
      "type": "error"
    },
    {
      "inputs": [],
      "name": "EmptyArgs",
      "type": "error"
    },
    {
      "inputs": [],
      "name": "EmptySecrets",
      "type": "error"
    },
    {
      "inputs": [],
      "name": "EmptySource",
      "type": "error"
    },
    {
      "inputs": [],
      "name": "EnforcedPause",
      "type": "error"
    },
    {
      "inputs": [],
      "name": "ExpectedPause",
      "type": "error"
    },
    {
      "inputs": [],
      "name": "NoInlineSecrets",
      "type": "error"
    },
    {
      "inputs": [],
      "name": "OnlyRouterCanFulfill",
      "type": "error"
    },
    {
      "inputs": [
        {
          "internalType": "bytes32",
          "name": "requestId",
          "type": "bytes32"
        }
      ],
      "name": "UnexpectedRequestID",
      "type": "error"
    },
    {
      "anonymous": false,
      "inputs": [
        {
          "indexed": true,
          "internalType": "address",
          "name": "owner",
          "type": "address"
        },
        {
          "indexed": true,
          "internalType": "address",
          "name": "approved",
          "type": "address"
        },
        {
          "indexed": true,
          "internalType": "uint256",
          "name": "tokenId",
          "type": "uint256"
        }
      ],
      "name": "Approval",
      "type": "event"
    },
    {
      "anonymous": false,
      "inputs": [
        {
          "indexed": true,
          "internalType": "address",
          "name": "owner",
          "type": "address"
        },
        {
          "indexed": true,
          "internalType": "address",
          "name": "operator",
          "type": "address"
        },
        {
          "indexed": false,
          "internalType": "bool",
          "name": "approved",
          "type": "bool"
        }
      ],
      "name": "ApprovalForAll",
      "type": "event"
    },
    {
      "anonymous": false,
      "inputs": [
        {
          "indexed": true,
          "internalType": "bytes32",
          "name": "requestId",
          "type": "bytes32"
        },
        {
          "indexed": false,
          "internalType": "bytes",
          "name": "response",
          "type": "bytes"
        },
        {
          "indexed": false,
          "internalType": "bytes",
          "name": "err",
          "type": "bytes"
        }
      ],
      "name": "FunctionsResponse",
      "type": "event"
    },
    {
      "anonymous": false,
      "inputs": [
        {
          "indexed": true,
          "internalType": "uint256",
          "name": "tokenId",
          "type": "uint256"
        },
        {
          "indexed": false,
          "internalType": "string",
          "name": "name",
          "type": "string"
        },
        {
          "indexed": false,
          "internalType": "string",
          "name": "description",
          "type": "string"
        },
        {
          "indexed": false,
          "internalType": "string",
          "name": "image",
          "type": "string"
        }
      ],
      "name": "MetadataUpdated",
      "type": "event"
    },
    {
      "anonymous": false,
      "inputs": [
        {
          "indexed": true,
          "internalType": "address",
          "name": "from",
          "type": "address"
        },
        {
          "indexed": true,
          "internalType": "address",
          "name": "to",
          "type": "address"
        }
      ],
      "name": "OwnershipTransferRequested",
      "type": "event"
    },
    {
      "anonymous": false,
      "inputs": [
        {
          "indexed": true,
          "internalType": "address",
          "name": "from",
          "type": "address"
        },
        {
          "indexed": true,
          "internalType": "address",
          "name": "to",
          "type": "address"
        }
      ],
      "name": "OwnershipTransferred",
      "type": "event"
    },
    {
      "anonymous": false,
      "inputs": [
        {
          "indexed": false,
          "internalType": "address",
          "name": "account",
          "type": "address"
        }
      ],
      "name": "Paused",
      "type": "event"
    },
    {
      "anonymous": false,
      "inputs": [
        {
          "indexed": true,
          "internalType": "bytes32",
          "name": "id",
          "type": "bytes32"
        }
      ],
      "name": "RequestFulfilled",
      "type": "event"
    },
    {
      "anonymous": false,
      "inputs": [
        {
          "indexed": true,
          "internalType": "bytes32",
          "name": "id",
          "type": "bytes32"
        }
      ],
      "name": "RequestSent",
      "type": "event"
    },
    {
      "anonymous": false,
      "inputs": [
        {
          "indexed": true,
          "internalType": "address",
          "name": "from",
          "type": "address"
        },
        {
          "indexed": true,
          "internalType": "address",
          "name": "to",
          "type": "address"
        },
        {
          "indexed": true,
          "internalType": "uint256",
          "name": "tokenId",
          "type": "uint256"
        }
      ],
      "name": "Transfer",
      "type": "event"
    },
    {
      "anonymous": false,
      "inputs": [
        {
          "indexed": false,
          "internalType": "address",
          "name": "account",
          "type": "address"
        }
      ],
      "name": "Unpaused",
      "type": "event"
    },
    {
      "inputs": [],
      "name": "acceptOwnership",
      "outputs": [],
      "stateMutability": "nonpayable",
      "type": "function"
    },
    {
      "inputs": [
        {
          "internalType": "address",
          "name": "to",
          "type": "address"
        },
        {
          "internalType": "uint256",
          "name": "tokenId",
          "type": "uint256"
        }
      ],
      "name": "approve",
      "outputs": [],
      "stateMutability": "nonpayable",
      "type": "function"
    },
    {
      "inputs": [
        {
          "internalType": "address",
          "name": "owner",
          "type": "address"
        }
      ],
      "name": "balanceOf",
      "outputs": [
        {
          "internalType": "uint256",
          "name": "",
          "type": "uint256"
        }
      ],
      "stateMutability": "view",
      "type": "function"
    },
    {
      "inputs": [
        {
          "internalType": "uint256",
          "name": "tokenId",
          "type": "uint256"
        }
      ],
      "name": "getApproved",
      "outputs": [
        {
          "internalType": "address",
          "name": "",
          "type": "address"
        }
      ],
      "stateMutability": "view",
      "type": "function"
    },
    {
      "inputs": [
        {
          "internalType": "uint256",
          "name": "tokenId",
          "type": "uint256"
        }
      ],
      "name": "getTokenMetadata",
      "outputs": [
        {
          "components": [
            {
              "internalType": "string",
              "name": "name",
              "type": "string"
            },
            {
              "internalType": "string",
              "name": "description",
              "type": "string"
            },
            {
              "internalType": "string",
              "name": "imageCID",
              "type": "string"
            },
            {
              "internalType": "string",
              "name": "tokenURI",
              "type": "string"
            },
            {
              "internalType": "uint256",
              "name": "createdAt",
              "type": "uint256"
            },
            {
              "internalType": "uint256",
              "name": "updatedAt",
              "type": "uint256"
            }
          ],
          "internalType": "struct ProfileNFTContract.NFTMetadata",
          "name": "",
          "type": "tuple"
        }
      ],
      "stateMutability": "view",
      "type": "function"
    },
    {
      "inputs": [
        {
          "internalType": "bytes32",
          "name": "requestId",
          "type": "bytes32"
        },
        {
          "internalType": "bytes",
          "name": "response",
          "type": "bytes"
        },
        {
          "internalType": "bytes",
          "name": "err",
          "type": "bytes"
        }
      ],
      "name": "handleOracleFulfillment",
      "outputs": [],
      "stateMutability": "nonpayable",
      "type": "function"
    },
    {
      "inputs": [
        {
          "internalType": "address",
          "name": "owner",
          "type": "address"
        },
        {
          "internalType": "address",
          "name": "operator",
          "type": "address"
        }
      ],
      "name": "isApprovedForAll",
      "outputs": [
        {
          "internalType": "bool",
          "name": "",
          "type": "bool"
        }
      ],
      "stateMutability": "view",
      "type": "function"
    },
    {
      "inputs": [
        {
          "internalType": "string",
          "name": "source",
          "type": "string"
        },
        {
          "internalType": "bytes",
          "name": "encryptedSecretsUrl",
          "type": "bytes"
        },
        {
          "internalType": "string[]",
          "name": "args",
          "type": "string[]"
        },
        {
          "internalType": "uint64",
          "name": "subscriptionId",
          "type": "uint64"
        },
        {
          "internalType": "uint32",
          "name": "gasLimit",
          "type": "uint32"
        },
        {
          "internalType": "bytes32",
          "name": "donID",
          "type": "bytes32"
        }
      ],
      "name": "mintRequest",
      "outputs": [
        {
          "internalType": "bytes32",
          "name": "requestId",
          "type": "bytes32"
        }
      ],
      "stateMutability": "nonpayable",
      "type": "function"
    },
    {
      "inputs": [],
      "name": "name",
      "outputs": [
        {
          "internalType": "string",
          "name": "",
          "type": "string"
        }
      ],
      "stateMutability": "view",
      "type": "function"
    },
    {
      "inputs": [],
      "name": "owner",
      "outputs": [
        {
          "internalType": "address",
          "name": "",
          "type": "address"
        }
      ],
      "stateMutability": "view",
      "type": "function"
    },
    {
      "inputs": [
        {
          "internalType": "uint256",
          "name": "tokenId",
          "type": "uint256"
        }
      ],
      "name": "ownerOf",
      "outputs": [
        {
          "internalType": "address",
          "name": "",
          "type": "address"
        }
      ],
      "stateMutability": "view",
      "type": "function"
    },
    {
      "inputs": [],
      "name": "paused",
      "outputs": [
        {
          "internalType": "bool",
          "name": "",
          "type": "bool"
        }
      ],
      "stateMutability": "view",
      "type": "function"
    },
    {
      "inputs": [],
      "name": "s_lastError",
      "outputs": [
        {
          "internalType": "bytes",
          "name": "",
          "type": "bytes"
        }
      ],
      "stateMutability": "view",
      "type": "function"
    },
    {
      "inputs": [],
      "name": "s_lastRequestId",
      "outputs": [
        {
          "internalType": "bytes32",
          "name": "",
          "type": "bytes32"
        }
      ],
      "stateMutability": "view",
      "type": "function"
    },
    {
      "inputs": [],
      "name": "s_lastResponse",
      "outputs": [
        {
          "internalType": "bytes",
          "name": "",
          "type": "bytes"
        }
      ],
      "stateMutability": "view",
      "type": "function"
    },
    {
      "inputs": [
        {
          "internalType": "address",
          "name": "from",
          "type": "address"
        },
        {
          "internalType": "address",
          "name": "to",
          "type": "address"
        },
        {
          "internalType": "uint256",
          "name": "tokenId",
          "type": "uint256"
        }
      ],
      "name": "safeTransferFrom",
      "outputs": [],
      "stateMutability": "nonpayable",
      "type": "function"
    },
    {
      "inputs": [
        {
          "internalType": "address",
          "name": "from",
          "type": "address"
        },
        {
          "internalType": "address",
          "name": "to",
          "type": "address"
        },
        {
          "internalType": "uint256",
          "name": "tokenId",
          "type": "uint256"
        },
        {
          "internalType": "bytes",
          "name": "data",
          "type": "bytes"
        }
      ],
      "name": "safeTransferFrom",
      "outputs": [],
      "stateMutability": "nonpayable",
      "type": "function"
    },
    {
      "inputs": [
        {
          "internalType": "address",
          "name": "operator",
          "type": "address"
        },
        {
          "internalType": "bool",
          "name": "approved",
          "type": "bool"
        }
      ],
      "name": "setApprovalForAll",
      "outputs": [],
      "stateMutability": "nonpayable",
      "type": "function"
    },
    {
      "inputs": [
        {
          "internalType": "bytes4",
          "name": "interfaceId",
          "type": "bytes4"
        }
      ],
      "name": "supportsInterface",
      "outputs": [
        {
          "internalType": "bool",
          "name": "",
          "type": "bool"
        }
      ],
      "stateMutability": "view",
      "type": "function"
    },
    {
      "inputs": [],
      "name": "symbol",
      "outputs": [
        {
          "internalType": "string",
          "name": "",
          "type": "string"
        }
      ],
      "stateMutability": "view",
      "type": "function"
    },
    {
      "inputs": [
        {
          "internalType": "uint256",
          "name": "tokenId",
          "type": "uint256"
        }
      ],
      "name": "tokenURI",
      "outputs": [
        {
          "internalType": "string",
          "name": "",
          "type": "string"
        }
      ],
      "stateMutability": "view",
      "type": "function"
    },
    {
      "inputs": [
        {
          "internalType": "address",
          "name": "from",
          "type": "address"
        },
        {
          "internalType": "address",
          "name": "to",
          "type": "address"
        },
        {
          "internalType": "uint256",
          "name": "tokenId",
          "type": "uint256"
        }
      ],
      "name": "transferFrom",
      "outputs": [],
      "stateMutability": "nonpayable",
      "type": "function"
    },
    {
      "inputs": [
        {
          "internalType": "address",
          "name": "to",
          "type": "address"
        }
      ],
      "name": "transferOwnership",
      "outputs": [],
      "stateMutability": "nonpayable",
      "type": "function"
    },
    {
      "inputs": [
        {
          "internalType": "uint256",
          "name": "tokenId",
          "type": "uint256"
        },
        {
          "internalType": "string",
          "name": "cid",
          "type": "string"
        },
        {
          "internalType": "string",
          "name": "name",
          "type": "string"
        },
        {
          "internalType": "string",
          "name": "description",
          "type": "string"
        },
        {
          "internalType": "string",
          "name": "image",
          "type": "string"
        }
      ],
      "name": "updateTokenMetadata",
      "outputs": [],
      "stateMutability": "nonpayable",
      "type": "function"
    }
  ],
  "bytecode": "0x60a06040523480156200001157600080fd5b5060405162005235380380620052358339818101604052810190620000379190620003bd565b33806000836040518060400160405280600c81526020017f426574626c6f636b2042696f00000000000000000000000000000000000000008152506040518060400160405280600381526020017f42424200000000000000000000000000000000000000000000000000000000008152508160009081620000b9919062000669565b508060019081620000cb919062000669565b5050506000600660006101000a81548160ff0219169083151502179055508073ffffffffffffffffffffffffffffffffffffffff1660808173ffffffffffffffffffffffffffffffffffffffff168152505050600073ffffffffffffffffffffffffffffffffffffffff168273ffffffffffffffffffffffffffffffffffffffff160362000190576040517f08c379a00000000000000000000000000000000000000000000000000000000081526004016200018790620007b1565b60405180910390fd5b81600660016101000a81548173ffffffffffffffffffffffffffffffffffffffff021916908373ffffffffffffffffffffffffffffffffffffffff160217905550600073ffffffffffffffffffffffffffffffffffffffff168173ffffffffffffffffffffffffffffffffffffffff1614620002185762000217816200022260201b60201c565b5b5050505062000845565b3373ffffffffffffffffffffffffffffffffffffffff168173ffffffffffffffffffffffffffffffffffffffff160362000293576040517f08c379a00000000000000000000000000000000000000000000000000000000081526004016200028a9062000823565b60405180910390fd5b80600760006101000a81548173ffffffffffffffffffffffffffffffffffffffff021916908373ffffffffffffffffffffffffffffffffffffffff1602179055508073ffffffffffffffffffffffffffffffffffffffff16600660019054906101000a900473ffffffffffffffffffffffffffffffffffffffff1673ffffffffffffffffffffffffffffffffffffffff167fed8889f560326eb138920d842192f0eb3dd22b4f139c87a2c57538e05bae127860405160405180910390a350565b600080fd5b600073ffffffffffffffffffffffffffffffffffffffff82169050919050565b6000620003858262000358565b9050919050565b620003978162000378565b8114620003a357600080fd5b50565b600081519050620003b7816200038c565b92915050565b600060208284031215620003d657620003d562000353565b5b6000620003e684828501620003a6565b91505092915050565b600081519050919050565b7f4e487b7100000000000000000000000000000000000000000000000000000000600052604160045260246000fd5b7f4e487b7100000000000000000000000000000000000000000000000000000000600052602260045260246000fd5b600060028204905060018216806200047157607f821691505b60208210810362000487576200048662000429565b5b50919050565b60008190508160005260206000209050919050565b60006020601f8301049050919050565b600082821b905092915050565b600060088302620004f17fffffffffffffffffffffffffffffffffffffffffffffffffffffffffffffffff82620004b2565b620004fd8683620004b2565b95508019841693508086168417925050509392505050565b6000819050919050565b6000819050919050565b60006200054a620005446200053e8462000515565b6200051f565b62000515565b9050919050565b6000819050919050565b620005668362000529565b6200057e620005758262000551565b848454620004bf565b825550505050565b600090565b6200059562000586565b620005a28184846200055b565b505050565b5b81811015620005ca57620005be6000826200058b565b600181019050620005a8565b5050565b601f8211156200061957620005e3816200048d565b620005ee84620004a2565b81016020851015620005fe578190505b620006166200060d85620004a2565b830182620005a7565b50505b505050565b600082821c905092915050565b60006200063e600019846008026200061e565b1980831691505092915050565b60006200065983836200062b565b9150826002028217905092915050565b6200067482620003ef565b67ffffffffffffffff81111562000690576200068f620003fa565b5b6200069c825462000458565b620006a9828285620005ce565b600060209050601f831160018114620006e15760008415620006cc578287015190505b620006d885826200064b565b86555062000748565b601f198416620006f1866200048d565b60005b828110156200071b57848901518255600182019150602085019450602081019050620006f4565b868310156200073b578489015162000737601f8916826200062b565b8355505b6001600288020188555050505b505050505050565b600082825260208201905092915050565b7f43616e6e6f7420736574206f776e657220746f207a65726f0000000000000000600082015250565b60006200079960188362000750565b9150620007a68262000761565b602082019050919050565b60006020820190508181036000830152620007cc816200078a565b9050919050565b7f43616e6e6f74207472616e7366657220746f2073656c66000000000000000000600082015250565b60006200080b60178362000750565b91506200081882620007d3565b602082019050919050565b600060208201905081810360008301526200083e81620007fc565b9050919050565b6080516149cd62000868600039600081816106410152611af701526149cd6000f3fe608060405234801561001057600080fd5b50600436106101585760003560e01c806370a08231116100c3578063ac2f541a1161007c578063ac2f541a146103c7578063b1e21749146103e3578063b88d4fde14610401578063c87b56dd1461041d578063e985e9c51461044d578063f2fde38b1461047d57610158565b806370a082311461030557806379ba50971461033557806389378a301461033f5780638da5cb5b1461036f57806395d89b411461038d578063a22cb465146103ab57610158565b80633944ea3a116101155780633944ea3a1461022f57806342842e0e1461024d5780634b0795a8146102695780635c975abb1461028757806360316801146102a55780636352211e146102d557610158565b806301ffc9a71461015d57806306fdde031461018d578063081812fc146101ab578063095ea7b3146101db5780630ca76175146101f757806323b872dd14610213575b600080fd5b61017760048036038101906101729190612fe2565b610499565b604051610184919061302a565b60405180910390f35b61019561057b565b6040516101a291906130d5565b60405180910390f35b6101c560048036038101906101c0919061312d565b61060d565b6040516101d2919061319b565b60405180910390f35b6101f560048036038101906101f091906131e2565b610629565b005b610211600480360381019061020c919061338d565b61063f565b005b61022d60048036038101906102289190613418565b610701565b005b610237610803565b60405161024491906134c0565b60405180910390f35b61026760048036038101906102629190613418565b610891565b005b6102716108b1565b60405161027e91906134c0565b60405180910390f35b61028f61093f565b60405161029c919061302a565b60405180910390f35b6102bf60048036038101906102ba919061312d565b610956565b6040516102cc91906135d9565b60405180910390f35b6102ef60048036038101906102ea919061312d565b610bdf565b6040516102fc919061319b565b60405180910390f35b61031f600480360381019061031a91906135fb565b610bf1565b60405161032c9190613637565b60405180910390f35b61033d610cab565b005b61035960048036038101906103549190613855565b610e42565b6040516103669190613945565b60405180910390f35b610377610ef9565b604051610384919061319b565b60405180910390f35b610395610f23565b6040516103a291906130d5565b60405180910390f35b6103c560048036038101906103c0919061398c565b610fb5565b005b6103e160048036038101906103dc91906139cc565b610fcb565b005b6103eb61105d565b6040516103f89190613945565b60405180910390f35b61041b60048036038101906104169190613ab7565b611063565b005b6104376004803603810190610432919061312d565b611080565b60405161044491906130d5565b60405180910390f35b61046760048036038101906104629190613b3a565b6110e9565b604051610474919061302a565b60405180910390f35b610497600480360381019061049291906135fb565b61117d565b005b60007f80ac58cd000000000000000000000000000000000000000000000000000000007bffffffffffffffffffffffffffffffffffffffffffffffffffffffff1916827bffffffffffffffffffffffffffffffffffffffffffffffffffffffff1916148061056457507f5b5e139f000000000000000000000000000000000000000000000000000000007bffffffffffffffffffffffffffffffffffffffffffffffffffffffff1916827bffffffffffffffffffffffffffffffffffffffffffffffffffffffff1916145b80610574575061057382611191565b5b9050919050565b60606000805461058a90613ba9565b80601f01602080910402602001604051908101604052809291908181526020018280546105b690613ba9565b80156106035780601f106105d857610100808354040283529160200191610603565b820191906000526020600020905b8154815290600101906020018083116105e657829003601f168201915b5050505050905090565b6000610618826111fb565b5061062282611283565b9050919050565b61063b82826106366112c0565b6112c8565b5050565b7f000000000000000000000000000000000000000000000000000000000000000073ffffffffffffffffffffffffffffffffffffffff163373ffffffffffffffffffffffffffffffffffffffff16146106c4576040517fc6829f8300000000000000000000000000000000000000000000000000000000815260040160405180910390fd5b6106cf8383836112da565b827f85e1543bf2f84fe80c6badbce3648c8539ad1df4d2b3d822938ca0538be727e660405160405180910390a2505050565b600073ffffffffffffffffffffffffffffffffffffffff168273ffffffffffffffffffffffffffffffffffffffff16036107735760006040517f64a0ae9200000000000000000000000000000000000000000000000000000000815260040161076a919061319b565b60405180910390fd5b600061078783836107826112c0565b6113ea565b90508373ffffffffffffffffffffffffffffffffffffffff168173ffffffffffffffffffffffffffffffffffffffff16146107fd578382826040517f64283d7b0000000000000000000000000000000000000000000000000000000081526004016107f493929190613bda565b60405180910390fd5b50505050565b600b805461081090613ba9565b80601f016020809104026020016040519081016040528092919081815260200182805461083c90613ba9565b80156108895780601f1061085e57610100808354040283529160200191610889565b820191906000526020600020905b81548152906001019060200180831161086c57829003601f168201915b505050505081565b6108ac83838360405180602001604052806000815250611063565b505050565b600c80546108be90613ba9565b80601f01602080910402602001604051908101604052809291908181526020018280546108ea90613ba9565b80156109375780601f1061090c57610100808354040283529160200191610937565b820191906000526020600020905b81548152906001019060200180831161091a57829003601f168201915b505050505081565b6000600660009054906101000a900460ff16905090565b61095e612e94565b600960008381526020019081526020016000206040518060c001604052908160008201805461098c90613ba9565b80601f01602080910402602001604051908101604052809291908181526020018280546109b890613ba9565b8015610a055780601f106109da57610100808354040283529160200191610a05565b820191906000526020600020905b8154815290600101906020018083116109e857829003601f168201915b50505050508152602001600182018054610a1e90613ba9565b80601f0160208091040260200160405190810160405280929190818152602001828054610a4a90613ba9565b8015610a975780601f10610a6c57610100808354040283529160200191610a97565b820191906000526020600020905b815481529060010190602001808311610a7a57829003601f168201915b50505050508152602001600282018054610ab090613ba9565b80601f0160208091040260200160405190810160405280929190818152602001828054610adc90613ba9565b8015610b295780601f10610afe57610100808354040283529160200191610b29565b820191906000526020600020905b815481529060010190602001808311610b0c57829003601f168201915b50505050508152602001600382018054610b4290613ba9565b80601f0160208091040260200160405190810160405280929190818152602001828054610b6e90613ba9565b8015610bbb5780601f10610b9057610100808354040283529160200191610bbb565b820191906000526020600020905b815481529060010190602001808311610b9e57829003601f168201915b50505050508152602001600482015481526020016005820154815250509050919050565b6000610bea826111fb565b9050919050565b60008073ffffffffffffffffffffffffffffffffffffffff168273ffffffffffffffffffffffffffffffffffffffff1603610c645760006040517f89c62b64000000000000000000000000000000000000000000000000000000008152600401610c5b919061319b565b60405180910390fd5b600360008373ffffffffffffffffffffffffffffffffffffffff1673ffffffffffffffffffffffffffffffffffffffff168152602001908152602001600020549050919050565b600760009054906101000a900473ffffffffffffffffffffffffffffffffffffffff1673ffffffffffffffffffffffffffffffffffffffff163373ffffffffffffffffffffffffffffffffffffffff1614610d3b576040517f08c379a0000000000000000000000000000000000000000000000000000000008152600401610d3290613c5d565b60405180910390fd5b6000600660019054906101000a900473ffffffffffffffffffffffffffffffffffffffff16905033600660016101000a81548173ffffffffffffffffffffffffffffffffffffffff021916908373ffffffffffffffffffffffffffffffffffffffff1602179055506000600760006101000a81548173ffffffffffffffffffffffffffffffffffffffff021916908373ffffffffffffffffffffffffffffffffffffffff1602179055503373ffffffffffffffffffffffffffffffffffffffff168173ffffffffffffffffffffffffffffffffffffffff167f8be0079c531659141344cd1fd0a4f28419497f9722a3daafe3b4186f6b6457e060405160405180910390a350565b600080610e4e33610bf1565b14610e8e576040517f08c379a0000000000000000000000000000000000000000000000000000000008152600401610e8590613cc9565b60405180910390fd5b610e96612eca565b610ea9888261160490919063ffffffff16565b610ebc878261161590919063ffffffff16565b610ecf868261168e90919063ffffffff16565b610ee3610edb826116d6565b868686611af2565b600a81905550600a549150509695505050505050565b6000600660019054906101000a900473ffffffffffffffffffffffffffffffffffffffff16905090565b606060018054610f3290613ba9565b80601f0160208091040260200160405190810160405280929190818152602001828054610f5e90613ba9565b8015610fab5780601f10610f8057610100808354040283529160200191610fab565b820191906000526020600020905b815481529060010190602001808311610f8e57829003601f168201915b5050505050905090565b610fc7610fc06112c0565b8383611bd5565b5050565b610fd3611d44565b3373ffffffffffffffffffffffffffffffffffffffff16610ff386610bdf565b73ffffffffffffffffffffffffffffffffffffffff1614611049576040517f08c379a000000000000000000000000000000000000000000000000000000000815260040161104090613d5b565b60405180910390fd5b6110568585858585611dd6565b5050505050565b600a5481565b61106e848484610701565b61107a84848484611e98565b50505050565b606061108b826111fb565b50600061109661204f565b905060008151116110b657604051806020016040528060008152506110e1565b806110c084612066565b6040516020016110d1929190613db7565b6040516020818303038152906040525b915050919050565b6000600560008473ffffffffffffffffffffffffffffffffffffffff1673ffffffffffffffffffffffffffffffffffffffff16815260200190815260200160002060008373ffffffffffffffffffffffffffffffffffffffff1673ffffffffffffffffffffffffffffffffffffffff16815260200190815260200160002060009054906101000a900460ff16905092915050565b611185611d44565b61118e81612134565b50565b60007f01ffc9a7000000000000000000000000000000000000000000000000000000007bffffffffffffffffffffffffffffffffffffffffffffffffffffffff1916827bffffffffffffffffffffffffffffffffffffffffffffffffffffffff1916149050919050565b60008061120783612262565b9050600073ffffffffffffffffffffffffffffffffffffffff168173ffffffffffffffffffffffffffffffffffffffff160361127a57826040517f7e2732890000000000000000000000000000000000000000000000000000000081526004016112719190613637565b60405180910390fd5b80915050919050565b60006004600083815260200190815260200160002060009054906101000a900473ffffffffffffffffffffffffffffffffffffffff169050919050565b600033905090565b6112d5838383600161229f565b505050565b82600a541461132057826040517fd068bf5b0000000000000000000000000000000000000000000000000000000081526004016113179190613945565b60405180910390fd5b81600b908161132f9190613f87565b5080600c908161133f9190613f87565b50827ff0f413c077269966d7e2dabc8eb21ba825fef41a93078a6ae69923b9c718f444600b600c6040516113749291906140dd565b60405180910390a2600080600080858060200190518101906113969190614184565b9350935093509350600060016008546113af919061428a565b90506113bb3382612464565b600860008154809291906113ce906142be565b91905055506113e08186868686611dd6565b5050505050505050565b6000806113f684612262565b9050600073ffffffffffffffffffffffffffffffffffffffff168373ffffffffffffffffffffffffffffffffffffffff161461143857611437818486612482565b5b600073ffffffffffffffffffffffffffffffffffffffff168173ffffffffffffffffffffffffffffffffffffffff16146114c95761147a60008560008061229f565b6001600360008373ffffffffffffffffffffffffffffffffffffffff1673ffffffffffffffffffffffffffffffffffffffff168152602001908152602001600020600082825403925050819055505b600073ffffffffffffffffffffffffffffffffffffffff168573ffffffffffffffffffffffffffffffffffffffff161461154c576001600360008773ffffffffffffffffffffffffffffffffffffffff1673ffffffffffffffffffffffffffffffffffffffff168152602001908152602001600020600082825401925050819055505b846002600086815260200190815260200160002060006101000a81548173ffffffffffffffffffffffffffffffffffffffff021916908373ffffffffffffffffffffffffffffffffffffffff160217905550838573ffffffffffffffffffffffffffffffffffffffff168273ffffffffffffffffffffffffffffffffffffffff167fddf252ad1be2c89b69c2b068fc378daa952ba7f163c4a11628f55a4df523b3ef60405160405180910390a4809150509392505050565b6116118260008084612546565b5050565b6000815103611650576040517fe889636f00000000000000000000000000000000000000000000000000000000815260040160405180910390fd5b60018260200190600281111561166957611668614306565b5b9081600281111561167d5761167c614306565b5b815250508082608001819052505050565b60008151036116c9576040517ffe936cb700000000000000000000000000000000000000000000000000000000815260040160405180910390fd5b808260a001819052505050565b606060006116e56101006125f0565b905061172f6040518060400160405280600c81526020017f636f64654c6f636174696f6e00000000000000000000000000000000000000008152508261261790919063ffffffff16565b6117588360000151600281111561174957611748614306565b5b8261264090919063ffffffff16565b6117a06040518060400160405280600881526020017f6c616e67756167650000000000000000000000000000000000000000000000008152508261261790919063ffffffff16565b6117c9836040015160008111156117ba576117b9614306565b5b8261264090919063ffffffff16565b6118116040518060400160405280600681526020017f736f7572636500000000000000000000000000000000000000000000000000008152508261261790919063ffffffff16565b61182883606001518261261790919063ffffffff16565b60008360a001515111156118e45761187e6040518060400160405280600481526020017f61726773000000000000000000000000000000000000000000000000000000008152508261261790919063ffffffff16565b61188781612690565b60005b8360a00151518110156118d9576118c88460a0015182815181106118b1576118b0614335565b5b60200260200101518361261790919063ffffffff16565b806118d2906142be565b905061188a565b506118e3816126b8565b5b60008360800151511115611a25576000600281111561190657611905614306565b5b8360200151600281111561191d5761191c614306565b5b03611954576040517fa80d31f700000000000000000000000000000000000000000000000000000000815260040160405180910390fd5b61199c6040518060400160405280600f81526020017f736563726574734c6f636174696f6e00000000000000000000000000000000008152508261261790919063ffffffff16565b6119c5836020015160028111156119b6576119b5614306565b5b8261264090919063ffffffff16565b611a0d6040518060400160405280600781526020017f73656372657473000000000000000000000000000000000000000000000000008152508261261790919063ffffffff16565b611a248360800151826126e090919063ffffffff16565b5b60008360c00151511115611ae157611a7b6040518060400160405280600981526020017f62797465734172677300000000000000000000000000000000000000000000008152508261261790919063ffffffff16565b611a8481612690565b60005b8360c0015151811015611ad657611ac58460c001518281518110611aae57611aad614335565b5b6020026020010151836126e090919063ffffffff16565b80611acf906142be565b9050611a87565b50611ae0816126b8565b5b806000015160000151915050919050565b6000807f000000000000000000000000000000000000000000000000000000000000000073ffffffffffffffffffffffffffffffffffffffff1663461d27628688600188886040518663ffffffff1660e01b8152600401611b5795949392919061439f565b6020604051808303816000875af1158015611b76573d6000803e3d6000fd5b505050506040513d601f19601f82011682018060405250810190611b9a919061440e565b9050807f1131472297a800fee664d1d89cfa8f7676ff07189ecc53f80bbb5f4969099db860405160405180910390a280915050949350505050565b600073ffffffffffffffffffffffffffffffffffffffff168273ffffffffffffffffffffffffffffffffffffffff1603611c4657816040517f5b08ba18000000000000000000000000000000000000000000000000000000008152600401611c3d919061319b565b60405180910390fd5b80600560008573ffffffffffffffffffffffffffffffffffffffff1673ffffffffffffffffffffffffffffffffffffffff16815260200190815260200160002060008473ffffffffffffffffffffffffffffffffffffffff1673ffffffffffffffffffffffffffffffffffffffff16815260200190815260200160002060006101000a81548160ff0219169083151502179055508173ffffffffffffffffffffffffffffffffffffffff168373ffffffffffffffffffffffffffffffffffffffff167f17307eab39ab6107e8899845ad3d59bd9653f200f220920489ca2b5937696c3183604051611d37919061302a565b60405180910390a3505050565b600660019054906101000a900473ffffffffffffffffffffffffffffffffffffffff1673ffffffffffffffffffffffffffffffffffffffff163373ffffffffffffffffffffffffffffffffffffffff1614611dd4576040517f08c379a0000000000000000000000000000000000000000000000000000000008152600401611dcb90614487565b60405180910390fd5b565b600060096000878152602001908152602001600020905083816000019081611dfe9190614502565b5084816002019081611e109190614502565b5082816001019081611e229190614502565b5081816003019081611e349190614502565b504281600501819055506000816004015403611e54574281600401819055505b857f2f3899d70b9a27dd00cd1d0b1cfcb427258a4aa0f1ba5873847546f4327d26a1858585604051611e88939291906145d4565b60405180910390a2505050505050565b60008373ffffffffffffffffffffffffffffffffffffffff163b1115612049578273ffffffffffffffffffffffffffffffffffffffff1663150b7a02611edc6112c0565b8685856040518563ffffffff1660e01b8152600401611efe9493929190614620565b6020604051808303816000875af1925050508015611f3a57506040513d601f19601f82011682018060405250810190611f379190614681565b60015b611fbe573d8060008114611f6a576040519150601f19603f3d011682016040523d82523d6000602084013e611f6f565b606091505b506000815103611fb657836040517f64a0ae92000000000000000000000000000000000000000000000000000000008152600401611fad919061319b565b60405180910390fd5b805181602001fd5b63150b7a0260e01b7bffffffffffffffffffffffffffffffffffffffffffffffffffffffff1916817bffffffffffffffffffffffffffffffffffffffffffffffffffffffff19161461204757836040517f64a0ae9200000000000000000000000000000000000000000000000000000000815260040161203e919061319b565b60405180910390fd5b505b50505050565b606060405180602001604052806000815250905090565b60606000600161207584612709565b01905060008167ffffffffffffffff81111561209457612093613262565b5b6040519080825280601f01601f1916602001820160405280156120c65781602001600182028036833780820191505090505b509050600082602001820190505b600115612129578080600190039150507f3031323334353637383961626364656600000000000000000000000000000000600a86061a8153600a858161211d5761211c6146ae565b5b049450600085036120d4575b819350505050919050565b3373ffffffffffffffffffffffffffffffffffffffff168173ffffffffffffffffffffffffffffffffffffffff16036121a2576040517f08c379a000000000000000000000000000000000000000000000000000000000815260040161219990614729565b60405180910390fd5b80600760006101000a81548173ffffffffffffffffffffffffffffffffffffffff021916908373ffffffffffffffffffffffffffffffffffffffff1602179055508073ffffffffffffffffffffffffffffffffffffffff16600660019054906101000a900473ffffffffffffffffffffffffffffffffffffffff1673ffffffffffffffffffffffffffffffffffffffff167fed8889f560326eb138920d842192f0eb3dd22b4f139c87a2c57538e05bae127860405160405180910390a350565b60006002600083815260200190815260200160002060009054906101000a900473ffffffffffffffffffffffffffffffffffffffff169050919050565b80806122d85750600073ffffffffffffffffffffffffffffffffffffffff168273ffffffffffffffffffffffffffffffffffffffff1614155b1561240c5760006122e8846111fb565b9050600073ffffffffffffffffffffffffffffffffffffffff168373ffffffffffffffffffffffffffffffffffffffff161415801561235357508273ffffffffffffffffffffffffffffffffffffffff168173ffffffffffffffffffffffffffffffffffffffff1614155b8015612366575061236481846110e9565b155b156123a857826040517fa9fbf51f00000000000000000000000000000000000000000000000000000000815260040161239f919061319b565b60405180910390fd5b811561240a57838573ffffffffffffffffffffffffffffffffffffffff168273ffffffffffffffffffffffffffffffffffffffff167f8c5be1e5ebec7d5bd14f71427d1e84f3dd0314c0f7b2291e5b200ac8c7c3b92560405160405180910390a45b505b836004600085815260200190815260200160002060006101000a81548173ffffffffffffffffffffffffffffffffffffffff021916908373ffffffffffffffffffffffffffffffffffffffff16021790555050505050565b61247e82826040518060200160405280600081525061285c565b5050565b61248d838383612878565b61254157600073ffffffffffffffffffffffffffffffffffffffff168373ffffffffffffffffffffffffffffffffffffffff160361250257806040517f7e2732890000000000000000000000000000000000000000000000000000000081526004016124f99190613637565b60405180910390fd5b81816040517f177e802f000000000000000000000000000000000000000000000000000000008152600401612538929190614749565b60405180910390fd5b505050565b6000815103612581576040517f22ce3edd00000000000000000000000000000000000000000000000000000000815260040160405180910390fd5b828460000190600281111561259957612598614306565b5b908160028111156125ad576125ac614306565b5b8152505081846040019060008111156125c9576125c8614306565b5b908160008111156125dd576125dc614306565b5b8152505080846060018190525050505050565b6125f8612f3c565b612606816000015183612939565b506000816020018181525050919050565b61262482600383516129b2565b61263b818360000151612b5b90919063ffffffff16565b505050565b61266260026005600660ff16901b178360000151612b7790919063ffffffff16565b5061268c82826040516020016126789190613637565b6040516020818303038152906040526126e0565b5050565b61269b816004612be1565b6001816020018181516126ae919061428a565b9150818152505050565b6126c3816007612be1565b6001816020018181516126d69190614772565b9150818152505050565b6126ed82600283516129b2565b612704818360000151612b5b90919063ffffffff16565b505050565b600080600090507a184f03e93ff9f4daa797ed6e38ed64bf6a1f0100000000000000008310612767577a184f03e93ff9f4daa797ed6e38ed64bf6a1f010000000000000000838161275d5761275c6146ae565b5b0492506040810190505b6d04ee2d6d415b85acef810000000083106127a4576d04ee2d6d415b85acef8100000000838161279a576127996146ae565b5b0492506020810190505b662386f26fc1000083106127d357662386f26fc1000083816127c9576127c86146ae565b5b0492506010810190505b6305f5e10083106127fc576305f5e10083816127f2576127f16146ae565b5b0492506008810190505b6127108310612821576127108381612817576128166146ae565b5b0492506004810190505b60648310612844576064838161283a576128396146ae565b5b0492506002810190505b600a8310612853576001810190505b80915050919050565b6128668383612c07565b6128736000848484611e98565b505050565b60008073ffffffffffffffffffffffffffffffffffffffff168373ffffffffffffffffffffffffffffffffffffffff161415801561293057508273ffffffffffffffffffffffffffffffffffffffff168473ffffffffffffffffffffffffffffffffffffffff1614806128f157506128f084846110e9565b5b8061292f57508273ffffffffffffffffffffffffffffffffffffffff1661291783611283565b73ffffffffffffffffffffffffffffffffffffffff16145b5b90509392505050565b612941612f5c565b600060208361295091906147a6565b1461297c5760208261296291906147a6565b602061296e9190614772565b82612979919061428a565b91505b8183602001818152505060405180845260008152828101602001818110156129a357600080fd5b80604052505082905092915050565b60178167ffffffffffffffff16116129ed576129e78160058460ff16901b60ff16178460000151612b7790919063ffffffff16565b50612b56565b60ff8167ffffffffffffffff1611612a4b57612a20601860058460ff16901b178460000151612b7790919063ffffffff16565b50612a458167ffffffffffffffff1660018560000151612d009092919063ffffffff16565b50612b55565b61ffff8167ffffffffffffffff1611612aaa57612a7f601960058460ff16901b178460000151612b7790919063ffffffff16565b50612aa48167ffffffffffffffff1660028560000151612d009092919063ffffffff16565b50612b54565b63ffffffff8167ffffffffffffffff1611612b0b57612ae0601a60058460ff16901b178460000151612b7790919063ffffffff16565b50612b058167ffffffffffffffff1660048560000151612d009092919063ffffffff16565b50612b53565b612b2c601b60058460ff16901b178460000151612b7790919063ffffffff16565b50612b518167ffffffffffffffff1660088560000151612d009092919063ffffffff16565b505b5b5b5b505050565b612b63612f5c565b612b6f83838451612d8d565b905092915050565b612b7f612f5c565b600083600001515190506000600182612b98919061428a565b905084602001518210612bbc57612bbb85600283612bb691906147d7565b612e70565b5b84516020838201018581538151831115612bd4578282525b5050849250505092915050565b612c02601f60058360ff16901b178360000151612b7790919063ffffffff16565b505050565b600073ffffffffffffffffffffffffffffffffffffffff168273ffffffffffffffffffffffffffffffffffffffff1603612c795760006040517f64a0ae92000000000000000000000000000000000000000000000000000000008152600401612c70919061319b565b60405180910390fd5b6000612c87838360006113ea565b9050600073ffffffffffffffffffffffffffffffffffffffff168173ffffffffffffffffffffffffffffffffffffffff1614612cfb5760006040517f73c6ac6e000000000000000000000000000000000000000000000000000000008152600401612cf2919061319b565b60405180910390fd5b505050565b612d08612f5c565b6000846000015151905060008184612d20919061428a565b90508560200151811115612d4557612d4486600283612d3f91906147d7565b612e70565b5b6000600185610100612d57919061494c565b612d619190614772565b905086518281018783198251161781528151841115612d7e578382525b50508693505050509392505050565b612d95612f5c565b8251821115612da357600080fd5b6000846000015151905060008382612dbb919061428a565b90508560200151811115612de057612ddf86600283612dda91906147d7565b612e70565b5b60008087518051856020830101935080851115612dfb578482525b60208901925050505b60208610612e425780518252602082612e1d919061428a565b9150602081612e2c919061428a565b9050602086612e3b9190614772565b9550612e04565b60006001876020036101000a0390508019825116818451168181178552505050879450505050509392505050565b600082600001519050612e838383612939565b50612e8e8382612b5b565b50505050565b6040518060c001604052806060815260200160608152602001606081526020016060815260200160008152602001600081525090565b6040518060e0016040528060006002811115612ee957612ee8614306565b5b815260200160006002811115612f0257612f01614306565b5b8152602001600080811115612f1a57612f19614306565b5b8152602001606081526020016060815260200160608152602001606081525090565b6040518060400160405280612f4f612f5c565b8152602001600081525090565b604051806040016040528060608152602001600081525090565b6000604051905090565b600080fd5b600080fd5b60007fffffffff0000000000000000000000000000000000000000000000000000000082169050919050565b612fbf81612f8a565b8114612fca57600080fd5b50565b600081359050612fdc81612fb6565b92915050565b600060208284031215612ff857612ff7612f80565b5b600061300684828501612fcd565b91505092915050565b60008115159050919050565b6130248161300f565b82525050565b600060208201905061303f600083018461301b565b92915050565b600081519050919050565b600082825260208201905092915050565b60005b8381101561307f578082015181840152602081019050613064565b60008484015250505050565b6000601f19601f8301169050919050565b60006130a782613045565b6130b18185613050565b93506130c1818560208601613061565b6130ca8161308b565b840191505092915050565b600060208201905081810360008301526130ef818461309c565b905092915050565b6000819050919050565b61310a816130f7565b811461311557600080fd5b50565b60008135905061312781613101565b92915050565b60006020828403121561314357613142612f80565b5b600061315184828501613118565b91505092915050565b600073ffffffffffffffffffffffffffffffffffffffff82169050919050565b60006131858261315a565b9050919050565b6131958161317a565b82525050565b60006020820190506131b0600083018461318c565b92915050565b6131bf8161317a565b81146131ca57600080fd5b50565b6000813590506131dc816131b6565b92915050565b600080604083850312156131f9576131f8612f80565b5b6000613207858286016131cd565b925050602061321885828601613118565b9150509250929050565b6000819050919050565b61323581613222565b811461324057600080fd5b50565b6000813590506132528161322c565b92915050565b600080fd5b600080fd5b7f4e487b7100000000000000000000000000000000000000000000000000000000600052604160045260246000fd5b61329a8261308b565b810181811067ffffffffffffffff821117156132b9576132b8613262565b5b80604052505050565b60006132cc612f76565b90506132d88282613291565b919050565b600067ffffffffffffffff8211156132f8576132f7613262565b5b6133018261308b565b9050602081019050919050565b82818337600083830152505050565b600061333061332b846132dd565b6132c2565b90508281526020810184848401111561334c5761334b61325d565b5b61335784828561330e565b509392505050565b600082601f83011261337457613373613258565b5b813561338484826020860161331d565b91505092915050565b6000806000606084860312156133a6576133a5612f80565b5b60006133b486828701613243565b935050602084013567ffffffffffffffff8111156133d5576133d4612f85565b5b6133e18682870161335f565b925050604084013567ffffffffffffffff81111561340257613401612f85565b5b61340e8682870161335f565b9150509250925092565b60008060006060848603121561343157613430612f80565b5b600061343f868287016131cd565b9350506020613450868287016131cd565b925050604061346186828701613118565b9150509250925092565b600081519050919050565b600082825260208201905092915050565b60006134928261346b565b61349c8185613476565b93506134ac818560208601613061565b6134b58161308b565b840191505092915050565b600060208201905081810360008301526134da8184613487565b905092915050565b600082825260208201905092915050565b60006134fe82613045565b61350881856134e2565b9350613518818560208601613061565b6135218161308b565b840191505092915050565b613535816130f7565b82525050565b600060c083016000830151848203600086015261355882826134f3565b9150506020830151848203602086015261357282826134f3565b9150506040830151848203604086015261358c82826134f3565b915050606083015184820360608601526135a682826134f3565b91505060808301516135bb608086018261352c565b5060a08301516135ce60a086018261352c565b508091505092915050565b600060208201905081810360008301526135f3818461353b565b905092915050565b60006020828403121561361157613610612f80565b5b600061361f848285016131cd565b91505092915050565b613631816130f7565b82525050565b600060208201905061364c6000830184613628565b92915050565b600067ffffffffffffffff82111561366d5761366c613262565b5b6136768261308b565b9050602081019050919050565b600061369661369184613652565b6132c2565b9050828152602081018484840111156136b2576136b161325d565b5b6136bd84828561330e565b509392505050565b600082601f8301126136da576136d9613258565b5b81356136ea848260208601613683565b91505092915050565b600067ffffffffffffffff82111561370e5761370d613262565b5b602082029050602081019050919050565b600080fd5b6000613737613732846136f3565b6132c2565b9050808382526020820190506020840283018581111561375a5761375961371f565b5b835b818110156137a157803567ffffffffffffffff81111561377f5761377e613258565b5b80860161378c89826136c5565b8552602085019450505060208101905061375c565b5050509392505050565b600082601f8301126137c0576137bf613258565b5b81356137d0848260208601613724565b91505092915050565b600067ffffffffffffffff82169050919050565b6137f6816137d9565b811461380157600080fd5b50565b600081359050613813816137ed565b92915050565b600063ffffffff82169050919050565b61383281613819565b811461383d57600080fd5b50565b60008135905061384f81613829565b92915050565b60008060008060008060c0878903121561387257613871612f80565b5b600087013567ffffffffffffffff8111156138905761388f612f85565b5b61389c89828a016136c5565b965050602087013567ffffffffffffffff8111156138bd576138bc612f85565b5b6138c989828a0161335f565b955050604087013567ffffffffffffffff8111156138ea576138e9612f85565b5b6138f689828a016137ab565b945050606061390789828a01613804565b935050608061391889828a01613840565b92505060a061392989828a01613243565b9150509295509295509295565b61393f81613222565b82525050565b600060208201905061395a6000830184613936565b92915050565b6139698161300f565b811461397457600080fd5b50565b60008135905061398681613960565b92915050565b600080604083850312156139a3576139a2612f80565b5b60006139b1858286016131cd565b92505060206139c285828601613977565b9150509250929050565b600080600080600060a086880312156139e8576139e7612f80565b5b60006139f688828901613118565b955050602086013567ffffffffffffffff811115613a1757613a16612f85565b5b613a23888289016136c5565b945050604086013567ffffffffffffffff811115613a4457613a43612f85565b5b613a50888289016136c5565b935050606086013567ffffffffffffffff811115613a7157613a70612f85565b5b613a7d888289016136c5565b925050608086013567ffffffffffffffff811115613a9e57613a9d612f85565b5b613aaa888289016136c5565b9150509295509295909350565b60008060008060808587031215613ad157613ad0612f80565b5b6000613adf878288016131cd565b9450506020613af0878288016131cd565b9350506040613b0187828801613118565b925050606085013567ffffffffffffffff811115613b2257613b21612f85565b5b613b2e8782880161335f565b91505092959194509250565b60008060408385031215613b5157613b50612f80565b5b6000613b5f858286016131cd565b9250506020613b70858286016131cd565b9150509250929050565b7f4e487b7100000000000000000000000000000000000000000000000000000000600052602260045260246000fd5b60006002820490506001821680613bc157607f821691505b602082108103613bd457613bd3613b7a565b5b50919050565b6000606082019050613bef600083018661318c565b613bfc6020830185613628565b613c09604083018461318c565b949350505050565b7f4d7573742062652070726f706f736564206f776e657200000000000000000000600082015250565b6000613c47601683613050565b9150613c5282613c11565b602082019050919050565b60006020820190508181036000830152613c7681613c3a565b9050919050565b7f4164647265737320616c7265616479206f776e7320616e204e46540000000000600082015250565b6000613cb3601b83613050565b9150613cbe82613c7d565b602082019050919050565b60006020820190508181036000830152613ce281613ca6565b9050919050565b7f4f6e6c7920746f6b656e206f776e65722063616e20757064617465206d65746160008201527f6461746100000000000000000000000000000000000000000000000000000000602082015250565b6000613d45602483613050565b9150613d5082613ce9565b604082019050919050565b60006020820190508181036000830152613d7481613d38565b9050919050565b600081905092915050565b6000613d9182613045565b613d9b8185613d7b565b9350613dab818560208601613061565b80840191505092915050565b6000613dc38285613d86565b9150613dcf8284613d86565b91508190509392505050565b60008190508160005260206000209050919050565b60006020601f8301049050919050565b600082821b905092915050565b600060088302613e3d7fffffffffffffffffffffffffffffffffffffffffffffffffffffffffffffffff82613e00565b613e478683613e00565b95508019841693508086168417925050509392505050565b6000819050919050565b6000613e84613e7f613e7a846130f7565b613e5f565b6130f7565b9050919050565b6000819050919050565b613e9e83613e69565b613eb2613eaa82613e8b565b848454613e0d565b825550505050565b600090565b613ec7613eba565b613ed2818484613e95565b505050565b5b81811015613ef657613eeb600082613ebf565b600181019050613ed8565b5050565b601f821115613f3b57613f0c81613ddb565b613f1584613df0565b81016020851015613f24578190505b613f38613f3085613df0565b830182613ed7565b50505b505050565b600082821c905092915050565b6000613f5e60001984600802613f40565b1980831691505092915050565b6000613f778383613f4d565b9150826002028217905092915050565b613f908261346b565b67ffffffffffffffff811115613fa957613fa8613262565b5b613fb38254613ba9565b613fbe828285613efa565b600060209050601f831160018114613ff15760008415613fdf578287015190505b613fe98582613f6b565b865550614051565b601f198416613fff86613ddb565b60005b8281101561402757848901518255600182019150602085019450602081019050614002565b868310156140445784890151614040601f891682613f4d565b8355505b6001600288020188555050505b505050505050565b6000815461406681613ba9565b6140708186613476565b9450600182166000811461408b57600181146140a1576140d4565b60ff1983168652811515602002860193506140d4565b6140aa85613ddb565b60005b838110156140cc578154818901526001820191506020810190506140ad565b808801955050505b50505092915050565b600060408201905081810360008301526140f78185614059565b9050818103602083015261410b8184614059565b90509392505050565b600061412761412284613652565b6132c2565b9050828152602081018484840111156141435761414261325d565b5b61414e848285613061565b509392505050565b600082601f83011261416b5761416a613258565b5b815161417b848260208601614114565b91505092915050565b6000806000806080858703121561419e5761419d612f80565b5b600085015167ffffffffffffffff8111156141bc576141bb612f85565b5b6141c887828801614156565b945050602085015167ffffffffffffffff8111156141e9576141e8612f85565b5b6141f587828801614156565b935050604085015167ffffffffffffffff81111561421657614215612f85565b5b61422287828801614156565b925050606085015167ffffffffffffffff81111561424357614242612f85565b5b61424f87828801614156565b91505092959194509250565b7f4e487b7100000000000000000000000000000000000000000000000000000000600052601160045260246000fd5b6000614295826130f7565b91506142a0836130f7565b92508282019050808211156142b8576142b761425b565b5b92915050565b60006142c9826130f7565b91507fffffffffffffffffffffffffffffffffffffffffffffffffffffffffffffffff82036142fb576142fa61425b565b5b600182019050919050565b7f4e487b7100000000000000000000000000000000000000000000000000000000600052602160045260246000fd5b7f4e487b7100000000000000000000000000000000000000000000000000000000600052603260045260246000fd5b61436d816137d9565b82525050565b600061ffff82169050919050565b61438a81614373565b82525050565b61439981613819565b82525050565b600060a0820190506143b46000830188614364565b81810360208301526143c68187613487565b90506143d56040830186614381565b6143e26060830185614390565b6143ef6080830184613936565b9695505050505050565b6000815190506144088161322c565b92915050565b60006020828403121561442457614423612f80565b5b6000614432848285016143f9565b91505092915050565b7f4f6e6c792063616c6c61626c65206279206f776e657200000000000000000000600082015250565b6000614471601683613050565b915061447c8261443b565b602082019050919050565b600060208201905081810360008301526144a081614464565b9050919050565b60008190508160005260206000209050919050565b601f8211156144fd576144ce816144a7565b6144d784613df0565b810160208510156144e6578190505b6144fa6144f285613df0565b830182613ed7565b50505b505050565b61450b82613045565b67ffffffffffffffff81111561452457614523613262565b5b61452e8254613ba9565b6145398282856144bc565b600060209050601f83116001811461456c576000841561455a578287015190505b6145648582613f6b565b8655506145cc565b601f19841661457a866144a7565b60005b828110156145a25784890151825560018201915060208501945060208101905061457d565b868310156145bf57848901516145bb601f891682613f4d565b8355505b6001600288020188555050505b505050505050565b600060608201905081810360008301526145ee818661309c565b90508181036020830152614602818561309c565b90508181036040830152614616818461309c565b9050949350505050565b6000608082019050614635600083018761318c565b614642602083018661318c565b61464f6040830185613628565b81810360608301526146618184613487565b905095945050505050565b60008151905061467b81612fb6565b92915050565b60006020828403121561469757614696612f80565b5b60006146a58482850161466c565b91505092915050565b7f4e487b7100000000000000000000000000000000000000000000000000000000600052601260045260246000fd5b7f43616e6e6f74207472616e7366657220746f2073656c66000000000000000000600082015250565b6000614713601783613050565b915061471e826146dd565b602082019050919050565b6000602082019050818103600083015261474281614706565b9050919050565b600060408201905061475e600083018561318c565b61476b6020830184613628565b9392505050565b600061477d826130f7565b9150614788836130f7565b92508282039050818111156147a05761479f61425b565b5b92915050565b60006147b1826130f7565b91506147bc836130f7565b9250826147cc576147cb6146ae565b5b828206905092915050565b60006147e2826130f7565b91506147ed836130f7565b92508282026147fb816130f7565b915082820484148315176148125761481161425b565b5b5092915050565b60008160011c9050919050565b6000808291508390505b60018511156148705780860481111561484c5761484b61425b565b5b600185161561485b5780820291505b808102905061486985614819565b9450614830565b94509492505050565b6000826148895760019050614945565b816148975760009050614945565b81600181146148ad57600281146148b7576148e6565b6001915050614945565b60ff8411156148c9576148c861425b565b5b8360020a9150848211156148e0576148df61425b565b5b50614945565b5060208310610133831016604e8410600b841016171561491b5782820a9050838111156149165761491561425b565b5b614945565b6149288484846001614826565b9250905081840481111561493f5761493e61425b565b5b81810290505b9392505050565b6000614957826130f7565b9150614962836130f7565b925061498f7fffffffffffffffffffffffffffffffffffffffffffffffffffffffffffffffff8484614879565b90509291505056fea2646970667358221220dca289295e821d65dde9c93d7034d85221ffe6906c228fff64551b68aae5f39f64736f6c63430008140033",
  "linkReferences": {},
  "deployedLinkReferences": {}
}