{
  "_format": "hh-sol-artifact-1",
  "contractName": "ProfileNFTContract",
  "sourceName": "contracts/ProfileNFTContract.sol",
  "abi": [
    {
      "inputs": [
        {
          "internalType": "address",
          "name": "router",
          "type": "address"
        }
      ],
      "stateMutability": "nonpayable",
      "type": "constructor"
    },
    {
      "inputs": [],
      "name": "ERC721EnumerableForbiddenBatchMint",
      "type": "error"
    },
    {
      "inputs": [
        {
          "internalType": "address",
          "name": "sender",
          "type": "address"
        },
        {
          "internalType": "uint256",
          "name": "tokenId",
          "type": "uint256"
        },
        {
          "internalType": "address",
          "name": "owner",
          "type": "address"
        }
      ],
      "name": "ERC721IncorrectOwner",
      "type": "error"
    },
    {
      "inputs": [
        {
          "internalType": "address",
          "name": "operator",
          "type": "address"
        },
        {
          "internalType": "uint256",
          "name": "tokenId",
          "type": "uint256"
        }
      ],
      "name": "ERC721InsufficientApproval",
      "type": "error"
    },
    {
      "inputs": [
        {
          "internalType": "address",
          "name": "approver",
          "type": "address"
        }
      ],
      "name": "ERC721InvalidApprover",
      "type": "error"
    },
    {
      "inputs": [
        {
          "internalType": "address",
          "name": "operator",
          "type": "address"
        }
      ],
      "name": "ERC721InvalidOperator",
      "type": "error"
    },
    {
      "inputs": [
        {
          "internalType": "address",
          "name": "owner",
          "type": "address"
        }
      ],
      "name": "ERC721InvalidOwner",
      "type": "error"
    },
    {
      "inputs": [
        {
          "internalType": "address",
          "name": "receiver",
          "type": "address"
        }
      ],
      "name": "ERC721InvalidReceiver",
      "type": "error"
    },
    {
      "inputs": [
        {
          "internalType": "address",
          "name": "sender",
          "type": "address"
        }
      ],
      "name": "ERC721InvalidSender",
      "type": "error"
    },
    {
      "inputs": [
        {
          "internalType": "uint256",
          "name": "tokenId",
          "type": "uint256"
        }
      ],
      "name": "ERC721NonexistentToken",
      "type": "error"
    },
    {
      "inputs": [
        {
          "internalType": "address",
          "name": "owner",
          "type": "address"
        },
        {
          "internalType": "uint256",
          "name": "index",
          "type": "uint256"
        }
      ],
      "name": "ERC721OutOfBoundsIndex",
      "type": "error"
    },
    {
      "inputs": [],
      "name": "EmptyArgs",
      "type": "error"
    },
    {
      "inputs": [],
      "name": "EmptySecrets",
      "type": "error"
    },
    {
      "inputs": [],
      "name": "EmptySource",
      "type": "error"
    },
    {
      "inputs": [],
      "name": "EnforcedPause",
      "type": "error"
    },
    {
      "inputs": [],
      "name": "ExpectedPause",
      "type": "error"
    },
    {
      "inputs": [],
      "name": "NoInlineSecrets",
      "type": "error"
    },
    {
      "inputs": [],
      "name": "OnlyRouterCanFulfill",
      "type": "error"
    },
    {
      "inputs": [
        {
          "internalType": "bytes32",
          "name": "requestId",
          "type": "bytes32"
        }
      ],
      "name": "UnexpectedRequestID",
      "type": "error"
    },
    {
      "anonymous": false,
      "inputs": [
        {
          "indexed": true,
          "internalType": "address",
          "name": "owner",
          "type": "address"
        },
        {
          "indexed": true,
          "internalType": "address",
          "name": "approved",
          "type": "address"
        },
        {
          "indexed": true,
          "internalType": "uint256",
          "name": "tokenId",
          "type": "uint256"
        }
      ],
      "name": "Approval",
      "type": "event"
    },
    {
      "anonymous": false,
      "inputs": [
        {
          "indexed": true,
          "internalType": "address",
          "name": "owner",
          "type": "address"
        },
        {
          "indexed": true,
          "internalType": "address",
          "name": "operator",
          "type": "address"
        },
        {
          "indexed": false,
          "internalType": "bool",
          "name": "approved",
          "type": "bool"
        }
      ],
      "name": "ApprovalForAll",
      "type": "event"
    },
    {
      "anonymous": false,
      "inputs": [
        {
          "indexed": true,
          "internalType": "bytes32",
          "name": "requestId",
          "type": "bytes32"
        },
        {
          "indexed": false,
          "internalType": "bytes",
          "name": "response",
          "type": "bytes"
        },
        {
          "indexed": false,
          "internalType": "bytes",
          "name": "err",
          "type": "bytes"
        }
      ],
      "name": "FunctionsResponse",
      "type": "event"
    },
    {
      "anonymous": false,
      "inputs": [
        {
          "indexed": true,
          "internalType": "uint256",
          "name": "tokenId",
          "type": "uint256"
        },
        {
          "indexed": false,
          "internalType": "string",
          "name": "name",
          "type": "string"
        },
        {
          "indexed": false,
          "internalType": "string",
          "name": "description",
          "type": "string"
        },
        {
          "indexed": false,
          "internalType": "string",
          "name": "image",
          "type": "string"
        }
      ],
      "name": "MetadataUpdated",
      "type": "event"
    },
    {
      "anonymous": false,
      "inputs": [
        {
          "indexed": true,
          "internalType": "address",
          "name": "from",
          "type": "address"
        },
        {
          "indexed": true,
          "internalType": "address",
          "name": "to",
          "type": "address"
        }
      ],
      "name": "OwnershipTransferRequested",
      "type": "event"
    },
    {
      "anonymous": false,
      "inputs": [
        {
          "indexed": true,
          "internalType": "address",
          "name": "from",
          "type": "address"
        },
        {
          "indexed": true,
          "internalType": "address",
          "name": "to",
          "type": "address"
        }
      ],
      "name": "OwnershipTransferred",
      "type": "event"
    },
    {
      "anonymous": false,
      "inputs": [
        {
          "indexed": false,
          "internalType": "address",
          "name": "account",
          "type": "address"
        }
      ],
      "name": "Paused",
      "type": "event"
    },
    {
      "anonymous": false,
      "inputs": [
        {
          "indexed": true,
          "internalType": "bytes32",
          "name": "id",
          "type": "bytes32"
        }
      ],
      "name": "RequestFulfilled",
      "type": "event"
    },
    {
      "anonymous": false,
      "inputs": [
        {
          "indexed": false,
          "internalType": "bytes32",
          "name": "req1",
          "type": "bytes32"
        },
        {
          "indexed": false,
          "internalType": "bytes32",
          "name": "req2",
          "type": "bytes32"
        }
      ],
      "name": "RequestMismatch",
      "type": "event"
    },
    {
      "anonymous": false,
      "inputs": [
        {
          "indexed": true,
          "internalType": "bytes32",
          "name": "id",
          "type": "bytes32"
        }
      ],
      "name": "RequestSent",
      "type": "event"
    },
    {
      "anonymous": false,
      "inputs": [
        {
          "indexed": true,
          "internalType": "address",
          "name": "from",
          "type": "address"
        },
        {
          "indexed": true,
          "internalType": "address",
          "name": "to",
          "type": "address"
        },
        {
          "indexed": true,
          "internalType": "uint256",
          "name": "tokenId",
          "type": "uint256"
        }
      ],
      "name": "Transfer",
      "type": "event"
    },
    {
      "anonymous": false,
      "inputs": [
        {
          "indexed": false,
          "internalType": "address",
          "name": "account",
          "type": "address"
        }
      ],
      "name": "Unpaused",
      "type": "event"
    },
    {
      "inputs": [],
      "name": "acceptOwnership",
      "outputs": [],
      "stateMutability": "nonpayable",
      "type": "function"
    },
    {
      "inputs": [
        {
          "internalType": "address",
          "name": "to",
          "type": "address"
        },
        {
          "internalType": "uint256",
          "name": "tokenId",
          "type": "uint256"
        }
      ],
      "name": "approve",
      "outputs": [],
      "stateMutability": "nonpayable",
      "type": "function"
    },
    {
      "inputs": [
        {
          "internalType": "address",
          "name": "owner",
          "type": "address"
        }
      ],
      "name": "balanceOf",
      "outputs": [
        {
          "internalType": "uint256",
          "name": "",
          "type": "uint256"
        }
      ],
      "stateMutability": "view",
      "type": "function"
    },
    {
      "inputs": [
        {
          "internalType": "uint256",
          "name": "tokenId",
          "type": "uint256"
        }
      ],
      "name": "getApproved",
      "outputs": [
        {
          "internalType": "address",
          "name": "",
          "type": "address"
        }
      ],
      "stateMutability": "view",
      "type": "function"
    },
    {
      "inputs": [
        {
          "internalType": "uint256",
          "name": "tokenId",
          "type": "uint256"
        }
      ],
      "name": "getTokenMetadata",
      "outputs": [
        {
          "components": [
            {
              "internalType": "string",
              "name": "name",
              "type": "string"
            },
            {
              "internalType": "string",
              "name": "description",
              "type": "string"
            },
            {
              "internalType": "string",
              "name": "imageCID",
              "type": "string"
            },
            {
              "internalType": "string",
              "name": "tokenURI",
              "type": "string"
            },
            {
              "internalType": "uint256",
              "name": "createdAt",
              "type": "uint256"
            },
            {
              "internalType": "uint256",
              "name": "updatedAt",
              "type": "uint256"
            }
          ],
          "internalType": "struct ProfileNFTContract.NFTMetadata",
          "name": "",
          "type": "tuple"
        }
      ],
      "stateMutability": "view",
      "type": "function"
    },
    {
      "inputs": [
        {
          "internalType": "bytes32",
          "name": "requestId",
          "type": "bytes32"
        },
        {
          "internalType": "bytes",
          "name": "response",
          "type": "bytes"
        },
        {
          "internalType": "bytes",
          "name": "err",
          "type": "bytes"
        }
      ],
      "name": "handleOracleFulfillment",
      "outputs": [],
      "stateMutability": "nonpayable",
      "type": "function"
    },
    {
      "inputs": [
        {
          "internalType": "address",
          "name": "owner",
          "type": "address"
        },
        {
          "internalType": "address",
          "name": "operator",
          "type": "address"
        }
      ],
      "name": "isApprovedForAll",
      "outputs": [
        {
          "internalType": "bool",
          "name": "",
          "type": "bool"
        }
      ],
      "stateMutability": "view",
      "type": "function"
    },
    {
      "inputs": [
        {
          "internalType": "string",
          "name": "source",
          "type": "string"
        },
        {
          "internalType": "bytes",
          "name": "encryptedSecretsUrl",
          "type": "bytes"
        },
        {
          "internalType": "string[]",
          "name": "args",
          "type": "string[]"
        },
        {
          "internalType": "uint64",
          "name": "subscriptionId",
          "type": "uint64"
        }
      ],
      "name": "mintRequest",
      "outputs": [
        {
          "internalType": "bytes32",
          "name": "requestId",
          "type": "bytes32"
        }
      ],
      "stateMutability": "nonpayable",
      "type": "function"
    },
    {
      "inputs": [],
      "name": "name",
      "outputs": [
        {
          "internalType": "string",
          "name": "",
          "type": "string"
        }
      ],
      "stateMutability": "view",
      "type": "function"
    },
    {
      "inputs": [],
      "name": "owner",
      "outputs": [
        {
          "internalType": "address",
          "name": "",
          "type": "address"
        }
      ],
      "stateMutability": "view",
      "type": "function"
    },
    {
      "inputs": [
        {
          "internalType": "uint256",
          "name": "tokenId",
          "type": "uint256"
        }
      ],
      "name": "ownerOf",
      "outputs": [
        {
          "internalType": "address",
          "name": "",
          "type": "address"
        }
      ],
      "stateMutability": "view",
      "type": "function"
    },
    {
      "inputs": [],
      "name": "paused",
      "outputs": [
        {
          "internalType": "bool",
          "name": "",
          "type": "bool"
        }
      ],
      "stateMutability": "view",
      "type": "function"
    },
    {
      "inputs": [],
      "name": "s_lastError",
      "outputs": [
        {
          "internalType": "bytes",
          "name": "",
          "type": "bytes"
        }
      ],
      "stateMutability": "view",
      "type": "function"
    },
    {
      "inputs": [],
      "name": "s_lastRequestId",
      "outputs": [
        {
          "internalType": "bytes32",
          "name": "",
          "type": "bytes32"
        }
      ],
      "stateMutability": "view",
      "type": "function"
    },
    {
      "inputs": [],
      "name": "s_lastResponse",
      "outputs": [
        {
          "internalType": "bytes",
          "name": "",
          "type": "bytes"
        }
      ],
      "stateMutability": "view",
      "type": "function"
    },
    {
      "inputs": [
        {
          "internalType": "address",
          "name": "from",
          "type": "address"
        },
        {
          "internalType": "address",
          "name": "to",
          "type": "address"
        },
        {
          "internalType": "uint256",
          "name": "tokenId",
          "type": "uint256"
        }
      ],
      "name": "safeTransferFrom",
      "outputs": [],
      "stateMutability": "nonpayable",
      "type": "function"
    },
    {
      "inputs": [
        {
          "internalType": "address",
          "name": "from",
          "type": "address"
        },
        {
          "internalType": "address",
          "name": "to",
          "type": "address"
        },
        {
          "internalType": "uint256",
          "name": "tokenId",
          "type": "uint256"
        },
        {
          "internalType": "bytes",
          "name": "data",
          "type": "bytes"
        }
      ],
      "name": "safeTransferFrom",
      "outputs": [],
      "stateMutability": "nonpayable",
      "type": "function"
    },
    {
      "inputs": [
        {
          "internalType": "address",
          "name": "operator",
          "type": "address"
        },
        {
          "internalType": "bool",
          "name": "approved",
          "type": "bool"
        }
      ],
      "name": "setApprovalForAll",
      "outputs": [],
      "stateMutability": "nonpayable",
      "type": "function"
    },
    {
      "inputs": [
        {
          "internalType": "bytes4",
          "name": "interfaceId",
          "type": "bytes4"
        }
      ],
      "name": "supportsInterface",
      "outputs": [
        {
          "internalType": "bool",
          "name": "",
          "type": "bool"
        }
      ],
      "stateMutability": "view",
      "type": "function"
    },
    {
      "inputs": [],
      "name": "symbol",
      "outputs": [
        {
          "internalType": "string",
          "name": "",
          "type": "string"
        }
      ],
      "stateMutability": "view",
      "type": "function"
    },
    {
      "inputs": [
        {
          "internalType": "uint256",
          "name": "index",
          "type": "uint256"
        }
      ],
      "name": "tokenByIndex",
      "outputs": [
        {
          "internalType": "uint256",
          "name": "",
          "type": "uint256"
        }
      ],
      "stateMutability": "view",
      "type": "function"
    },
    {
      "inputs": [
        {
          "internalType": "address",
          "name": "owner",
          "type": "address"
        },
        {
          "internalType": "uint256",
          "name": "index",
          "type": "uint256"
        }
      ],
      "name": "tokenOfOwnerByIndex",
      "outputs": [
        {
          "internalType": "uint256",
          "name": "",
          "type": "uint256"
        }
      ],
      "stateMutability": "view",
      "type": "function"
    },
    {
      "inputs": [
        {
          "internalType": "uint256",
          "name": "tokenId",
          "type": "uint256"
        }
      ],
      "name": "tokenURI",
      "outputs": [
        {
          "internalType": "string",
          "name": "",
          "type": "string"
        }
      ],
      "stateMutability": "view",
      "type": "function"
    },
    {
      "inputs": [],
      "name": "totalSupply",
      "outputs": [
        {
          "internalType": "uint256",
          "name": "",
          "type": "uint256"
        }
      ],
      "stateMutability": "view",
      "type": "function"
    },
    {
      "inputs": [
        {
          "internalType": "address",
          "name": "from",
          "type": "address"
        },
        {
          "internalType": "address",
          "name": "to",
          "type": "address"
        },
        {
          "internalType": "uint256",
          "name": "tokenId",
          "type": "uint256"
        }
      ],
      "name": "transferFrom",
      "outputs": [],
      "stateMutability": "nonpayable",
      "type": "function"
    },
    {
      "inputs": [
        {
          "internalType": "address",
          "name": "to",
          "type": "address"
        }
      ],
      "name": "transferOwnership",
      "outputs": [],
      "stateMutability": "nonpayable",
      "type": "function"
    },
    {
      "inputs": [
        {
          "internalType": "uint256",
          "name": "tokenId",
          "type": "uint256"
        },
        {
          "internalType": "string",
          "name": "cid",
          "type": "string"
        },
        {
          "internalType": "string",
          "name": "name",
          "type": "string"
        },
        {
          "internalType": "string",
          "name": "description",
          "type": "string"
        },
        {
          "internalType": "string",
          "name": "image",
          "type": "string"
        }
      ],
      "name": "updateTokenMetadata",
      "outputs": [],
      "stateMutability": "nonpayable",
      "type": "function"
    }
  ],
  "bytecode": "0x60a06040527f66756e2d6176616c616e6368652d66756a692d3100000000000000000000000060001b601155617530601260006101000a81548163ffffffff021916908363ffffffff1602179055503480156200005b57600080fd5b5060405162005aa638038062005aa6833981810160405281019062000081919062000407565b33806000836040518060400160405280600c81526020017f426574626c6f636b2042696f00000000000000000000000000000000000000008152506040518060400160405280600381526020017f42424200000000000000000000000000000000000000000000000000000000008152508160009081620001039190620006b3565b508060019081620001159190620006b3565b5050506000600a60006101000a81548160ff0219169083151502179055508073ffffffffffffffffffffffffffffffffffffffff1660808173ffffffffffffffffffffffffffffffffffffffff168152505050600073ffffffffffffffffffffffffffffffffffffffff168273ffffffffffffffffffffffffffffffffffffffff1603620001da576040517f08c379a0000000000000000000000000000000000000000000000000000000008152600401620001d190620007fb565b60405180910390fd5b81600a60016101000a81548173ffffffffffffffffffffffffffffffffffffffff021916908373ffffffffffffffffffffffffffffffffffffffff160217905550600073ffffffffffffffffffffffffffffffffffffffff168173ffffffffffffffffffffffffffffffffffffffff1614620002625762000261816200026c60201b60201c565b5b505050506200088f565b3373ffffffffffffffffffffffffffffffffffffffff168173ffffffffffffffffffffffffffffffffffffffff1603620002dd576040517f08c379a0000000000000000000000000000000000000000000000000000000008152600401620002d4906200086d565b60405180910390fd5b80600b60006101000a81548173ffffffffffffffffffffffffffffffffffffffff021916908373ffffffffffffffffffffffffffffffffffffffff1602179055508073ffffffffffffffffffffffffffffffffffffffff16600a60019054906101000a900473ffffffffffffffffffffffffffffffffffffffff1673ffffffffffffffffffffffffffffffffffffffff167fed8889f560326eb138920d842192f0eb3dd22b4f139c87a2c57538e05bae127860405160405180910390a350565b600080fd5b600073ffffffffffffffffffffffffffffffffffffffff82169050919050565b6000620003cf82620003a2565b9050919050565b620003e181620003c2565b8114620003ed57600080fd5b50565b6000815190506200040181620003d6565b92915050565b60006020828403121562000420576200041f6200039d565b5b60006200043084828501620003f0565b91505092915050565b600081519050919050565b7f4e487b7100000000000000000000000000000000000000000000000000000000600052604160045260246000fd5b7f4e487b7100000000000000000000000000000000000000000000000000000000600052602260045260246000fd5b60006002820490506001821680620004bb57607f821691505b602082108103620004d157620004d062000473565b5b50919050565b60008190508160005260206000209050919050565b60006020601f8301049050919050565b600082821b905092915050565b6000600883026200053b7fffffffffffffffffffffffffffffffffffffffffffffffffffffffffffffffff82620004fc565b620005478683620004fc565b95508019841693508086168417925050509392505050565b6000819050919050565b6000819050919050565b6000620005946200058e62000588846200055f565b62000569565b6200055f565b9050919050565b6000819050919050565b620005b08362000573565b620005c8620005bf826200059b565b84845462000509565b825550505050565b600090565b620005df620005d0565b620005ec818484620005a5565b505050565b5b81811015620006145762000608600082620005d5565b600181019050620005f2565b5050565b601f82111562000663576200062d81620004d7565b6200063884620004ec565b8101602085101562000648578190505b620006606200065785620004ec565b830182620005f1565b50505b505050565b600082821c905092915050565b6000620006886000198460080262000668565b1980831691505092915050565b6000620006a3838362000675565b9150826002028217905092915050565b620006be8262000439565b67ffffffffffffffff811115620006da57620006d962000444565b5b620006e68254620004a2565b620006f382828562000618565b600060209050601f8311600181146200072b576000841562000716578287015190505b62000722858262000695565b86555062000792565b601f1984166200073b86620004d7565b60005b8281101562000765578489015182556001820191506020850194506020810190506200073e565b8683101562000785578489015162000781601f89168262000675565b8355505b6001600288020188555050505b505050505050565b600082825260208201905092915050565b7f43616e6e6f7420736574206f776e657220746f207a65726f0000000000000000600082015250565b6000620007e36018836200079a565b9150620007f082620007ab565b602082019050919050565b600060208201905081810360008301526200081681620007d4565b9050919050565b7f43616e6e6f74207472616e7366657220746f2073656c66000000000000000000600082015250565b6000620008556017836200079a565b915062000862826200081d565b602082019050919050565b60006020820190508181036000830152620008888162000846565b9050919050565b6080516151f4620008b2600039600081816106a80152611e2501526151f46000f3fe608060405234801561001057600080fd5b50600436106101a95760003560e01c80635c975abb116100f9578063a22cb46511610097578063b88d4fde11610071578063b88d4fde146104d0578063c87b56dd146104ec578063e985e9c51461051c578063f2fde38b1461054c576101a9565b8063a22cb4651461047a578063ac2f541a14610496578063b1e21749146104b2576101a9565b806370a08231116100d357806370a082311461040457806379ba5097146104345780638da5cb5b1461043e57806395d89b411461045c576101a9565b80635c975abb1461038657806360316801146103a45780636352211e146103d4576101a9565b806323b872dd1161016657806342842e0e1161014057806342842e0e146102ec5780634b0795a8146103085780634d598342146103265780634f6ccce714610356576101a9565b806323b872dd146102825780632f745c591461029e5780633944ea3a146102ce576101a9565b806301ffc9a7146101ae57806306fdde03146101de578063081812fc146101fc578063095ea7b31461022c5780630ca761751461024857806318160ddd14610264575b600080fd5b6101c860048036038101906101c391906137cc565b610568565b6040516101d59190613814565b60405180910390f35b6101e66105e2565b6040516101f391906138bf565b60405180910390f35b61021660048036038101906102119190613917565b610674565b6040516102239190613985565b60405180910390f35b610246600480360381019061024191906139cc565b610690565b005b610262600480360381019061025d9190613b77565b6106a6565b005b61026c610768565b6040516102799190613c11565b60405180910390f35b61029c60048036038101906102979190613c2c565b610775565b005b6102b860048036038101906102b391906139cc565b610877565b6040516102c59190613c11565b60405180910390f35b6102d6610920565b6040516102e39190613cd4565b60405180910390f35b61030660048036038101906103019190613c2c565b6109ae565b005b6103106109ce565b60405161031d9190613cd4565b60405180910390f35b610340600480360381019061033b9190613ebd565b610a5c565b60405161034d9190613f87565b60405180910390f35b610370600480360381019061036b9190613917565b610bf0565b60405161037d9190613c11565b60405180910390f35b61038e610c66565b60405161039b9190613814565b60405180910390f35b6103be60048036038101906103b99190613917565b610c7d565b6040516103cb9190614099565b60405180910390f35b6103ee60048036038101906103e99190613917565b610f06565b6040516103fb9190613985565b60405180910390f35b61041e600480360381019061041991906140bb565b610f18565b60405161042b9190613c11565b60405180910390f35b61043c610fd2565b005b610446611169565b6040516104539190613985565b60405180910390f35b610464611193565b60405161047191906138bf565b60405180910390f35b610494600480360381019061048f9190614114565b611225565b005b6104b060048036038101906104ab9190614154565b61123b565b005b6104ba6112cd565b6040516104c79190613f87565b60405180910390f35b6104ea60048036038101906104e5919061423f565b6112d3565b005b61050660048036038101906105019190613917565b6112f0565b60405161051391906138bf565b60405180910390f35b610536600480360381019061053191906142c2565b611359565b6040516105439190613814565b60405180910390f35b610566600480360381019061056191906140bb565b6113ed565b005b60007f780e9d63000000000000000000000000000000000000000000000000000000007bffffffffffffffffffffffffffffffffffffffffffffffffffffffff1916827bffffffffffffffffffffffffffffffffffffffffffffffffffffffff191614806105db57506105da82611401565b5b9050919050565b6060600080546105f190614331565b80601f016020809104026020016040519081016040528092919081815260200182805461061d90614331565b801561066a5780601f1061063f5761010080835404028352916020019161066a565b820191906000526020600020905b81548152906001019060200180831161064d57829003601f168201915b5050505050905090565b600061067f826114e3565b506106898261156b565b9050919050565b6106a2828261069d6115a8565b6115b0565b5050565b7f000000000000000000000000000000000000000000000000000000000000000073ffffffffffffffffffffffffffffffffffffffff163373ffffffffffffffffffffffffffffffffffffffff161461072b576040517fc6829f8300000000000000000000000000000000000000000000000000000000815260040160405180910390fd5b6107368383836115c2565b827f85e1543bf2f84fe80c6badbce3648c8539ad1df4d2b3d822938ca0538be727e660405160405180910390a2505050565b6000600880549050905090565b600073ffffffffffffffffffffffffffffffffffffffff168273ffffffffffffffffffffffffffffffffffffffff16036107e75760006040517f64a0ae920000000000000000000000000000000000000000000000000000000081526004016107de9190613985565b60405180910390fd5b60006107fb83836107f66115a8565b611747565b90508373ffffffffffffffffffffffffffffffffffffffff168173ffffffffffffffffffffffffffffffffffffffff1614610871578382826040517f64283d7b00000000000000000000000000000000000000000000000000000000815260040161086893929190614362565b60405180910390fd5b50505050565b600061088283610f18565b82106108c75782826040517fa57d13dc0000000000000000000000000000000000000000000000000000000081526004016108be929190614399565b60405180910390fd5b600660008473ffffffffffffffffffffffffffffffffffffffff1673ffffffffffffffffffffffffffffffffffffffff168152602001908152602001600020600083815260200190815260200160002054905092915050565b600f805461092d90614331565b80601f016020809104026020016040519081016040528092919081815260200182805461095990614331565b80156109a65780601f1061097b576101008083540402835291602001916109a6565b820191906000526020600020905b81548152906001019060200180831161098957829003601f168201915b505050505081565b6109c9838383604051806020016040528060008152506112d3565b505050565b601080546109db90614331565b80601f0160208091040260200160405190810160405280929190818152602001828054610a0790614331565b8015610a545780601f10610a2957610100808354040283529160200191610a54565b820191906000526020600020905b815481529060010190602001808311610a3757829003601f168201915b505050505081565b600080610a6833610f18565b14610aa8576040517f08c379a0000000000000000000000000000000000000000000000000000000008152600401610a9f9061440e565b60405180910390fd5b60006001600c54610ab9919061445d565b90506000600267ffffffffffffffff811115610ad857610ad7613a4c565b5b604051908082528060200260200182016040528015610b0b57816020015b6060815260200190600190039081610af65790505b50905084600081518110610b2257610b21614491565b5b602002602001015181600081518110610b3e57610b3d614491565b5b6020026020010181905250610b5282611864565b81600181518110610b6657610b65614491565b5b6020026020010181905250610b7961367e565b610b8c888261193290919063ffffffff16565b610b9f878261194390919063ffffffff16565b610bb282826119bc90919063ffffffff16565b610bda610bbe82611a04565b86601260009054906101000a900463ffffffff16601154611e20565b600e81905550600e549350505050949350505050565b6000610bfa610768565b8210610c40576000826040517fa57d13dc000000000000000000000000000000000000000000000000000000008152600401610c37929190614399565b60405180910390fd5b60088281548110610c5457610c53614491565b5b90600052602060002001549050919050565b6000600a60009054906101000a900460ff16905090565b610c856136f0565b600d60008381526020019081526020016000206040518060c0016040529081600082018054610cb390614331565b80601f0160208091040260200160405190810160405280929190818152602001828054610cdf90614331565b8015610d2c5780601f10610d0157610100808354040283529160200191610d2c565b820191906000526020600020905b815481529060010190602001808311610d0f57829003601f168201915b50505050508152602001600182018054610d4590614331565b80601f0160208091040260200160405190810160405280929190818152602001828054610d7190614331565b8015610dbe5780601f10610d9357610100808354040283529160200191610dbe565b820191906000526020600020905b815481529060010190602001808311610da157829003601f168201915b50505050508152602001600282018054610dd790614331565b80601f0160208091040260200160405190810160405280929190818152602001828054610e0390614331565b8015610e505780601f10610e2557610100808354040283529160200191610e50565b820191906000526020600020905b815481529060010190602001808311610e3357829003601f168201915b50505050508152602001600382018054610e6990614331565b80601f0160208091040260200160405190810160405280929190818152602001828054610e9590614331565b8015610ee25780601f10610eb757610100808354040283529160200191610ee2565b820191906000526020600020905b815481529060010190602001808311610ec557829003601f168201915b50505050508152602001600482015481526020016005820154815250509050919050565b6000610f11826114e3565b9050919050565b60008073ffffffffffffffffffffffffffffffffffffffff168273ffffffffffffffffffffffffffffffffffffffff1603610f8b5760006040517f89c62b64000000000000000000000000000000000000000000000000000000008152600401610f829190613985565b60405180910390fd5b600360008373ffffffffffffffffffffffffffffffffffffffff1673ffffffffffffffffffffffffffffffffffffffff168152602001908152602001600020549050919050565b600b60009054906101000a900473ffffffffffffffffffffffffffffffffffffffff1673ffffffffffffffffffffffffffffffffffffffff163373ffffffffffffffffffffffffffffffffffffffff1614611062576040517f08c379a00000000000000000000000000000000000000000000000000000000081526004016110599061450c565b60405180910390fd5b6000600a60019054906101000a900473ffffffffffffffffffffffffffffffffffffffff16905033600a60016101000a81548173ffffffffffffffffffffffffffffffffffffffff021916908373ffffffffffffffffffffffffffffffffffffffff1602179055506000600b60006101000a81548173ffffffffffffffffffffffffffffffffffffffff021916908373ffffffffffffffffffffffffffffffffffffffff1602179055503373ffffffffffffffffffffffffffffffffffffffff168173ffffffffffffffffffffffffffffffffffffffff167f8be0079c531659141344cd1fd0a4f28419497f9722a3daafe3b4186f6b6457e060405160405180910390a350565b6000600a60019054906101000a900473ffffffffffffffffffffffffffffffffffffffff16905090565b6060600180546111a290614331565b80601f01602080910402602001604051908101604052809291908181526020018280546111ce90614331565b801561121b5780601f106111f05761010080835404028352916020019161121b565b820191906000526020600020905b8154815290600101906020018083116111fe57829003601f168201915b5050505050905090565b6112376112306115a8565b8383611f03565b5050565b611243612072565b3373ffffffffffffffffffffffffffffffffffffffff1661126386610f06565b73ffffffffffffffffffffffffffffffffffffffff16146112b9576040517f08c379a00000000000000000000000000000000000000000000000000000000081526004016112b09061459e565b60405180910390fd5b6112c68585858585612104565b5050505050565b600e5481565b6112de848484610775565b6112ea848484846121c6565b50505050565b60606112fb826114e3565b50600061130661237d565b905060008151116113265760405180602001604052806000815250611351565b8061133084611864565b6040516020016113419291906145fa565b6040516020818303038152906040525b915050919050565b6000600560008473ffffffffffffffffffffffffffffffffffffffff1673ffffffffffffffffffffffffffffffffffffffff16815260200190815260200160002060008373ffffffffffffffffffffffffffffffffffffffff1673ffffffffffffffffffffffffffffffffffffffff16815260200190815260200160002060009054906101000a900460ff16905092915050565b6113f5612072565b6113fe81612394565b50565b60007f80ac58cd000000000000000000000000000000000000000000000000000000007bffffffffffffffffffffffffffffffffffffffffffffffffffffffff1916827bffffffffffffffffffffffffffffffffffffffffffffffffffffffff191614806114cc57507f5b5e139f000000000000000000000000000000000000000000000000000000007bffffffffffffffffffffffffffffffffffffffffffffffffffffffff1916827bffffffffffffffffffffffffffffffffffffffffffffffffffffffff1916145b806114dc57506114db826124c2565b5b9050919050565b6000806114ef8361252c565b9050600073ffffffffffffffffffffffffffffffffffffffff168173ffffffffffffffffffffffffffffffffffffffff160361156257826040517f7e2732890000000000000000000000000000000000000000000000000000000081526004016115599190613c11565b60405180910390fd5b80915050919050565b60006004600083815260200190815260200160002060009054906101000a900473ffffffffffffffffffffffffffffffffffffffff169050919050565b600033905090565b6115bd8383836001612569565b505050565b827ff0f413c077269966d7e2dabc8eb21ba825fef41a93078a6ae69923b9c718f44483836040516115f492919061461e565b60405180910390a282600e541461167d577fc52d083c72e21504484a281968be7269905e72f9ef815e83a8ab01f6ad9b335e600e5484604051611638929190614655565b60405180910390a1826040517fd068bf5b0000000000000000000000000000000000000000000000000000000081526004016116749190613f87565b60405180910390fd5b81600f908161168c919061482a565b50806010908161169c919061482a565b50827ff0f413c077269966d7e2dabc8eb21ba825fef41a93078a6ae69923b9c718f444600f60106040516116d1929190614980565b60405180910390a2600080600080858060200190518101906116f39190614a27565b935093509350935060006001600c5461170c919061445d565b9050611718338261272e565b600c600081548092919061172b90614afe565b919050555061173d8186868686612104565b5050505050505050565b60008061175585858561274c565b9050600073ffffffffffffffffffffffffffffffffffffffff168173ffffffffffffffffffffffffffffffffffffffff16036117995761179484612966565b6117d8565b8473ffffffffffffffffffffffffffffffffffffffff168173ffffffffffffffffffffffffffffffffffffffff16146117d7576117d681856129af565b5b5b600073ffffffffffffffffffffffffffffffffffffffff168573ffffffffffffffffffffffffffffffffffffffff160361181a5761181584612b10565b611859565b8473ffffffffffffffffffffffffffffffffffffffff168173ffffffffffffffffffffffffffffffffffffffff1614611858576118578585612be1565b5b5b809150509392505050565b60606000600161187384612c6c565b01905060008167ffffffffffffffff81111561189257611891613a4c565b5b6040519080825280601f01601f1916602001820160405280156118c45781602001600182028036833780820191505090505b509050600082602001820190505b600115611927578080600190039150507f3031323334353637383961626364656600000000000000000000000000000000600a86061a8153600a858161191b5761191a614b46565b5b049450600085036118d2575b819350505050919050565b61193f8260008084612dbf565b5050565b600081510361197e576040517fe889636f00000000000000000000000000000000000000000000000000000000815260040160405180910390fd5b60018260200190600281111561199757611996614b75565b5b908160028111156119ab576119aa614b75565b5b815250508082608001819052505050565b60008151036119f7576040517ffe936cb700000000000000000000000000000000000000000000000000000000815260040160405180910390fd5b808260a001819052505050565b60606000611a13610100612e69565b9050611a5d6040518060400160405280600c81526020017f636f64654c6f636174696f6e000000000000000000000000000000000000000081525082612e9090919063ffffffff16565b611a8683600001516002811115611a7757611a76614b75565b5b82612eb990919063ffffffff16565b611ace6040518060400160405280600881526020017f6c616e677561676500000000000000000000000000000000000000000000000081525082612e9090919063ffffffff16565b611af783604001516000811115611ae857611ae7614b75565b5b82612eb990919063ffffffff16565b611b3f6040518060400160405280600681526020017f736f75726365000000000000000000000000000000000000000000000000000081525082612e9090919063ffffffff16565b611b56836060015182612e9090919063ffffffff16565b60008360a00151511115611c1257611bac6040518060400160405280600481526020017f617267730000000000000000000000000000000000000000000000000000000081525082612e9090919063ffffffff16565b611bb581612f09565b60005b8360a0015151811015611c0757611bf68460a001518281518110611bdf57611bde614491565b5b602002602001015183612e9090919063ffffffff16565b80611c0090614afe565b9050611bb8565b50611c1181612f31565b5b60008360800151511115611d535760006002811115611c3457611c33614b75565b5b83602001516002811115611c4b57611c4a614b75565b5b03611c82576040517fa80d31f700000000000000000000000000000000000000000000000000000000815260040160405180910390fd5b611cca6040518060400160405280600f81526020017f736563726574734c6f636174696f6e000000000000000000000000000000000081525082612e9090919063ffffffff16565b611cf383602001516002811115611ce457611ce3614b75565b5b82612eb990919063ffffffff16565b611d3b6040518060400160405280600781526020017f736563726574730000000000000000000000000000000000000000000000000081525082612e9090919063ffffffff16565b611d52836080015182612f5990919063ffffffff16565b5b60008360c00151511115611e0f57611da96040518060400160405280600981526020017f627974657341726773000000000000000000000000000000000000000000000081525082612e9090919063ffffffff16565b611db281612f09565b60005b8360c0015151811015611e0457611df38460c001518281518110611ddc57611ddb614491565b5b602002602001015183612f5990919063ffffffff16565b80611dfd90614afe565b9050611db5565b50611e0e81612f31565b5b806000015160000151915050919050565b6000807f000000000000000000000000000000000000000000000000000000000000000073ffffffffffffffffffffffffffffffffffffffff1663461d27628688600188886040518663ffffffff1660e01b8152600401611e85959493929190614bef565b6020604051808303816000875af1158015611ea4573d6000803e3d6000fd5b505050506040513d601f19601f82011682018060405250810190611ec89190614c5e565b9050807f1131472297a800fee664d1d89cfa8f7676ff07189ecc53f80bbb5f4969099db860405160405180910390a280915050949350505050565b600073ffffffffffffffffffffffffffffffffffffffff168273ffffffffffffffffffffffffffffffffffffffff1603611f7457816040517f5b08ba18000000000000000000000000000000000000000000000000000000008152600401611f6b9190613985565b60405180910390fd5b80600560008573ffffffffffffffffffffffffffffffffffffffff1673ffffffffffffffffffffffffffffffffffffffff16815260200190815260200160002060008473ffffffffffffffffffffffffffffffffffffffff1673ffffffffffffffffffffffffffffffffffffffff16815260200190815260200160002060006101000a81548160ff0219169083151502179055508173ffffffffffffffffffffffffffffffffffffffff168373ffffffffffffffffffffffffffffffffffffffff167f17307eab39ab6107e8899845ad3d59bd9653f200f220920489ca2b5937696c31836040516120659190613814565b60405180910390a3505050565b600a60019054906101000a900473ffffffffffffffffffffffffffffffffffffffff1673ffffffffffffffffffffffffffffffffffffffff163373ffffffffffffffffffffffffffffffffffffffff1614612102576040517f08c379a00000000000000000000000000000000000000000000000000000000081526004016120f990614cd7565b60405180910390fd5b565b6000600d600087815260200190815260200160002090508381600001908161212c9190614d52565b508481600201908161213e9190614d52565b50828160010190816121509190614d52565b50818160030190816121629190614d52565b504281600501819055506000816004015403612182574281600401819055505b857f2f3899d70b9a27dd00cd1d0b1cfcb427258a4aa0f1ba5873847546f4327d26a18585856040516121b693929190614e24565b60405180910390a2505050505050565b60008373ffffffffffffffffffffffffffffffffffffffff163b1115612377578273ffffffffffffffffffffffffffffffffffffffff1663150b7a0261220a6115a8565b8685856040518563ffffffff1660e01b815260040161222c9493929190614e70565b6020604051808303816000875af192505050801561226857506040513d601f19601f820116820180604052508101906122659190614ed1565b60015b6122ec573d8060008114612298576040519150601f19603f3d011682016040523d82523d6000602084013e61229d565b606091505b5060008151036122e457836040517f64a0ae920000000000000000000000000000000000000000000000000000000081526004016122db9190613985565b60405180910390fd5b805181602001fd5b63150b7a0260e01b7bffffffffffffffffffffffffffffffffffffffffffffffffffffffff1916817bffffffffffffffffffffffffffffffffffffffffffffffffffffffff19161461237557836040517f64a0ae9200000000000000000000000000000000000000000000000000000000815260040161236c9190613985565b60405180910390fd5b505b50505050565b606060405180602001604052806000815250905090565b3373ffffffffffffffffffffffffffffffffffffffff168173ffffffffffffffffffffffffffffffffffffffff1603612402576040517f08c379a00000000000000000000000000000000000000000000000000000000081526004016123f990614f4a565b60405180910390fd5b80600b60006101000a81548173ffffffffffffffffffffffffffffffffffffffff021916908373ffffffffffffffffffffffffffffffffffffffff1602179055508073ffffffffffffffffffffffffffffffffffffffff16600a60019054906101000a900473ffffffffffffffffffffffffffffffffffffffff1673ffffffffffffffffffffffffffffffffffffffff167fed8889f560326eb138920d842192f0eb3dd22b4f139c87a2c57538e05bae127860405160405180910390a350565b60007f01ffc9a7000000000000000000000000000000000000000000000000000000007bffffffffffffffffffffffffffffffffffffffffffffffffffffffff1916827bffffffffffffffffffffffffffffffffffffffffffffffffffffffff1916149050919050565b60006002600083815260200190815260200160002060009054906101000a900473ffffffffffffffffffffffffffffffffffffffff169050919050565b80806125a25750600073ffffffffffffffffffffffffffffffffffffffff168273ffffffffffffffffffffffffffffffffffffffff1614155b156126d65760006125b2846114e3565b9050600073ffffffffffffffffffffffffffffffffffffffff168373ffffffffffffffffffffffffffffffffffffffff161415801561261d57508273ffffffffffffffffffffffffffffffffffffffff168173ffffffffffffffffffffffffffffffffffffffff1614155b8015612630575061262e8184611359565b155b1561267257826040517fa9fbf51f0000000000000000000000000000000000000000000000000000000081526004016126699190613985565b60405180910390fd5b81156126d457838573ffffffffffffffffffffffffffffffffffffffff168273ffffffffffffffffffffffffffffffffffffffff167f8c5be1e5ebec7d5bd14f71427d1e84f3dd0314c0f7b2291e5b200ac8c7c3b92560405160405180910390a45b505b836004600085815260200190815260200160002060006101000a81548173ffffffffffffffffffffffffffffffffffffffff021916908373ffffffffffffffffffffffffffffffffffffffff16021790555050505050565b612748828260405180602001604052806000815250612f82565b5050565b6000806127588461252c565b9050600073ffffffffffffffffffffffffffffffffffffffff168373ffffffffffffffffffffffffffffffffffffffff161461279a57612799818486612f9e565b5b600073ffffffffffffffffffffffffffffffffffffffff168173ffffffffffffffffffffffffffffffffffffffff161461282b576127dc600085600080612569565b6001600360008373ffffffffffffffffffffffffffffffffffffffff1673ffffffffffffffffffffffffffffffffffffffff168152602001908152602001600020600082825403925050819055505b600073ffffffffffffffffffffffffffffffffffffffff168573ffffffffffffffffffffffffffffffffffffffff16146128ae576001600360008773ffffffffffffffffffffffffffffffffffffffff1673ffffffffffffffffffffffffffffffffffffffff168152602001908152602001600020600082825401925050819055505b846002600086815260200190815260200160002060006101000a81548173ffffffffffffffffffffffffffffffffffffffff021916908373ffffffffffffffffffffffffffffffffffffffff160217905550838573ffffffffffffffffffffffffffffffffffffffff168273ffffffffffffffffffffffffffffffffffffffff167fddf252ad1be2c89b69c2b068fc378daa952ba7f163c4a11628f55a4df523b3ef60405160405180910390a4809150509392505050565b6008805490506009600083815260200190815260200160002081905550600881908060018154018082558091505060019003906000526020600020016000909190919091505550565b60006129ba83610f18565b9050600060076000848152602001908152602001600020549050818114612a9f576000600660008673ffffffffffffffffffffffffffffffffffffffff1673ffffffffffffffffffffffffffffffffffffffff168152602001908152602001600020600084815260200190815260200160002054905080600660008773ffffffffffffffffffffffffffffffffffffffff1673ffffffffffffffffffffffffffffffffffffffff168152602001908152602001600020600084815260200190815260200160002081905550816007600083815260200190815260200160002081905550505b6007600084815260200190815260200160002060009055600660008573ffffffffffffffffffffffffffffffffffffffff1673ffffffffffffffffffffffffffffffffffffffff16815260200190815260200160002060008381526020019081526020016000206000905550505050565b60006001600880549050612b249190614f6a565b9050600060096000848152602001908152602001600020549050600060088381548110612b5457612b53614491565b5b906000526020600020015490508060088381548110612b7657612b75614491565b5b906000526020600020018190555081600960008381526020019081526020016000208190555060096000858152602001908152602001600020600090556008805480612bc557612bc4614f9e565b5b6001900381819060005260206000200160009055905550505050565b60006001612bee84610f18565b612bf89190614f6a565b905081600660008573ffffffffffffffffffffffffffffffffffffffff1673ffffffffffffffffffffffffffffffffffffffff168152602001908152602001600020600083815260200190815260200160002081905550806007600084815260200190815260200160002081905550505050565b600080600090507a184f03e93ff9f4daa797ed6e38ed64bf6a1f0100000000000000008310612cca577a184f03e93ff9f4daa797ed6e38ed64bf6a1f0100000000000000008381612cc057612cbf614b46565b5b0492506040810190505b6d04ee2d6d415b85acef81000000008310612d07576d04ee2d6d415b85acef81000000008381612cfd57612cfc614b46565b5b0492506020810190505b662386f26fc100008310612d3657662386f26fc100008381612d2c57612d2b614b46565b5b0492506010810190505b6305f5e1008310612d5f576305f5e1008381612d5557612d54614b46565b5b0492506008810190505b6127108310612d84576127108381612d7a57612d79614b46565b5b0492506004810190505b60648310612da75760648381612d9d57612d9c614b46565b5b0492506002810190505b600a8310612db6576001810190505b80915050919050565b6000815103612dfa576040517f22ce3edd00000000000000000000000000000000000000000000000000000000815260040160405180910390fd5b8284600001906002811115612e1257612e11614b75565b5b90816002811115612e2657612e25614b75565b5b815250508184604001906000811115612e4257612e41614b75565b5b90816000811115612e5657612e55614b75565b5b8152505080846060018190525050505050565b612e71613726565b612e7f816000015183613062565b506000816020018181525050919050565b612e9d82600383516130db565b612eb481836000015161328490919063ffffffff16565b505050565b612edb60026005600660ff16901b1783600001516132a090919063ffffffff16565b50612f058282604051602001612ef19190613c11565b604051602081830303815290604052612f59565b5050565b612f1481600461330a565b600181602001818151612f27919061445d565b9150818152505050565b612f3c81600761330a565b600181602001818151612f4f9190614f6a565b9150818152505050565b612f6682600283516130db565b612f7d81836000015161328490919063ffffffff16565b505050565b612f8c8383613330565b612f9960008484846121c6565b505050565b612fa9838383613429565b61305d57600073ffffffffffffffffffffffffffffffffffffffff168373ffffffffffffffffffffffffffffffffffffffff160361301e57806040517f7e2732890000000000000000000000000000000000000000000000000000000081526004016130159190613c11565b60405180910390fd5b81816040517f177e802f000000000000000000000000000000000000000000000000000000008152600401613054929190614399565b60405180910390fd5b505050565b61306a613746565b60006020836130799190614fcd565b146130a55760208261308b9190614fcd565b60206130979190614f6a565b826130a2919061445d565b91505b8183602001818152505060405180845260008152828101602001818110156130cc57600080fd5b80604052505082905092915050565b60178167ffffffffffffffff1611613116576131108160058460ff16901b60ff161784600001516132a090919063ffffffff16565b5061327f565b60ff8167ffffffffffffffff161161317457613149601860058460ff16901b1784600001516132a090919063ffffffff16565b5061316e8167ffffffffffffffff16600185600001516134ea9092919063ffffffff16565b5061327e565b61ffff8167ffffffffffffffff16116131d3576131a8601960058460ff16901b1784600001516132a090919063ffffffff16565b506131cd8167ffffffffffffffff16600285600001516134ea9092919063ffffffff16565b5061327d565b63ffffffff8167ffffffffffffffff161161323457613209601a60058460ff16901b1784600001516132a090919063ffffffff16565b5061322e8167ffffffffffffffff16600485600001516134ea9092919063ffffffff16565b5061327c565b613255601b60058460ff16901b1784600001516132a090919063ffffffff16565b5061327a8167ffffffffffffffff16600885600001516134ea9092919063ffffffff16565b505b5b5b5b505050565b61328c613746565b61329883838451613577565b905092915050565b6132a8613746565b6000836000015151905060006001826132c1919061445d565b9050846020015182106132e5576132e4856002836132df9190614ffe565b61365a565b5b845160208382010185815381518311156132fd578282525b5050849250505092915050565b61332b601f60058360ff16901b1783600001516132a090919063ffffffff16565b505050565b600073ffffffffffffffffffffffffffffffffffffffff168273ffffffffffffffffffffffffffffffffffffffff16036133a25760006040517f64a0ae920000000000000000000000000000000000000000000000000000000081526004016133999190613985565b60405180910390fd5b60006133b083836000611747565b9050600073ffffffffffffffffffffffffffffffffffffffff168173ffffffffffffffffffffffffffffffffffffffff16146134245760006040517f73c6ac6e00000000000000000000000000000000000000000000000000000000815260040161341b9190613985565b60405180910390fd5b505050565b60008073ffffffffffffffffffffffffffffffffffffffff168373ffffffffffffffffffffffffffffffffffffffff16141580156134e157508273ffffffffffffffffffffffffffffffffffffffff168473ffffffffffffffffffffffffffffffffffffffff1614806134a257506134a18484611359565b5b806134e057508273ffffffffffffffffffffffffffffffffffffffff166134c88361156b565b73ffffffffffffffffffffffffffffffffffffffff16145b5b90509392505050565b6134f2613746565b600084600001515190506000818461350a919061445d565b9050856020015181111561352f5761352e866002836135299190614ffe565b61365a565b5b60006001856101006135419190615173565b61354b9190614f6a565b905086518281018783198251161781528151841115613568578382525b50508693505050509392505050565b61357f613746565b825182111561358d57600080fd5b60008460000151519050600083826135a5919061445d565b905085602001518111156135ca576135c9866002836135c49190614ffe565b61365a565b5b600080875180518560208301019350808511156135e5578482525b60208901925050505b6020861061362c5780518252602082613607919061445d565b9150602081613616919061445d565b90506020866136259190614f6a565b95506135ee565b60006001876020036101000a0390508019825116818451168181178552505050879450505050509392505050565b60008260000151905061366d8383613062565b506136788382613284565b50505050565b6040518060e001604052806000600281111561369d5761369c614b75565b5b8152602001600060028111156136b6576136b5614b75565b5b81526020016000808111156136ce576136cd614b75565b5b8152602001606081526020016060815260200160608152602001606081525090565b6040518060c001604052806060815260200160608152602001606081526020016060815260200160008152602001600081525090565b6040518060400160405280613739613746565b8152602001600081525090565b604051806040016040528060608152602001600081525090565b6000604051905090565b600080fd5b600080fd5b60007fffffffff0000000000000000000000000000000000000000000000000000000082169050919050565b6137a981613774565b81146137b457600080fd5b50565b6000813590506137c6816137a0565b92915050565b6000602082840312156137e2576137e161376a565b5b60006137f0848285016137b7565b91505092915050565b60008115159050919050565b61380e816137f9565b82525050565b60006020820190506138296000830184613805565b92915050565b600081519050919050565b600082825260208201905092915050565b60005b8381101561386957808201518184015260208101905061384e565b60008484015250505050565b6000601f19601f8301169050919050565b60006138918261382f565b61389b818561383a565b93506138ab81856020860161384b565b6138b481613875565b840191505092915050565b600060208201905081810360008301526138d98184613886565b905092915050565b6000819050919050565b6138f4816138e1565b81146138ff57600080fd5b50565b600081359050613911816138eb565b92915050565b60006020828403121561392d5761392c61376a565b5b600061393b84828501613902565b91505092915050565b600073ffffffffffffffffffffffffffffffffffffffff82169050919050565b600061396f82613944565b9050919050565b61397f81613964565b82525050565b600060208201905061399a6000830184613976565b92915050565b6139a981613964565b81146139b457600080fd5b50565b6000813590506139c6816139a0565b92915050565b600080604083850312156139e3576139e261376a565b5b60006139f1858286016139b7565b9250506020613a0285828601613902565b9150509250929050565b6000819050919050565b613a1f81613a0c565b8114613a2a57600080fd5b50565b600081359050613a3c81613a16565b92915050565b600080fd5b600080fd5b7f4e487b7100000000000000000000000000000000000000000000000000000000600052604160045260246000fd5b613a8482613875565b810181811067ffffffffffffffff82111715613aa357613aa2613a4c565b5b80604052505050565b6000613ab6613760565b9050613ac28282613a7b565b919050565b600067ffffffffffffffff821115613ae257613ae1613a4c565b5b613aeb82613875565b9050602081019050919050565b82818337600083830152505050565b6000613b1a613b1584613ac7565b613aac565b905082815260208101848484011115613b3657613b35613a47565b5b613b41848285613af8565b509392505050565b600082601f830112613b5e57613b5d613a42565b5b8135613b6e848260208601613b07565b91505092915050565b600080600060608486031215613b9057613b8f61376a565b5b6000613b9e86828701613a2d565b935050602084013567ffffffffffffffff811115613bbf57613bbe61376f565b5b613bcb86828701613b49565b925050604084013567ffffffffffffffff811115613bec57613beb61376f565b5b613bf886828701613b49565b9150509250925092565b613c0b816138e1565b82525050565b6000602082019050613c266000830184613c02565b92915050565b600080600060608486031215613c4557613c4461376a565b5b6000613c53868287016139b7565b9350506020613c64868287016139b7565b9250506040613c7586828701613902565b9150509250925092565b600081519050919050565b600082825260208201905092915050565b6000613ca682613c7f565b613cb08185613c8a565b9350613cc081856020860161384b565b613cc981613875565b840191505092915050565b60006020820190508181036000830152613cee8184613c9b565b905092915050565b600067ffffffffffffffff821115613d1157613d10613a4c565b5b613d1a82613875565b9050602081019050919050565b6000613d3a613d3584613cf6565b613aac565b905082815260208101848484011115613d5657613d55613a47565b5b613d61848285613af8565b509392505050565b600082601f830112613d7e57613d7d613a42565b5b8135613d8e848260208601613d27565b91505092915050565b600067ffffffffffffffff821115613db257613db1613a4c565b5b602082029050602081019050919050565b600080fd5b6000613ddb613dd684613d97565b613aac565b90508083825260208201905060208402830185811115613dfe57613dfd613dc3565b5b835b81811015613e4557803567ffffffffffffffff811115613e2357613e22613a42565b5b808601613e308982613d69565b85526020850194505050602081019050613e00565b5050509392505050565b600082601f830112613e6457613e63613a42565b5b8135613e74848260208601613dc8565b91505092915050565b600067ffffffffffffffff82169050919050565b613e9a81613e7d565b8114613ea557600080fd5b50565b600081359050613eb781613e91565b92915050565b60008060008060808587031215613ed757613ed661376a565b5b600085013567ffffffffffffffff811115613ef557613ef461376f565b5b613f0187828801613d69565b945050602085013567ffffffffffffffff811115613f2257613f2161376f565b5b613f2e87828801613b49565b935050604085013567ffffffffffffffff811115613f4f57613f4e61376f565b5b613f5b87828801613e4f565b9250506060613f6c87828801613ea8565b91505092959194509250565b613f8181613a0c565b82525050565b6000602082019050613f9c6000830184613f78565b92915050565b600082825260208201905092915050565b6000613fbe8261382f565b613fc88185613fa2565b9350613fd881856020860161384b565b613fe181613875565b840191505092915050565b613ff5816138e1565b82525050565b600060c08301600083015184820360008601526140188282613fb3565b915050602083015184820360208601526140328282613fb3565b9150506040830151848203604086015261404c8282613fb3565b915050606083015184820360608601526140668282613fb3565b915050608083015161407b6080860182613fec565b5060a083015161408e60a0860182613fec565b508091505092915050565b600060208201905081810360008301526140b38184613ffb565b905092915050565b6000602082840312156140d1576140d061376a565b5b60006140df848285016139b7565b91505092915050565b6140f1816137f9565b81146140fc57600080fd5b50565b60008135905061410e816140e8565b92915050565b6000806040838503121561412b5761412a61376a565b5b6000614139858286016139b7565b925050602061414a858286016140ff565b9150509250929050565b600080600080600060a086880312156141705761416f61376a565b5b600061417e88828901613902565b955050602086013567ffffffffffffffff81111561419f5761419e61376f565b5b6141ab88828901613d69565b945050604086013567ffffffffffffffff8111156141cc576141cb61376f565b5b6141d888828901613d69565b935050606086013567ffffffffffffffff8111156141f9576141f861376f565b5b61420588828901613d69565b925050608086013567ffffffffffffffff8111156142265761422561376f565b5b61423288828901613d69565b9150509295509295909350565b600080600080608085870312156142595761425861376a565b5b6000614267878288016139b7565b9450506020614278878288016139b7565b935050604061428987828801613902565b925050606085013567ffffffffffffffff8111156142aa576142a961376f565b5b6142b687828801613b49565b91505092959194509250565b600080604083850312156142d9576142d861376a565b5b60006142e7858286016139b7565b92505060206142f8858286016139b7565b9150509250929050565b7f4e487b7100000000000000000000000000000000000000000000000000000000600052602260045260246000fd5b6000600282049050600182168061434957607f821691505b60208210810361435c5761435b614302565b5b50919050565b60006060820190506143776000830186613976565b6143846020830185613c02565b6143916040830184613976565b949350505050565b60006040820190506143ae6000830185613976565b6143bb6020830184613c02565b9392505050565b7f4164647265737320616c7265616479206f776e7320616e204e46540000000000600082015250565b60006143f8601b8361383a565b9150614403826143c2565b602082019050919050565b60006020820190508181036000830152614427816143eb565b9050919050565b7f4e487b7100000000000000000000000000000000000000000000000000000000600052601160045260246000fd5b6000614468826138e1565b9150614473836138e1565b925082820190508082111561448b5761448a61442e565b5b92915050565b7f4e487b7100000000000000000000000000000000000000000000000000000000600052603260045260246000fd5b7f4d7573742062652070726f706f736564206f776e657200000000000000000000600082015250565b60006144f660168361383a565b9150614501826144c0565b602082019050919050565b60006020820190508181036000830152614525816144e9565b9050919050565b7f4f6e6c7920746f6b656e206f776e65722063616e20757064617465206d65746160008201527f6461746100000000000000000000000000000000000000000000000000000000602082015250565b600061458860248361383a565b91506145938261452c565b604082019050919050565b600060208201905081810360008301526145b78161457b565b9050919050565b600081905092915050565b60006145d48261382f565b6145de81856145be565b93506145ee81856020860161384b565b80840191505092915050565b600061460682856145c9565b915061461282846145c9565b91508190509392505050565b600060408201905081810360008301526146388185613c9b565b9050818103602083015261464c8184613c9b565b90509392505050565b600060408201905061466a6000830185613f78565b6146776020830184613f78565b9392505050565b60008190508160005260206000209050919050565b60006020601f8301049050919050565b600082821b905092915050565b6000600883026146e07fffffffffffffffffffffffffffffffffffffffffffffffffffffffffffffffff826146a3565b6146ea86836146a3565b95508019841693508086168417925050509392505050565b6000819050919050565b600061472761472261471d846138e1565b614702565b6138e1565b9050919050565b6000819050919050565b6147418361470c565b61475561474d8261472e565b8484546146b0565b825550505050565b600090565b61476a61475d565b614775818484614738565b505050565b5b818110156147995761478e600082614762565b60018101905061477b565b5050565b601f8211156147de576147af8161467e565b6147b884614693565b810160208510156147c7578190505b6147db6147d385614693565b83018261477a565b50505b505050565b600082821c905092915050565b6000614801600019846008026147e3565b1980831691505092915050565b600061481a83836147f0565b9150826002028217905092915050565b61483382613c7f565b67ffffffffffffffff81111561484c5761484b613a4c565b5b6148568254614331565b61486182828561479d565b600060209050601f8311600181146148945760008415614882578287015190505b61488c858261480e565b8655506148f4565b601f1984166148a28661467e565b60005b828110156148ca578489015182556001820191506020850194506020810190506148a5565b868310156148e757848901516148e3601f8916826147f0565b8355505b6001600288020188555050505b505050505050565b6000815461490981614331565b6149138186613c8a565b9450600182166000811461492e576001811461494457614977565b60ff198316865281151560200286019350614977565b61494d8561467e565b60005b8381101561496f57815481890152600182019150602081019050614950565b808801955050505b50505092915050565b6000604082019050818103600083015261499a81856148fc565b905081810360208301526149ae81846148fc565b90509392505050565b60006149ca6149c584613cf6565b613aac565b9050828152602081018484840111156149e6576149e5613a47565b5b6149f184828561384b565b509392505050565b600082601f830112614a0e57614a0d613a42565b5b8151614a1e8482602086016149b7565b91505092915050565b60008060008060808587031215614a4157614a4061376a565b5b600085015167ffffffffffffffff811115614a5f57614a5e61376f565b5b614a6b878288016149f9565b945050602085015167ffffffffffffffff811115614a8c57614a8b61376f565b5b614a98878288016149f9565b935050604085015167ffffffffffffffff811115614ab957614ab861376f565b5b614ac5878288016149f9565b925050606085015167ffffffffffffffff811115614ae657614ae561376f565b5b614af2878288016149f9565b91505092959194509250565b6000614b09826138e1565b91507fffffffffffffffffffffffffffffffffffffffffffffffffffffffffffffffff8203614b3b57614b3a61442e565b5b600182019050919050565b7f4e487b7100000000000000000000000000000000000000000000000000000000600052601260045260246000fd5b7f4e487b7100000000000000000000000000000000000000000000000000000000600052602160045260246000fd5b614bad81613e7d565b82525050565b600061ffff82169050919050565b614bca81614bb3565b82525050565b600063ffffffff82169050919050565b614be981614bd0565b82525050565b600060a082019050614c046000830188614ba4565b8181036020830152614c168187613c9b565b9050614c256040830186614bc1565b614c326060830185614be0565b614c3f6080830184613f78565b9695505050505050565b600081519050614c5881613a16565b92915050565b600060208284031215614c7457614c7361376a565b5b6000614c8284828501614c49565b91505092915050565b7f4f6e6c792063616c6c61626c65206279206f776e657200000000000000000000600082015250565b6000614cc160168361383a565b9150614ccc82614c8b565b602082019050919050565b60006020820190508181036000830152614cf081614cb4565b9050919050565b60008190508160005260206000209050919050565b601f821115614d4d57614d1e81614cf7565b614d2784614693565b81016020851015614d36578190505b614d4a614d4285614693565b83018261477a565b50505b505050565b614d5b8261382f565b67ffffffffffffffff811115614d7457614d73613a4c565b5b614d7e8254614331565b614d89828285614d0c565b600060209050601f831160018114614dbc5760008415614daa578287015190505b614db4858261480e565b865550614e1c565b601f198416614dca86614cf7565b60005b82811015614df257848901518255600182019150602085019450602081019050614dcd565b86831015614e0f5784890151614e0b601f8916826147f0565b8355505b6001600288020188555050505b505050505050565b60006060820190508181036000830152614e3e8186613886565b90508181036020830152614e528185613886565b90508181036040830152614e668184613886565b9050949350505050565b6000608082019050614e856000830187613976565b614e926020830186613976565b614e9f6040830185613c02565b8181036060830152614eb18184613c9b565b905095945050505050565b600081519050614ecb816137a0565b92915050565b600060208284031215614ee757614ee661376a565b5b6000614ef584828501614ebc565b91505092915050565b7f43616e6e6f74207472616e7366657220746f2073656c66000000000000000000600082015250565b6000614f3460178361383a565b9150614f3f82614efe565b602082019050919050565b60006020820190508181036000830152614f6381614f27565b9050919050565b6000614f75826138e1565b9150614f80836138e1565b9250828203905081811115614f9857614f9761442e565b5b92915050565b7f4e487b7100000000000000000000000000000000000000000000000000000000600052603160045260246000fd5b6000614fd8826138e1565b9150614fe3836138e1565b925082614ff357614ff2614b46565b5b828206905092915050565b6000615009826138e1565b9150615014836138e1565b9250828202615022816138e1565b915082820484148315176150395761503861442e565b5b5092915050565b60008160011c9050919050565b6000808291508390505b6001851115615097578086048111156150735761507261442e565b5b60018516156150825780820291505b808102905061509085615040565b9450615057565b94509492505050565b6000826150b0576001905061516c565b816150be576000905061516c565b81600181146150d457600281146150de5761510d565b600191505061516c565b60ff8411156150f0576150ef61442e565b5b8360020a9150848211156151075761510661442e565b5b5061516c565b5060208310610133831016604e8410600b84101617156151425782820a90508381111561513d5761513c61442e565b5b61516c565b61514f848484600161504d565b925090508184048111156151665761516561442e565b5b81810290505b9392505050565b600061517e826138e1565b9150615189836138e1565b92506151b67fffffffffffffffffffffffffffffffffffffffffffffffffffffffffffffffff84846150a0565b90509291505056fea2646970667358221220f0382e1cdb1a3bcc59e6f833dfa518faa2e60bb23b6da2ab20c4000bc0e95e8b64736f6c63430008140033",
  "linkReferences": {},
  "deployedLinkReferences": {}
}