{
  "_format": "hh-sol-artifact-1",
  "contractName": "ProfileNFTContract",
  "sourceName": "contracts/ProfileNFTContract.sol",
  "abi": [
    {
      "inputs": [
        {
          "internalType": "address",
          "name": "router",
          "type": "address"
        }
      ],
      "stateMutability": "nonpayable",
      "type": "constructor"
    },
    {
      "inputs": [],
      "name": "ERC721EnumerableForbiddenBatchMint",
      "type": "error"
    },
    {
      "inputs": [
        {
          "internalType": "address",
          "name": "sender",
          "type": "address"
        },
        {
          "internalType": "uint256",
          "name": "tokenId",
          "type": "uint256"
        },
        {
          "internalType": "address",
          "name": "owner",
          "type": "address"
        }
      ],
      "name": "ERC721IncorrectOwner",
      "type": "error"
    },
    {
      "inputs": [
        {
          "internalType": "address",
          "name": "operator",
          "type": "address"
        },
        {
          "internalType": "uint256",
          "name": "tokenId",
          "type": "uint256"
        }
      ],
      "name": "ERC721InsufficientApproval",
      "type": "error"
    },
    {
      "inputs": [
        {
          "internalType": "address",
          "name": "approver",
          "type": "address"
        }
      ],
      "name": "ERC721InvalidApprover",
      "type": "error"
    },
    {
      "inputs": [
        {
          "internalType": "address",
          "name": "operator",
          "type": "address"
        }
      ],
      "name": "ERC721InvalidOperator",
      "type": "error"
    },
    {
      "inputs": [
        {
          "internalType": "address",
          "name": "owner",
          "type": "address"
        }
      ],
      "name": "ERC721InvalidOwner",
      "type": "error"
    },
    {
      "inputs": [
        {
          "internalType": "address",
          "name": "receiver",
          "type": "address"
        }
      ],
      "name": "ERC721InvalidReceiver",
      "type": "error"
    },
    {
      "inputs": [
        {
          "internalType": "address",
          "name": "sender",
          "type": "address"
        }
      ],
      "name": "ERC721InvalidSender",
      "type": "error"
    },
    {
      "inputs": [
        {
          "internalType": "uint256",
          "name": "tokenId",
          "type": "uint256"
        }
      ],
      "name": "ERC721NonexistentToken",
      "type": "error"
    },
    {
      "inputs": [
        {
          "internalType": "address",
          "name": "owner",
          "type": "address"
        },
        {
          "internalType": "uint256",
          "name": "index",
          "type": "uint256"
        }
      ],
      "name": "ERC721OutOfBoundsIndex",
      "type": "error"
    },
    {
      "inputs": [],
      "name": "EmptyArgs",
      "type": "error"
    },
    {
      "inputs": [],
      "name": "EmptySecrets",
      "type": "error"
    },
    {
      "inputs": [],
      "name": "EmptySource",
      "type": "error"
    },
    {
      "inputs": [],
      "name": "EnforcedPause",
      "type": "error"
    },
    {
      "inputs": [],
      "name": "ExpectedPause",
      "type": "error"
    },
    {
      "inputs": [],
      "name": "NoInlineSecrets",
      "type": "error"
    },
    {
      "inputs": [],
      "name": "OnlyRouterCanFulfill",
      "type": "error"
    },
    {
      "inputs": [
        {
          "internalType": "bytes32",
          "name": "requestId",
          "type": "bytes32"
        }
      ],
      "name": "UnexpectedRequestID",
      "type": "error"
    },
    {
      "anonymous": false,
      "inputs": [
        {
          "indexed": true,
          "internalType": "address",
          "name": "owner",
          "type": "address"
        },
        {
          "indexed": true,
          "internalType": "address",
          "name": "approved",
          "type": "address"
        },
        {
          "indexed": true,
          "internalType": "uint256",
          "name": "tokenId",
          "type": "uint256"
        }
      ],
      "name": "Approval",
      "type": "event"
    },
    {
      "anonymous": false,
      "inputs": [
        {
          "indexed": true,
          "internalType": "address",
          "name": "owner",
          "type": "address"
        },
        {
          "indexed": true,
          "internalType": "address",
          "name": "operator",
          "type": "address"
        },
        {
          "indexed": false,
          "internalType": "bool",
          "name": "approved",
          "type": "bool"
        }
      ],
      "name": "ApprovalForAll",
      "type": "event"
    },
    {
      "anonymous": false,
      "inputs": [
        {
          "indexed": false,
          "internalType": "uint256",
          "name": "_fromTokenId",
          "type": "uint256"
        },
        {
          "indexed": false,
          "internalType": "uint256",
          "name": "_toTokenId",
          "type": "uint256"
        }
      ],
      "name": "BatchMetadataUpdate",
      "type": "event"
    },
    {
      "anonymous": false,
      "inputs": [
        {
          "indexed": true,
          "internalType": "bytes32",
          "name": "requestId",
          "type": "bytes32"
        },
        {
          "indexed": false,
          "internalType": "bytes",
          "name": "response",
          "type": "bytes"
        },
        {
          "indexed": false,
          "internalType": "bytes",
          "name": "err",
          "type": "bytes"
        }
      ],
      "name": "FunctionsResponse",
      "type": "event"
    },
    {
      "anonymous": false,
      "inputs": [
        {
          "indexed": false,
          "internalType": "uint256",
          "name": "_tokenId",
          "type": "uint256"
        }
      ],
      "name": "MetadataUpdate",
      "type": "event"
    },
    {
      "anonymous": false,
      "inputs": [
        {
          "indexed": true,
          "internalType": "uint256",
          "name": "tokenId",
          "type": "uint256"
        },
        {
          "indexed": false,
          "internalType": "string",
          "name": "name",
          "type": "string"
        },
        {
          "indexed": false,
          "internalType": "string",
          "name": "description",
          "type": "string"
        },
        {
          "indexed": false,
          "internalType": "string",
          "name": "image",
          "type": "string"
        }
      ],
      "name": "MetadataUpdated",
      "type": "event"
    },
    {
      "anonymous": false,
      "inputs": [
        {
          "indexed": true,
          "internalType": "address",
          "name": "from",
          "type": "address"
        },
        {
          "indexed": true,
          "internalType": "address",
          "name": "to",
          "type": "address"
        }
      ],
      "name": "OwnershipTransferRequested",
      "type": "event"
    },
    {
      "anonymous": false,
      "inputs": [
        {
          "indexed": true,
          "internalType": "address",
          "name": "from",
          "type": "address"
        },
        {
          "indexed": true,
          "internalType": "address",
          "name": "to",
          "type": "address"
        }
      ],
      "name": "OwnershipTransferred",
      "type": "event"
    },
    {
      "anonymous": false,
      "inputs": [
        {
          "indexed": false,
          "internalType": "address",
          "name": "account",
          "type": "address"
        }
      ],
      "name": "Paused",
      "type": "event"
    },
    {
      "anonymous": false,
      "inputs": [
        {
          "indexed": true,
          "internalType": "bytes32",
          "name": "id",
          "type": "bytes32"
        }
      ],
      "name": "RequestFulfilled",
      "type": "event"
    },
    {
      "anonymous": false,
      "inputs": [
        {
          "indexed": false,
          "internalType": "bytes32",
          "name": "req1",
          "type": "bytes32"
        },
        {
          "indexed": false,
          "internalType": "bytes32",
          "name": "req2",
          "type": "bytes32"
        }
      ],
      "name": "RequestMismatch",
      "type": "event"
    },
    {
      "anonymous": false,
      "inputs": [
        {
          "indexed": true,
          "internalType": "bytes32",
          "name": "id",
          "type": "bytes32"
        }
      ],
      "name": "RequestSent",
      "type": "event"
    },
    {
      "anonymous": false,
      "inputs": [
        {
          "indexed": true,
          "internalType": "address",
          "name": "from",
          "type": "address"
        },
        {
          "indexed": true,
          "internalType": "address",
          "name": "to",
          "type": "address"
        },
        {
          "indexed": true,
          "internalType": "uint256",
          "name": "tokenId",
          "type": "uint256"
        }
      ],
      "name": "Transfer",
      "type": "event"
    },
    {
      "anonymous": false,
      "inputs": [
        {
          "indexed": false,
          "internalType": "address",
          "name": "account",
          "type": "address"
        }
      ],
      "name": "Unpaused",
      "type": "event"
    },
    {
      "inputs": [],
      "name": "acceptOwnership",
      "outputs": [],
      "stateMutability": "nonpayable",
      "type": "function"
    },
    {
      "inputs": [
        {
          "internalType": "address",
          "name": "to",
          "type": "address"
        },
        {
          "internalType": "uint256",
          "name": "tokenId",
          "type": "uint256"
        }
      ],
      "name": "approve",
      "outputs": [],
      "stateMutability": "nonpayable",
      "type": "function"
    },
    {
      "inputs": [
        {
          "internalType": "address",
          "name": "owner",
          "type": "address"
        }
      ],
      "name": "balanceOf",
      "outputs": [
        {
          "internalType": "uint256",
          "name": "",
          "type": "uint256"
        }
      ],
      "stateMutability": "view",
      "type": "function"
    },
    {
      "inputs": [
        {
          "internalType": "uint256",
          "name": "tokenId",
          "type": "uint256"
        }
      ],
      "name": "getAddressForTokenId",
      "outputs": [
        {
          "internalType": "address",
          "name": "",
          "type": "address"
        }
      ],
      "stateMutability": "view",
      "type": "function"
    },
    {
      "inputs": [
        {
          "internalType": "uint256",
          "name": "tokenId",
          "type": "uint256"
        }
      ],
      "name": "getApproved",
      "outputs": [
        {
          "internalType": "address",
          "name": "",
          "type": "address"
        }
      ],
      "stateMutability": "view",
      "type": "function"
    },
    {
      "inputs": [
        {
          "internalType": "bytes32",
          "name": "requestId",
          "type": "bytes32"
        },
        {
          "internalType": "bytes",
          "name": "response",
          "type": "bytes"
        },
        {
          "internalType": "bytes",
          "name": "err",
          "type": "bytes"
        }
      ],
      "name": "handleOracleFulfillment",
      "outputs": [],
      "stateMutability": "nonpayable",
      "type": "function"
    },
    {
      "inputs": [
        {
          "internalType": "address",
          "name": "owner",
          "type": "address"
        },
        {
          "internalType": "address",
          "name": "operator",
          "type": "address"
        }
      ],
      "name": "isApprovedForAll",
      "outputs": [
        {
          "internalType": "bool",
          "name": "",
          "type": "bool"
        }
      ],
      "stateMutability": "view",
      "type": "function"
    },
    {
      "inputs": [
        {
          "internalType": "string",
          "name": "source",
          "type": "string"
        },
        {
          "internalType": "bytes",
          "name": "encryptedSecretsUrl",
          "type": "bytes"
        },
        {
          "internalType": "string[]",
          "name": "args",
          "type": "string[]"
        },
        {
          "internalType": "uint64",
          "name": "subscriptionId",
          "type": "uint64"
        }
      ],
      "name": "mintRequest",
      "outputs": [
        {
          "internalType": "bytes32",
          "name": "requestId",
          "type": "bytes32"
        }
      ],
      "stateMutability": "nonpayable",
      "type": "function"
    },
    {
      "inputs": [],
      "name": "name",
      "outputs": [
        {
          "internalType": "string",
          "name": "",
          "type": "string"
        }
      ],
      "stateMutability": "view",
      "type": "function"
    },
    {
      "inputs": [
        {
          "internalType": "uint256",
          "name": "",
          "type": "uint256"
        }
      ],
      "name": "originalMinter",
      "outputs": [
        {
          "internalType": "address",
          "name": "",
          "type": "address"
        }
      ],
      "stateMutability": "view",
      "type": "function"
    },
    {
      "inputs": [],
      "name": "owner",
      "outputs": [
        {
          "internalType": "address",
          "name": "",
          "type": "address"
        }
      ],
      "stateMutability": "view",
      "type": "function"
    },
    {
      "inputs": [
        {
          "internalType": "uint256",
          "name": "tokenId",
          "type": "uint256"
        }
      ],
      "name": "ownerOf",
      "outputs": [
        {
          "internalType": "address",
          "name": "",
          "type": "address"
        }
      ],
      "stateMutability": "view",
      "type": "function"
    },
    {
      "inputs": [],
      "name": "paused",
      "outputs": [
        {
          "internalType": "bool",
          "name": "",
          "type": "bool"
        }
      ],
      "stateMutability": "view",
      "type": "function"
    },
    {
      "inputs": [],
      "name": "s_lastError",
      "outputs": [
        {
          "internalType": "bytes",
          "name": "",
          "type": "bytes"
        }
      ],
      "stateMutability": "view",
      "type": "function"
    },
    {
      "inputs": [],
      "name": "s_lastRequestId",
      "outputs": [
        {
          "internalType": "bytes32",
          "name": "",
          "type": "bytes32"
        }
      ],
      "stateMutability": "view",
      "type": "function"
    },
    {
      "inputs": [],
      "name": "s_lastResponse",
      "outputs": [
        {
          "internalType": "bytes",
          "name": "",
          "type": "bytes"
        }
      ],
      "stateMutability": "view",
      "type": "function"
    },
    {
      "inputs": [
        {
          "internalType": "address",
          "name": "from",
          "type": "address"
        },
        {
          "internalType": "address",
          "name": "to",
          "type": "address"
        },
        {
          "internalType": "uint256",
          "name": "tokenId",
          "type": "uint256"
        }
      ],
      "name": "safeTransferFrom",
      "outputs": [],
      "stateMutability": "nonpayable",
      "type": "function"
    },
    {
      "inputs": [
        {
          "internalType": "address",
          "name": "from",
          "type": "address"
        },
        {
          "internalType": "address",
          "name": "to",
          "type": "address"
        },
        {
          "internalType": "uint256",
          "name": "tokenId",
          "type": "uint256"
        },
        {
          "internalType": "bytes",
          "name": "data",
          "type": "bytes"
        }
      ],
      "name": "safeTransferFrom",
      "outputs": [],
      "stateMutability": "nonpayable",
      "type": "function"
    },
    {
      "inputs": [
        {
          "internalType": "bytes",
          "name": "request",
          "type": "bytes"
        },
        {
          "internalType": "uint64",
          "name": "subscriptionId",
          "type": "uint64"
        }
      ],
      "name": "sendRequestCBOR",
      "outputs": [
        {
          "internalType": "bytes32",
          "name": "requestId",
          "type": "bytes32"
        }
      ],
      "stateMutability": "nonpayable",
      "type": "function"
    },
    {
      "inputs": [
        {
          "internalType": "address",
          "name": "operator",
          "type": "address"
        },
        {
          "internalType": "bool",
          "name": "approved",
          "type": "bool"
        }
      ],
      "name": "setApprovalForAll",
      "outputs": [],
      "stateMutability": "nonpayable",
      "type": "function"
    },
    {
      "inputs": [
        {
          "internalType": "bytes4",
          "name": "interfaceId",
          "type": "bytes4"
        }
      ],
      "name": "supportsInterface",
      "outputs": [
        {
          "internalType": "bool",
          "name": "",
          "type": "bool"
        }
      ],
      "stateMutability": "view",
      "type": "function"
    },
    {
      "inputs": [],
      "name": "symbol",
      "outputs": [
        {
          "internalType": "string",
          "name": "",
          "type": "string"
        }
      ],
      "stateMutability": "view",
      "type": "function"
    },
    {
      "inputs": [
        {
          "internalType": "uint256",
          "name": "index",
          "type": "uint256"
        }
      ],
      "name": "tokenByIndex",
      "outputs": [
        {
          "internalType": "uint256",
          "name": "",
          "type": "uint256"
        }
      ],
      "stateMutability": "view",
      "type": "function"
    },
    {
      "inputs": [
        {
          "internalType": "address",
          "name": "owner",
          "type": "address"
        },
        {
          "internalType": "uint256",
          "name": "index",
          "type": "uint256"
        }
      ],
      "name": "tokenOfOwnerByIndex",
      "outputs": [
        {
          "internalType": "uint256",
          "name": "",
          "type": "uint256"
        }
      ],
      "stateMutability": "view",
      "type": "function"
    },
    {
      "inputs": [
        {
          "internalType": "uint256",
          "name": "tokenId",
          "type": "uint256"
        }
      ],
      "name": "tokenURI",
      "outputs": [
        {
          "internalType": "string",
          "name": "",
          "type": "string"
        }
      ],
      "stateMutability": "view",
      "type": "function"
    },
    {
      "inputs": [],
      "name": "totalSupply",
      "outputs": [
        {
          "internalType": "uint256",
          "name": "",
          "type": "uint256"
        }
      ],
      "stateMutability": "view",
      "type": "function"
    },
    {
      "inputs": [
        {
          "internalType": "address",
          "name": "from",
          "type": "address"
        },
        {
          "internalType": "address",
          "name": "to",
          "type": "address"
        },
        {
          "internalType": "uint256",
          "name": "tokenId",
          "type": "uint256"
        }
      ],
      "name": "transferFrom",
      "outputs": [],
      "stateMutability": "nonpayable",
      "type": "function"
    },
    {
      "inputs": [
        {
          "internalType": "address",
          "name": "to",
          "type": "address"
        }
      ],
      "name": "transferOwnership",
      "outputs": [],
      "stateMutability": "nonpayable",
      "type": "function"
    }
  ],
  "bytecode": "0x60a06040527f66756e2d6176616c616e6368652d66756a692d3100000000000000000000000060001b601255620493e0601360006101000a81548163ffffffff021916908363ffffffff1602179055503480156200005c57600080fd5b506040516200556e3803806200556e833981810160405281019062000082919062000408565b33806000836040518060400160405280600c81526020017f426574626c6f636b2042696f00000000000000000000000000000000000000008152506040518060400160405280600381526020017f42424200000000000000000000000000000000000000000000000000000000008152508160009081620001049190620006b4565b508060019081620001169190620006b4565b5050506000600b60006101000a81548160ff0219169083151502179055508073ffffffffffffffffffffffffffffffffffffffff1660808173ffffffffffffffffffffffffffffffffffffffff168152505050600073ffffffffffffffffffffffffffffffffffffffff168273ffffffffffffffffffffffffffffffffffffffff1603620001db576040517f08c379a0000000000000000000000000000000000000000000000000000000008152600401620001d290620007fc565b60405180910390fd5b81600b60016101000a81548173ffffffffffffffffffffffffffffffffffffffff021916908373ffffffffffffffffffffffffffffffffffffffff160217905550600073ffffffffffffffffffffffffffffffffffffffff168173ffffffffffffffffffffffffffffffffffffffff1614620002635762000262816200026d60201b60201c565b5b5050505062000890565b3373ffffffffffffffffffffffffffffffffffffffff168173ffffffffffffffffffffffffffffffffffffffff1603620002de576040517f08c379a0000000000000000000000000000000000000000000000000000000008152600401620002d5906200086e565b60405180910390fd5b80600c60006101000a81548173ffffffffffffffffffffffffffffffffffffffff021916908373ffffffffffffffffffffffffffffffffffffffff1602179055508073ffffffffffffffffffffffffffffffffffffffff16600b60019054906101000a900473ffffffffffffffffffffffffffffffffffffffff1673ffffffffffffffffffffffffffffffffffffffff167fed8889f560326eb138920d842192f0eb3dd22b4f139c87a2c57538e05bae127860405160405180910390a350565b600080fd5b600073ffffffffffffffffffffffffffffffffffffffff82169050919050565b6000620003d082620003a3565b9050919050565b620003e281620003c3565b8114620003ee57600080fd5b50565b6000815190506200040281620003d7565b92915050565b6000602082840312156200042157620004206200039e565b5b60006200043184828501620003f1565b91505092915050565b600081519050919050565b7f4e487b7100000000000000000000000000000000000000000000000000000000600052604160045260246000fd5b7f4e487b7100000000000000000000000000000000000000000000000000000000600052602260045260246000fd5b60006002820490506001821680620004bc57607f821691505b602082108103620004d257620004d162000474565b5b50919050565b60008190508160005260206000209050919050565b60006020601f8301049050919050565b600082821b905092915050565b6000600883026200053c7fffffffffffffffffffffffffffffffffffffffffffffffffffffffffffffffff82620004fd565b620005488683620004fd565b95508019841693508086168417925050509392505050565b6000819050919050565b6000819050919050565b6000620005956200058f620005898462000560565b6200056a565b62000560565b9050919050565b6000819050919050565b620005b18362000574565b620005c9620005c0826200059c565b8484546200050a565b825550505050565b600090565b620005e0620005d1565b620005ed818484620005a6565b505050565b5b81811015620006155762000609600082620005d6565b600181019050620005f3565b5050565b601f82111562000664576200062e81620004d8565b6200063984620004ed565b8101602085101562000649578190505b620006616200065885620004ed565b830182620005f2565b50505b505050565b600082821c905092915050565b6000620006896000198460080262000669565b1980831691505092915050565b6000620006a4838362000676565b9150826002028217905092915050565b620006bf826200043a565b67ffffffffffffffff811115620006db57620006da62000445565b5b620006e78254620004a3565b620006f482828562000619565b600060209050601f8311600181146200072c576000841562000717578287015190505b62000723858262000696565b86555062000793565b601f1984166200073c86620004d8565b60005b8281101562000766578489015182556001820191506020850194506020810190506200073f565b8683101562000786578489015162000782601f89168262000676565b8355505b6001600288020188555050505b505050505050565b600082825260208201905092915050565b7f43616e6e6f7420736574206f776e657220746f207a65726f0000000000000000600082015250565b6000620007e46018836200079b565b9150620007f182620007ac565b602082019050919050565b600060208201905081810360008301526200081781620007d5565b9050919050565b7f43616e6e6f74207472616e7366657220746f2073656c66000000000000000000600082015250565b6000620008566017836200079b565b915062000863826200081e565b602082019050919050565b60006020820190508181036000830152620008898162000847565b9050919050565b608051614cbb620008b36000396000818161069f015261142a0152614cbb6000f3fe608060405234801561001057600080fd5b50600436106101c45760003560e01c80634f6ccce7116100f9578063a22cb46511610097578063b88d4fde11610071578063b88d4fde1461052f578063c87b56dd1461054b578063e985e9c51461057b578063f2fde38b146105ab576101c4565b8063a22cb465146104c5578063b1e21749146104e1578063b2884c1a146104ff576101c4565b806370a08231116100d357806370a082311461044f57806379ba50971461047f5780638da5cb5b1461048957806395d89b41146104a7576101c4565b80634f6ccce7146103d15780635c975abb146104015780636352211e1461041f576101c4565b806323b872dd116101665780633944ea3a116101405780633944ea3a1461034957806342842e0e146103675780634b0795a8146103835780634d598342146103a1576101c4565b806323b872dd146102cd5780632d414ae5146102e95780632f745c5914610319576101c4565b8063095ea7b3116101a2578063095ea7b3146102475780630ca7617514610263578063170b70f11461027f57806318160ddd146102af576101c4565b806301ffc9a7146101c957806306fdde03146101f9578063081812fc14610217575b600080fd5b6101e360048036038101906101de91906136c0565b6105c7565b6040516101f09190613708565b60405180910390f35b6102016105d9565b60405161020e91906137b3565b60405180910390f35b610231600480360381019061022c919061380b565b61066b565b60405161023e9190613879565b60405180910390f35b610261600480360381019061025c91906138c0565b610687565b005b61027d60048036038101906102789190613a6b565b61069d565b005b61029960048036038101906102949190613b36565b61075f565b6040516102a69190613ba1565b60405180910390f35b6102b761079a565b6040516102c49190613bcb565b60405180910390f35b6102e760048036038101906102e29190613be6565b6107a7565b005b61030360048036038101906102fe919061380b565b6108a9565b6040516103109190613879565b60405180910390f35b610333600480360381019061032e91906138c0565b6108dc565b6040516103409190613bcb565b60405180910390f35b610351610985565b60405161035e9190613c8e565b60405180910390f35b610381600480360381019061037c9190613be6565b610a13565b005b61038b610a33565b6040516103989190613c8e565b60405180910390f35b6103bb60048036038101906103b69190613e37565b610ac1565b6040516103c89190613ba1565b60405180910390f35b6103eb60048036038101906103e6919061380b565b610c5f565b6040516103f89190613bcb565b60405180910390f35b610409610cd5565b6040516104169190613708565b60405180910390f35b6104396004803603810190610434919061380b565b610cec565b6040516104469190613879565b60405180910390f35b61046960048036038101906104649190613ef2565b610cfe565b6040516104769190613bcb565b60405180910390f35b610487610db8565b005b610491610f4f565b60405161049e9190613879565b60405180910390f35b6104af610f79565b6040516104bc91906137b3565b60405180910390f35b6104df60048036038101906104da9190613f4b565b61100b565b005b6104e9611021565b6040516104f69190613ba1565b60405180910390f35b6105196004803603810190610514919061380b565b611027565b6040516105269190613879565b60405180910390f35b61054960048036038101906105449190613f8b565b611064565b005b6105656004803603810190610560919061380b565b611081565b60405161057291906137b3565b60405180910390f35b6105956004803603810190610590919061400e565b611093565b6040516105a29190613708565b60405180910390f35b6105c560048036038101906105c09190613ef2565b611127565b005b60006105d28261113b565b9050919050565b6060600080546105e89061407d565b80601f01602080910402602001604051908101604052809291908181526020018280546106149061407d565b80156106615780601f1061063657610100808354040283529160200191610661565b820191906000526020600020905b81548152906001019060200180831161064457829003601f168201915b5050505050905090565b60006106768261119c565b5061068082611224565b9050919050565b6106998282610694611261565b611269565b5050565b7f000000000000000000000000000000000000000000000000000000000000000073ffffffffffffffffffffffffffffffffffffffff163373ffffffffffffffffffffffffffffffffffffffff1614610722576040517fc6829f8300000000000000000000000000000000000000000000000000000000815260040160405180910390fd5b61072d83838361127b565b827f85e1543bf2f84fe80c6badbce3648c8539ad1df4d2b3d822938ca0538be727e660405160405180910390a2505050565b6000610769611393565b6107898383601360009054906101000a900463ffffffff16601254611425565b600e81905550600e54905092915050565b6000600880549050905090565b600073ffffffffffffffffffffffffffffffffffffffff168273ffffffffffffffffffffffffffffffffffffffff16036108195760006040517f64a0ae920000000000000000000000000000000000000000000000000000000081526004016108109190613879565b60405180910390fd5b600061082d8383610828611261565b611508565b90508373ffffffffffffffffffffffffffffffffffffffff168173ffffffffffffffffffffffffffffffffffffffff16146108a3578382826040517f64283d7b00000000000000000000000000000000000000000000000000000000815260040161089a939291906140ae565b60405180910390fd5b50505050565b60116020528060005260406000206000915054906101000a900473ffffffffffffffffffffffffffffffffffffffff1681565b60006108e783610cfe565b821061092c5782826040517fa57d13dc0000000000000000000000000000000000000000000000000000000081526004016109239291906140e5565b60405180910390fd5b600660008473ffffffffffffffffffffffffffffffffffffffff1673ffffffffffffffffffffffffffffffffffffffff168152602001908152602001600020600083815260200190815260200160002054905092915050565b600f80546109929061407d565b80601f01602080910402602001604051908101604052809291908181526020018280546109be9061407d565b8015610a0b5780601f106109e057610100808354040283529160200191610a0b565b820191906000526020600020905b8154815290600101906020018083116109ee57829003601f168201915b505050505081565b610a2e83838360405180602001604052806000815250611064565b505050565b60108054610a409061407d565b80601f0160208091040260200160405190810160405280929190818152602001828054610a6c9061407d565b8015610ab95780601f10610a8e57610100808354040283529160200191610ab9565b820191906000526020600020905b815481529060010190602001808311610a9c57829003601f168201915b505050505081565b600080610acd33610cfe565b14610b0d576040517f08c379a0000000000000000000000000000000000000000000000000000000008152600401610b049061415a565b60405180910390fd5b60006001600d54610b1e91906141a9565b90506000600267ffffffffffffffff811115610b3d57610b3c613940565b5b604051908082528060200260200182016040528015610b7057816020015b6060815260200190600190039081610b5b5790505b50905084600081518110610b8757610b866141dd565b5b602002602001015181600081518110610ba357610ba26141dd565b5b6020026020010181905250610bb78261151e565b81600181518110610bcb57610bca6141dd565b5b6020026020010181905250610be082336115ec565b610be86135a8565b610bfb888261164290919063ffffffff16565b610c0e878261165390919063ffffffff16565b610c2182826116cc90919063ffffffff16565b610c49610c2d82611714565b86601360009054906101000a900463ffffffff16601254611425565b600e81905550600e549350505050949350505050565b6000610c6961079a565b8210610caf576000826040517fa57d13dc000000000000000000000000000000000000000000000000000000008152600401610ca69291906140e5565b60405180910390fd5b60088281548110610cc357610cc26141dd565b5b90600052602060002001549050919050565b6000600b60009054906101000a900460ff16905090565b6000610cf78261119c565b9050919050565b60008073ffffffffffffffffffffffffffffffffffffffff168273ffffffffffffffffffffffffffffffffffffffff1603610d715760006040517f89c62b64000000000000000000000000000000000000000000000000000000008152600401610d689190613879565b60405180910390fd5b600360008373ffffffffffffffffffffffffffffffffffffffff1673ffffffffffffffffffffffffffffffffffffffff168152602001908152602001600020549050919050565b600c60009054906101000a900473ffffffffffffffffffffffffffffffffffffffff1673ffffffffffffffffffffffffffffffffffffffff163373ffffffffffffffffffffffffffffffffffffffff1614610e48576040517f08c379a0000000000000000000000000000000000000000000000000000000008152600401610e3f90614258565b60405180910390fd5b6000600b60019054906101000a900473ffffffffffffffffffffffffffffffffffffffff16905033600b60016101000a81548173ffffffffffffffffffffffffffffffffffffffff021916908373ffffffffffffffffffffffffffffffffffffffff1602179055506000600c60006101000a81548173ffffffffffffffffffffffffffffffffffffffff021916908373ffffffffffffffffffffffffffffffffffffffff1602179055503373ffffffffffffffffffffffffffffffffffffffff168173ffffffffffffffffffffffffffffffffffffffff167f8be0079c531659141344cd1fd0a4f28419497f9722a3daafe3b4186f6b6457e060405160405180910390a350565b6000600b60019054906101000a900473ffffffffffffffffffffffffffffffffffffffff16905090565b606060018054610f889061407d565b80601f0160208091040260200160405190810160405280929190818152602001828054610fb49061407d565b80156110015780601f10610fd657610100808354040283529160200191611001565b820191906000526020600020905b815481529060010190602001808311610fe457829003601f168201915b5050505050905090565b61101d611016611261565b8383611b30565b5050565b600e5481565b60006011600083815260200190815260200160002060009054906101000a900473ffffffffffffffffffffffffffffffffffffffff169050919050565b61106f8484846107a7565b61107b84848484611c9f565b50505050565b606061108c82611e56565b9050919050565b6000600560008473ffffffffffffffffffffffffffffffffffffffff1673ffffffffffffffffffffffffffffffffffffffff16815260200190815260200160002060008373ffffffffffffffffffffffffffffffffffffffff1673ffffffffffffffffffffffffffffffffffffffff16815260200190815260200160002060009054906101000a900460ff16905092915050565b61112f611393565b61113881611f69565b50565b6000634906490660e01b7bffffffffffffffffffffffffffffffffffffffffffffffffffffffff1916827bffffffffffffffffffffffffffffffffffffffffffffffffffffffff19161480611195575061119482612097565b5b9050919050565b6000806111a883612111565b9050600073ffffffffffffffffffffffffffffffffffffffff168173ffffffffffffffffffffffffffffffffffffffff160361121b57826040517f7e2732890000000000000000000000000000000000000000000000000000000081526004016112129190613bcb565b60405180910390fd5b80915050919050565b60006004600083815260200190815260200160002060009054906101000a900473ffffffffffffffffffffffffffffffffffffffff169050919050565b600033905090565b611276838383600161214e565b505050565b82600e54146112c157826040517fd068bf5b0000000000000000000000000000000000000000000000000000000081526004016112b89190613ba1565b60405180910390fd5b60006001600d546112d291906141a9565b905082600f90816112e39190614424565b5081601090816112f39190614424565b506113316011600083815260200190815260200160002060009054906101000a900473ffffffffffffffffffffffffffffffffffffffff1682612313565b611351600d6000815480929190611347906144f6565b9190505584612331565b837ff0f413c077269966d7e2dabc8eb21ba825fef41a93078a6ae69923b9c718f444600f60106040516113859291906145c2565b60405180910390a250505050565b600b60019054906101000a900473ffffffffffffffffffffffffffffffffffffffff1673ffffffffffffffffffffffffffffffffffffffff163373ffffffffffffffffffffffffffffffffffffffff1614611423576040517f08c379a000000000000000000000000000000000000000000000000000000000815260040161141a90614645565b60405180910390fd5b565b6000807f000000000000000000000000000000000000000000000000000000000000000073ffffffffffffffffffffffffffffffffffffffff1663461d27628688600188886040518663ffffffff1660e01b815260040161148a9594939291906146b0565b6020604051808303816000875af11580156114a9573d6000803e3d6000fd5b505050506040513d601f19601f820116820180604052508101906114cd919061471f565b9050807f1131472297a800fee664d1d89cfa8f7676ff07189ecc53f80bbb5f4969099db860405160405180910390a280915050949350505050565b600061151584848461238d565b90509392505050565b60606000600161152d846124aa565b01905060008167ffffffffffffffff81111561154c5761154b613940565b5b6040519080825280601f01601f19166020018201604052801561157e5781602001600182028036833780820191505090505b509050600082602001820190505b6001156115e1578080600190039150507f3031323334353637383961626364656600000000000000000000000000000000600a86061a8153600a85816115d5576115d461474c565b5b0494506000850361158c575b819350505050919050565b806011600084815260200190815260200160002060006101000a81548173ffffffffffffffffffffffffffffffffffffffff021916908373ffffffffffffffffffffffffffffffffffffffff1602179055505050565b61164f82600080846125fd565b5050565b600081510361168e576040517fe889636f00000000000000000000000000000000000000000000000000000000815260040160405180910390fd5b6001826020019060028111156116a7576116a661477b565b5b908160028111156116bb576116ba61477b565b5b815250508082608001819052505050565b6000815103611707576040517ffe936cb700000000000000000000000000000000000000000000000000000000815260040160405180910390fd5b808260a001819052505050565b606060006117236101006126a7565b905061176d6040518060400160405280600c81526020017f636f64654c6f636174696f6e0000000000000000000000000000000000000000815250826126ce90919063ffffffff16565b611796836000015160028111156117875761178661477b565b5b826126f790919063ffffffff16565b6117de6040518060400160405280600881526020017f6c616e6775616765000000000000000000000000000000000000000000000000815250826126ce90919063ffffffff16565b611807836040015160008111156117f8576117f761477b565b5b826126f790919063ffffffff16565b61184f6040518060400160405280600681526020017f736f757263650000000000000000000000000000000000000000000000000000815250826126ce90919063ffffffff16565b6118668360600151826126ce90919063ffffffff16565b60008360a00151511115611922576118bc6040518060400160405280600481526020017f6172677300000000000000000000000000000000000000000000000000000000815250826126ce90919063ffffffff16565b6118c581612747565b60005b8360a0015151811015611917576119068460a0015182815181106118ef576118ee6141dd565b5b6020026020010151836126ce90919063ffffffff16565b80611910906144f6565b90506118c8565b506119218161276f565b5b60008360800151511115611a6357600060028111156119445761194361477b565b5b8360200151600281111561195b5761195a61477b565b5b03611992576040517fa80d31f700000000000000000000000000000000000000000000000000000000815260040160405180910390fd5b6119da6040518060400160405280600f81526020017f736563726574734c6f636174696f6e0000000000000000000000000000000000815250826126ce90919063ffffffff16565b611a03836020015160028111156119f4576119f361477b565b5b826126f790919063ffffffff16565b611a4b6040518060400160405280600781526020017f7365637265747300000000000000000000000000000000000000000000000000815250826126ce90919063ffffffff16565b611a6283608001518261279790919063ffffffff16565b5b60008360c00151511115611b1f57611ab96040518060400160405280600981526020017f6279746573417267730000000000000000000000000000000000000000000000815250826126ce90919063ffffffff16565b611ac281612747565b60005b8360c0015151811015611b1457611b038460c001518281518110611aec57611aeb6141dd565b5b60200260200101518361279790919063ffffffff16565b80611b0d906144f6565b9050611ac5565b50611b1e8161276f565b5b806000015160000151915050919050565b600073ffffffffffffffffffffffffffffffffffffffff168273ffffffffffffffffffffffffffffffffffffffff1603611ba157816040517f5b08ba18000000000000000000000000000000000000000000000000000000008152600401611b989190613879565b60405180910390fd5b80600560008573ffffffffffffffffffffffffffffffffffffffff1673ffffffffffffffffffffffffffffffffffffffff16815260200190815260200160002060008473ffffffffffffffffffffffffffffffffffffffff1673ffffffffffffffffffffffffffffffffffffffff16815260200190815260200160002060006101000a81548160ff0219169083151502179055508173ffffffffffffffffffffffffffffffffffffffff168373ffffffffffffffffffffffffffffffffffffffff167f17307eab39ab6107e8899845ad3d59bd9653f200f220920489ca2b5937696c3183604051611c929190613708565b60405180910390a3505050565b60008373ffffffffffffffffffffffffffffffffffffffff163b1115611e50578273ffffffffffffffffffffffffffffffffffffffff1663150b7a02611ce3611261565b8685856040518563ffffffff1660e01b8152600401611d0594939291906147aa565b6020604051808303816000875af1925050508015611d4157506040513d601f19601f82011682018060405250810190611d3e919061480b565b60015b611dc5573d8060008114611d71576040519150601f19603f3d011682016040523d82523d6000602084013e611d76565b606091505b506000815103611dbd57836040517f64a0ae92000000000000000000000000000000000000000000000000000000008152600401611db49190613879565b60405180910390fd5b805181602001fd5b63150b7a0260e01b7bffffffffffffffffffffffffffffffffffffffffffffffffffffffff1916817bffffffffffffffffffffffffffffffffffffffffffffffffffffffff191614611e4e57836040517f64a0ae92000000000000000000000000000000000000000000000000000000008152600401611e459190613879565b60405180910390fd5b505b50505050565b6060611e618261119c565b506000600a60008481526020019081526020016000208054611e829061407d565b80601f0160208091040260200160405190810160405280929190818152602001828054611eae9061407d565b8015611efb5780601f10611ed057610100808354040283529160200191611efb565b820191906000526020600020905b815481529060010190602001808311611ede57829003601f168201915b505050505090506000611f0c6127c0565b90506000815103611f21578192505050611f64565b600082511115611f56578082604051602001611f3e929190614874565b60405160208183030381529060405292505050611f64565b611f5f846127d7565b925050505b919050565b3373ffffffffffffffffffffffffffffffffffffffff168173ffffffffffffffffffffffffffffffffffffffff1603611fd7576040517f08c379a0000000000000000000000000000000000000000000000000000000008152600401611fce906148e4565b60405180910390fd5b80600c60006101000a81548173ffffffffffffffffffffffffffffffffffffffff021916908373ffffffffffffffffffffffffffffffffffffffff1602179055508073ffffffffffffffffffffffffffffffffffffffff16600b60019054906101000a900473ffffffffffffffffffffffffffffffffffffffff1673ffffffffffffffffffffffffffffffffffffffff167fed8889f560326eb138920d842192f0eb3dd22b4f139c87a2c57538e05bae127860405160405180910390a350565b60007f780e9d63000000000000000000000000000000000000000000000000000000007bffffffffffffffffffffffffffffffffffffffffffffffffffffffff1916827bffffffffffffffffffffffffffffffffffffffffffffffffffffffff1916148061210a575061210982612840565b5b9050919050565b60006002600083815260200190815260200160002060009054906101000a900473ffffffffffffffffffffffffffffffffffffffff169050919050565b80806121875750600073ffffffffffffffffffffffffffffffffffffffff168273ffffffffffffffffffffffffffffffffffffffff1614155b156122bb5760006121978461119c565b9050600073ffffffffffffffffffffffffffffffffffffffff168373ffffffffffffffffffffffffffffffffffffffff161415801561220257508273ffffffffffffffffffffffffffffffffffffffff168173ffffffffffffffffffffffffffffffffffffffff1614155b801561221557506122138184611093565b155b1561225757826040517fa9fbf51f00000000000000000000000000000000000000000000000000000000815260040161224e9190613879565b60405180910390fd5b81156122b957838573ffffffffffffffffffffffffffffffffffffffff168273ffffffffffffffffffffffffffffffffffffffff167f8c5be1e5ebec7d5bd14f71427d1e84f3dd0314c0f7b2291e5b200ac8c7c3b92560405160405180910390a45b505b836004600085815260200190815260200160002060006101000a81548173ffffffffffffffffffffffffffffffffffffffff021916908373ffffffffffffffffffffffffffffffffffffffff16021790555050505050565b61232d828260405180602001604052806000815250612922565b5050565b80600a60008481526020019081526020016000209081612351919061495f565b507ff8e1a15aba9398e019f0b49df1a4fde98ee17ae345cb5f6b5e2c27f5033e8ce7826040516123819190613bcb565b60405180910390a15050565b60008061239b85858561293e565b9050600073ffffffffffffffffffffffffffffffffffffffff168173ffffffffffffffffffffffffffffffffffffffff16036123df576123da84612b58565b61241e565b8473ffffffffffffffffffffffffffffffffffffffff168173ffffffffffffffffffffffffffffffffffffffff161461241d5761241c8185612ba1565b5b5b600073ffffffffffffffffffffffffffffffffffffffff168573ffffffffffffffffffffffffffffffffffffffff16036124605761245b84612d02565b61249f565b8473ffffffffffffffffffffffffffffffffffffffff168173ffffffffffffffffffffffffffffffffffffffff161461249e5761249d8585612dd3565b5b5b809150509392505050565b600080600090507a184f03e93ff9f4daa797ed6e38ed64bf6a1f0100000000000000008310612508577a184f03e93ff9f4daa797ed6e38ed64bf6a1f01000000000000000083816124fe576124fd61474c565b5b0492506040810190505b6d04ee2d6d415b85acef81000000008310612545576d04ee2d6d415b85acef8100000000838161253b5761253a61474c565b5b0492506020810190505b662386f26fc10000831061257457662386f26fc10000838161256a5761256961474c565b5b0492506010810190505b6305f5e100831061259d576305f5e10083816125935761259261474c565b5b0492506008810190505b61271083106125c25761271083816125b8576125b761474c565b5b0492506004810190505b606483106125e557606483816125db576125da61474c565b5b0492506002810190505b600a83106125f4576001810190505b80915050919050565b6000815103612638576040517f22ce3edd00000000000000000000000000000000000000000000000000000000815260040160405180910390fd5b82846000019060028111156126505761264f61477b565b5b908160028111156126645761266361477b565b5b8152505081846040019060008111156126805761267f61477b565b5b908160008111156126945761269361477b565b5b8152505080846060018190525050505050565b6126af61361a565b6126bd816000015183612e5e565b506000816020018181525050919050565b6126db8260038351612ed7565b6126f281836000015161308090919063ffffffff16565b505050565b61271960026005600660ff16901b17836000015161309c90919063ffffffff16565b50612743828260405160200161272f9190613bcb565b604051602081830303815290604052612797565b5050565b612752816004613106565b60018160200181815161276591906141a9565b9150818152505050565b61277a816007613106565b60018160200181815161278d9190614a31565b9150818152505050565b6127a48260028351612ed7565b6127bb81836000015161308090919063ffffffff16565b505050565b606060405180602001604052806000815250905090565b60606127e28261119c565b5060006127ed6127c0565b9050600081511161280d5760405180602001604052806000815250612838565b806128178461151e565b604051602001612828929190614874565b6040516020818303038152906040525b915050919050565b60007f80ac58cd000000000000000000000000000000000000000000000000000000007bffffffffffffffffffffffffffffffffffffffffffffffffffffffff1916827bffffffffffffffffffffffffffffffffffffffffffffffffffffffff1916148061290b57507f5b5e139f000000000000000000000000000000000000000000000000000000007bffffffffffffffffffffffffffffffffffffffffffffffffffffffff1916827bffffffffffffffffffffffffffffffffffffffffffffffffffffffff1916145b8061291b575061291a8261312c565b5b9050919050565b61292c8383613196565b6129396000848484611c9f565b505050565b60008061294a84612111565b9050600073ffffffffffffffffffffffffffffffffffffffff168373ffffffffffffffffffffffffffffffffffffffff161461298c5761298b81848661328f565b5b600073ffffffffffffffffffffffffffffffffffffffff168173ffffffffffffffffffffffffffffffffffffffff1614612a1d576129ce60008560008061214e565b6001600360008373ffffffffffffffffffffffffffffffffffffffff1673ffffffffffffffffffffffffffffffffffffffff168152602001908152602001600020600082825403925050819055505b600073ffffffffffffffffffffffffffffffffffffffff168573ffffffffffffffffffffffffffffffffffffffff1614612aa0576001600360008773ffffffffffffffffffffffffffffffffffffffff1673ffffffffffffffffffffffffffffffffffffffff168152602001908152602001600020600082825401925050819055505b846002600086815260200190815260200160002060006101000a81548173ffffffffffffffffffffffffffffffffffffffff021916908373ffffffffffffffffffffffffffffffffffffffff160217905550838573ffffffffffffffffffffffffffffffffffffffff168273ffffffffffffffffffffffffffffffffffffffff167fddf252ad1be2c89b69c2b068fc378daa952ba7f163c4a11628f55a4df523b3ef60405160405180910390a4809150509392505050565b6008805490506009600083815260200190815260200160002081905550600881908060018154018082558091505060019003906000526020600020016000909190919091505550565b6000612bac83610cfe565b9050600060076000848152602001908152602001600020549050818114612c91576000600660008673ffffffffffffffffffffffffffffffffffffffff1673ffffffffffffffffffffffffffffffffffffffff168152602001908152602001600020600084815260200190815260200160002054905080600660008773ffffffffffffffffffffffffffffffffffffffff1673ffffffffffffffffffffffffffffffffffffffff168152602001908152602001600020600084815260200190815260200160002081905550816007600083815260200190815260200160002081905550505b6007600084815260200190815260200160002060009055600660008573ffffffffffffffffffffffffffffffffffffffff1673ffffffffffffffffffffffffffffffffffffffff16815260200190815260200160002060008381526020019081526020016000206000905550505050565b60006001600880549050612d169190614a31565b9050600060096000848152602001908152602001600020549050600060088381548110612d4657612d456141dd565b5b906000526020600020015490508060088381548110612d6857612d676141dd565b5b906000526020600020018190555081600960008381526020019081526020016000208190555060096000858152602001908152602001600020600090556008805480612db757612db6614a65565b5b6001900381819060005260206000200160009055905550505050565b60006001612de084610cfe565b612dea9190614a31565b905081600660008573ffffffffffffffffffffffffffffffffffffffff1673ffffffffffffffffffffffffffffffffffffffff168152602001908152602001600020600083815260200190815260200160002081905550806007600084815260200190815260200160002081905550505050565b612e6661363a565b6000602083612e759190614a94565b14612ea157602082612e879190614a94565b6020612e939190614a31565b82612e9e91906141a9565b91505b818360200181815250506040518084526000815282810160200181811015612ec857600080fd5b80604052505082905092915050565b60178167ffffffffffffffff1611612f1257612f0c8160058460ff16901b60ff1617846000015161309c90919063ffffffff16565b5061307b565b60ff8167ffffffffffffffff1611612f7057612f45601860058460ff16901b17846000015161309c90919063ffffffff16565b50612f6a8167ffffffffffffffff16600185600001516133539092919063ffffffff16565b5061307a565b61ffff8167ffffffffffffffff1611612fcf57612fa4601960058460ff16901b17846000015161309c90919063ffffffff16565b50612fc98167ffffffffffffffff16600285600001516133539092919063ffffffff16565b50613079565b63ffffffff8167ffffffffffffffff161161303057613005601a60058460ff16901b17846000015161309c90919063ffffffff16565b5061302a8167ffffffffffffffff16600485600001516133539092919063ffffffff16565b50613078565b613051601b60058460ff16901b17846000015161309c90919063ffffffff16565b506130768167ffffffffffffffff16600885600001516133539092919063ffffffff16565b505b5b5b5b505050565b61308861363a565b613094838384516133e0565b905092915050565b6130a461363a565b6000836000015151905060006001826130bd91906141a9565b9050846020015182106130e1576130e0856002836130db9190614ac5565b6134c3565b5b845160208382010185815381518311156130f9578282525b5050849250505092915050565b613127601f60058360ff16901b17836000015161309c90919063ffffffff16565b505050565b60007f01ffc9a7000000000000000000000000000000000000000000000000000000007bffffffffffffffffffffffffffffffffffffffffffffffffffffffff1916827bffffffffffffffffffffffffffffffffffffffffffffffffffffffff1916149050919050565b600073ffffffffffffffffffffffffffffffffffffffff168273ffffffffffffffffffffffffffffffffffffffff16036132085760006040517f64a0ae920000000000000000000000000000000000000000000000000000000081526004016131ff9190613879565b60405180910390fd5b600061321683836000611508565b9050600073ffffffffffffffffffffffffffffffffffffffff168173ffffffffffffffffffffffffffffffffffffffff161461328a5760006040517f73c6ac6e0000000000000000000000000000000000000000000000000000000081526004016132819190613879565b60405180910390fd5b505050565b61329a8383836134e7565b61334e57600073ffffffffffffffffffffffffffffffffffffffff168373ffffffffffffffffffffffffffffffffffffffff160361330f57806040517f7e2732890000000000000000000000000000000000000000000000000000000081526004016133069190613bcb565b60405180910390fd5b81816040517f177e802f0000000000000000000000000000000000000000000000000000000081526004016133459291906140e5565b60405180910390fd5b505050565b61335b61363a565b600084600001515190506000818461337391906141a9565b9050856020015181111561339857613397866002836133929190614ac5565b6134c3565b5b60006001856101006133aa9190614c3a565b6133b49190614a31565b9050865182810187831982511617815281518411156133d1578382525b50508693505050509392505050565b6133e861363a565b82518211156133f657600080fd5b600084600001515190506000838261340e91906141a9565b90508560200151811115613433576134328660028361342d9190614ac5565b6134c3565b5b6000808751805185602083010193508085111561344e578482525b60208901925050505b60208610613495578051825260208261347091906141a9565b915060208161347f91906141a9565b905060208661348e9190614a31565b9550613457565b60006001876020036101000a0390508019825116818451168181178552505050879450505050509392505050565b6000826000015190506134d68383612e5e565b506134e18382613080565b50505050565b60008073ffffffffffffffffffffffffffffffffffffffff168373ffffffffffffffffffffffffffffffffffffffff161415801561359f57508273ffffffffffffffffffffffffffffffffffffffff168473ffffffffffffffffffffffffffffffffffffffff161480613560575061355f8484611093565b5b8061359e57508273ffffffffffffffffffffffffffffffffffffffff1661358683611224565b73ffffffffffffffffffffffffffffffffffffffff16145b5b90509392505050565b6040518060e00160405280600060028111156135c7576135c661477b565b5b8152602001600060028111156135e0576135df61477b565b5b81526020016000808111156135f8576135f761477b565b5b8152602001606081526020016060815260200160608152602001606081525090565b604051806040016040528061362d61363a565b8152602001600081525090565b604051806040016040528060608152602001600081525090565b6000604051905090565b600080fd5b600080fd5b60007fffffffff0000000000000000000000000000000000000000000000000000000082169050919050565b61369d81613668565b81146136a857600080fd5b50565b6000813590506136ba81613694565b92915050565b6000602082840312156136d6576136d561365e565b5b60006136e4848285016136ab565b91505092915050565b60008115159050919050565b613702816136ed565b82525050565b600060208201905061371d60008301846136f9565b92915050565b600081519050919050565b600082825260208201905092915050565b60005b8381101561375d578082015181840152602081019050613742565b60008484015250505050565b6000601f19601f8301169050919050565b600061378582613723565b61378f818561372e565b935061379f81856020860161373f565b6137a881613769565b840191505092915050565b600060208201905081810360008301526137cd818461377a565b905092915050565b6000819050919050565b6137e8816137d5565b81146137f357600080fd5b50565b600081359050613805816137df565b92915050565b6000602082840312156138215761382061365e565b5b600061382f848285016137f6565b91505092915050565b600073ffffffffffffffffffffffffffffffffffffffff82169050919050565b600061386382613838565b9050919050565b61387381613858565b82525050565b600060208201905061388e600083018461386a565b92915050565b61389d81613858565b81146138a857600080fd5b50565b6000813590506138ba81613894565b92915050565b600080604083850312156138d7576138d661365e565b5b60006138e5858286016138ab565b92505060206138f6858286016137f6565b9150509250929050565b6000819050919050565b61391381613900565b811461391e57600080fd5b50565b6000813590506139308161390a565b92915050565b600080fd5b600080fd5b7f4e487b7100000000000000000000000000000000000000000000000000000000600052604160045260246000fd5b61397882613769565b810181811067ffffffffffffffff8211171561399757613996613940565b5b80604052505050565b60006139aa613654565b90506139b6828261396f565b919050565b600067ffffffffffffffff8211156139d6576139d5613940565b5b6139df82613769565b9050602081019050919050565b82818337600083830152505050565b6000613a0e613a09846139bb565b6139a0565b905082815260208101848484011115613a2a57613a2961393b565b5b613a358482856139ec565b509392505050565b600082601f830112613a5257613a51613936565b5b8135613a628482602086016139fb565b91505092915050565b600080600060608486031215613a8457613a8361365e565b5b6000613a9286828701613921565b935050602084013567ffffffffffffffff811115613ab357613ab2613663565b5b613abf86828701613a3d565b925050604084013567ffffffffffffffff811115613ae057613adf613663565b5b613aec86828701613a3d565b9150509250925092565b600067ffffffffffffffff82169050919050565b613b1381613af6565b8114613b1e57600080fd5b50565b600081359050613b3081613b0a565b92915050565b60008060408385031215613b4d57613b4c61365e565b5b600083013567ffffffffffffffff811115613b6b57613b6a613663565b5b613b7785828601613a3d565b9250506020613b8885828601613b21565b9150509250929050565b613b9b81613900565b82525050565b6000602082019050613bb66000830184613b92565b92915050565b613bc5816137d5565b82525050565b6000602082019050613be06000830184613bbc565b92915050565b600080600060608486031215613bff57613bfe61365e565b5b6000613c0d868287016138ab565b9350506020613c1e868287016138ab565b9250506040613c2f868287016137f6565b9150509250925092565b600081519050919050565b600082825260208201905092915050565b6000613c6082613c39565b613c6a8185613c44565b9350613c7a81856020860161373f565b613c8381613769565b840191505092915050565b60006020820190508181036000830152613ca88184613c55565b905092915050565b600067ffffffffffffffff821115613ccb57613cca613940565b5b613cd482613769565b9050602081019050919050565b6000613cf4613cef84613cb0565b6139a0565b905082815260208101848484011115613d1057613d0f61393b565b5b613d1b8482856139ec565b509392505050565b600082601f830112613d3857613d37613936565b5b8135613d48848260208601613ce1565b91505092915050565b600067ffffffffffffffff821115613d6c57613d6b613940565b5b602082029050602081019050919050565b600080fd5b6000613d95613d9084613d51565b6139a0565b90508083825260208201905060208402830185811115613db857613db7613d7d565b5b835b81811015613dff57803567ffffffffffffffff811115613ddd57613ddc613936565b5b808601613dea8982613d23565b85526020850194505050602081019050613dba565b5050509392505050565b600082601f830112613e1e57613e1d613936565b5b8135613e2e848260208601613d82565b91505092915050565b60008060008060808587031215613e5157613e5061365e565b5b600085013567ffffffffffffffff811115613e6f57613e6e613663565b5b613e7b87828801613d23565b945050602085013567ffffffffffffffff811115613e9c57613e9b613663565b5b613ea887828801613a3d565b935050604085013567ffffffffffffffff811115613ec957613ec8613663565b5b613ed587828801613e09565b9250506060613ee687828801613b21565b91505092959194509250565b600060208284031215613f0857613f0761365e565b5b6000613f16848285016138ab565b91505092915050565b613f28816136ed565b8114613f3357600080fd5b50565b600081359050613f4581613f1f565b92915050565b60008060408385031215613f6257613f6161365e565b5b6000613f70858286016138ab565b9250506020613f8185828601613f36565b9150509250929050565b60008060008060808587031215613fa557613fa461365e565b5b6000613fb3878288016138ab565b9450506020613fc4878288016138ab565b9350506040613fd5878288016137f6565b925050606085013567ffffffffffffffff811115613ff657613ff5613663565b5b61400287828801613a3d565b91505092959194509250565b600080604083850312156140255761402461365e565b5b6000614033858286016138ab565b9250506020614044858286016138ab565b9150509250929050565b7f4e487b7100000000000000000000000000000000000000000000000000000000600052602260045260246000fd5b6000600282049050600182168061409557607f821691505b6020821081036140a8576140a761404e565b5b50919050565b60006060820190506140c3600083018661386a565b6140d06020830185613bbc565b6140dd604083018461386a565b949350505050565b60006040820190506140fa600083018561386a565b6141076020830184613bbc565b9392505050565b7f4164647265737320616c7265616479206f776e7320616e204e46540000000000600082015250565b6000614144601b8361372e565b915061414f8261410e565b602082019050919050565b6000602082019050818103600083015261417381614137565b9050919050565b7f4e487b7100000000000000000000000000000000000000000000000000000000600052601160045260246000fd5b60006141b4826137d5565b91506141bf836137d5565b92508282019050808211156141d7576141d661417a565b5b92915050565b7f4e487b7100000000000000000000000000000000000000000000000000000000600052603260045260246000fd5b7f4d7573742062652070726f706f736564206f776e657200000000000000000000600082015250565b600061424260168361372e565b915061424d8261420c565b602082019050919050565b6000602082019050818103600083015261427181614235565b9050919050565b60008190508160005260206000209050919050565b60006020601f8301049050919050565b600082821b905092915050565b6000600883026142da7fffffffffffffffffffffffffffffffffffffffffffffffffffffffffffffffff8261429d565b6142e4868361429d565b95508019841693508086168417925050509392505050565b6000819050919050565b600061432161431c614317846137d5565b6142fc565b6137d5565b9050919050565b6000819050919050565b61433b83614306565b61434f61434782614328565b8484546142aa565b825550505050565b600090565b614364614357565b61436f818484614332565b505050565b5b818110156143935761438860008261435c565b600181019050614375565b5050565b601f8211156143d8576143a981614278565b6143b28461428d565b810160208510156143c1578190505b6143d56143cd8561428d565b830182614374565b50505b505050565b600082821c905092915050565b60006143fb600019846008026143dd565b1980831691505092915050565b600061441483836143ea565b9150826002028217905092915050565b61442d82613c39565b67ffffffffffffffff81111561444657614445613940565b5b614450825461407d565b61445b828285614397565b600060209050601f83116001811461448e576000841561447c578287015190505b6144868582614408565b8655506144ee565b601f19841661449c86614278565b60005b828110156144c45784890151825560018201915060208501945060208101905061449f565b868310156144e157848901516144dd601f8916826143ea565b8355505b6001600288020188555050505b505050505050565b6000614501826137d5565b91507fffffffffffffffffffffffffffffffffffffffffffffffffffffffffffffffff82036145335761453261417a565b5b600182019050919050565b6000815461454b8161407d565b6145558186613c44565b945060018216600081146145705760018114614586576145b9565b60ff1983168652811515602002860193506145b9565b61458f85614278565b60005b838110156145b157815481890152600182019150602081019050614592565b808801955050505b50505092915050565b600060408201905081810360008301526145dc818561453e565b905081810360208301526145f0818461453e565b90509392505050565b7f4f6e6c792063616c6c61626c65206279206f776e657200000000000000000000600082015250565b600061462f60168361372e565b915061463a826145f9565b602082019050919050565b6000602082019050818103600083015261465e81614622565b9050919050565b61466e81613af6565b82525050565b600061ffff82169050919050565b61468b81614674565b82525050565b600063ffffffff82169050919050565b6146aa81614691565b82525050565b600060a0820190506146c56000830188614665565b81810360208301526146d78187613c55565b90506146e66040830186614682565b6146f360608301856146a1565b6147006080830184613b92565b9695505050505050565b6000815190506147198161390a565b92915050565b6000602082840312156147355761473461365e565b5b60006147438482850161470a565b91505092915050565b7f4e487b7100000000000000000000000000000000000000000000000000000000600052601260045260246000fd5b7f4e487b7100000000000000000000000000000000000000000000000000000000600052602160045260246000fd5b60006080820190506147bf600083018761386a565b6147cc602083018661386a565b6147d96040830185613bbc565b81810360608301526147eb8184613c55565b905095945050505050565b60008151905061480581613694565b92915050565b6000602082840312156148215761482061365e565b5b600061482f848285016147f6565b91505092915050565b600081905092915050565b600061484e82613723565b6148588185614838565b935061486881856020860161373f565b80840191505092915050565b60006148808285614843565b915061488c8284614843565b91508190509392505050565b7f43616e6e6f74207472616e7366657220746f2073656c66000000000000000000600082015250565b60006148ce60178361372e565b91506148d982614898565b602082019050919050565b600060208201905081810360008301526148fd816148c1565b9050919050565b60008190508160005260206000209050919050565b601f82111561495a5761492b81614904565b6149348461428d565b81016020851015614943578190505b61495761494f8561428d565b830182614374565b50505b505050565b61496882613723565b67ffffffffffffffff81111561498157614980613940565b5b61498b825461407d565b614996828285614919565b600060209050601f8311600181146149c957600084156149b7578287015190505b6149c18582614408565b865550614a29565b601f1984166149d786614904565b60005b828110156149ff578489015182556001820191506020850194506020810190506149da565b86831015614a1c5784890151614a18601f8916826143ea565b8355505b6001600288020188555050505b505050505050565b6000614a3c826137d5565b9150614a47836137d5565b9250828203905081811115614a5f57614a5e61417a565b5b92915050565b7f4e487b7100000000000000000000000000000000000000000000000000000000600052603160045260246000fd5b6000614a9f826137d5565b9150614aaa836137d5565b925082614aba57614ab961474c565b5b828206905092915050565b6000614ad0826137d5565b9150614adb836137d5565b9250828202614ae9816137d5565b91508282048414831517614b0057614aff61417a565b5b5092915050565b60008160011c9050919050565b6000808291508390505b6001851115614b5e57808604811115614b3a57614b3961417a565b5b6001851615614b495780820291505b8081029050614b5785614b07565b9450614b1e565b94509492505050565b600082614b775760019050614c33565b81614b855760009050614c33565b8160018114614b9b5760028114614ba557614bd4565b6001915050614c33565b60ff841115614bb757614bb661417a565b5b8360020a915084821115614bce57614bcd61417a565b5b50614c33565b5060208310610133831016604e8410600b8410161715614c095782820a905083811115614c0457614c0361417a565b5b614c33565b614c168484846001614b14565b92509050818404811115614c2d57614c2c61417a565b5b81810290505b9392505050565b6000614c45826137d5565b9150614c50836137d5565b9250614c7d7fffffffffffffffffffffffffffffffffffffffffffffffffffffffffffffffff8484614b67565b90509291505056fea264697066735822122048a2e5d4662e0beb48229478e845a37b0ee0669ad48ed92d814772fef0cbf95e64736f6c63430008140033",
  "linkReferences": {},
  "deployedLinkReferences": {}
}