{
  "_format": "hh-sol-artifact-1",
  "contractName": "LendingBorrowingContract",
  "sourceName": "contracts/AvalancheLending.sol",
  "abi": [
    {
      "inputs": [],
      "stateMutability": "nonpayable",
      "type": "constructor"
    },
    {
      "anonymous": false,
      "inputs": [
        {
          "indexed": true,
          "internalType": "address",
          "name": "borrower",
          "type": "address"
        },
        {
          "indexed": false,
          "internalType": "uint256",
          "name": "amount",
          "type": "uint256"
        }
      ],
      "name": "BorrowTokens",
      "type": "event"
    },
    {
      "anonymous": false,
      "inputs": [
        {
          "indexed": true,
          "internalType": "address",
          "name": "borrower",
          "type": "address"
        },
        {
          "indexed": false,
          "internalType": "uint256",
          "name": "amount",
          "type": "uint256"
        }
      ],
      "name": "DepositCollateral",
      "type": "event"
    },
    {
      "anonymous": false,
      "inputs": [
        {
          "indexed": true,
          "internalType": "address",
          "name": "borrower",
          "type": "address"
        },
        {
          "indexed": false,
          "internalType": "uint256",
          "name": "amount",
          "type": "uint256"
        }
      ],
      "name": "RepayLoan",
      "type": "event"
    },
    {
      "anonymous": false,
      "inputs": [
        {
          "indexed": true,
          "internalType": "address",
          "name": "borrower",
          "type": "address"
        },
        {
          "indexed": false,
          "internalType": "uint256",
          "name": "amount",
          "type": "uint256"
        }
      ],
      "name": "WithdrawCollateral",
      "type": "event"
    },
    {
      "inputs": [],
      "name": "borrowToken",
      "outputs": [
        {
          "internalType": "contract IERC20",
          "name": "",
          "type": "address"
        }
      ],
      "stateMutability": "view",
      "type": "function"
    },
    {
      "inputs": [
        {
          "internalType": "uint256",
          "name": "amount",
          "type": "uint256"
        }
      ],
      "name": "borrowTokens",
      "outputs": [],
      "stateMutability": "nonpayable",
      "type": "function"
    },
    {
      "inputs": [
        {
          "internalType": "address",
          "name": "",
          "type": "address"
        }
      ],
      "name": "borrowers",
      "outputs": [
        {
          "internalType": "uint256",
          "name": "collateralDeposited",
          "type": "uint256"
        },
        {
          "internalType": "uint256",
          "name": "tokensBorrowed",
          "type": "uint256"
        },
        {
          "internalType": "uint256",
          "name": "interestOwed",
          "type": "uint256"
        }
      ],
      "stateMutability": "view",
      "type": "function"
    },
    {
      "inputs": [],
      "name": "collateralRate",
      "outputs": [
        {
          "internalType": "uint256",
          "name": "",
          "type": "uint256"
        }
      ],
      "stateMutability": "view",
      "type": "function"
    },
    {
      "inputs": [],
      "name": "depositCollateral",
      "outputs": [],
      "stateMutability": "payable",
      "type": "function"
    },
    {
      "inputs": [
        {
          "internalType": "address",
          "name": "borrower",
          "type": "address"
        }
      ],
      "name": "getBorrowerBalance",
      "outputs": [
        {
          "internalType": "uint256",
          "name": "",
          "type": "uint256"
        }
      ],
      "stateMutability": "view",
      "type": "function"
    },
    {
      "inputs": [],
      "name": "getLatestAvaxPrice",
      "outputs": [
        {
          "internalType": "int256",
          "name": "",
          "type": "int256"
        }
      ],
      "stateMutability": "view",
      "type": "function"
    },
    {
      "inputs": [],
      "name": "getLatestLinkPrice",
      "outputs": [
        {
          "internalType": "int256",
          "name": "",
          "type": "int256"
        }
      ],
      "stateMutability": "view",
      "type": "function"
    },
    {
      "inputs": [
        {
          "internalType": "address",
          "name": "borrower",
          "type": "address"
        }
      ],
      "name": "getMaxBorrowable",
      "outputs": [
        {
          "internalType": "uint256",
          "name": "",
          "type": "uint256"
        }
      ],
      "stateMutability": "view",
      "type": "function"
    },
    {
      "inputs": [
        {
          "internalType": "address",
          "name": "borrower",
          "type": "address"
        }
      ],
      "name": "getMaxWithdrawal",
      "outputs": [
        {
          "internalType": "uint256",
          "name": "",
          "type": "uint256"
        }
      ],
      "stateMutability": "view",
      "type": "function"
    },
    {
      "inputs": [],
      "name": "interestRate",
      "outputs": [
        {
          "internalType": "uint256",
          "name": "",
          "type": "uint256"
        }
      ],
      "stateMutability": "view",
      "type": "function"
    },
    {
      "inputs": [
        {
          "internalType": "uint256",
          "name": "amount",
          "type": "uint256"
        }
      ],
      "name": "repayLoan",
      "outputs": [],
      "stateMutability": "nonpayable",
      "type": "function"
    },
    {
      "inputs": [
        {
          "internalType": "uint256",
          "name": "amount",
          "type": "uint256"
        }
      ],
      "name": "withdrawCollateral",
      "outputs": [],
      "stateMutability": "nonpayable",
      "type": "function"
    }
  ],
  "bytecode": "0x608060405234801561001057600080fd5b50730b9d5d9136855f6fec3c0993fee6e9ce8a2978466000806101000a81548173ffffffffffffffffffffffffffffffffffffffff021916908373ffffffffffffffffffffffffffffffffffffffff16021790555060966003819055506801158e460913d000006004819055507334c4c526902d88a3aa98db8a9b802603eb1e3470600260006101000a81548173ffffffffffffffffffffffffffffffffffffffff021916908373ffffffffffffffffffffffffffffffffffffffff160217905550735498bb86bc934c8d34fda08e81d444153d0d06ad600160006101000a81548173ffffffffffffffffffffffffffffffffffffffff021916908373ffffffffffffffffffffffffffffffffffffffff160217905550611946806101366000396000f3fe6080604052600436106100c25760003560e01c80637c3a00fd1161007f578063ab7b1c8911610059578063ab7b1c891461024b578063bf5d50c414610274578063c7286678146102b3578063e4393e92146102dc576100c2565b80637c3a00fd146101a65780637e15b0b2146101d157806395ec2c8a1461020e576100c2565b806343419ea3146100c7578063456dc17a146100f257806358a6be1c1461011d5780636112fe2e146101485780636f75814014610171578063759a6ab21461017b575b600080fd5b3480156100d357600080fd5b506100dc610319565b6040516100e99190610fd3565b60405180910390f35b3480156100fe57600080fd5b5061010761040b565b604051610114919061106d565b60405180910390f35b34801561012957600080fd5b5061013261042f565b60405161013f91906110a1565b60405180910390f35b34801561015457600080fd5b5061016f600480360381019061016a91906110ed565b610435565b005b610179610662565b005b34801561018757600080fd5b5061019061074e565b60405161019d9190610fd3565b60405180910390f35b3480156101b257600080fd5b506101bb610840565b6040516101c891906110a1565b60405180910390f35b3480156101dd57600080fd5b506101f860048036038101906101f39190611158565b610846565b60405161020591906110a1565b60405180910390f35b34801561021a57600080fd5b5061023560048036038101906102309190611158565b610892565b60405161024291906110a1565b60405180910390f35b34801561025757600080fd5b50610272600480360381019061026d91906110ed565b61091d565b005b34801561028057600080fd5b5061029b60048036038101906102969190611158565b610b93565b6040516102aa93929190611185565b60405180910390f35b3480156102bf57600080fd5b506102da60048036038101906102d591906110ed565b610bbd565b005b3480156102e857600080fd5b5061030360048036038101906102fe9190611158565b610e4a565b60405161031091906110a1565b60405180910390f35b600080600080600080600160009054906101000a900473ffffffffffffffffffffffffffffffffffffffff1673ffffffffffffffffffffffffffffffffffffffff1663feaf968c6040518163ffffffff1660e01b815260040160a060405180830381865afa15801561038f573d6000803e3d6000fd5b505050506040513d601f19601f820116820180604052508101906103b3919061123f565b9450945094509450945060008211610400576040517f08c379a00000000000000000000000000000000000000000000000000000000081526004016103f790611317565b60405180910390fd5b839550505050505090565b60008054906101000a900473ffffffffffffffffffffffffffffffffffffffff1681565b60035481565b600560003373ffffffffffffffffffffffffffffffffffffffff1673ffffffffffffffffffffffffffffffffffffffff168152602001908152602001600020600001548111156104ba576040517f08c379a00000000000000000000000000000000000000000000000000000000081526004016104b190611383565b60405180910390fd5b60006104c533610e4a565b90508082111561050a576040517f08c379a000000000000000000000000000000000000000000000000000000000815260040161050190611415565b60405180910390fd5b81600560003373ffffffffffffffffffffffffffffffffffffffff1673ffffffffffffffffffffffffffffffffffffffff168152602001908152602001600020600001600082825461055c9190611464565b9250508190555060003373ffffffffffffffffffffffffffffffffffffffff1683604051610589906114c9565b60006040518083038185875af1925050503d80600081146105c6576040519150601f19603f3d011682016040523d82523d6000602084013e6105cb565b606091505b505090508061060f576040517f08c379a00000000000000000000000000000000000000000000000000000000081526004016106069061152a565b60405180910390fd5b3373ffffffffffffffffffffffffffffffffffffffff167fa8e76b822fc682be77f3b1c822ea81f6bda5aed92ba82e6873bfd889f328d1d28460405161065591906110a1565b60405180910390a2505050565b600034116106a5576040517f08c379a000000000000000000000000000000000000000000000000000000000815260040161069c90611596565b60405180910390fd5b34600560003373ffffffffffffffffffffffffffffffffffffffff1673ffffffffffffffffffffffffffffffffffffffff16815260200190815260200160002060000160008282546106f791906115b6565b925050819055503373ffffffffffffffffffffffffffffffffffffffff167f8c66c9368f6312eb21bf56acbd3a20448f7d1589d024c30482c3d0a33125523e3460405161074491906110a1565b60405180910390a2565b600080600080600080600260009054906101000a900473ffffffffffffffffffffffffffffffffffffffff1673ffffffffffffffffffffffffffffffffffffffff1663feaf968c6040518163ffffffff1660e01b815260040160a060405180830381865afa1580156107c4573d6000803e3d6000fd5b505050506040513d601f19601f820116820180604052508101906107e8919061123f565b9450945094509450945060008211610835576040517f08c379a000000000000000000000000000000000000000000000000000000000815260040161082c90611317565b60405180910390fd5b839550505050505090565b60045481565b6000600560008373ffffffffffffffffffffffffffffffffffffffff1673ffffffffffffffffffffffffffffffffffffffff168152602001908152602001600020600101549050919050565b6000806305f5e1006108a2610319565b600560008673ffffffffffffffffffffffffffffffffffffffff1673ffffffffffffffffffffffffffffffffffffffff168152602001908152602001600020600001546108ef91906115ea565b6108f9919061165b565b905060646003548261090b91906115ea565b610915919061165b565b915050919050565b60008111610960576040517f08c379a000000000000000000000000000000000000000000000000000000000815260040161095790611596565b60405180910390fd5b6000600560003373ffffffffffffffffffffffffffffffffffffffff1673ffffffffffffffffffffffffffffffffffffffff16815260200190815260200160002090506000816002015482600101546109b991906115b6565b9050808311156109fe576040517f08c379a00000000000000000000000000000000000000000000000000000000081526004016109f5906116d8565b60405180910390fd5b81600201548310610a4557816002015483610a199190611464565b92506000826002018190555082826001016000828254610a399190611464565b92505081905550610a61565b82826002016000828254610a599190611464565b925050819055505b60008054906101000a900473ffffffffffffffffffffffffffffffffffffffff1673ffffffffffffffffffffffffffffffffffffffff166323b872dd3330866040518463ffffffff1660e01b8152600401610abe93929190611707565b6020604051808303816000875af1158015610add573d6000803e3d6000fd5b505050506040513d601f19601f82011682018060405250810190610b019190611776565b610b40576040517f08c379a0000000000000000000000000000000000000000000000000000000008152600401610b37906117ef565b60405180910390fd5b3373ffffffffffffffffffffffffffffffffffffffff167fe228353b4f08fee02276a1e9e2cddfa948f9fa59f87f7e24c18ad1b420d7966a84604051610b8691906110a1565b60405180910390a2505050565b60056020528060005260406000206000915090508060000154908060010154908060020154905083565b60008111610c00576040517f08c379a0000000000000000000000000000000000000000000000000000000008152600401610bf790611596565b60405180910390fd5b6000610c0b33610892565b905080821115610c50576040517f08c379a0000000000000000000000000000000000000000000000000000000008152600401610c479061185b565b60405180910390fd5b81600560003373ffffffffffffffffffffffffffffffffffffffff1673ffffffffffffffffffffffffffffffffffffffff1681526020019081526020016000206001016000828254610ca291906115b6565b92505081905550606460045483610cb991906115ea565b610cc3919061165b565b600560003373ffffffffffffffffffffffffffffffffffffffff1673ffffffffffffffffffffffffffffffffffffffff1681526020019081526020016000206002016000828254610d1491906115b6565b9250508190555060008054906101000a900473ffffffffffffffffffffffffffffffffffffffff1673ffffffffffffffffffffffffffffffffffffffff1663a9059cbb33846040518363ffffffff1660e01b8152600401610d7692919061187b565b6020604051808303816000875af1158015610d95573d6000803e3d6000fd5b505050506040513d601f19601f82011682018060405250810190610db99190611776565b610df8576040517f08c379a0000000000000000000000000000000000000000000000000000000008152600401610def906117ef565b60405180910390fd5b3373ffffffffffffffffffffffffffffffffffffffff167f824b877f3377732d526be2468989fd5a3968efd150ef5bfc419da0f677969b0883604051610e3e91906110a1565b60405180910390a25050565b600080600560008473ffffffffffffffffffffffffffffffffffffffff1673ffffffffffffffffffffffffffffffffffffffff168152602001908152602001600020604051806060016040529081600082015481526020016001820154815260200160028201548152505090506000610ec284610892565b905060006305f5e100610ed3610319565b8460000151610ee291906115ea565b610eec919061165b565b905060006305f5e100610efd61074e565b8560200151610f0c91906115ea565b610f16919061165b565b9050828110610f2c576000945050505050610fb5565b60008183610f3a9190611464565b90506000610f46610319565b905060008111610f8b576040517f08c379a0000000000000000000000000000000000000000000000000000000008152600401610f82906118f0565b60405180910390fd5b6000816305f5e10084610f9e91906115ea565b610fa8919061165b565b9050809750505050505050505b919050565b6000819050919050565b610fcd81610fba565b82525050565b6000602082019050610fe86000830184610fc4565b92915050565b600073ffffffffffffffffffffffffffffffffffffffff82169050919050565b6000819050919050565b600061103361102e61102984610fee565b61100e565b610fee565b9050919050565b600061104582611018565b9050919050565b60006110578261103a565b9050919050565b6110678161104c565b82525050565b6000602082019050611082600083018461105e565b92915050565b6000819050919050565b61109b81611088565b82525050565b60006020820190506110b66000830184611092565b92915050565b600080fd5b6110ca81611088565b81146110d557600080fd5b50565b6000813590506110e7816110c1565b92915050565b600060208284031215611103576111026110bc565b5b6000611111848285016110d8565b91505092915050565b600061112582610fee565b9050919050565b6111358161111a565b811461114057600080fd5b50565b6000813590506111528161112c565b92915050565b60006020828403121561116e5761116d6110bc565b5b600061117c84828501611143565b91505092915050565b600060608201905061119a6000830186611092565b6111a76020830185611092565b6111b46040830184611092565b949350505050565b600069ffffffffffffffffffff82169050919050565b6111db816111bc565b81146111e657600080fd5b50565b6000815190506111f8816111d2565b92915050565b61120781610fba565b811461121257600080fd5b50565b600081519050611224816111fe565b92915050565b600081519050611239816110c1565b92915050565b600080600080600060a0868803121561125b5761125a6110bc565b5b6000611269888289016111e9565b955050602061127a88828901611215565b945050604061128b8882890161122a565b935050606061129c8882890161122a565b92505060806112ad888289016111e9565b9150509295509295909350565b600082825260208201905092915050565b7f526f756e64206e6f7420636f6d706c6574650000000000000000000000000000600082015250565b60006113016012836112ba565b915061130c826112cb565b602082019050919050565b60006020820190508181036000830152611330816112f4565b9050919050565b7f4e6f7420656e6f75676820636f6c6c61746572616c206465706f736974656400600082015250565b600061136d601f836112ba565b915061137882611337565b602082019050919050565b6000602082019050818103600083015261139c81611360565b9050919050565b7f5769746864726177616c20726571756573742065786365656473206d6178696d60008201527f756d20616c6c6f77656400000000000000000000000000000000000000000000602082015250565b60006113ff602a836112ba565b915061140a826113a3565b604082019050919050565b6000602082019050818103600083015261142e816113f2565b9050919050565b7f4e487b7100000000000000000000000000000000000000000000000000000000600052601160045260246000fd5b600061146f82611088565b915061147a83611088565b925082820390508181111561149257611491611435565b5b92915050565b600081905092915050565b50565b60006114b3600083611498565b91506114be826114a3565b600082019050919050565b60006114d4826114a6565b9150819050919050565b7f4661696c656420746f2073656e64204156415800000000000000000000000000600082015250565b60006115146013836112ba565b915061151f826114de565b602082019050919050565b6000602082019050818103600083015261154381611507565b9050919050565b7f416d6f756e74206d7573742062652067726561746572207468616e2030000000600082015250565b6000611580601d836112ba565b915061158b8261154a565b602082019050919050565b600060208201905081810360008301526115af81611573565b9050919050565b60006115c182611088565b91506115cc83611088565b92508282019050808211156115e4576115e3611435565b5b92915050565b60006115f582611088565b915061160083611088565b925082820261160e81611088565b9150828204841483151761162557611624611435565b5b5092915050565b7f4e487b7100000000000000000000000000000000000000000000000000000000600052601260045260246000fd5b600061166682611088565b915061167183611088565b9250826116815761168061162c565b5b828204905092915050565b7f526570617920616d6f756e742065786365656473206c6f616e206f7765640000600082015250565b60006116c2601e836112ba565b91506116cd8261168c565b602082019050919050565b600060208201905081810360008301526116f1816116b5565b9050919050565b6117018161111a565b82525050565b600060608201905061171c60008301866116f8565b61172960208301856116f8565b6117366040830184611092565b949350505050565b60008115159050919050565b6117538161173e565b811461175e57600080fd5b50565b6000815190506117708161174a565b92915050565b60006020828403121561178c5761178b6110bc565b5b600061179a84828501611761565b91505092915050565b7f5472616e73666572206661696c65640000000000000000000000000000000000600082015250565b60006117d9600f836112ba565b91506117e4826117a3565b602082019050919050565b60006020820190508181036000830152611808816117cc565b9050919050565b7f426f72726f7720616d6f756e742065786365656473206c696d69740000000000600082015250565b6000611845601b836112ba565b91506118508261180f565b602082019050919050565b6000602082019050818103600083015261187481611838565b9050919050565b600060408201905061189060008301856116f8565b61189d6020830184611092565b9392505050565b7f496e76616c696420636f6c6c61746572616c2070726963650000000000000000600082015250565b60006118da6018836112ba565b91506118e5826118a4565b602082019050919050565b60006020820190508181036000830152611909816118cd565b905091905056fea2646970667358221220ce4f211c6678bd7f026bbac409240f171238241039bf9437e52317e0a46ed18164736f6c63430008140033",
  "linkReferences": {},
  "deployedLinkReferences": {}
}