{"contracts/ProfileNFTContract.sol":{"ProfileNFTContract":{"abi":[{"inputs":[{"internalType":"address","name":"router","type":"address"}],"stateMutability":"nonpayable","type":"constructor"},{"inputs":[],"name":"ERC721EnumerableForbiddenBatchMint","type":"error"},{"inputs":[{"internalType":"address","name":"sender","type":"address"},{"internalType":"uint256","name":"tokenId","type":"uint256"},{"internalType":"address","name":"owner","type":"address"}],"name":"ERC721IncorrectOwner","type":"error"},{"inputs":[{"internalType":"address","name":"operator","type":"address"},{"internalType":"uint256","name":"tokenId","type":"uint256"}],"name":"ERC721InsufficientApproval","type":"error"},{"inputs":[{"internalType":"address","name":"approver","type":"address"}],"name":"ERC721InvalidApprover","type":"error"},{"inputs":[{"internalType":"address","name":"operator","type":"address"}],"name":"ERC721InvalidOperator","type":"error"},{"inputs":[{"internalType":"address","name":"owner","type":"address"}],"name":"ERC721InvalidOwner","type":"error"},{"inputs":[{"internalType":"address","name":"receiver","type":"address"}],"name":"ERC721InvalidReceiver","type":"error"},{"inputs":[{"internalType":"address","name":"sender","type":"address"}],"name":"ERC721InvalidSender","type":"error"},{"inputs":[{"internalType":"uint256","name":"tokenId","type":"uint256"}],"name":"ERC721NonexistentToken","type":"error"},{"inputs":[{"internalType":"address","name":"owner","type":"address"},{"internalType":"uint256","name":"index","type":"uint256"}],"name":"ERC721OutOfBoundsIndex","type":"error"},{"inputs":[],"name":"EmptyArgs","type":"error"},{"inputs":[],"name":"EmptySecrets","type":"error"},{"inputs":[],"name":"EmptySource","type":"error"},{"inputs":[],"name":"EnforcedPause","type":"error"},{"inputs":[],"name":"ExpectedPause","type":"error"},{"inputs":[],"name":"NoInlineSecrets","type":"error"},{"inputs":[],"name":"OnlyRouterCanFulfill","type":"error"},{"inputs":[{"internalType":"bytes32","name":"requestId","type":"bytes32"}],"name":"UnexpectedRequestID","type":"error"},{"anonymous":false,"inputs":[{"indexed":true,"internalType":"address","name":"owner","type":"address"},{"indexed":true,"internalType":"address","name":"approved","type":"address"},{"indexed":true,"internalType":"uint256","name":"tokenId","type":"uint256"}],"name":"Approval","type":"event"},{"anonymous":false,"inputs":[{"indexed":true,"internalType":"address","name":"owner","type":"address"},{"indexed":true,"internalType":"address","name":"operator","type":"address"},{"indexed":false,"internalType":"bool","name":"approved","type":"bool"}],"name":"ApprovalForAll","type":"event"},{"anonymous":false,"inputs":[{"indexed":true,"internalType":"bytes32","name":"requestId","type":"bytes32"},{"indexed":false,"internalType":"bytes","name":"response","type":"bytes"},{"indexed":false,"internalType":"bytes","name":"err","type":"bytes"}],"name":"FunctionsResponse","type":"event"},{"anonymous":false,"inputs":[{"indexed":true,"internalType":"uint256","name":"tokenId","type":"uint256"},{"indexed":false,"internalType":"string","name":"name","type":"string"},{"indexed":false,"internalType":"string","name":"description","type":"string"},{"indexed":false,"internalType":"string","name":"image","type":"string"}],"name":"MetadataUpdated","type":"event"},{"anonymous":false,"inputs":[{"indexed":true,"internalType":"address","name":"from","type":"address"},{"indexed":true,"internalType":"address","name":"to","type":"address"}],"name":"OwnershipTransferRequested","type":"event"},{"anonymous":false,"inputs":[{"indexed":true,"internalType":"address","name":"from","type":"address"},{"indexed":true,"internalType":"address","name":"to","type":"address"}],"name":"OwnershipTransferred","type":"event"},{"anonymous":false,"inputs":[{"indexed":false,"internalType":"address","name":"account","type":"address"}],"name":"Paused","type":"event"},{"anonymous":false,"inputs":[{"indexed":true,"internalType":"bytes32","name":"id","type":"bytes32"}],"name":"RequestFulfilled","type":"event"},{"anonymous":false,"inputs":[{"indexed":true,"internalType":"bytes32","name":"id","type":"bytes32"}],"name":"RequestSent","type":"event"},{"anonymous":false,"inputs":[{"indexed":true,"internalType":"address","name":"from","type":"address"},{"indexed":true,"internalType":"address","name":"to","type":"address"},{"indexed":true,"internalType":"uint256","name":"tokenId","type":"uint256"}],"name":"Transfer","type":"event"},{"anonymous":false,"inputs":[{"indexed":false,"internalType":"address","name":"account","type":"address"}],"name":"Unpaused","type":"event"},{"inputs":[],"name":"acceptOwnership","outputs":[],"stateMutability":"nonpayable","type":"function"},{"inputs":[{"internalType":"address","name":"to","type":"address"},{"internalType":"uint256","name":"tokenId","type":"uint256"}],"name":"approve","outputs":[],"stateMutability":"nonpayable","type":"function"},{"inputs":[{"internalType":"address","name":"owner","type":"address"}],"name":"balanceOf","outputs":[{"internalType":"uint256","name":"","type":"uint256"}],"stateMutability":"view","type":"function"},{"inputs":[{"internalType":"uint256","name":"tokenId","type":"uint256"}],"name":"getApproved","outputs":[{"internalType":"address","name":"","type":"address"}],"stateMutability":"view","type":"function"},{"inputs":[{"internalType":"uint256","name":"tokenId","type":"uint256"}],"name":"getTokenMetadata","outputs":[{"components":[{"internalType":"string","name":"name","type":"string"},{"internalType":"string","name":"description","type":"string"},{"internalType":"string","name":"imageCID","type":"string"},{"internalType":"string","name":"tokenURI","type":"string"},{"internalType":"uint256","name":"createdAt","type":"uint256"},{"internalType":"uint256","name":"updatedAt","type":"uint256"}],"internalType":"struct ProfileNFTContract.NFTMetadata","name":"","type":"tuple"}],"stateMutability":"view","type":"function"},{"inputs":[{"internalType":"bytes32","name":"requestId","type":"bytes32"},{"internalType":"bytes","name":"response","type":"bytes"},{"internalType":"bytes","name":"err","type":"bytes"}],"name":"handleOracleFulfillment","outputs":[],"stateMutability":"nonpayable","type":"function"},{"inputs":[{"internalType":"address","name":"owner","type":"address"},{"internalType":"address","name":"operator","type":"address"}],"name":"isApprovedForAll","outputs":[{"internalType":"bool","name":"","type":"bool"}],"stateMutability":"view","type":"function"},{"inputs":[{"internalType":"string","name":"source","type":"string"},{"internalType":"bytes","name":"encryptedSecretsUrl","type":"bytes"},{"internalType":"string[]","name":"args","type":"string[]"},{"internalType":"uint64","name":"subscriptionId","type":"uint64"}],"name":"mintRequest","outputs":[{"internalType":"bytes32","name":"requestId","type":"bytes32"}],"stateMutability":"nonpayable","type":"function"},{"inputs":[],"name":"name","outputs":[{"internalType":"string","name":"","type":"string"}],"stateMutability":"view","type":"function"},{"inputs":[],"name":"owner","outputs":[{"internalType":"address","name":"","type":"address"}],"stateMutability":"view","type":"function"},{"inputs":[{"internalType":"uint256","name":"tokenId","type":"uint256"}],"name":"ownerOf","outputs":[{"internalType":"address","name":"","type":"address"}],"stateMutability":"view","type":"function"},{"inputs":[],"name":"paused","outputs":[{"internalType":"bool","name":"","type":"bool"}],"stateMutability":"view","type":"function"},{"inputs":[],"name":"s_lastError","outputs":[{"internalType":"bytes","name":"","type":"bytes"}],"stateMutability":"view","type":"function"},{"inputs":[],"name":"s_lastRequestId","outputs":[{"internalType":"bytes32","name":"","type":"bytes32"}],"stateMutability":"view","type":"function"},{"inputs":[],"name":"s_lastResponse","outputs":[{"internalType":"bytes","name":"","type":"bytes"}],"stateMutability":"view","type":"function"},{"inputs":[{"internalType":"address","name":"from","type":"address"},{"internalType":"address","name":"to","type":"address"},{"internalType":"uint256","name":"tokenId","type":"uint256"}],"name":"safeTransferFrom","outputs":[],"stateMutability":"nonpayable","type":"function"},{"inputs":[{"internalType":"address","name":"from","type":"address"},{"internalType":"address","name":"to","type":"address"},{"internalType":"uint256","name":"tokenId","type":"uint256"},{"internalType":"bytes","name":"data","type":"bytes"}],"name":"safeTransferFrom","outputs":[],"stateMutability":"nonpayable","type":"function"},{"inputs":[{"internalType":"address","name":"operator","type":"address"},{"internalType":"bool","name":"approved","type":"bool"}],"name":"setApprovalForAll","outputs":[],"stateMutability":"nonpayable","type":"function"},{"inputs":[{"internalType":"bytes4","name":"interfaceId","type":"bytes4"}],"name":"supportsInterface","outputs":[{"internalType":"bool","name":"","type":"bool"}],"stateMutability":"view","type":"function"},{"inputs":[],"name":"symbol","outputs":[{"internalType":"string","name":"","type":"string"}],"stateMutability":"view","type":"function"},{"inputs":[{"internalType":"uint256","name":"index","type":"uint256"}],"name":"tokenByIndex","outputs":[{"internalType":"uint256","name":"","type":"uint256"}],"stateMutability":"view","type":"function"},{"inputs":[{"internalType":"address","name":"owner","type":"address"},{"internalType":"uint256","name":"index","type":"uint256"}],"name":"tokenOfOwnerByIndex","outputs":[{"internalType":"uint256","name":"","type":"uint256"}],"stateMutability":"view","type":"function"},{"inputs":[{"internalType":"uint256","name":"tokenId","type":"uint256"}],"name":"tokenURI","outputs":[{"internalType":"string","name":"","type":"string"}],"stateMutability":"view","type":"function"},{"inputs":[],"name":"totalSupply","outputs":[{"internalType":"uint256","name":"","type":"uint256"}],"stateMutability":"view","type":"function"},{"inputs":[{"internalType":"address","name":"from","type":"address"},{"internalType":"address","name":"to","type":"address"},{"internalType":"uint256","name":"tokenId","type":"uint256"}],"name":"transferFrom","outputs":[],"stateMutability":"nonpayable","type":"function"},{"inputs":[{"internalType":"address","name":"to","type":"address"}],"name":"transferOwnership","outputs":[],"stateMutability":"nonpayable","type":"function"},{"inputs":[{"internalType":"uint256","name":"tokenId","type":"uint256"},{"internalType":"string","name":"cid","type":"string"},{"internalType":"string","name":"name","type":"string"},{"internalType":"string","name":"description","type":"string"},{"internalType":"string","name":"image","type":"string"}],"name":"updateTokenMetadata","outputs":[],"stateMutability":"nonpayable","type":"function"}],"evm":{"bytecode":{"linkReferences":{},"object":"60a06040527f66756e2d6176616c616e6368652d66756a692d3100000000000000000000000060001b601155617530601260006101000a81548163ffffffff021916908363ffffffff1602179055503480156200005b57600080fd5b506040516200594238038062005942833981810160405281019062000081919062000407565b33806000836040518060400160405280600c81526020017f426574626c6f636b2042696f00000000000000000000000000000000000000008152506040518060400160405280600381526020017f42424200000000000000000000000000000000000000000000000000000000008152508160009081620001039190620006b3565b508060019081620001159190620006b3565b5050506000600a60006101000a81548160ff0219169083151502179055508073ffffffffffffffffffffffffffffffffffffffff1660808173ffffffffffffffffffffffffffffffffffffffff168152505050600073ffffffffffffffffffffffffffffffffffffffff168273ffffffffffffffffffffffffffffffffffffffff1603620001da576040517f08c379a0000000000000000000000000000000000000000000000000000000008152600401620001d190620007fb565b60405180910390fd5b81600a60016101000a81548173ffffffffffffffffffffffffffffffffffffffff021916908373ffffffffffffffffffffffffffffffffffffffff160217905550600073ffffffffffffffffffffffffffffffffffffffff168173ffffffffffffffffffffffffffffffffffffffff1614620002625762000261816200026c60201b60201c565b5b505050506200088f565b3373ffffffffffffffffffffffffffffffffffffffff168173ffffffffffffffffffffffffffffffffffffffff1603620002dd576040517f08c379a0000000000000000000000000000000000000000000000000000000008152600401620002d4906200086d565b60405180910390fd5b80600b60006101000a81548173ffffffffffffffffffffffffffffffffffffffff021916908373ffffffffffffffffffffffffffffffffffffffff1602179055508073ffffffffffffffffffffffffffffffffffffffff16600a60019054906101000a900473ffffffffffffffffffffffffffffffffffffffff1673ffffffffffffffffffffffffffffffffffffffff167fed8889f560326eb138920d842192f0eb3dd22b4f139c87a2c57538e05bae127860405160405180910390a350565b600080fd5b600073ffffffffffffffffffffffffffffffffffffffff82169050919050565b6000620003cf82620003a2565b9050919050565b620003e181620003c2565b8114620003ed57600080fd5b50565b6000815190506200040181620003d6565b92915050565b60006020828403121562000420576200041f6200039d565b5b60006200043084828501620003f0565b91505092915050565b600081519050919050565b7f4e487b7100000000000000000000000000000000000000000000000000000000600052604160045260246000fd5b7f4e487b7100000000000000000000000000000000000000000000000000000000600052602260045260246000fd5b60006002820490506001821680620004bb57607f821691505b602082108103620004d157620004d062000473565b5b50919050565b60008190508160005260206000209050919050565b60006020601f8301049050919050565b600082821b905092915050565b6000600883026200053b7fffffffffffffffffffffffffffffffffffffffffffffffffffffffffffffffff82620004fc565b620005478683620004fc565b95508019841693508086168417925050509392505050565b6000819050919050565b6000819050919050565b6000620005946200058e62000588846200055f565b62000569565b6200055f565b9050919050565b6000819050919050565b620005b08362000573565b620005c8620005bf826200059b565b84845462000509565b825550505050565b600090565b620005df620005d0565b620005ec818484620005a5565b505050565b5b81811015620006145762000608600082620005d5565b600181019050620005f2565b5050565b601f82111562000663576200062d81620004d7565b6200063884620004ec565b8101602085101562000648578190505b620006606200065785620004ec565b830182620005f1565b50505b505050565b600082821c905092915050565b6000620006886000198460080262000668565b1980831691505092915050565b6000620006a3838362000675565b9150826002028217905092915050565b620006be8262000439565b67ffffffffffffffff811115620006da57620006d962000444565b5b620006e68254620004a2565b620006f382828562000618565b600060209050601f8311600181146200072b576000841562000716578287015190505b62000722858262000695565b86555062000792565b601f1984166200073b86620004d7565b60005b8281101562000765578489015182556001820191506020850194506020810190506200073e565b8683101562000785578489015162000781601f89168262000675565b8355505b6001600288020188555050505b505050505050565b600082825260208201905092915050565b7f43616e6e6f7420736574206f776e657220746f207a65726f0000000000000000600082015250565b6000620007e36018836200079a565b9150620007f082620007ab565b602082019050919050565b600060208201905081810360008301526200081681620007d4565b9050919050565b7f43616e6e6f74207472616e7366657220746f2073656c66000000000000000000600082015250565b6000620008556017836200079a565b915062000862826200081d565b602082019050919050565b60006020820190508181036000830152620008888162000846565b9050919050565b608051615090620008b2600039600081816106a80152611d2101526150906000f3fe608060405234801561001057600080fd5b50600436106101a95760003560e01c80635c975abb116100f9578063a22cb46511610097578063b88d4fde11610071578063b88d4fde146104d0578063c87b56dd146104ec578063e985e9c51461051c578063f2fde38b1461054c576101a9565b8063a22cb4651461047a578063ac2f541a14610496578063b1e21749146104b2576101a9565b806370a08231116100d357806370a082311461040457806379ba5097146104345780638da5cb5b1461043e57806395d89b411461045c576101a9565b80635c975abb1461038657806360316801146103a45780636352211e146103d4576101a9565b806323b872dd1161016657806342842e0e1161014057806342842e0e146102ec5780634b0795a8146103085780634d598342146103265780634f6ccce714610356576101a9565b806323b872dd146102825780632f745c591461029e5780633944ea3a146102ce576101a9565b806301ffc9a7146101ae57806306fdde03146101de578063081812fc146101fc578063095ea7b31461022c5780630ca761751461024857806318160ddd14610264575b600080fd5b6101c860048036038101906101c391906136c8565b610568565b6040516101d59190613710565b60405180910390f35b6101e66105e2565b6040516101f391906137bb565b60405180910390f35b61021660048036038101906102119190613813565b610674565b6040516102239190613881565b60405180910390f35b610246600480360381019061024191906138c8565b610690565b005b610262600480360381019061025d9190613a73565b6106a6565b005b61026c610768565b6040516102799190613b0d565b60405180910390f35b61029c60048036038101906102979190613b28565b610775565b005b6102b860048036038101906102b391906138c8565b610877565b6040516102c59190613b0d565b60405180910390f35b6102d6610920565b6040516102e39190613bd0565b60405180910390f35b61030660048036038101906103019190613b28565b6109ae565b005b6103106109ce565b60405161031d9190613bd0565b60405180910390f35b610340600480360381019061033b9190613db9565b610a5c565b60405161034d9190613e83565b60405180910390f35b610370600480360381019061036b9190613813565b610b61565b60405161037d9190613b0d565b60405180910390f35b61038e610bd7565b60405161039b9190613710565b60405180910390f35b6103be60048036038101906103b99190613813565b610bee565b6040516103cb9190613f95565b60405180910390f35b6103ee60048036038101906103e99190613813565b610e77565b6040516103fb9190613881565b60405180910390f35b61041e60048036038101906104199190613fb7565b610e89565b60405161042b9190613b0d565b60405180910390f35b61043c610f43565b005b6104466110da565b6040516104539190613881565b60405180910390f35b610464611104565b60405161047191906137bb565b60405180910390f35b610494600480360381019061048f9190614010565b611196565b005b6104b060048036038101906104ab9190614050565b6111ac565b005b6104ba61123e565b6040516104c79190613e83565b60405180910390f35b6104ea60048036038101906104e5919061413b565b611244565b005b61050660048036038101906105019190613813565b611261565b60405161051391906137bb565b60405180910390f35b610536600480360381019061053191906141be565b6112ca565b6040516105439190613710565b60405180910390f35b61056660048036038101906105619190613fb7565b61135e565b005b60007f780e9d63000000000000000000000000000000000000000000000000000000007bffffffffffffffffffffffffffffffffffffffffffffffffffffffff1916827bffffffffffffffffffffffffffffffffffffffffffffffffffffffff191614806105db57506105da82611372565b5b9050919050565b6060600080546105f19061422d565b80601f016020809104026020016040519081016040528092919081815260200182805461061d9061422d565b801561066a5780601f1061063f5761010080835404028352916020019161066a565b820191906000526020600020905b81548152906001019060200180831161064d57829003601f168201915b5050505050905090565b600061067f82611454565b50610689826114dc565b9050919050565b6106a2828261069d611519565b611521565b5050565b7f000000000000000000000000000000000000000000000000000000000000000073ffffffffffffffffffffffffffffffffffffffff163373ffffffffffffffffffffffffffffffffffffffff161461072b576040517fc6829f8300000000000000000000000000000000000000000000000000000000815260040160405180910390fd5b610736838383611533565b827f85e1543bf2f84fe80c6badbce3648c8539ad1df4d2b3d822938ca0538be727e660405160405180910390a2505050565b6000600880549050905090565b600073ffffffffffffffffffffffffffffffffffffffff168273ffffffffffffffffffffffffffffffffffffffff16036107e75760006040517f64a0ae920000000000000000000000000000000000000000000000000000000081526004016107de9190613881565b60405180910390fd5b60006107fb83836107f6611519565b611643565b90508373ffffffffffffffffffffffffffffffffffffffff168173ffffffffffffffffffffffffffffffffffffffff1614610871578382826040517f64283d7b0000000000000000000000000000000000000000000000000000000081526004016108689392919061425e565b60405180910390fd5b50505050565b600061088283610e89565b82106108c75782826040517fa57d13dc0000000000000000000000000000000000000000000000000000000081526004016108be929190614295565b60405180910390fd5b600660008473ffffffffffffffffffffffffffffffffffffffff1673ffffffffffffffffffffffffffffffffffffffff168152602001908152602001600020600083815260200190815260200160002054905092915050565b600f805461092d9061422d565b80601f01602080910402602001604051908101604052809291908181526020018280546109599061422d565b80156109a65780601f1061097b576101008083540402835291602001916109a6565b820191906000526020600020905b81548152906001019060200180831161098957829003601f168201915b505050505081565b6109c983838360405180602001604052806000815250611244565b505050565b601080546109db9061422d565b80601f0160208091040260200160405190810160405280929190818152602001828054610a079061422d565b8015610a545780601f10610a2957610100808354040283529160200191610a54565b820191906000526020600020905b815481529060010190602001808311610a3757829003601f168201915b505050505081565b600080610a6833610e89565b14610aa8576040517f08c379a0000000000000000000000000000000000000000000000000000000008152600401610a9f9061430a565b60405180910390fd5b60006001600c54610ab99190614359565b9050610ac481611760565b84600181518110610ad857610ad761438d565b5b6020026020010181905250610aeb61357a565b610afe878261182e90919063ffffffff16565b610b11868261183f90919063ffffffff16565b610b2485826118b890919063ffffffff16565b610b4c610b3082611900565b85601260009054906101000a900463ffffffff16601154611d1c565b600e81905550600e5492505050949350505050565b6000610b6b610768565b8210610bb1576000826040517fa57d13dc000000000000000000000000000000000000000000000000000000008152600401610ba8929190614295565b60405180910390fd5b60088281548110610bc557610bc461438d565b5b90600052602060002001549050919050565b6000600a60009054906101000a900460ff16905090565b610bf66135ec565b600d60008381526020019081526020016000206040518060c0016040529081600082018054610c249061422d565b80601f0160208091040260200160405190810160405280929190818152602001828054610c509061422d565b8015610c9d5780601f10610c7257610100808354040283529160200191610c9d565b820191906000526020600020905b815481529060010190602001808311610c8057829003601f168201915b50505050508152602001600182018054610cb69061422d565b80601f0160208091040260200160405190810160405280929190818152602001828054610ce29061422d565b8015610d2f5780601f10610d0457610100808354040283529160200191610d2f565b820191906000526020600020905b815481529060010190602001808311610d1257829003601f168201915b50505050508152602001600282018054610d489061422d565b80601f0160208091040260200160405190810160405280929190818152602001828054610d749061422d565b8015610dc15780601f10610d9657610100808354040283529160200191610dc1565b820191906000526020600020905b815481529060010190602001808311610da457829003601f168201915b50505050508152602001600382018054610dda9061422d565b80601f0160208091040260200160405190810160405280929190818152602001828054610e069061422d565b8015610e535780601f10610e2857610100808354040283529160200191610e53565b820191906000526020600020905b815481529060010190602001808311610e3657829003601f168201915b50505050508152602001600482015481526020016005820154815250509050919050565b6000610e8282611454565b9050919050565b60008073ffffffffffffffffffffffffffffffffffffffff168273ffffffffffffffffffffffffffffffffffffffff1603610efc5760006040517f89c62b64000000000000000000000000000000000000000000000000000000008152600401610ef39190613881565b60405180910390fd5b600360008373ffffffffffffffffffffffffffffffffffffffff1673ffffffffffffffffffffffffffffffffffffffff168152602001908152602001600020549050919050565b600b60009054906101000a900473ffffffffffffffffffffffffffffffffffffffff1673ffffffffffffffffffffffffffffffffffffffff163373ffffffffffffffffffffffffffffffffffffffff1614610fd3576040517f08c379a0000000000000000000000000000000000000000000000000000000008152600401610fca90614408565b60405180910390fd5b6000600a60019054906101000a900473ffffffffffffffffffffffffffffffffffffffff16905033600a60016101000a81548173ffffffffffffffffffffffffffffffffffffffff021916908373ffffffffffffffffffffffffffffffffffffffff1602179055506000600b60006101000a81548173ffffffffffffffffffffffffffffffffffffffff021916908373ffffffffffffffffffffffffffffffffffffffff1602179055503373ffffffffffffffffffffffffffffffffffffffff168173ffffffffffffffffffffffffffffffffffffffff167f8be0079c531659141344cd1fd0a4f28419497f9722a3daafe3b4186f6b6457e060405160405180910390a350565b6000600a60019054906101000a900473ffffffffffffffffffffffffffffffffffffffff16905090565b6060600180546111139061422d565b80601f016020809104026020016040519081016040528092919081815260200182805461113f9061422d565b801561118c5780601f106111615761010080835404028352916020019161118c565b820191906000526020600020905b81548152906001019060200180831161116f57829003601f168201915b5050505050905090565b6111a86111a1611519565b8383611dff565b5050565b6111b4611f6e565b3373ffffffffffffffffffffffffffffffffffffffff166111d486610e77565b73ffffffffffffffffffffffffffffffffffffffff161461122a576040517f08c379a00000000000000000000000000000000000000000000000000000000081526004016112219061449a565b60405180910390fd5b6112378585858585612000565b5050505050565b600e5481565b61124f848484610775565b61125b848484846120c2565b50505050565b606061126c82611454565b506000611277612279565b9050600081511161129757604051806020016040528060008152506112c2565b806112a184611760565b6040516020016112b29291906144f6565b6040516020818303038152906040525b915050919050565b6000600560008473ffffffffffffffffffffffffffffffffffffffff1673ffffffffffffffffffffffffffffffffffffffff16815260200190815260200160002060008373ffffffffffffffffffffffffffffffffffffffff1673ffffffffffffffffffffffffffffffffffffffff16815260200190815260200160002060009054906101000a900460ff16905092915050565b611366611f6e565b61136f81612290565b50565b60007f80ac58cd000000000000000000000000000000000000000000000000000000007bffffffffffffffffffffffffffffffffffffffffffffffffffffffff1916827bffffffffffffffffffffffffffffffffffffffffffffffffffffffff1916148061143d57507f5b5e139f000000000000000000000000000000000000000000000000000000007bffffffffffffffffffffffffffffffffffffffffffffffffffffffff1916827bffffffffffffffffffffffffffffffffffffffffffffffffffffffff1916145b8061144d575061144c826123be565b5b9050919050565b60008061146083612428565b9050600073ffffffffffffffffffffffffffffffffffffffff168173ffffffffffffffffffffffffffffffffffffffff16036114d357826040517f7e2732890000000000000000000000000000000000000000000000000000000081526004016114ca9190613b0d565b60405180910390fd5b80915050919050565b60006004600083815260200190815260200160002060009054906101000a900473ffffffffffffffffffffffffffffffffffffffff169050919050565b600033905090565b61152e8383836001612465565b505050565b82600e541461157957826040517fd068bf5b0000000000000000000000000000000000000000000000000000000081526004016115709190613e83565b60405180910390fd5b81600f908161158891906146c6565b50806010908161159891906146c6565b50827ff0f413c077269966d7e2dabc8eb21ba825fef41a93078a6ae69923b9c718f444600f60106040516115cd92919061481c565b60405180910390a2600080600080858060200190518101906115ef91906148c3565b935093509350935060006001600c546116089190614359565b9050611614338261262a565b600c60008154809291906116279061499a565b91905055506116398186868686612000565b5050505050505050565b600080611651858585612648565b9050600073ffffffffffffffffffffffffffffffffffffffff168173ffffffffffffffffffffffffffffffffffffffff16036116955761169084612862565b6116d4565b8473ffffffffffffffffffffffffffffffffffffffff168173ffffffffffffffffffffffffffffffffffffffff16146116d3576116d281856128ab565b5b5b600073ffffffffffffffffffffffffffffffffffffffff168573ffffffffffffffffffffffffffffffffffffffff16036117165761171184612a0c565b611755565b8473ffffffffffffffffffffffffffffffffffffffff168173ffffffffffffffffffffffffffffffffffffffff1614611754576117538585612add565b5b5b809150509392505050565b60606000600161176f84612b68565b01905060008167ffffffffffffffff81111561178e5761178d613948565b5b6040519080825280601f01601f1916602001820160405280156117c05781602001600182028036833780820191505090505b509050600082602001820190505b600115611823578080600190039150507f3031323334353637383961626364656600000000000000000000000000000000600a86061a8153600a8581611817576118166149e2565b5b049450600085036117ce575b819350505050919050565b61183b8260008084612cbb565b5050565b600081510361187a576040517fe889636f00000000000000000000000000000000000000000000000000000000815260040160405180910390fd5b60018260200190600281111561189357611892614a11565b5b908160028111156118a7576118a6614a11565b5b815250508082608001819052505050565b60008151036118f3576040517ffe936cb700000000000000000000000000000000000000000000000000000000815260040160405180910390fd5b808260a001819052505050565b6060600061190f610100612d65565b90506119596040518060400160405280600c81526020017f636f64654c6f636174696f6e000000000000000000000000000000000000000081525082612d8c90919063ffffffff16565b6119828360000151600281111561197357611972614a11565b5b82612db590919063ffffffff16565b6119ca6040518060400160405280600881526020017f6c616e677561676500000000000000000000000000000000000000000000000081525082612d8c90919063ffffffff16565b6119f3836040015160008111156119e4576119e3614a11565b5b82612db590919063ffffffff16565b611a3b6040518060400160405280600681526020017f736f75726365000000000000000000000000000000000000000000000000000081525082612d8c90919063ffffffff16565b611a52836060015182612d8c90919063ffffffff16565b60008360a00151511115611b0e57611aa86040518060400160405280600481526020017f617267730000000000000000000000000000000000000000000000000000000081525082612d8c90919063ffffffff16565b611ab181612e05565b60005b8360a0015151811015611b0357611af28460a001518281518110611adb57611ada61438d565b5b602002602001015183612d8c90919063ffffffff16565b80611afc9061499a565b9050611ab4565b50611b0d81612e2d565b5b60008360800151511115611c4f5760006002811115611b3057611b2f614a11565b5b83602001516002811115611b4757611b46614a11565b5b03611b7e576040517fa80d31f700000000000000000000000000000000000000000000000000000000815260040160405180910390fd5b611bc66040518060400160405280600f81526020017f736563726574734c6f636174696f6e000000000000000000000000000000000081525082612d8c90919063ffffffff16565b611bef83602001516002811115611be057611bdf614a11565b5b82612db590919063ffffffff16565b611c376040518060400160405280600781526020017f736563726574730000000000000000000000000000000000000000000000000081525082612d8c90919063ffffffff16565b611c4e836080015182612e5590919063ffffffff16565b5b60008360c00151511115611d0b57611ca56040518060400160405280600981526020017f627974657341726773000000000000000000000000000000000000000000000081525082612d8c90919063ffffffff16565b611cae81612e05565b60005b8360c0015151811015611d0057611cef8460c001518281518110611cd857611cd761438d565b5b602002602001015183612e5590919063ffffffff16565b80611cf99061499a565b9050611cb1565b50611d0a81612e2d565b5b806000015160000151915050919050565b6000807f000000000000000000000000000000000000000000000000000000000000000073ffffffffffffffffffffffffffffffffffffffff1663461d27628688600188886040518663ffffffff1660e01b8152600401611d81959493929190614a8b565b6020604051808303816000875af1158015611da0573d6000803e3d6000fd5b505050506040513d601f19601f82011682018060405250810190611dc49190614afa565b9050807f1131472297a800fee664d1d89cfa8f7676ff07189ecc53f80bbb5f4969099db860405160405180910390a280915050949350505050565b600073ffffffffffffffffffffffffffffffffffffffff168273ffffffffffffffffffffffffffffffffffffffff1603611e7057816040517f5b08ba18000000000000000000000000000000000000000000000000000000008152600401611e679190613881565b60405180910390fd5b80600560008573ffffffffffffffffffffffffffffffffffffffff1673ffffffffffffffffffffffffffffffffffffffff16815260200190815260200160002060008473ffffffffffffffffffffffffffffffffffffffff1673ffffffffffffffffffffffffffffffffffffffff16815260200190815260200160002060006101000a81548160ff0219169083151502179055508173ffffffffffffffffffffffffffffffffffffffff168373ffffffffffffffffffffffffffffffffffffffff167f17307eab39ab6107e8899845ad3d59bd9653f200f220920489ca2b5937696c3183604051611f619190613710565b60405180910390a3505050565b600a60019054906101000a900473ffffffffffffffffffffffffffffffffffffffff1673ffffffffffffffffffffffffffffffffffffffff163373ffffffffffffffffffffffffffffffffffffffff1614611ffe576040517f08c379a0000000000000000000000000000000000000000000000000000000008152600401611ff590614b73565b60405180910390fd5b565b6000600d60008781526020019081526020016000209050838160000190816120289190614bee565b508481600201908161203a9190614bee565b508281600101908161204c9190614bee565b508181600301908161205e9190614bee565b50428160050181905550600081600401540361207e574281600401819055505b857f2f3899d70b9a27dd00cd1d0b1cfcb427258a4aa0f1ba5873847546f4327d26a18585856040516120b293929190614cc0565b60405180910390a2505050505050565b60008373ffffffffffffffffffffffffffffffffffffffff163b1115612273578273ffffffffffffffffffffffffffffffffffffffff1663150b7a02612106611519565b8685856040518563ffffffff1660e01b81526004016121289493929190614d0c565b6020604051808303816000875af192505050801561216457506040513d601f19601f820116820180604052508101906121619190614d6d565b60015b6121e8573d8060008114612194576040519150601f19603f3d011682016040523d82523d6000602084013e612199565b606091505b5060008151036121e057836040517f64a0ae920000000000000000000000000000000000000000000000000000000081526004016121d79190613881565b60405180910390fd5b805181602001fd5b63150b7a0260e01b7bffffffffffffffffffffffffffffffffffffffffffffffffffffffff1916817bffffffffffffffffffffffffffffffffffffffffffffffffffffffff19161461227157836040517f64a0ae920000000000000000000000000000000000000000000000000000000081526004016122689190613881565b60405180910390fd5b505b50505050565b606060405180602001604052806000815250905090565b3373ffffffffffffffffffffffffffffffffffffffff168173ffffffffffffffffffffffffffffffffffffffff16036122fe576040517f08c379a00000000000000000000000000000000000000000000000000000000081526004016122f590614de6565b60405180910390fd5b80600b60006101000a81548173ffffffffffffffffffffffffffffffffffffffff021916908373ffffffffffffffffffffffffffffffffffffffff1602179055508073ffffffffffffffffffffffffffffffffffffffff16600a60019054906101000a900473ffffffffffffffffffffffffffffffffffffffff1673ffffffffffffffffffffffffffffffffffffffff167fed8889f560326eb138920d842192f0eb3dd22b4f139c87a2c57538e05bae127860405160405180910390a350565b60007f01ffc9a7000000000000000000000000000000000000000000000000000000007bffffffffffffffffffffffffffffffffffffffffffffffffffffffff1916827bffffffffffffffffffffffffffffffffffffffffffffffffffffffff1916149050919050565b60006002600083815260200190815260200160002060009054906101000a900473ffffffffffffffffffffffffffffffffffffffff169050919050565b808061249e5750600073ffffffffffffffffffffffffffffffffffffffff168273ffffffffffffffffffffffffffffffffffffffff1614155b156125d25760006124ae84611454565b9050600073ffffffffffffffffffffffffffffffffffffffff168373ffffffffffffffffffffffffffffffffffffffff161415801561251957508273ffffffffffffffffffffffffffffffffffffffff168173ffffffffffffffffffffffffffffffffffffffff1614155b801561252c575061252a81846112ca565b155b1561256e57826040517fa9fbf51f0000000000000000000000000000000000000000000000000000000081526004016125659190613881565b60405180910390fd5b81156125d057838573ffffffffffffffffffffffffffffffffffffffff168273ffffffffffffffffffffffffffffffffffffffff167f8c5be1e5ebec7d5bd14f71427d1e84f3dd0314c0f7b2291e5b200ac8c7c3b92560405160405180910390a45b505b836004600085815260200190815260200160002060006101000a81548173ffffffffffffffffffffffffffffffffffffffff021916908373ffffffffffffffffffffffffffffffffffffffff16021790555050505050565b612644828260405180602001604052806000815250612e7e565b5050565b60008061265484612428565b9050600073ffffffffffffffffffffffffffffffffffffffff168373ffffffffffffffffffffffffffffffffffffffff161461269657612695818486612e9a565b5b600073ffffffffffffffffffffffffffffffffffffffff168173ffffffffffffffffffffffffffffffffffffffff1614612727576126d8600085600080612465565b6001600360008373ffffffffffffffffffffffffffffffffffffffff1673ffffffffffffffffffffffffffffffffffffffff168152602001908152602001600020600082825403925050819055505b600073ffffffffffffffffffffffffffffffffffffffff168573ffffffffffffffffffffffffffffffffffffffff16146127aa576001600360008773ffffffffffffffffffffffffffffffffffffffff1673ffffffffffffffffffffffffffffffffffffffff168152602001908152602001600020600082825401925050819055505b846002600086815260200190815260200160002060006101000a81548173ffffffffffffffffffffffffffffffffffffffff021916908373ffffffffffffffffffffffffffffffffffffffff160217905550838573ffffffffffffffffffffffffffffffffffffffff168273ffffffffffffffffffffffffffffffffffffffff167fddf252ad1be2c89b69c2b068fc378daa952ba7f163c4a11628f55a4df523b3ef60405160405180910390a4809150509392505050565b6008805490506009600083815260200190815260200160002081905550600881908060018154018082558091505060019003906000526020600020016000909190919091505550565b60006128b683610e89565b905060006007600084815260200190815260200160002054905081811461299b576000600660008673ffffffffffffffffffffffffffffffffffffffff1673ffffffffffffffffffffffffffffffffffffffff168152602001908152602001600020600084815260200190815260200160002054905080600660008773ffffffffffffffffffffffffffffffffffffffff1673ffffffffffffffffffffffffffffffffffffffff168152602001908152602001600020600084815260200190815260200160002081905550816007600083815260200190815260200160002081905550505b6007600084815260200190815260200160002060009055600660008573ffffffffffffffffffffffffffffffffffffffff1673ffffffffffffffffffffffffffffffffffffffff16815260200190815260200160002060008381526020019081526020016000206000905550505050565b60006001600880549050612a209190614e06565b9050600060096000848152602001908152602001600020549050600060088381548110612a5057612a4f61438d565b5b906000526020600020015490508060088381548110612a7257612a7161438d565b5b906000526020600020018190555081600960008381526020019081526020016000208190555060096000858152602001908152602001600020600090556008805480612ac157612ac0614e3a565b5b6001900381819060005260206000200160009055905550505050565b60006001612aea84610e89565b612af49190614e06565b905081600660008573ffffffffffffffffffffffffffffffffffffffff1673ffffffffffffffffffffffffffffffffffffffff168152602001908152602001600020600083815260200190815260200160002081905550806007600084815260200190815260200160002081905550505050565b600080600090507a184f03e93ff9f4daa797ed6e38ed64bf6a1f0100000000000000008310612bc6577a184f03e93ff9f4daa797ed6e38ed64bf6a1f0100000000000000008381612bbc57612bbb6149e2565b5b0492506040810190505b6d04ee2d6d415b85acef81000000008310612c03576d04ee2d6d415b85acef81000000008381612bf957612bf86149e2565b5b0492506020810190505b662386f26fc100008310612c3257662386f26fc100008381612c2857612c276149e2565b5b0492506010810190505b6305f5e1008310612c5b576305f5e1008381612c5157612c506149e2565b5b0492506008810190505b6127108310612c80576127108381612c7657612c756149e2565b5b0492506004810190505b60648310612ca35760648381612c9957612c986149e2565b5b0492506002810190505b600a8310612cb2576001810190505b80915050919050565b6000815103612cf6576040517f22ce3edd00000000000000000000000000000000000000000000000000000000815260040160405180910390fd5b8284600001906002811115612d0e57612d0d614a11565b5b90816002811115612d2257612d21614a11565b5b815250508184604001906000811115612d3e57612d3d614a11565b5b90816000811115612d5257612d51614a11565b5b8152505080846060018190525050505050565b612d6d613622565b612d7b816000015183612f5e565b506000816020018181525050919050565b612d998260038351612fd7565b612db081836000015161318090919063ffffffff16565b505050565b612dd760026005600660ff16901b17836000015161319c90919063ffffffff16565b50612e018282604051602001612ded9190613b0d565b604051602081830303815290604052612e55565b5050565b612e10816004613206565b600181602001818151612e239190614359565b9150818152505050565b612e38816007613206565b600181602001818151612e4b9190614e06565b9150818152505050565b612e628260028351612fd7565b612e7981836000015161318090919063ffffffff16565b505050565b612e88838361322c565b612e9560008484846120c2565b505050565b612ea5838383613325565b612f5957600073ffffffffffffffffffffffffffffffffffffffff168373ffffffffffffffffffffffffffffffffffffffff1603612f1a57806040517f7e273289000000000000000000000000000000000000000000000000000000008152600401612f119190613b0d565b60405180910390fd5b81816040517f177e802f000000000000000000000000000000000000000000000000000000008152600401612f50929190614295565b60405180910390fd5b505050565b612f66613642565b6000602083612f759190614e69565b14612fa157602082612f879190614e69565b6020612f939190614e06565b82612f9e9190614359565b91505b818360200181815250506040518084526000815282810160200181811015612fc857600080fd5b80604052505082905092915050565b60178167ffffffffffffffff16116130125761300c8160058460ff16901b60ff1617846000015161319c90919063ffffffff16565b5061317b565b60ff8167ffffffffffffffff161161307057613045601860058460ff16901b17846000015161319c90919063ffffffff16565b5061306a8167ffffffffffffffff16600185600001516133e69092919063ffffffff16565b5061317a565b61ffff8167ffffffffffffffff16116130cf576130a4601960058460ff16901b17846000015161319c90919063ffffffff16565b506130c98167ffffffffffffffff16600285600001516133e69092919063ffffffff16565b50613179565b63ffffffff8167ffffffffffffffff161161313057613105601a60058460ff16901b17846000015161319c90919063ffffffff16565b5061312a8167ffffffffffffffff16600485600001516133e69092919063ffffffff16565b50613178565b613151601b60058460ff16901b17846000015161319c90919063ffffffff16565b506131768167ffffffffffffffff16600885600001516133e69092919063ffffffff16565b505b5b5b5b505050565b613188613642565b61319483838451613473565b905092915050565b6131a4613642565b6000836000015151905060006001826131bd9190614359565b9050846020015182106131e1576131e0856002836131db9190614e9a565b613556565b5b845160208382010185815381518311156131f9578282525b5050849250505092915050565b613227601f60058360ff16901b17836000015161319c90919063ffffffff16565b505050565b600073ffffffffffffffffffffffffffffffffffffffff168273ffffffffffffffffffffffffffffffffffffffff160361329e5760006040517f64a0ae920000000000000000000000000000000000000000000000000000000081526004016132959190613881565b60405180910390fd5b60006132ac83836000611643565b9050600073ffffffffffffffffffffffffffffffffffffffff168173ffffffffffffffffffffffffffffffffffffffff16146133205760006040517f73c6ac6e0000000000000000000000000000000000000000000000000000000081526004016133179190613881565b60405180910390fd5b505050565b60008073ffffffffffffffffffffffffffffffffffffffff168373ffffffffffffffffffffffffffffffffffffffff16141580156133dd57508273ffffffffffffffffffffffffffffffffffffffff168473ffffffffffffffffffffffffffffffffffffffff16148061339e575061339d84846112ca565b5b806133dc57508273ffffffffffffffffffffffffffffffffffffffff166133c4836114dc565b73ffffffffffffffffffffffffffffffffffffffff16145b5b90509392505050565b6133ee613642565b60008460000151519050600081846134069190614359565b9050856020015181111561342b5761342a866002836134259190614e9a565b613556565b5b600060018561010061343d919061500f565b6134479190614e06565b905086518281018783198251161781528151841115613464578382525b50508693505050509392505050565b61347b613642565b825182111561348957600080fd5b60008460000151519050600083826134a19190614359565b905085602001518111156134c6576134c5866002836134c09190614e9a565b613556565b5b600080875180518560208301019350808511156134e1578482525b60208901925050505b6020861061352857805182526020826135039190614359565b91506020816135129190614359565b90506020866135219190614e06565b95506134ea565b60006001876020036101000a0390508019825116818451168181178552505050879450505050509392505050565b6000826000015190506135698383612f5e565b506135748382613180565b50505050565b6040518060e001604052806000600281111561359957613598614a11565b5b8152602001600060028111156135b2576135b1614a11565b5b81526020016000808111156135ca576135c9614a11565b5b8152602001606081526020016060815260200160608152602001606081525090565b6040518060c001604052806060815260200160608152602001606081526020016060815260200160008152602001600081525090565b6040518060400160405280613635613642565b8152602001600081525090565b604051806040016040528060608152602001600081525090565b6000604051905090565b600080fd5b600080fd5b60007fffffffff0000000000000000000000000000000000000000000000000000000082169050919050565b6136a581613670565b81146136b057600080fd5b50565b6000813590506136c28161369c565b92915050565b6000602082840312156136de576136dd613666565b5b60006136ec848285016136b3565b91505092915050565b60008115159050919050565b61370a816136f5565b82525050565b60006020820190506137256000830184613701565b92915050565b600081519050919050565b600082825260208201905092915050565b60005b8381101561376557808201518184015260208101905061374a565b60008484015250505050565b6000601f19601f8301169050919050565b600061378d8261372b565b6137978185613736565b93506137a7818560208601613747565b6137b081613771565b840191505092915050565b600060208201905081810360008301526137d58184613782565b905092915050565b6000819050919050565b6137f0816137dd565b81146137fb57600080fd5b50565b60008135905061380d816137e7565b92915050565b60006020828403121561382957613828613666565b5b6000613837848285016137fe565b91505092915050565b600073ffffffffffffffffffffffffffffffffffffffff82169050919050565b600061386b82613840565b9050919050565b61387b81613860565b82525050565b60006020820190506138966000830184613872565b92915050565b6138a581613860565b81146138b057600080fd5b50565b6000813590506138c28161389c565b92915050565b600080604083850312156138df576138de613666565b5b60006138ed858286016138b3565b92505060206138fe858286016137fe565b9150509250929050565b6000819050919050565b61391b81613908565b811461392657600080fd5b50565b60008135905061393881613912565b92915050565b600080fd5b600080fd5b7f4e487b7100000000000000000000000000000000000000000000000000000000600052604160045260246000fd5b61398082613771565b810181811067ffffffffffffffff8211171561399f5761399e613948565b5b80604052505050565b60006139b261365c565b90506139be8282613977565b919050565b600067ffffffffffffffff8211156139de576139dd613948565b5b6139e782613771565b9050602081019050919050565b82818337600083830152505050565b6000613a16613a11846139c3565b6139a8565b905082815260208101848484011115613a3257613a31613943565b5b613a3d8482856139f4565b509392505050565b600082601f830112613a5a57613a5961393e565b5b8135613a6a848260208601613a03565b91505092915050565b600080600060608486031215613a8c57613a8b613666565b5b6000613a9a86828701613929565b935050602084013567ffffffffffffffff811115613abb57613aba61366b565b5b613ac786828701613a45565b925050604084013567ffffffffffffffff811115613ae857613ae761366b565b5b613af486828701613a45565b9150509250925092565b613b07816137dd565b82525050565b6000602082019050613b226000830184613afe565b92915050565b600080600060608486031215613b4157613b40613666565b5b6000613b4f868287016138b3565b9350506020613b60868287016138b3565b9250506040613b71868287016137fe565b9150509250925092565b600081519050919050565b600082825260208201905092915050565b6000613ba282613b7b565b613bac8185613b86565b9350613bbc818560208601613747565b613bc581613771565b840191505092915050565b60006020820190508181036000830152613bea8184613b97565b905092915050565b600067ffffffffffffffff821115613c0d57613c0c613948565b5b613c1682613771565b9050602081019050919050565b6000613c36613c3184613bf2565b6139a8565b905082815260208101848484011115613c5257613c51613943565b5b613c5d8482856139f4565b509392505050565b600082601f830112613c7a57613c7961393e565b5b8135613c8a848260208601613c23565b91505092915050565b600067ffffffffffffffff821115613cae57613cad613948565b5b602082029050602081019050919050565b600080fd5b6000613cd7613cd284613c93565b6139a8565b90508083825260208201905060208402830185811115613cfa57613cf9613cbf565b5b835b81811015613d4157803567ffffffffffffffff811115613d1f57613d1e61393e565b5b808601613d2c8982613c65565b85526020850194505050602081019050613cfc565b5050509392505050565b600082601f830112613d6057613d5f61393e565b5b8135613d70848260208601613cc4565b91505092915050565b600067ffffffffffffffff82169050919050565b613d9681613d79565b8114613da157600080fd5b50565b600081359050613db381613d8d565b92915050565b60008060008060808587031215613dd357613dd2613666565b5b600085013567ffffffffffffffff811115613df157613df061366b565b5b613dfd87828801613c65565b945050602085013567ffffffffffffffff811115613e1e57613e1d61366b565b5b613e2a87828801613a45565b935050604085013567ffffffffffffffff811115613e4b57613e4a61366b565b5b613e5787828801613d4b565b9250506060613e6887828801613da4565b91505092959194509250565b613e7d81613908565b82525050565b6000602082019050613e986000830184613e74565b92915050565b600082825260208201905092915050565b6000613eba8261372b565b613ec48185613e9e565b9350613ed4818560208601613747565b613edd81613771565b840191505092915050565b613ef1816137dd565b82525050565b600060c0830160008301518482036000860152613f148282613eaf565b91505060208301518482036020860152613f2e8282613eaf565b91505060408301518482036040860152613f488282613eaf565b91505060608301518482036060860152613f628282613eaf565b9150506080830151613f776080860182613ee8565b5060a0830151613f8a60a0860182613ee8565b508091505092915050565b60006020820190508181036000830152613faf8184613ef7565b905092915050565b600060208284031215613fcd57613fcc613666565b5b6000613fdb848285016138b3565b91505092915050565b613fed816136f5565b8114613ff857600080fd5b50565b60008135905061400a81613fe4565b92915050565b6000806040838503121561402757614026613666565b5b6000614035858286016138b3565b925050602061404685828601613ffb565b9150509250929050565b600080600080600060a0868803121561406c5761406b613666565b5b600061407a888289016137fe565b955050602086013567ffffffffffffffff81111561409b5761409a61366b565b5b6140a788828901613c65565b945050604086013567ffffffffffffffff8111156140c8576140c761366b565b5b6140d488828901613c65565b935050606086013567ffffffffffffffff8111156140f5576140f461366b565b5b61410188828901613c65565b925050608086013567ffffffffffffffff8111156141225761412161366b565b5b61412e88828901613c65565b9150509295509295909350565b6000806000806080858703121561415557614154613666565b5b6000614163878288016138b3565b9450506020614174878288016138b3565b9350506040614185878288016137fe565b925050606085013567ffffffffffffffff8111156141a6576141a561366b565b5b6141b287828801613a45565b91505092959194509250565b600080604083850312156141d5576141d4613666565b5b60006141e3858286016138b3565b92505060206141f4858286016138b3565b9150509250929050565b7f4e487b7100000000000000000000000000000000000000000000000000000000600052602260045260246000fd5b6000600282049050600182168061424557607f821691505b602082108103614258576142576141fe565b5b50919050565b60006060820190506142736000830186613872565b6142806020830185613afe565b61428d6040830184613872565b949350505050565b60006040820190506142aa6000830185613872565b6142b76020830184613afe565b9392505050565b7f4164647265737320616c7265616479206f776e7320616e204e46540000000000600082015250565b60006142f4601b83613736565b91506142ff826142be565b602082019050919050565b60006020820190508181036000830152614323816142e7565b9050919050565b7f4e487b7100000000000000000000000000000000000000000000000000000000600052601160045260246000fd5b6000614364826137dd565b915061436f836137dd565b92508282019050808211156143875761438661432a565b5b92915050565b7f4e487b7100000000000000000000000000000000000000000000000000000000600052603260045260246000fd5b7f4d7573742062652070726f706f736564206f776e657200000000000000000000600082015250565b60006143f2601683613736565b91506143fd826143bc565b602082019050919050565b60006020820190508181036000830152614421816143e5565b9050919050565b7f4f6e6c7920746f6b656e206f776e65722063616e20757064617465206d65746160008201527f6461746100000000000000000000000000000000000000000000000000000000602082015250565b6000614484602483613736565b915061448f82614428565b604082019050919050565b600060208201905081810360008301526144b381614477565b9050919050565b600081905092915050565b60006144d08261372b565b6144da81856144ba565b93506144ea818560208601613747565b80840191505092915050565b600061450282856144c5565b915061450e82846144c5565b91508190509392505050565b60008190508160005260206000209050919050565b60006020601f8301049050919050565b600082821b905092915050565b60006008830261457c7fffffffffffffffffffffffffffffffffffffffffffffffffffffffffffffffff8261453f565b614586868361453f565b95508019841693508086168417925050509392505050565b6000819050919050565b60006145c36145be6145b9846137dd565b61459e565b6137dd565b9050919050565b6000819050919050565b6145dd836145a8565b6145f16145e9826145ca565b84845461454c565b825550505050565b600090565b6146066145f9565b6146118184846145d4565b505050565b5b818110156146355761462a6000826145fe565b600181019050614617565b5050565b601f82111561467a5761464b8161451a565b6146548461452f565b81016020851015614663578190505b61467761466f8561452f565b830182614616565b50505b505050565b600082821c905092915050565b600061469d6000198460080261467f565b1980831691505092915050565b60006146b6838361468c565b9150826002028217905092915050565b6146cf82613b7b565b67ffffffffffffffff8111156146e8576146e7613948565b5b6146f2825461422d565b6146fd828285614639565b600060209050601f831160018114614730576000841561471e578287015190505b61472885826146aa565b865550614790565b601f19841661473e8661451a565b60005b8281101561476657848901518255600182019150602085019450602081019050614741565b86831015614783578489015161477f601f89168261468c565b8355505b6001600288020188555050505b505050505050565b600081546147a58161422d565b6147af8186613b86565b945060018216600081146147ca57600181146147e057614813565b60ff198316865281151560200286019350614813565b6147e98561451a565b60005b8381101561480b578154818901526001820191506020810190506147ec565b808801955050505b50505092915050565b600060408201905081810360008301526148368185614798565b9050818103602083015261484a8184614798565b90509392505050565b600061486661486184613bf2565b6139a8565b90508281526020810184848401111561488257614881613943565b5b61488d848285613747565b509392505050565b600082601f8301126148aa576148a961393e565b5b81516148ba848260208601614853565b91505092915050565b600080600080608085870312156148dd576148dc613666565b5b600085015167ffffffffffffffff8111156148fb576148fa61366b565b5b61490787828801614895565b945050602085015167ffffffffffffffff8111156149285761492761366b565b5b61493487828801614895565b935050604085015167ffffffffffffffff8111156149555761495461366b565b5b61496187828801614895565b925050606085015167ffffffffffffffff8111156149825761498161366b565b5b61498e87828801614895565b91505092959194509250565b60006149a5826137dd565b91507fffffffffffffffffffffffffffffffffffffffffffffffffffffffffffffffff82036149d7576149d661432a565b5b600182019050919050565b7f4e487b7100000000000000000000000000000000000000000000000000000000600052601260045260246000fd5b7f4e487b7100000000000000000000000000000000000000000000000000000000600052602160045260246000fd5b614a4981613d79565b82525050565b600061ffff82169050919050565b614a6681614a4f565b82525050565b600063ffffffff82169050919050565b614a8581614a6c565b82525050565b600060a082019050614aa06000830188614a40565b8181036020830152614ab28187613b97565b9050614ac16040830186614a5d565b614ace6060830185614a7c565b614adb6080830184613e74565b9695505050505050565b600081519050614af481613912565b92915050565b600060208284031215614b1057614b0f613666565b5b6000614b1e84828501614ae5565b91505092915050565b7f4f6e6c792063616c6c61626c65206279206f776e657200000000000000000000600082015250565b6000614b5d601683613736565b9150614b6882614b27565b602082019050919050565b60006020820190508181036000830152614b8c81614b50565b9050919050565b60008190508160005260206000209050919050565b601f821115614be957614bba81614b93565b614bc38461452f565b81016020851015614bd2578190505b614be6614bde8561452f565b830182614616565b50505b505050565b614bf78261372b565b67ffffffffffffffff811115614c1057614c0f613948565b5b614c1a825461422d565b614c25828285614ba8565b600060209050601f831160018114614c585760008415614c46578287015190505b614c5085826146aa565b865550614cb8565b601f198416614c6686614b93565b60005b82811015614c8e57848901518255600182019150602085019450602081019050614c69565b86831015614cab5784890151614ca7601f89168261468c565b8355505b6001600288020188555050505b505050505050565b60006060820190508181036000830152614cda8186613782565b90508181036020830152614cee8185613782565b90508181036040830152614d028184613782565b9050949350505050565b6000608082019050614d216000830187613872565b614d2e6020830186613872565b614d3b6040830185613afe565b8181036060830152614d4d8184613b97565b905095945050505050565b600081519050614d678161369c565b92915050565b600060208284031215614d8357614d82613666565b5b6000614d9184828501614d58565b91505092915050565b7f43616e6e6f74207472616e7366657220746f2073656c66000000000000000000600082015250565b6000614dd0601783613736565b9150614ddb82614d9a565b602082019050919050565b60006020820190508181036000830152614dff81614dc3565b9050919050565b6000614e11826137dd565b9150614e1c836137dd565b9250828203905081811115614e3457614e3361432a565b5b92915050565b7f4e487b7100000000000000000000000000000000000000000000000000000000600052603160045260246000fd5b6000614e74826137dd565b9150614e7f836137dd565b925082614e8f57614e8e6149e2565b5b828206905092915050565b6000614ea5826137dd565b9150614eb0836137dd565b9250828202614ebe816137dd565b91508282048414831517614ed557614ed461432a565b5b5092915050565b60008160011c9050919050565b6000808291508390505b6001851115614f3357808604811115614f0f57614f0e61432a565b5b6001851615614f1e5780820291505b8081029050614f2c85614edc565b9450614ef3565b94509492505050565b600082614f4c5760019050615008565b81614f5a5760009050615008565b8160018114614f705760028114614f7a57614fa9565b6001915050615008565b60ff841115614f8c57614f8b61432a565b5b8360020a915084821115614fa357614fa261432a565b5b50615008565b5060208310610133831016604e8410600b8410161715614fde5782820a905083811115614fd957614fd861432a565b5b615008565b614feb8484846001614ee9565b925090508184048111156150025761500161432a565b5b81810290505b9392505050565b600061501a826137dd565b9150615025836137dd565b92506150527fffffffffffffffffffffffffffffffffffffffffffffffffffffffffffffffff8484614f3c565b90509291505056fea2646970667358221220384581cc2410907e170c7eb1db08e0c35fafe2766950fdeb615e0b43029796d864736f6c63430008140033","opcodes":"PUSH1 0xA0 PUSH1 0x40 MSTORE PUSH32 0x66756E2D6176616C616E6368652D66756A692D31000000000000000000000000 PUSH1 0x0 SHL PUSH1 0x11 SSTORE PUSH2 0x7530 PUSH1 0x12 PUSH1 0x0 PUSH2 0x100 EXP DUP2 SLOAD DUP2 PUSH4 0xFFFFFFFF MUL NOT AND SWAP1 DUP4 PUSH4 0xFFFFFFFF AND MUL OR SWAP1 SSTORE POP CALLVALUE DUP1 ISZERO PUSH3 0x5B JUMPI PUSH1 0x0 DUP1 REVERT JUMPDEST POP PUSH1 0x40 MLOAD PUSH3 0x5942 CODESIZE SUB DUP1 PUSH3 0x5942 DUP4 CODECOPY DUP2 DUP2 ADD PUSH1 0x40 MSTORE DUP2 ADD SWAP1 PUSH3 0x81 SWAP2 SWAP1 PUSH3 0x407 JUMP JUMPDEST CALLER DUP1 PUSH1 0x0 DUP4 PUSH1 0x40 MLOAD DUP1 PUSH1 0x40 ADD PUSH1 0x40 MSTORE DUP1 PUSH1 0xC DUP2 MSTORE PUSH1 0x20 ADD PUSH32 0x426574626C6F636B2042696F0000000000000000000000000000000000000000 DUP2 MSTORE POP PUSH1 0x40 MLOAD DUP1 PUSH1 0x40 ADD PUSH1 0x40 MSTORE DUP1 PUSH1 0x3 DUP2 MSTORE PUSH1 0x20 ADD PUSH32 0x4242420000000000000000000000000000000000000000000000000000000000 DUP2 MSTORE POP DUP2 PUSH1 0x0 SWAP1 DUP2 PUSH3 0x103 SWAP2 SWAP1 PUSH3 0x6B3 JUMP JUMPDEST POP DUP1 PUSH1 0x1 SWAP1 DUP2 PUSH3 0x115 SWAP2 SWAP1 PUSH3 0x6B3 JUMP JUMPDEST POP POP POP PUSH1 0x0 PUSH1 0xA PUSH1 0x0 PUSH2 0x100 EXP DUP2 SLOAD DUP2 PUSH1 0xFF MUL NOT AND SWAP1 DUP4 ISZERO ISZERO MUL OR SWAP1 SSTORE POP DUP1 PUSH20 0xFFFFFFFFFFFFFFFFFFFFFFFFFFFFFFFFFFFFFFFF AND PUSH1 0x80 DUP2 PUSH20 0xFFFFFFFFFFFFFFFFFFFFFFFFFFFFFFFFFFFFFFFF AND DUP2 MSTORE POP POP POP PUSH1 0x0 PUSH20 0xFFFFFFFFFFFFFFFFFFFFFFFFFFFFFFFFFFFFFFFF AND DUP3 PUSH20 0xFFFFFFFFFFFFFFFFFFFFFFFFFFFFFFFFFFFFFFFF AND SUB PUSH3 0x1DA JUMPI PUSH1 0x40 MLOAD PUSH32 0x8C379A000000000000000000000000000000000000000000000000000000000 DUP2 MSTORE PUSH1 0x4 ADD PUSH3 0x1D1 SWAP1 PUSH3 0x7FB JUMP JUMPDEST PUSH1 0x40 MLOAD DUP1 SWAP2 SUB SWAP1 REVERT JUMPDEST DUP2 PUSH1 0xA PUSH1 0x1 PUSH2 0x100 EXP DUP2 SLOAD DUP2 PUSH20 0xFFFFFFFFFFFFFFFFFFFFFFFFFFFFFFFFFFFFFFFF MUL NOT AND SWAP1 DUP4 PUSH20 0xFFFFFFFFFFFFFFFFFFFFFFFFFFFFFFFFFFFFFFFF AND MUL OR SWAP1 SSTORE POP PUSH1 0x0 PUSH20 0xFFFFFFFFFFFFFFFFFFFFFFFFFFFFFFFFFFFFFFFF AND DUP2 PUSH20 0xFFFFFFFFFFFFFFFFFFFFFFFFFFFFFFFFFFFFFFFF AND EQ PUSH3 0x262 JUMPI PUSH3 0x261 DUP2 PUSH3 0x26C PUSH1 0x20 SHL PUSH1 0x20 SHR JUMP JUMPDEST JUMPDEST POP POP POP POP PUSH3 0x88F JUMP JUMPDEST CALLER PUSH20 0xFFFFFFFFFFFFFFFFFFFFFFFFFFFFFFFFFFFFFFFF AND DUP2 PUSH20 0xFFFFFFFFFFFFFFFFFFFFFFFFFFFFFFFFFFFFFFFF AND SUB PUSH3 0x2DD JUMPI PUSH1 0x40 MLOAD PUSH32 0x8C379A000000000000000000000000000000000000000000000000000000000 DUP2 MSTORE PUSH1 0x4 ADD PUSH3 0x2D4 SWAP1 PUSH3 0x86D JUMP JUMPDEST PUSH1 0x40 MLOAD DUP1 SWAP2 SUB SWAP1 REVERT JUMPDEST DUP1 PUSH1 0xB PUSH1 0x0 PUSH2 0x100 EXP DUP2 SLOAD DUP2 PUSH20 0xFFFFFFFFFFFFFFFFFFFFFFFFFFFFFFFFFFFFFFFF MUL NOT AND SWAP1 DUP4 PUSH20 0xFFFFFFFFFFFFFFFFFFFFFFFFFFFFFFFFFFFFFFFF AND MUL OR SWAP1 SSTORE POP DUP1 PUSH20 0xFFFFFFFFFFFFFFFFFFFFFFFFFFFFFFFFFFFFFFFF AND PUSH1 0xA PUSH1 0x1 SWAP1 SLOAD SWAP1 PUSH2 0x100 EXP SWAP1 DIV PUSH20 0xFFFFFFFFFFFFFFFFFFFFFFFFFFFFFFFFFFFFFFFF AND PUSH20 0xFFFFFFFFFFFFFFFFFFFFFFFFFFFFFFFFFFFFFFFF AND PUSH32 0xED8889F560326EB138920D842192F0EB3DD22B4F139C87A2C57538E05BAE1278 PUSH1 0x40 MLOAD PUSH1 0x40 MLOAD DUP1 SWAP2 SUB SWAP1 LOG3 POP JUMP JUMPDEST PUSH1 0x0 DUP1 REVERT JUMPDEST PUSH1 0x0 PUSH20 0xFFFFFFFFFFFFFFFFFFFFFFFFFFFFFFFFFFFFFFFF DUP3 AND SWAP1 POP SWAP2 SWAP1 POP JUMP JUMPDEST PUSH1 0x0 PUSH3 0x3CF DUP3 PUSH3 0x3A2 JUMP JUMPDEST SWAP1 POP SWAP2 SWAP1 POP JUMP JUMPDEST PUSH3 0x3E1 DUP2 PUSH3 0x3C2 JUMP JUMPDEST DUP2 EQ PUSH3 0x3ED JUMPI PUSH1 0x0 DUP1 REVERT JUMPDEST POP JUMP JUMPDEST PUSH1 0x0 DUP2 MLOAD SWAP1 POP PUSH3 0x401 DUP2 PUSH3 0x3D6 JUMP JUMPDEST SWAP3 SWAP2 POP POP JUMP JUMPDEST PUSH1 0x0 PUSH1 0x20 DUP3 DUP5 SUB SLT ISZERO PUSH3 0x420 JUMPI PUSH3 0x41F PUSH3 0x39D JUMP JUMPDEST JUMPDEST PUSH1 0x0 PUSH3 0x430 DUP5 DUP3 DUP6 ADD PUSH3 0x3F0 JUMP JUMPDEST SWAP2 POP POP SWAP3 SWAP2 POP POP JUMP JUMPDEST PUSH1 0x0 DUP2 MLOAD SWAP1 POP SWAP2 SWAP1 POP JUMP JUMPDEST PUSH32 0x4E487B7100000000000000000000000000000000000000000000000000000000 PUSH1 0x0 MSTORE PUSH1 0x41 PUSH1 0x4 MSTORE PUSH1 0x24 PUSH1 0x0 REVERT JUMPDEST PUSH32 0x4E487B7100000000000000000000000000000000000000000000000000000000 PUSH1 0x0 MSTORE PUSH1 0x22 PUSH1 0x4 MSTORE PUSH1 0x24 PUSH1 0x0 REVERT JUMPDEST PUSH1 0x0 PUSH1 0x2 DUP3 DIV SWAP1 POP PUSH1 0x1 DUP3 AND DUP1 PUSH3 0x4BB JUMPI PUSH1 0x7F DUP3 AND SWAP2 POP JUMPDEST PUSH1 0x20 DUP3 LT DUP2 SUB PUSH3 0x4D1 JUMPI PUSH3 0x4D0 PUSH3 0x473 JUMP JUMPDEST JUMPDEST POP SWAP2 SWAP1 POP JUMP JUMPDEST PUSH1 0x0 DUP2 SWAP1 POP DUP2 PUSH1 0x0 MSTORE PUSH1 0x20 PUSH1 0x0 KECCAK256 SWAP1 POP SWAP2 SWAP1 POP JUMP JUMPDEST PUSH1 0x0 PUSH1 0x20 PUSH1 0x1F DUP4 ADD DIV SWAP1 POP SWAP2 SWAP1 POP JUMP JUMPDEST PUSH1 0x0 DUP3 DUP3 SHL SWAP1 POP SWAP3 SWAP2 POP POP JUMP JUMPDEST PUSH1 0x0 PUSH1 0x8 DUP4 MUL PUSH3 0x53B PUSH32 0xFFFFFFFFFFFFFFFFFFFFFFFFFFFFFFFFFFFFFFFFFFFFFFFFFFFFFFFFFFFFFFFF DUP3 PUSH3 0x4FC JUMP JUMPDEST PUSH3 0x547 DUP7 DUP4 PUSH3 0x4FC JUMP JUMPDEST SWAP6 POP DUP1 NOT DUP5 AND SWAP4 POP DUP1 DUP7 AND DUP5 OR SWAP3 POP POP POP SWAP4 SWAP3 POP POP POP JUMP JUMPDEST PUSH1 0x0 DUP2 SWAP1 POP SWAP2 SWAP1 POP JUMP JUMPDEST PUSH1 0x0 DUP2 SWAP1 POP SWAP2 SWAP1 POP JUMP JUMPDEST PUSH1 0x0 PUSH3 0x594 PUSH3 0x58E PUSH3 0x588 DUP5 PUSH3 0x55F JUMP JUMPDEST PUSH3 0x569 JUMP JUMPDEST PUSH3 0x55F JUMP JUMPDEST SWAP1 POP SWAP2 SWAP1 POP JUMP JUMPDEST PUSH1 0x0 DUP2 SWAP1 POP SWAP2 SWAP1 POP JUMP JUMPDEST PUSH3 0x5B0 DUP4 PUSH3 0x573 JUMP JUMPDEST PUSH3 0x5C8 PUSH3 0x5BF DUP3 PUSH3 0x59B JUMP JUMPDEST DUP5 DUP5 SLOAD PUSH3 0x509 JUMP JUMPDEST DUP3 SSTORE POP POP POP POP JUMP JUMPDEST PUSH1 0x0 SWAP1 JUMP JUMPDEST PUSH3 0x5DF PUSH3 0x5D0 JUMP JUMPDEST PUSH3 0x5EC DUP2 DUP5 DUP5 PUSH3 0x5A5 JUMP JUMPDEST POP POP POP JUMP JUMPDEST JUMPDEST DUP2 DUP2 LT ISZERO PUSH3 0x614 JUMPI PUSH3 0x608 PUSH1 0x0 DUP3 PUSH3 0x5D5 JUMP JUMPDEST PUSH1 0x1 DUP2 ADD SWAP1 POP PUSH3 0x5F2 JUMP JUMPDEST POP POP JUMP JUMPDEST PUSH1 0x1F DUP3 GT ISZERO PUSH3 0x663 JUMPI PUSH3 0x62D DUP2 PUSH3 0x4D7 JUMP JUMPDEST PUSH3 0x638 DUP5 PUSH3 0x4EC JUMP JUMPDEST DUP2 ADD PUSH1 0x20 DUP6 LT ISZERO PUSH3 0x648 JUMPI DUP2 SWAP1 POP JUMPDEST PUSH3 0x660 PUSH3 0x657 DUP6 PUSH3 0x4EC JUMP JUMPDEST DUP4 ADD DUP3 PUSH3 0x5F1 JUMP JUMPDEST POP POP JUMPDEST POP POP POP JUMP JUMPDEST PUSH1 0x0 DUP3 DUP3 SHR SWAP1 POP SWAP3 SWAP2 POP POP JUMP JUMPDEST PUSH1 0x0 PUSH3 0x688 PUSH1 0x0 NOT DUP5 PUSH1 0x8 MUL PUSH3 0x668 JUMP JUMPDEST NOT DUP1 DUP4 AND SWAP2 POP POP SWAP3 SWAP2 POP POP JUMP JUMPDEST PUSH1 0x0 PUSH3 0x6A3 DUP4 DUP4 PUSH3 0x675 JUMP JUMPDEST SWAP2 POP DUP3 PUSH1 0x2 MUL DUP3 OR SWAP1 POP SWAP3 SWAP2 POP POP JUMP JUMPDEST PUSH3 0x6BE DUP3 PUSH3 0x439 JUMP JUMPDEST PUSH8 0xFFFFFFFFFFFFFFFF DUP2 GT ISZERO PUSH3 0x6DA JUMPI PUSH3 0x6D9 PUSH3 0x444 JUMP JUMPDEST JUMPDEST PUSH3 0x6E6 DUP3 SLOAD PUSH3 0x4A2 JUMP JUMPDEST PUSH3 0x6F3 DUP3 DUP3 DUP6 PUSH3 0x618 JUMP JUMPDEST PUSH1 0x0 PUSH1 0x20 SWAP1 POP PUSH1 0x1F DUP4 GT PUSH1 0x1 DUP2 EQ PUSH3 0x72B JUMPI PUSH1 0x0 DUP5 ISZERO PUSH3 0x716 JUMPI DUP3 DUP8 ADD MLOAD SWAP1 POP JUMPDEST PUSH3 0x722 DUP6 DUP3 PUSH3 0x695 JUMP JUMPDEST DUP7 SSTORE POP PUSH3 0x792 JUMP JUMPDEST PUSH1 0x1F NOT DUP5 AND PUSH3 0x73B DUP7 PUSH3 0x4D7 JUMP JUMPDEST PUSH1 0x0 JUMPDEST DUP3 DUP2 LT ISZERO PUSH3 0x765 JUMPI DUP5 DUP10 ADD MLOAD DUP3 SSTORE PUSH1 0x1 DUP3 ADD SWAP2 POP PUSH1 0x20 DUP6 ADD SWAP5 POP PUSH1 0x20 DUP2 ADD SWAP1 POP PUSH3 0x73E JUMP JUMPDEST DUP7 DUP4 LT ISZERO PUSH3 0x785 JUMPI DUP5 DUP10 ADD MLOAD PUSH3 0x781 PUSH1 0x1F DUP10 AND DUP3 PUSH3 0x675 JUMP JUMPDEST DUP4 SSTORE POP JUMPDEST PUSH1 0x1 PUSH1 0x2 DUP9 MUL ADD DUP9 SSTORE POP POP POP JUMPDEST POP POP POP POP POP POP JUMP JUMPDEST PUSH1 0x0 DUP3 DUP3 MSTORE PUSH1 0x20 DUP3 ADD SWAP1 POP SWAP3 SWAP2 POP POP JUMP JUMPDEST PUSH32 0x43616E6E6F7420736574206F776E657220746F207A65726F0000000000000000 PUSH1 0x0 DUP3 ADD MSTORE POP JUMP JUMPDEST PUSH1 0x0 PUSH3 0x7E3 PUSH1 0x18 DUP4 PUSH3 0x79A JUMP JUMPDEST SWAP2 POP PUSH3 0x7F0 DUP3 PUSH3 0x7AB JUMP JUMPDEST PUSH1 0x20 DUP3 ADD SWAP1 POP SWAP2 SWAP1 POP JUMP JUMPDEST PUSH1 0x0 PUSH1 0x20 DUP3 ADD SWAP1 POP DUP2 DUP2 SUB PUSH1 0x0 DUP4 ADD MSTORE PUSH3 0x816 DUP2 PUSH3 0x7D4 JUMP JUMPDEST SWAP1 POP SWAP2 SWAP1 POP JUMP JUMPDEST PUSH32 0x43616E6E6F74207472616E7366657220746F2073656C66000000000000000000 PUSH1 0x0 DUP3 ADD MSTORE POP JUMP JUMPDEST PUSH1 0x0 PUSH3 0x855 PUSH1 0x17 DUP4 PUSH3 0x79A JUMP JUMPDEST SWAP2 POP PUSH3 0x862 DUP3 PUSH3 0x81D JUMP JUMPDEST PUSH1 0x20 DUP3 ADD SWAP1 POP SWAP2 SWAP1 POP JUMP JUMPDEST PUSH1 0x0 PUSH1 0x20 DUP3 ADD SWAP1 POP DUP2 DUP2 SUB PUSH1 0x0 DUP4 ADD MSTORE PUSH3 0x888 DUP2 PUSH3 0x846 JUMP JUMPDEST SWAP1 POP SWAP2 SWAP1 POP JUMP JUMPDEST PUSH1 0x80 MLOAD PUSH2 0x5090 PUSH3 0x8B2 PUSH1 0x0 CODECOPY PUSH1 0x0 DUP2 DUP2 PUSH2 0x6A8 ADD MSTORE PUSH2 0x1D21 ADD MSTORE PUSH2 0x5090 PUSH1 0x0 RETURN INVALID PUSH1 0x80 PUSH1 0x40 MSTORE CALLVALUE DUP1 ISZERO PUSH2 0x10 JUMPI PUSH1 0x0 DUP1 REVERT JUMPDEST POP PUSH1 0x4 CALLDATASIZE LT PUSH2 0x1A9 JUMPI PUSH1 0x0 CALLDATALOAD PUSH1 0xE0 SHR DUP1 PUSH4 0x5C975ABB GT PUSH2 0xF9 JUMPI DUP1 PUSH4 0xA22CB465 GT PUSH2 0x97 JUMPI DUP1 PUSH4 0xB88D4FDE GT PUSH2 0x71 JUMPI DUP1 PUSH4 0xB88D4FDE EQ PUSH2 0x4D0 JUMPI DUP1 PUSH4 0xC87B56DD EQ PUSH2 0x4EC JUMPI DUP1 PUSH4 0xE985E9C5 EQ PUSH2 0x51C JUMPI DUP1 PUSH4 0xF2FDE38B EQ PUSH2 0x54C JUMPI PUSH2 0x1A9 JUMP JUMPDEST DUP1 PUSH4 0xA22CB465 EQ PUSH2 0x47A JUMPI DUP1 PUSH4 0xAC2F541A EQ PUSH2 0x496 JUMPI DUP1 PUSH4 0xB1E21749 EQ PUSH2 0x4B2 JUMPI PUSH2 0x1A9 JUMP JUMPDEST DUP1 PUSH4 0x70A08231 GT PUSH2 0xD3 JUMPI DUP1 PUSH4 0x70A08231 EQ PUSH2 0x404 JUMPI DUP1 PUSH4 0x79BA5097 EQ PUSH2 0x434 JUMPI DUP1 PUSH4 0x8DA5CB5B EQ PUSH2 0x43E JUMPI DUP1 PUSH4 0x95D89B41 EQ PUSH2 0x45C JUMPI PUSH2 0x1A9 JUMP JUMPDEST DUP1 PUSH4 0x5C975ABB EQ PUSH2 0x386 JUMPI DUP1 PUSH4 0x60316801 EQ PUSH2 0x3A4 JUMPI DUP1 PUSH4 0x6352211E EQ PUSH2 0x3D4 JUMPI PUSH2 0x1A9 JUMP JUMPDEST DUP1 PUSH4 0x23B872DD GT PUSH2 0x166 JUMPI DUP1 PUSH4 0x42842E0E GT PUSH2 0x140 JUMPI DUP1 PUSH4 0x42842E0E EQ PUSH2 0x2EC JUMPI DUP1 PUSH4 0x4B0795A8 EQ PUSH2 0x308 JUMPI DUP1 PUSH4 0x4D598342 EQ PUSH2 0x326 JUMPI DUP1 PUSH4 0x4F6CCCE7 EQ PUSH2 0x356 JUMPI PUSH2 0x1A9 JUMP JUMPDEST DUP1 PUSH4 0x23B872DD EQ PUSH2 0x282 JUMPI DUP1 PUSH4 0x2F745C59 EQ PUSH2 0x29E JUMPI DUP1 PUSH4 0x3944EA3A EQ PUSH2 0x2CE JUMPI PUSH2 0x1A9 JUMP JUMPDEST DUP1 PUSH4 0x1FFC9A7 EQ PUSH2 0x1AE JUMPI DUP1 PUSH4 0x6FDDE03 EQ PUSH2 0x1DE JUMPI DUP1 PUSH4 0x81812FC EQ PUSH2 0x1FC JUMPI DUP1 PUSH4 0x95EA7B3 EQ PUSH2 0x22C JUMPI DUP1 PUSH4 0xCA76175 EQ PUSH2 0x248 JUMPI DUP1 PUSH4 0x18160DDD EQ PUSH2 0x264 JUMPI JUMPDEST PUSH1 0x0 DUP1 REVERT JUMPDEST PUSH2 0x1C8 PUSH1 0x4 DUP1 CALLDATASIZE SUB DUP2 ADD SWAP1 PUSH2 0x1C3 SWAP2 SWAP1 PUSH2 0x36C8 JUMP JUMPDEST PUSH2 0x568 JUMP JUMPDEST PUSH1 0x40 MLOAD PUSH2 0x1D5 SWAP2 SWAP1 PUSH2 0x3710 JUMP JUMPDEST PUSH1 0x40 MLOAD DUP1 SWAP2 SUB SWAP1 RETURN JUMPDEST PUSH2 0x1E6 PUSH2 0x5E2 JUMP JUMPDEST PUSH1 0x40 MLOAD PUSH2 0x1F3 SWAP2 SWAP1 PUSH2 0x37BB JUMP JUMPDEST PUSH1 0x40 MLOAD DUP1 SWAP2 SUB SWAP1 RETURN JUMPDEST PUSH2 0x216 PUSH1 0x4 DUP1 CALLDATASIZE SUB DUP2 ADD SWAP1 PUSH2 0x211 SWAP2 SWAP1 PUSH2 0x3813 JUMP JUMPDEST PUSH2 0x674 JUMP JUMPDEST PUSH1 0x40 MLOAD PUSH2 0x223 SWAP2 SWAP1 PUSH2 0x3881 JUMP JUMPDEST PUSH1 0x40 MLOAD DUP1 SWAP2 SUB SWAP1 RETURN JUMPDEST PUSH2 0x246 PUSH1 0x4 DUP1 CALLDATASIZE SUB DUP2 ADD SWAP1 PUSH2 0x241 SWAP2 SWAP1 PUSH2 0x38C8 JUMP JUMPDEST PUSH2 0x690 JUMP JUMPDEST STOP JUMPDEST PUSH2 0x262 PUSH1 0x4 DUP1 CALLDATASIZE SUB DUP2 ADD SWAP1 PUSH2 0x25D SWAP2 SWAP1 PUSH2 0x3A73 JUMP JUMPDEST PUSH2 0x6A6 JUMP JUMPDEST STOP JUMPDEST PUSH2 0x26C PUSH2 0x768 JUMP JUMPDEST PUSH1 0x40 MLOAD PUSH2 0x279 SWAP2 SWAP1 PUSH2 0x3B0D JUMP JUMPDEST PUSH1 0x40 MLOAD DUP1 SWAP2 SUB SWAP1 RETURN JUMPDEST PUSH2 0x29C PUSH1 0x4 DUP1 CALLDATASIZE SUB DUP2 ADD SWAP1 PUSH2 0x297 SWAP2 SWAP1 PUSH2 0x3B28 JUMP JUMPDEST PUSH2 0x775 JUMP JUMPDEST STOP JUMPDEST PUSH2 0x2B8 PUSH1 0x4 DUP1 CALLDATASIZE SUB DUP2 ADD SWAP1 PUSH2 0x2B3 SWAP2 SWAP1 PUSH2 0x38C8 JUMP JUMPDEST PUSH2 0x877 JUMP JUMPDEST PUSH1 0x40 MLOAD PUSH2 0x2C5 SWAP2 SWAP1 PUSH2 0x3B0D JUMP JUMPDEST PUSH1 0x40 MLOAD DUP1 SWAP2 SUB SWAP1 RETURN JUMPDEST PUSH2 0x2D6 PUSH2 0x920 JUMP JUMPDEST PUSH1 0x40 MLOAD PUSH2 0x2E3 SWAP2 SWAP1 PUSH2 0x3BD0 JUMP JUMPDEST PUSH1 0x40 MLOAD DUP1 SWAP2 SUB SWAP1 RETURN JUMPDEST PUSH2 0x306 PUSH1 0x4 DUP1 CALLDATASIZE SUB DUP2 ADD SWAP1 PUSH2 0x301 SWAP2 SWAP1 PUSH2 0x3B28 JUMP JUMPDEST PUSH2 0x9AE JUMP JUMPDEST STOP JUMPDEST PUSH2 0x310 PUSH2 0x9CE JUMP JUMPDEST PUSH1 0x40 MLOAD PUSH2 0x31D SWAP2 SWAP1 PUSH2 0x3BD0 JUMP JUMPDEST PUSH1 0x40 MLOAD DUP1 SWAP2 SUB SWAP1 RETURN JUMPDEST PUSH2 0x340 PUSH1 0x4 DUP1 CALLDATASIZE SUB DUP2 ADD SWAP1 PUSH2 0x33B SWAP2 SWAP1 PUSH2 0x3DB9 JUMP JUMPDEST PUSH2 0xA5C JUMP JUMPDEST PUSH1 0x40 MLOAD PUSH2 0x34D SWAP2 SWAP1 PUSH2 0x3E83 JUMP JUMPDEST PUSH1 0x40 MLOAD DUP1 SWAP2 SUB SWAP1 RETURN JUMPDEST PUSH2 0x370 PUSH1 0x4 DUP1 CALLDATASIZE SUB DUP2 ADD SWAP1 PUSH2 0x36B SWAP2 SWAP1 PUSH2 0x3813 JUMP JUMPDEST PUSH2 0xB61 JUMP JUMPDEST PUSH1 0x40 MLOAD PUSH2 0x37D SWAP2 SWAP1 PUSH2 0x3B0D JUMP JUMPDEST PUSH1 0x40 MLOAD DUP1 SWAP2 SUB SWAP1 RETURN JUMPDEST PUSH2 0x38E PUSH2 0xBD7 JUMP JUMPDEST PUSH1 0x40 MLOAD PUSH2 0x39B SWAP2 SWAP1 PUSH2 0x3710 JUMP JUMPDEST PUSH1 0x40 MLOAD DUP1 SWAP2 SUB SWAP1 RETURN JUMPDEST PUSH2 0x3BE PUSH1 0x4 DUP1 CALLDATASIZE SUB DUP2 ADD SWAP1 PUSH2 0x3B9 SWAP2 SWAP1 PUSH2 0x3813 JUMP JUMPDEST PUSH2 0xBEE JUMP JUMPDEST PUSH1 0x40 MLOAD PUSH2 0x3CB SWAP2 SWAP1 PUSH2 0x3F95 JUMP JUMPDEST PUSH1 0x40 MLOAD DUP1 SWAP2 SUB SWAP1 RETURN JUMPDEST PUSH2 0x3EE PUSH1 0x4 DUP1 CALLDATASIZE SUB DUP2 ADD SWAP1 PUSH2 0x3E9 SWAP2 SWAP1 PUSH2 0x3813 JUMP JUMPDEST PUSH2 0xE77 JUMP JUMPDEST PUSH1 0x40 MLOAD PUSH2 0x3FB SWAP2 SWAP1 PUSH2 0x3881 JUMP JUMPDEST PUSH1 0x40 MLOAD DUP1 SWAP2 SUB SWAP1 RETURN JUMPDEST PUSH2 0x41E PUSH1 0x4 DUP1 CALLDATASIZE SUB DUP2 ADD SWAP1 PUSH2 0x419 SWAP2 SWAP1 PUSH2 0x3FB7 JUMP JUMPDEST PUSH2 0xE89 JUMP JUMPDEST PUSH1 0x40 MLOAD PUSH2 0x42B SWAP2 SWAP1 PUSH2 0x3B0D JUMP JUMPDEST PUSH1 0x40 MLOAD DUP1 SWAP2 SUB SWAP1 RETURN JUMPDEST PUSH2 0x43C PUSH2 0xF43 JUMP JUMPDEST STOP JUMPDEST PUSH2 0x446 PUSH2 0x10DA JUMP JUMPDEST PUSH1 0x40 MLOAD PUSH2 0x453 SWAP2 SWAP1 PUSH2 0x3881 JUMP JUMPDEST PUSH1 0x40 MLOAD DUP1 SWAP2 SUB SWAP1 RETURN JUMPDEST PUSH2 0x464 PUSH2 0x1104 JUMP JUMPDEST PUSH1 0x40 MLOAD PUSH2 0x471 SWAP2 SWAP1 PUSH2 0x37BB JUMP JUMPDEST PUSH1 0x40 MLOAD DUP1 SWAP2 SUB SWAP1 RETURN JUMPDEST PUSH2 0x494 PUSH1 0x4 DUP1 CALLDATASIZE SUB DUP2 ADD SWAP1 PUSH2 0x48F SWAP2 SWAP1 PUSH2 0x4010 JUMP JUMPDEST PUSH2 0x1196 JUMP JUMPDEST STOP JUMPDEST PUSH2 0x4B0 PUSH1 0x4 DUP1 CALLDATASIZE SUB DUP2 ADD SWAP1 PUSH2 0x4AB SWAP2 SWAP1 PUSH2 0x4050 JUMP JUMPDEST PUSH2 0x11AC JUMP JUMPDEST STOP JUMPDEST PUSH2 0x4BA PUSH2 0x123E JUMP JUMPDEST PUSH1 0x40 MLOAD PUSH2 0x4C7 SWAP2 SWAP1 PUSH2 0x3E83 JUMP JUMPDEST PUSH1 0x40 MLOAD DUP1 SWAP2 SUB SWAP1 RETURN JUMPDEST PUSH2 0x4EA PUSH1 0x4 DUP1 CALLDATASIZE SUB DUP2 ADD SWAP1 PUSH2 0x4E5 SWAP2 SWAP1 PUSH2 0x413B JUMP JUMPDEST PUSH2 0x1244 JUMP JUMPDEST STOP JUMPDEST PUSH2 0x506 PUSH1 0x4 DUP1 CALLDATASIZE SUB DUP2 ADD SWAP1 PUSH2 0x501 SWAP2 SWAP1 PUSH2 0x3813 JUMP JUMPDEST PUSH2 0x1261 JUMP JUMPDEST PUSH1 0x40 MLOAD PUSH2 0x513 SWAP2 SWAP1 PUSH2 0x37BB JUMP JUMPDEST PUSH1 0x40 MLOAD DUP1 SWAP2 SUB SWAP1 RETURN JUMPDEST PUSH2 0x536 PUSH1 0x4 DUP1 CALLDATASIZE SUB DUP2 ADD SWAP1 PUSH2 0x531 SWAP2 SWAP1 PUSH2 0x41BE JUMP JUMPDEST PUSH2 0x12CA JUMP JUMPDEST PUSH1 0x40 MLOAD PUSH2 0x543 SWAP2 SWAP1 PUSH2 0x3710 JUMP JUMPDEST PUSH1 0x40 MLOAD DUP1 SWAP2 SUB SWAP1 RETURN JUMPDEST PUSH2 0x566 PUSH1 0x4 DUP1 CALLDATASIZE SUB DUP2 ADD SWAP1 PUSH2 0x561 SWAP2 SWAP1 PUSH2 0x3FB7 JUMP JUMPDEST PUSH2 0x135E JUMP JUMPDEST STOP JUMPDEST PUSH1 0x0 PUSH32 0x780E9D6300000000000000000000000000000000000000000000000000000000 PUSH28 0xFFFFFFFFFFFFFFFFFFFFFFFFFFFFFFFFFFFFFFFFFFFFFFFFFFFFFFFF NOT AND DUP3 PUSH28 0xFFFFFFFFFFFFFFFFFFFFFFFFFFFFFFFFFFFFFFFFFFFFFFFFFFFFFFFF NOT AND EQ DUP1 PUSH2 0x5DB JUMPI POP PUSH2 0x5DA DUP3 PUSH2 0x1372 JUMP JUMPDEST JUMPDEST SWAP1 POP SWAP2 SWAP1 POP JUMP JUMPDEST PUSH1 0x60 PUSH1 0x0 DUP1 SLOAD PUSH2 0x5F1 SWAP1 PUSH2 0x422D JUMP JUMPDEST DUP1 PUSH1 0x1F ADD PUSH1 0x20 DUP1 SWAP2 DIV MUL PUSH1 0x20 ADD PUSH1 0x40 MLOAD SWAP1 DUP2 ADD PUSH1 0x40 MSTORE DUP1 SWAP3 SWAP2 SWAP1 DUP2 DUP2 MSTORE PUSH1 0x20 ADD DUP3 DUP1 SLOAD PUSH2 0x61D SWAP1 PUSH2 0x422D JUMP JUMPDEST DUP1 ISZERO PUSH2 0x66A JUMPI DUP1 PUSH1 0x1F LT PUSH2 0x63F JUMPI PUSH2 0x100 DUP1 DUP4 SLOAD DIV MUL DUP4 MSTORE SWAP2 PUSH1 0x20 ADD SWAP2 PUSH2 0x66A JUMP JUMPDEST DUP3 ADD SWAP2 SWAP1 PUSH1 0x0 MSTORE PUSH1 0x20 PUSH1 0x0 KECCAK256 SWAP1 JUMPDEST DUP2 SLOAD DUP2 MSTORE SWAP1 PUSH1 0x1 ADD SWAP1 PUSH1 0x20 ADD DUP1 DUP4 GT PUSH2 0x64D JUMPI DUP3 SWAP1 SUB PUSH1 0x1F AND DUP3 ADD SWAP2 JUMPDEST POP POP POP POP POP SWAP1 POP SWAP1 JUMP JUMPDEST PUSH1 0x0 PUSH2 0x67F DUP3 PUSH2 0x1454 JUMP JUMPDEST POP PUSH2 0x689 DUP3 PUSH2 0x14DC JUMP JUMPDEST SWAP1 POP SWAP2 SWAP1 POP JUMP JUMPDEST PUSH2 0x6A2 DUP3 DUP3 PUSH2 0x69D PUSH2 0x1519 JUMP JUMPDEST PUSH2 0x1521 JUMP JUMPDEST POP POP JUMP JUMPDEST PUSH32 0x0 PUSH20 0xFFFFFFFFFFFFFFFFFFFFFFFFFFFFFFFFFFFFFFFF AND CALLER PUSH20 0xFFFFFFFFFFFFFFFFFFFFFFFFFFFFFFFFFFFFFFFF AND EQ PUSH2 0x72B JUMPI PUSH1 0x40 MLOAD PUSH32 0xC6829F8300000000000000000000000000000000000000000000000000000000 DUP2 MSTORE PUSH1 0x4 ADD PUSH1 0x40 MLOAD DUP1 SWAP2 SUB SWAP1 REVERT JUMPDEST PUSH2 0x736 DUP4 DUP4 DUP4 PUSH2 0x1533 JUMP JUMPDEST DUP3 PUSH32 0x85E1543BF2F84FE80C6BADBCE3648C8539AD1DF4D2B3D822938CA0538BE727E6 PUSH1 0x40 MLOAD PUSH1 0x40 MLOAD DUP1 SWAP2 SUB SWAP1 LOG2 POP POP POP JUMP JUMPDEST PUSH1 0x0 PUSH1 0x8 DUP1 SLOAD SWAP1 POP SWAP1 POP SWAP1 JUMP JUMPDEST PUSH1 0x0 PUSH20 0xFFFFFFFFFFFFFFFFFFFFFFFFFFFFFFFFFFFFFFFF AND DUP3 PUSH20 0xFFFFFFFFFFFFFFFFFFFFFFFFFFFFFFFFFFFFFFFF AND SUB PUSH2 0x7E7 JUMPI PUSH1 0x0 PUSH1 0x40 MLOAD PUSH32 0x64A0AE9200000000000000000000000000000000000000000000000000000000 DUP2 MSTORE PUSH1 0x4 ADD PUSH2 0x7DE SWAP2 SWAP1 PUSH2 0x3881 JUMP JUMPDEST PUSH1 0x40 MLOAD DUP1 SWAP2 SUB SWAP1 REVERT JUMPDEST PUSH1 0x0 PUSH2 0x7FB DUP4 DUP4 PUSH2 0x7F6 PUSH2 0x1519 JUMP JUMPDEST PUSH2 0x1643 JUMP JUMPDEST SWAP1 POP DUP4 PUSH20 0xFFFFFFFFFFFFFFFFFFFFFFFFFFFFFFFFFFFFFFFF AND DUP2 PUSH20 0xFFFFFFFFFFFFFFFFFFFFFFFFFFFFFFFFFFFFFFFF AND EQ PUSH2 0x871 JUMPI DUP4 DUP3 DUP3 PUSH1 0x40 MLOAD PUSH32 0x64283D7B00000000000000000000000000000000000000000000000000000000 DUP2 MSTORE PUSH1 0x4 ADD PUSH2 0x868 SWAP4 SWAP3 SWAP2 SWAP1 PUSH2 0x425E JUMP JUMPDEST PUSH1 0x40 MLOAD DUP1 SWAP2 SUB SWAP1 REVERT JUMPDEST POP POP POP POP JUMP JUMPDEST PUSH1 0x0 PUSH2 0x882 DUP4 PUSH2 0xE89 JUMP JUMPDEST DUP3 LT PUSH2 0x8C7 JUMPI DUP3 DUP3 PUSH1 0x40 MLOAD PUSH32 0xA57D13DC00000000000000000000000000000000000000000000000000000000 DUP2 MSTORE PUSH1 0x4 ADD PUSH2 0x8BE SWAP3 SWAP2 SWAP1 PUSH2 0x4295 JUMP JUMPDEST PUSH1 0x40 MLOAD DUP1 SWAP2 SUB SWAP1 REVERT JUMPDEST PUSH1 0x6 PUSH1 0x0 DUP5 PUSH20 0xFFFFFFFFFFFFFFFFFFFFFFFFFFFFFFFFFFFFFFFF AND PUSH20 0xFFFFFFFFFFFFFFFFFFFFFFFFFFFFFFFFFFFFFFFF AND DUP2 MSTORE PUSH1 0x20 ADD SWAP1 DUP2 MSTORE PUSH1 0x20 ADD PUSH1 0x0 KECCAK256 PUSH1 0x0 DUP4 DUP2 MSTORE PUSH1 0x20 ADD SWAP1 DUP2 MSTORE PUSH1 0x20 ADD PUSH1 0x0 KECCAK256 SLOAD SWAP1 POP SWAP3 SWAP2 POP POP JUMP JUMPDEST PUSH1 0xF DUP1 SLOAD PUSH2 0x92D SWAP1 PUSH2 0x422D JUMP JUMPDEST DUP1 PUSH1 0x1F ADD PUSH1 0x20 DUP1 SWAP2 DIV MUL PUSH1 0x20 ADD PUSH1 0x40 MLOAD SWAP1 DUP2 ADD PUSH1 0x40 MSTORE DUP1 SWAP3 SWAP2 SWAP1 DUP2 DUP2 MSTORE PUSH1 0x20 ADD DUP3 DUP1 SLOAD PUSH2 0x959 SWAP1 PUSH2 0x422D JUMP JUMPDEST DUP1 ISZERO PUSH2 0x9A6 JUMPI DUP1 PUSH1 0x1F LT PUSH2 0x97B JUMPI PUSH2 0x100 DUP1 DUP4 SLOAD DIV MUL DUP4 MSTORE SWAP2 PUSH1 0x20 ADD SWAP2 PUSH2 0x9A6 JUMP JUMPDEST DUP3 ADD SWAP2 SWAP1 PUSH1 0x0 MSTORE PUSH1 0x20 PUSH1 0x0 KECCAK256 SWAP1 JUMPDEST DUP2 SLOAD DUP2 MSTORE SWAP1 PUSH1 0x1 ADD SWAP1 PUSH1 0x20 ADD DUP1 DUP4 GT PUSH2 0x989 JUMPI DUP3 SWAP1 SUB PUSH1 0x1F AND DUP3 ADD SWAP2 JUMPDEST POP POP POP POP POP DUP2 JUMP JUMPDEST PUSH2 0x9C9 DUP4 DUP4 DUP4 PUSH1 0x40 MLOAD DUP1 PUSH1 0x20 ADD PUSH1 0x40 MSTORE DUP1 PUSH1 0x0 DUP2 MSTORE POP PUSH2 0x1244 JUMP JUMPDEST POP POP POP JUMP JUMPDEST PUSH1 0x10 DUP1 SLOAD PUSH2 0x9DB SWAP1 PUSH2 0x422D JUMP JUMPDEST DUP1 PUSH1 0x1F ADD PUSH1 0x20 DUP1 SWAP2 DIV MUL PUSH1 0x20 ADD PUSH1 0x40 MLOAD SWAP1 DUP2 ADD PUSH1 0x40 MSTORE DUP1 SWAP3 SWAP2 SWAP1 DUP2 DUP2 MSTORE PUSH1 0x20 ADD DUP3 DUP1 SLOAD PUSH2 0xA07 SWAP1 PUSH2 0x422D JUMP JUMPDEST DUP1 ISZERO PUSH2 0xA54 JUMPI DUP1 PUSH1 0x1F LT PUSH2 0xA29 JUMPI PUSH2 0x100 DUP1 DUP4 SLOAD DIV MUL DUP4 MSTORE SWAP2 PUSH1 0x20 ADD SWAP2 PUSH2 0xA54 JUMP JUMPDEST DUP3 ADD SWAP2 SWAP1 PUSH1 0x0 MSTORE PUSH1 0x20 PUSH1 0x0 KECCAK256 SWAP1 JUMPDEST DUP2 SLOAD DUP2 MSTORE SWAP1 PUSH1 0x1 ADD SWAP1 PUSH1 0x20 ADD DUP1 DUP4 GT PUSH2 0xA37 JUMPI DUP3 SWAP1 SUB PUSH1 0x1F AND DUP3 ADD SWAP2 JUMPDEST POP POP POP POP POP DUP2 JUMP JUMPDEST PUSH1 0x0 DUP1 PUSH2 0xA68 CALLER PUSH2 0xE89 JUMP JUMPDEST EQ PUSH2 0xAA8 JUMPI PUSH1 0x40 MLOAD PUSH32 0x8C379A000000000000000000000000000000000000000000000000000000000 DUP2 MSTORE PUSH1 0x4 ADD PUSH2 0xA9F SWAP1 PUSH2 0x430A JUMP JUMPDEST PUSH1 0x40 MLOAD DUP1 SWAP2 SUB SWAP1 REVERT JUMPDEST PUSH1 0x0 PUSH1 0x1 PUSH1 0xC SLOAD PUSH2 0xAB9 SWAP2 SWAP1 PUSH2 0x4359 JUMP JUMPDEST SWAP1 POP PUSH2 0xAC4 DUP2 PUSH2 0x1760 JUMP JUMPDEST DUP5 PUSH1 0x1 DUP2 MLOAD DUP2 LT PUSH2 0xAD8 JUMPI PUSH2 0xAD7 PUSH2 0x438D JUMP JUMPDEST JUMPDEST PUSH1 0x20 MUL PUSH1 0x20 ADD ADD DUP2 SWAP1 MSTORE POP PUSH2 0xAEB PUSH2 0x357A JUMP JUMPDEST PUSH2 0xAFE DUP8 DUP3 PUSH2 0x182E SWAP1 SWAP2 SWAP1 PUSH4 0xFFFFFFFF AND JUMP JUMPDEST PUSH2 0xB11 DUP7 DUP3 PUSH2 0x183F SWAP1 SWAP2 SWAP1 PUSH4 0xFFFFFFFF AND JUMP JUMPDEST PUSH2 0xB24 DUP6 DUP3 PUSH2 0x18B8 SWAP1 SWAP2 SWAP1 PUSH4 0xFFFFFFFF AND JUMP JUMPDEST PUSH2 0xB4C PUSH2 0xB30 DUP3 PUSH2 0x1900 JUMP JUMPDEST DUP6 PUSH1 0x12 PUSH1 0x0 SWAP1 SLOAD SWAP1 PUSH2 0x100 EXP SWAP1 DIV PUSH4 0xFFFFFFFF AND PUSH1 0x11 SLOAD PUSH2 0x1D1C JUMP JUMPDEST PUSH1 0xE DUP2 SWAP1 SSTORE POP PUSH1 0xE SLOAD SWAP3 POP POP POP SWAP5 SWAP4 POP POP POP POP JUMP JUMPDEST PUSH1 0x0 PUSH2 0xB6B PUSH2 0x768 JUMP JUMPDEST DUP3 LT PUSH2 0xBB1 JUMPI PUSH1 0x0 DUP3 PUSH1 0x40 MLOAD PUSH32 0xA57D13DC00000000000000000000000000000000000000000000000000000000 DUP2 MSTORE PUSH1 0x4 ADD PUSH2 0xBA8 SWAP3 SWAP2 SWAP1 PUSH2 0x4295 JUMP JUMPDEST PUSH1 0x40 MLOAD DUP1 SWAP2 SUB SWAP1 REVERT JUMPDEST PUSH1 0x8 DUP3 DUP2 SLOAD DUP2 LT PUSH2 0xBC5 JUMPI PUSH2 0xBC4 PUSH2 0x438D JUMP JUMPDEST JUMPDEST SWAP1 PUSH1 0x0 MSTORE PUSH1 0x20 PUSH1 0x0 KECCAK256 ADD SLOAD SWAP1 POP SWAP2 SWAP1 POP JUMP JUMPDEST PUSH1 0x0 PUSH1 0xA PUSH1 0x0 SWAP1 SLOAD SWAP1 PUSH2 0x100 EXP SWAP1 DIV PUSH1 0xFF AND SWAP1 POP SWAP1 JUMP JUMPDEST PUSH2 0xBF6 PUSH2 0x35EC JUMP JUMPDEST PUSH1 0xD PUSH1 0x0 DUP4 DUP2 MSTORE PUSH1 0x20 ADD SWAP1 DUP2 MSTORE PUSH1 0x20 ADD PUSH1 0x0 KECCAK256 PUSH1 0x40 MLOAD DUP1 PUSH1 0xC0 ADD PUSH1 0x40 MSTORE SWAP1 DUP2 PUSH1 0x0 DUP3 ADD DUP1 SLOAD PUSH2 0xC24 SWAP1 PUSH2 0x422D JUMP JUMPDEST DUP1 PUSH1 0x1F ADD PUSH1 0x20 DUP1 SWAP2 DIV MUL PUSH1 0x20 ADD PUSH1 0x40 MLOAD SWAP1 DUP2 ADD PUSH1 0x40 MSTORE DUP1 SWAP3 SWAP2 SWAP1 DUP2 DUP2 MSTORE PUSH1 0x20 ADD DUP3 DUP1 SLOAD PUSH2 0xC50 SWAP1 PUSH2 0x422D JUMP JUMPDEST DUP1 ISZERO PUSH2 0xC9D JUMPI DUP1 PUSH1 0x1F LT PUSH2 0xC72 JUMPI PUSH2 0x100 DUP1 DUP4 SLOAD DIV MUL DUP4 MSTORE SWAP2 PUSH1 0x20 ADD SWAP2 PUSH2 0xC9D JUMP JUMPDEST DUP3 ADD SWAP2 SWAP1 PUSH1 0x0 MSTORE PUSH1 0x20 PUSH1 0x0 KECCAK256 SWAP1 JUMPDEST DUP2 SLOAD DUP2 MSTORE SWAP1 PUSH1 0x1 ADD SWAP1 PUSH1 0x20 ADD DUP1 DUP4 GT PUSH2 0xC80 JUMPI DUP3 SWAP1 SUB PUSH1 0x1F AND DUP3 ADD SWAP2 JUMPDEST POP POP POP POP POP DUP2 MSTORE PUSH1 0x20 ADD PUSH1 0x1 DUP3 ADD DUP1 SLOAD PUSH2 0xCB6 SWAP1 PUSH2 0x422D JUMP JUMPDEST DUP1 PUSH1 0x1F ADD PUSH1 0x20 DUP1 SWAP2 DIV MUL PUSH1 0x20 ADD PUSH1 0x40 MLOAD SWAP1 DUP2 ADD PUSH1 0x40 MSTORE DUP1 SWAP3 SWAP2 SWAP1 DUP2 DUP2 MSTORE PUSH1 0x20 ADD DUP3 DUP1 SLOAD PUSH2 0xCE2 SWAP1 PUSH2 0x422D JUMP JUMPDEST DUP1 ISZERO PUSH2 0xD2F JUMPI DUP1 PUSH1 0x1F LT PUSH2 0xD04 JUMPI PUSH2 0x100 DUP1 DUP4 SLOAD DIV MUL DUP4 MSTORE SWAP2 PUSH1 0x20 ADD SWAP2 PUSH2 0xD2F JUMP JUMPDEST DUP3 ADD SWAP2 SWAP1 PUSH1 0x0 MSTORE PUSH1 0x20 PUSH1 0x0 KECCAK256 SWAP1 JUMPDEST DUP2 SLOAD DUP2 MSTORE SWAP1 PUSH1 0x1 ADD SWAP1 PUSH1 0x20 ADD DUP1 DUP4 GT PUSH2 0xD12 JUMPI DUP3 SWAP1 SUB PUSH1 0x1F AND DUP3 ADD SWAP2 JUMPDEST POP POP POP POP POP DUP2 MSTORE PUSH1 0x20 ADD PUSH1 0x2 DUP3 ADD DUP1 SLOAD PUSH2 0xD48 SWAP1 PUSH2 0x422D JUMP JUMPDEST DUP1 PUSH1 0x1F ADD PUSH1 0x20 DUP1 SWAP2 DIV MUL PUSH1 0x20 ADD PUSH1 0x40 MLOAD SWAP1 DUP2 ADD PUSH1 0x40 MSTORE DUP1 SWAP3 SWAP2 SWAP1 DUP2 DUP2 MSTORE PUSH1 0x20 ADD DUP3 DUP1 SLOAD PUSH2 0xD74 SWAP1 PUSH2 0x422D JUMP JUMPDEST DUP1 ISZERO PUSH2 0xDC1 JUMPI DUP1 PUSH1 0x1F LT PUSH2 0xD96 JUMPI PUSH2 0x100 DUP1 DUP4 SLOAD DIV MUL DUP4 MSTORE SWAP2 PUSH1 0x20 ADD SWAP2 PUSH2 0xDC1 JUMP JUMPDEST DUP3 ADD SWAP2 SWAP1 PUSH1 0x0 MSTORE PUSH1 0x20 PUSH1 0x0 KECCAK256 SWAP1 JUMPDEST DUP2 SLOAD DUP2 MSTORE SWAP1 PUSH1 0x1 ADD SWAP1 PUSH1 0x20 ADD DUP1 DUP4 GT PUSH2 0xDA4 JUMPI DUP3 SWAP1 SUB PUSH1 0x1F AND DUP3 ADD SWAP2 JUMPDEST POP POP POP POP POP DUP2 MSTORE PUSH1 0x20 ADD PUSH1 0x3 DUP3 ADD DUP1 SLOAD PUSH2 0xDDA SWAP1 PUSH2 0x422D JUMP JUMPDEST DUP1 PUSH1 0x1F ADD PUSH1 0x20 DUP1 SWAP2 DIV MUL PUSH1 0x20 ADD PUSH1 0x40 MLOAD SWAP1 DUP2 ADD PUSH1 0x40 MSTORE DUP1 SWAP3 SWAP2 SWAP1 DUP2 DUP2 MSTORE PUSH1 0x20 ADD DUP3 DUP1 SLOAD PUSH2 0xE06 SWAP1 PUSH2 0x422D JUMP JUMPDEST DUP1 ISZERO PUSH2 0xE53 JUMPI DUP1 PUSH1 0x1F LT PUSH2 0xE28 JUMPI PUSH2 0x100 DUP1 DUP4 SLOAD DIV MUL DUP4 MSTORE SWAP2 PUSH1 0x20 ADD SWAP2 PUSH2 0xE53 JUMP JUMPDEST DUP3 ADD SWAP2 SWAP1 PUSH1 0x0 MSTORE PUSH1 0x20 PUSH1 0x0 KECCAK256 SWAP1 JUMPDEST DUP2 SLOAD DUP2 MSTORE SWAP1 PUSH1 0x1 ADD SWAP1 PUSH1 0x20 ADD DUP1 DUP4 GT PUSH2 0xE36 JUMPI DUP3 SWAP1 SUB PUSH1 0x1F AND DUP3 ADD SWAP2 JUMPDEST POP POP POP POP POP DUP2 MSTORE PUSH1 0x20 ADD PUSH1 0x4 DUP3 ADD SLOAD DUP2 MSTORE PUSH1 0x20 ADD PUSH1 0x5 DUP3 ADD SLOAD DUP2 MSTORE POP POP SWAP1 POP SWAP2 SWAP1 POP JUMP JUMPDEST PUSH1 0x0 PUSH2 0xE82 DUP3 PUSH2 0x1454 JUMP JUMPDEST SWAP1 POP SWAP2 SWAP1 POP JUMP JUMPDEST PUSH1 0x0 DUP1 PUSH20 0xFFFFFFFFFFFFFFFFFFFFFFFFFFFFFFFFFFFFFFFF AND DUP3 PUSH20 0xFFFFFFFFFFFFFFFFFFFFFFFFFFFFFFFFFFFFFFFF AND SUB PUSH2 0xEFC JUMPI PUSH1 0x0 PUSH1 0x40 MLOAD PUSH32 0x89C62B6400000000000000000000000000000000000000000000000000000000 DUP2 MSTORE PUSH1 0x4 ADD PUSH2 0xEF3 SWAP2 SWAP1 PUSH2 0x3881 JUMP JUMPDEST PUSH1 0x40 MLOAD DUP1 SWAP2 SUB SWAP1 REVERT JUMPDEST PUSH1 0x3 PUSH1 0x0 DUP4 PUSH20 0xFFFFFFFFFFFFFFFFFFFFFFFFFFFFFFFFFFFFFFFF AND PUSH20 0xFFFFFFFFFFFFFFFFFFFFFFFFFFFFFFFFFFFFFFFF AND DUP2 MSTORE PUSH1 0x20 ADD SWAP1 DUP2 MSTORE PUSH1 0x20 ADD PUSH1 0x0 KECCAK256 SLOAD SWAP1 POP SWAP2 SWAP1 POP JUMP JUMPDEST PUSH1 0xB PUSH1 0x0 SWAP1 SLOAD SWAP1 PUSH2 0x100 EXP SWAP1 DIV PUSH20 0xFFFFFFFFFFFFFFFFFFFFFFFFFFFFFFFFFFFFFFFF AND PUSH20 0xFFFFFFFFFFFFFFFFFFFFFFFFFFFFFFFFFFFFFFFF AND CALLER PUSH20 0xFFFFFFFFFFFFFFFFFFFFFFFFFFFFFFFFFFFFFFFF AND EQ PUSH2 0xFD3 JUMPI PUSH1 0x40 MLOAD PUSH32 0x8C379A000000000000000000000000000000000000000000000000000000000 DUP2 MSTORE PUSH1 0x4 ADD PUSH2 0xFCA SWAP1 PUSH2 0x4408 JUMP JUMPDEST PUSH1 0x40 MLOAD DUP1 SWAP2 SUB SWAP1 REVERT JUMPDEST PUSH1 0x0 PUSH1 0xA PUSH1 0x1 SWAP1 SLOAD SWAP1 PUSH2 0x100 EXP SWAP1 DIV PUSH20 0xFFFFFFFFFFFFFFFFFFFFFFFFFFFFFFFFFFFFFFFF AND SWAP1 POP CALLER PUSH1 0xA PUSH1 0x1 PUSH2 0x100 EXP DUP2 SLOAD DUP2 PUSH20 0xFFFFFFFFFFFFFFFFFFFFFFFFFFFFFFFFFFFFFFFF MUL NOT AND SWAP1 DUP4 PUSH20 0xFFFFFFFFFFFFFFFFFFFFFFFFFFFFFFFFFFFFFFFF AND MUL OR SWAP1 SSTORE POP PUSH1 0x0 PUSH1 0xB PUSH1 0x0 PUSH2 0x100 EXP DUP2 SLOAD DUP2 PUSH20 0xFFFFFFFFFFFFFFFFFFFFFFFFFFFFFFFFFFFFFFFF MUL NOT AND SWAP1 DUP4 PUSH20 0xFFFFFFFFFFFFFFFFFFFFFFFFFFFFFFFFFFFFFFFF AND MUL OR SWAP1 SSTORE POP CALLER PUSH20 0xFFFFFFFFFFFFFFFFFFFFFFFFFFFFFFFFFFFFFFFF AND DUP2 PUSH20 0xFFFFFFFFFFFFFFFFFFFFFFFFFFFFFFFFFFFFFFFF AND PUSH32 0x8BE0079C531659141344CD1FD0A4F28419497F9722A3DAAFE3B4186F6B6457E0 PUSH1 0x40 MLOAD PUSH1 0x40 MLOAD DUP1 SWAP2 SUB SWAP1 LOG3 POP JUMP JUMPDEST PUSH1 0x0 PUSH1 0xA PUSH1 0x1 SWAP1 SLOAD SWAP1 PUSH2 0x100 EXP SWAP1 DIV PUSH20 0xFFFFFFFFFFFFFFFFFFFFFFFFFFFFFFFFFFFFFFFF AND SWAP1 POP SWAP1 JUMP JUMPDEST PUSH1 0x60 PUSH1 0x1 DUP1 SLOAD PUSH2 0x1113 SWAP1 PUSH2 0x422D JUMP JUMPDEST DUP1 PUSH1 0x1F ADD PUSH1 0x20 DUP1 SWAP2 DIV MUL PUSH1 0x20 ADD PUSH1 0x40 MLOAD SWAP1 DUP2 ADD PUSH1 0x40 MSTORE DUP1 SWAP3 SWAP2 SWAP1 DUP2 DUP2 MSTORE PUSH1 0x20 ADD DUP3 DUP1 SLOAD PUSH2 0x113F SWAP1 PUSH2 0x422D JUMP JUMPDEST DUP1 ISZERO PUSH2 0x118C JUMPI DUP1 PUSH1 0x1F LT PUSH2 0x1161 JUMPI PUSH2 0x100 DUP1 DUP4 SLOAD DIV MUL DUP4 MSTORE SWAP2 PUSH1 0x20 ADD SWAP2 PUSH2 0x118C JUMP JUMPDEST DUP3 ADD SWAP2 SWAP1 PUSH1 0x0 MSTORE PUSH1 0x20 PUSH1 0x0 KECCAK256 SWAP1 JUMPDEST DUP2 SLOAD DUP2 MSTORE SWAP1 PUSH1 0x1 ADD SWAP1 PUSH1 0x20 ADD DUP1 DUP4 GT PUSH2 0x116F JUMPI DUP3 SWAP1 SUB PUSH1 0x1F AND DUP3 ADD SWAP2 JUMPDEST POP POP POP POP POP SWAP1 POP SWAP1 JUMP JUMPDEST PUSH2 0x11A8 PUSH2 0x11A1 PUSH2 0x1519 JUMP JUMPDEST DUP4 DUP4 PUSH2 0x1DFF JUMP JUMPDEST POP POP JUMP JUMPDEST PUSH2 0x11B4 PUSH2 0x1F6E JUMP JUMPDEST CALLER PUSH20 0xFFFFFFFFFFFFFFFFFFFFFFFFFFFFFFFFFFFFFFFF AND PUSH2 0x11D4 DUP7 PUSH2 0xE77 JUMP JUMPDEST PUSH20 0xFFFFFFFFFFFFFFFFFFFFFFFFFFFFFFFFFFFFFFFF AND EQ PUSH2 0x122A JUMPI PUSH1 0x40 MLOAD PUSH32 0x8C379A000000000000000000000000000000000000000000000000000000000 DUP2 MSTORE PUSH1 0x4 ADD PUSH2 0x1221 SWAP1 PUSH2 0x449A JUMP JUMPDEST PUSH1 0x40 MLOAD DUP1 SWAP2 SUB SWAP1 REVERT JUMPDEST PUSH2 0x1237 DUP6 DUP6 DUP6 DUP6 DUP6 PUSH2 0x2000 JUMP JUMPDEST POP POP POP POP POP JUMP JUMPDEST PUSH1 0xE SLOAD DUP2 JUMP JUMPDEST PUSH2 0x124F DUP5 DUP5 DUP5 PUSH2 0x775 JUMP JUMPDEST PUSH2 0x125B DUP5 DUP5 DUP5 DUP5 PUSH2 0x20C2 JUMP JUMPDEST POP POP POP POP JUMP JUMPDEST PUSH1 0x60 PUSH2 0x126C DUP3 PUSH2 0x1454 JUMP JUMPDEST POP PUSH1 0x0 PUSH2 0x1277 PUSH2 0x2279 JUMP JUMPDEST SWAP1 POP PUSH1 0x0 DUP2 MLOAD GT PUSH2 0x1297 JUMPI PUSH1 0x40 MLOAD DUP1 PUSH1 0x20 ADD PUSH1 0x40 MSTORE DUP1 PUSH1 0x0 DUP2 MSTORE POP PUSH2 0x12C2 JUMP JUMPDEST DUP1 PUSH2 0x12A1 DUP5 PUSH2 0x1760 JUMP JUMPDEST PUSH1 0x40 MLOAD PUSH1 0x20 ADD PUSH2 0x12B2 SWAP3 SWAP2 SWAP1 PUSH2 0x44F6 JUMP JUMPDEST PUSH1 0x40 MLOAD PUSH1 0x20 DUP2 DUP4 SUB SUB DUP2 MSTORE SWAP1 PUSH1 0x40 MSTORE JUMPDEST SWAP2 POP POP SWAP2 SWAP1 POP JUMP JUMPDEST PUSH1 0x0 PUSH1 0x5 PUSH1 0x0 DUP5 PUSH20 0xFFFFFFFFFFFFFFFFFFFFFFFFFFFFFFFFFFFFFFFF AND PUSH20 0xFFFFFFFFFFFFFFFFFFFFFFFFFFFFFFFFFFFFFFFF AND DUP2 MSTORE PUSH1 0x20 ADD SWAP1 DUP2 MSTORE PUSH1 0x20 ADD PUSH1 0x0 KECCAK256 PUSH1 0x0 DUP4 PUSH20 0xFFFFFFFFFFFFFFFFFFFFFFFFFFFFFFFFFFFFFFFF AND PUSH20 0xFFFFFFFFFFFFFFFFFFFFFFFFFFFFFFFFFFFFFFFF AND DUP2 MSTORE PUSH1 0x20 ADD SWAP1 DUP2 MSTORE PUSH1 0x20 ADD PUSH1 0x0 KECCAK256 PUSH1 0x0 SWAP1 SLOAD SWAP1 PUSH2 0x100 EXP SWAP1 DIV PUSH1 0xFF AND SWAP1 POP SWAP3 SWAP2 POP POP JUMP JUMPDEST PUSH2 0x1366 PUSH2 0x1F6E JUMP JUMPDEST PUSH2 0x136F DUP2 PUSH2 0x2290 JUMP JUMPDEST POP JUMP JUMPDEST PUSH1 0x0 PUSH32 0x80AC58CD00000000000000000000000000000000000000000000000000000000 PUSH28 0xFFFFFFFFFFFFFFFFFFFFFFFFFFFFFFFFFFFFFFFFFFFFFFFFFFFFFFFF NOT AND DUP3 PUSH28 0xFFFFFFFFFFFFFFFFFFFFFFFFFFFFFFFFFFFFFFFFFFFFFFFFFFFFFFFF NOT AND EQ DUP1 PUSH2 0x143D JUMPI POP PUSH32 0x5B5E139F00000000000000000000000000000000000000000000000000000000 PUSH28 0xFFFFFFFFFFFFFFFFFFFFFFFFFFFFFFFFFFFFFFFFFFFFFFFFFFFFFFFF NOT AND DUP3 PUSH28 0xFFFFFFFFFFFFFFFFFFFFFFFFFFFFFFFFFFFFFFFFFFFFFFFFFFFFFFFF NOT AND EQ JUMPDEST DUP1 PUSH2 0x144D JUMPI POP PUSH2 0x144C DUP3 PUSH2 0x23BE JUMP JUMPDEST JUMPDEST SWAP1 POP SWAP2 SWAP1 POP JUMP JUMPDEST PUSH1 0x0 DUP1 PUSH2 0x1460 DUP4 PUSH2 0x2428 JUMP JUMPDEST SWAP1 POP PUSH1 0x0 PUSH20 0xFFFFFFFFFFFFFFFFFFFFFFFFFFFFFFFFFFFFFFFF AND DUP2 PUSH20 0xFFFFFFFFFFFFFFFFFFFFFFFFFFFFFFFFFFFFFFFF AND SUB PUSH2 0x14D3 JUMPI DUP3 PUSH1 0x40 MLOAD PUSH32 0x7E27328900000000000000000000000000000000000000000000000000000000 DUP2 MSTORE PUSH1 0x4 ADD PUSH2 0x14CA SWAP2 SWAP1 PUSH2 0x3B0D JUMP JUMPDEST PUSH1 0x40 MLOAD DUP1 SWAP2 SUB SWAP1 REVERT JUMPDEST DUP1 SWAP2 POP POP SWAP2 SWAP1 POP JUMP JUMPDEST PUSH1 0x0 PUSH1 0x4 PUSH1 0x0 DUP4 DUP2 MSTORE PUSH1 0x20 ADD SWAP1 DUP2 MSTORE PUSH1 0x20 ADD PUSH1 0x0 KECCAK256 PUSH1 0x0 SWAP1 SLOAD SWAP1 PUSH2 0x100 EXP SWAP1 DIV PUSH20 0xFFFFFFFFFFFFFFFFFFFFFFFFFFFFFFFFFFFFFFFF AND SWAP1 POP SWAP2 SWAP1 POP JUMP JUMPDEST PUSH1 0x0 CALLER SWAP1 POP SWAP1 JUMP JUMPDEST PUSH2 0x152E DUP4 DUP4 DUP4 PUSH1 0x1 PUSH2 0x2465 JUMP JUMPDEST POP POP POP JUMP JUMPDEST DUP3 PUSH1 0xE SLOAD EQ PUSH2 0x1579 JUMPI DUP3 PUSH1 0x40 MLOAD PUSH32 0xD068BF5B00000000000000000000000000000000000000000000000000000000 DUP2 MSTORE PUSH1 0x4 ADD PUSH2 0x1570 SWAP2 SWAP1 PUSH2 0x3E83 JUMP JUMPDEST PUSH1 0x40 MLOAD DUP1 SWAP2 SUB SWAP1 REVERT JUMPDEST DUP2 PUSH1 0xF SWAP1 DUP2 PUSH2 0x1588 SWAP2 SWAP1 PUSH2 0x46C6 JUMP JUMPDEST POP DUP1 PUSH1 0x10 SWAP1 DUP2 PUSH2 0x1598 SWAP2 SWAP1 PUSH2 0x46C6 JUMP JUMPDEST POP DUP3 PUSH32 0xF0F413C077269966D7E2DABC8EB21BA825FEF41A93078A6AE69923B9C718F444 PUSH1 0xF PUSH1 0x10 PUSH1 0x40 MLOAD PUSH2 0x15CD SWAP3 SWAP2 SWAP1 PUSH2 0x481C JUMP JUMPDEST PUSH1 0x40 MLOAD DUP1 SWAP2 SUB SWAP1 LOG2 PUSH1 0x0 DUP1 PUSH1 0x0 DUP1 DUP6 DUP1 PUSH1 0x20 ADD SWAP1 MLOAD DUP2 ADD SWAP1 PUSH2 0x15EF SWAP2 SWAP1 PUSH2 0x48C3 JUMP JUMPDEST SWAP4 POP SWAP4 POP SWAP4 POP SWAP4 POP PUSH1 0x0 PUSH1 0x1 PUSH1 0xC SLOAD PUSH2 0x1608 SWAP2 SWAP1 PUSH2 0x4359 JUMP JUMPDEST SWAP1 POP PUSH2 0x1614 CALLER DUP3 PUSH2 0x262A JUMP JUMPDEST PUSH1 0xC PUSH1 0x0 DUP2 SLOAD DUP1 SWAP3 SWAP2 SWAP1 PUSH2 0x1627 SWAP1 PUSH2 0x499A JUMP JUMPDEST SWAP2 SWAP1 POP SSTORE POP PUSH2 0x1639 DUP2 DUP7 DUP7 DUP7 DUP7 PUSH2 0x2000 JUMP JUMPDEST POP POP POP POP POP POP POP POP JUMP JUMPDEST PUSH1 0x0 DUP1 PUSH2 0x1651 DUP6 DUP6 DUP6 PUSH2 0x2648 JUMP JUMPDEST SWAP1 POP PUSH1 0x0 PUSH20 0xFFFFFFFFFFFFFFFFFFFFFFFFFFFFFFFFFFFFFFFF AND DUP2 PUSH20 0xFFFFFFFFFFFFFFFFFFFFFFFFFFFFFFFFFFFFFFFF AND SUB PUSH2 0x1695 JUMPI PUSH2 0x1690 DUP5 PUSH2 0x2862 JUMP JUMPDEST PUSH2 0x16D4 JUMP JUMPDEST DUP5 PUSH20 0xFFFFFFFFFFFFFFFFFFFFFFFFFFFFFFFFFFFFFFFF AND DUP2 PUSH20 0xFFFFFFFFFFFFFFFFFFFFFFFFFFFFFFFFFFFFFFFF AND EQ PUSH2 0x16D3 JUMPI PUSH2 0x16D2 DUP2 DUP6 PUSH2 0x28AB JUMP JUMPDEST JUMPDEST JUMPDEST PUSH1 0x0 PUSH20 0xFFFFFFFFFFFFFFFFFFFFFFFFFFFFFFFFFFFFFFFF AND DUP6 PUSH20 0xFFFFFFFFFFFFFFFFFFFFFFFFFFFFFFFFFFFFFFFF AND SUB PUSH2 0x1716 JUMPI PUSH2 0x1711 DUP5 PUSH2 0x2A0C JUMP JUMPDEST PUSH2 0x1755 JUMP JUMPDEST DUP5 PUSH20 0xFFFFFFFFFFFFFFFFFFFFFFFFFFFFFFFFFFFFFFFF AND DUP2 PUSH20 0xFFFFFFFFFFFFFFFFFFFFFFFFFFFFFFFFFFFFFFFF AND EQ PUSH2 0x1754 JUMPI PUSH2 0x1753 DUP6 DUP6 PUSH2 0x2ADD JUMP JUMPDEST JUMPDEST JUMPDEST DUP1 SWAP2 POP POP SWAP4 SWAP3 POP POP POP JUMP JUMPDEST PUSH1 0x60 PUSH1 0x0 PUSH1 0x1 PUSH2 0x176F DUP5 PUSH2 0x2B68 JUMP JUMPDEST ADD SWAP1 POP PUSH1 0x0 DUP2 PUSH8 0xFFFFFFFFFFFFFFFF DUP2 GT ISZERO PUSH2 0x178E JUMPI PUSH2 0x178D PUSH2 0x3948 JUMP JUMPDEST JUMPDEST PUSH1 0x40 MLOAD SWAP1 DUP1 DUP3 MSTORE DUP1 PUSH1 0x1F ADD PUSH1 0x1F NOT AND PUSH1 0x20 ADD DUP3 ADD PUSH1 0x40 MSTORE DUP1 ISZERO PUSH2 0x17C0 JUMPI DUP2 PUSH1 0x20 ADD PUSH1 0x1 DUP3 MUL DUP1 CALLDATASIZE DUP4 CALLDATACOPY DUP1 DUP3 ADD SWAP2 POP POP SWAP1 POP JUMPDEST POP SWAP1 POP PUSH1 0x0 DUP3 PUSH1 0x20 ADD DUP3 ADD SWAP1 POP JUMPDEST PUSH1 0x1 ISZERO PUSH2 0x1823 JUMPI DUP1 DUP1 PUSH1 0x1 SWAP1 SUB SWAP2 POP POP PUSH32 0x3031323334353637383961626364656600000000000000000000000000000000 PUSH1 0xA DUP7 MOD BYTE DUP2 MSTORE8 PUSH1 0xA DUP6 DUP2 PUSH2 0x1817 JUMPI PUSH2 0x1816 PUSH2 0x49E2 JUMP JUMPDEST JUMPDEST DIV SWAP5 POP PUSH1 0x0 DUP6 SUB PUSH2 0x17CE JUMPI JUMPDEST DUP2 SWAP4 POP POP POP POP SWAP2 SWAP1 POP JUMP JUMPDEST PUSH2 0x183B DUP3 PUSH1 0x0 DUP1 DUP5 PUSH2 0x2CBB JUMP JUMPDEST POP POP JUMP JUMPDEST PUSH1 0x0 DUP2 MLOAD SUB PUSH2 0x187A JUMPI PUSH1 0x40 MLOAD PUSH32 0xE889636F00000000000000000000000000000000000000000000000000000000 DUP2 MSTORE PUSH1 0x4 ADD PUSH1 0x40 MLOAD DUP1 SWAP2 SUB SWAP1 REVERT JUMPDEST PUSH1 0x1 DUP3 PUSH1 0x20 ADD SWAP1 PUSH1 0x2 DUP2 GT ISZERO PUSH2 0x1893 JUMPI PUSH2 0x1892 PUSH2 0x4A11 JUMP JUMPDEST JUMPDEST SWAP1 DUP2 PUSH1 0x2 DUP2 GT ISZERO PUSH2 0x18A7 JUMPI PUSH2 0x18A6 PUSH2 0x4A11 JUMP JUMPDEST JUMPDEST DUP2 MSTORE POP POP DUP1 DUP3 PUSH1 0x80 ADD DUP2 SWAP1 MSTORE POP POP POP JUMP JUMPDEST PUSH1 0x0 DUP2 MLOAD SUB PUSH2 0x18F3 JUMPI PUSH1 0x40 MLOAD PUSH32 0xFE936CB700000000000000000000000000000000000000000000000000000000 DUP2 MSTORE PUSH1 0x4 ADD PUSH1 0x40 MLOAD DUP1 SWAP2 SUB SWAP1 REVERT JUMPDEST DUP1 DUP3 PUSH1 0xA0 ADD DUP2 SWAP1 MSTORE POP POP POP JUMP JUMPDEST PUSH1 0x60 PUSH1 0x0 PUSH2 0x190F PUSH2 0x100 PUSH2 0x2D65 JUMP JUMPDEST SWAP1 POP PUSH2 0x1959 PUSH1 0x40 MLOAD DUP1 PUSH1 0x40 ADD PUSH1 0x40 MSTORE DUP1 PUSH1 0xC DUP2 MSTORE PUSH1 0x20 ADD PUSH32 0x636F64654C6F636174696F6E0000000000000000000000000000000000000000 DUP2 MSTORE POP DUP3 PUSH2 0x2D8C SWAP1 SWAP2 SWAP1 PUSH4 0xFFFFFFFF AND JUMP JUMPDEST PUSH2 0x1982 DUP4 PUSH1 0x0 ADD MLOAD PUSH1 0x2 DUP2 GT ISZERO PUSH2 0x1973 JUMPI PUSH2 0x1972 PUSH2 0x4A11 JUMP JUMPDEST JUMPDEST DUP3 PUSH2 0x2DB5 SWAP1 SWAP2 SWAP1 PUSH4 0xFFFFFFFF AND JUMP JUMPDEST PUSH2 0x19CA PUSH1 0x40 MLOAD DUP1 PUSH1 0x40 ADD PUSH1 0x40 MSTORE DUP1 PUSH1 0x8 DUP2 MSTORE PUSH1 0x20 ADD PUSH32 0x6C616E6775616765000000000000000000000000000000000000000000000000 DUP2 MSTORE POP DUP3 PUSH2 0x2D8C SWAP1 SWAP2 SWAP1 PUSH4 0xFFFFFFFF AND JUMP JUMPDEST PUSH2 0x19F3 DUP4 PUSH1 0x40 ADD MLOAD PUSH1 0x0 DUP2 GT ISZERO PUSH2 0x19E4 JUMPI PUSH2 0x19E3 PUSH2 0x4A11 JUMP JUMPDEST JUMPDEST DUP3 PUSH2 0x2DB5 SWAP1 SWAP2 SWAP1 PUSH4 0xFFFFFFFF AND JUMP JUMPDEST PUSH2 0x1A3B PUSH1 0x40 MLOAD DUP1 PUSH1 0x40 ADD PUSH1 0x40 MSTORE DUP1 PUSH1 0x6 DUP2 MSTORE PUSH1 0x20 ADD PUSH32 0x736F757263650000000000000000000000000000000000000000000000000000 DUP2 MSTORE POP DUP3 PUSH2 0x2D8C SWAP1 SWAP2 SWAP1 PUSH4 0xFFFFFFFF AND JUMP JUMPDEST PUSH2 0x1A52 DUP4 PUSH1 0x60 ADD MLOAD DUP3 PUSH2 0x2D8C SWAP1 SWAP2 SWAP1 PUSH4 0xFFFFFFFF AND JUMP JUMPDEST PUSH1 0x0 DUP4 PUSH1 0xA0 ADD MLOAD MLOAD GT ISZERO PUSH2 0x1B0E JUMPI PUSH2 0x1AA8 PUSH1 0x40 MLOAD DUP1 PUSH1 0x40 ADD PUSH1 0x40 MSTORE DUP1 PUSH1 0x4 DUP2 MSTORE PUSH1 0x20 ADD PUSH32 0x6172677300000000000000000000000000000000000000000000000000000000 DUP2 MSTORE POP DUP3 PUSH2 0x2D8C SWAP1 SWAP2 SWAP1 PUSH4 0xFFFFFFFF AND JUMP JUMPDEST PUSH2 0x1AB1 DUP2 PUSH2 0x2E05 JUMP JUMPDEST PUSH1 0x0 JUMPDEST DUP4 PUSH1 0xA0 ADD MLOAD MLOAD DUP2 LT ISZERO PUSH2 0x1B03 JUMPI PUSH2 0x1AF2 DUP5 PUSH1 0xA0 ADD MLOAD DUP3 DUP2 MLOAD DUP2 LT PUSH2 0x1ADB JUMPI PUSH2 0x1ADA PUSH2 0x438D JUMP JUMPDEST JUMPDEST PUSH1 0x20 MUL PUSH1 0x20 ADD ADD MLOAD DUP4 PUSH2 0x2D8C SWAP1 SWAP2 SWAP1 PUSH4 0xFFFFFFFF AND JUMP JUMPDEST DUP1 PUSH2 0x1AFC SWAP1 PUSH2 0x499A JUMP JUMPDEST SWAP1 POP PUSH2 0x1AB4 JUMP JUMPDEST POP PUSH2 0x1B0D DUP2 PUSH2 0x2E2D JUMP JUMPDEST JUMPDEST PUSH1 0x0 DUP4 PUSH1 0x80 ADD MLOAD MLOAD GT ISZERO PUSH2 0x1C4F JUMPI PUSH1 0x0 PUSH1 0x2 DUP2 GT ISZERO PUSH2 0x1B30 JUMPI PUSH2 0x1B2F PUSH2 0x4A11 JUMP JUMPDEST JUMPDEST DUP4 PUSH1 0x20 ADD MLOAD PUSH1 0x2 DUP2 GT ISZERO PUSH2 0x1B47 JUMPI PUSH2 0x1B46 PUSH2 0x4A11 JUMP JUMPDEST JUMPDEST SUB PUSH2 0x1B7E JUMPI PUSH1 0x40 MLOAD PUSH32 0xA80D31F700000000000000000000000000000000000000000000000000000000 DUP2 MSTORE PUSH1 0x4 ADD PUSH1 0x40 MLOAD DUP1 SWAP2 SUB SWAP1 REVERT JUMPDEST PUSH2 0x1BC6 PUSH1 0x40 MLOAD DUP1 PUSH1 0x40 ADD PUSH1 0x40 MSTORE DUP1 PUSH1 0xF DUP2 MSTORE PUSH1 0x20 ADD PUSH32 0x736563726574734C6F636174696F6E0000000000000000000000000000000000 DUP2 MSTORE POP DUP3 PUSH2 0x2D8C SWAP1 SWAP2 SWAP1 PUSH4 0xFFFFFFFF AND JUMP JUMPDEST PUSH2 0x1BEF DUP4 PUSH1 0x20 ADD MLOAD PUSH1 0x2 DUP2 GT ISZERO PUSH2 0x1BE0 JUMPI PUSH2 0x1BDF PUSH2 0x4A11 JUMP JUMPDEST JUMPDEST DUP3 PUSH2 0x2DB5 SWAP1 SWAP2 SWAP1 PUSH4 0xFFFFFFFF AND JUMP JUMPDEST PUSH2 0x1C37 PUSH1 0x40 MLOAD DUP1 PUSH1 0x40 ADD PUSH1 0x40 MSTORE DUP1 PUSH1 0x7 DUP2 MSTORE PUSH1 0x20 ADD PUSH32 0x7365637265747300000000000000000000000000000000000000000000000000 DUP2 MSTORE POP DUP3 PUSH2 0x2D8C SWAP1 SWAP2 SWAP1 PUSH4 0xFFFFFFFF AND JUMP JUMPDEST PUSH2 0x1C4E DUP4 PUSH1 0x80 ADD MLOAD DUP3 PUSH2 0x2E55 SWAP1 SWAP2 SWAP1 PUSH4 0xFFFFFFFF AND JUMP JUMPDEST JUMPDEST PUSH1 0x0 DUP4 PUSH1 0xC0 ADD MLOAD MLOAD GT ISZERO PUSH2 0x1D0B JUMPI PUSH2 0x1CA5 PUSH1 0x40 MLOAD DUP1 PUSH1 0x40 ADD PUSH1 0x40 MSTORE DUP1 PUSH1 0x9 DUP2 MSTORE PUSH1 0x20 ADD PUSH32 0x6279746573417267730000000000000000000000000000000000000000000000 DUP2 MSTORE POP DUP3 PUSH2 0x2D8C SWAP1 SWAP2 SWAP1 PUSH4 0xFFFFFFFF AND JUMP JUMPDEST PUSH2 0x1CAE DUP2 PUSH2 0x2E05 JUMP JUMPDEST PUSH1 0x0 JUMPDEST DUP4 PUSH1 0xC0 ADD MLOAD MLOAD DUP2 LT ISZERO PUSH2 0x1D00 JUMPI PUSH2 0x1CEF DUP5 PUSH1 0xC0 ADD MLOAD DUP3 DUP2 MLOAD DUP2 LT PUSH2 0x1CD8 JUMPI PUSH2 0x1CD7 PUSH2 0x438D JUMP JUMPDEST JUMPDEST PUSH1 0x20 MUL PUSH1 0x20 ADD ADD MLOAD DUP4 PUSH2 0x2E55 SWAP1 SWAP2 SWAP1 PUSH4 0xFFFFFFFF AND JUMP JUMPDEST DUP1 PUSH2 0x1CF9 SWAP1 PUSH2 0x499A JUMP JUMPDEST SWAP1 POP PUSH2 0x1CB1 JUMP JUMPDEST POP PUSH2 0x1D0A DUP2 PUSH2 0x2E2D JUMP JUMPDEST JUMPDEST DUP1 PUSH1 0x0 ADD MLOAD PUSH1 0x0 ADD MLOAD SWAP2 POP POP SWAP2 SWAP1 POP JUMP JUMPDEST PUSH1 0x0 DUP1 PUSH32 0x0 PUSH20 0xFFFFFFFFFFFFFFFFFFFFFFFFFFFFFFFFFFFFFFFF AND PUSH4 0x461D2762 DUP7 DUP9 PUSH1 0x1 DUP9 DUP9 PUSH1 0x40 MLOAD DUP7 PUSH4 0xFFFFFFFF AND PUSH1 0xE0 SHL DUP2 MSTORE PUSH1 0x4 ADD PUSH2 0x1D81 SWAP6 SWAP5 SWAP4 SWAP3 SWAP2 SWAP1 PUSH2 0x4A8B JUMP JUMPDEST PUSH1 0x20 PUSH1 0x40 MLOAD DUP1 DUP4 SUB DUP2 PUSH1 0x0 DUP8 GAS CALL ISZERO DUP1 ISZERO PUSH2 0x1DA0 JUMPI RETURNDATASIZE PUSH1 0x0 DUP1 RETURNDATACOPY RETURNDATASIZE PUSH1 0x0 REVERT JUMPDEST POP POP POP POP PUSH1 0x40 MLOAD RETURNDATASIZE PUSH1 0x1F NOT PUSH1 0x1F DUP3 ADD AND DUP3 ADD DUP1 PUSH1 0x40 MSTORE POP DUP2 ADD SWAP1 PUSH2 0x1DC4 SWAP2 SWAP1 PUSH2 0x4AFA JUMP JUMPDEST SWAP1 POP DUP1 PUSH32 0x1131472297A800FEE664D1D89CFA8F7676FF07189ECC53F80BBB5F4969099DB8 PUSH1 0x40 MLOAD PUSH1 0x40 MLOAD DUP1 SWAP2 SUB SWAP1 LOG2 DUP1 SWAP2 POP POP SWAP5 SWAP4 POP POP POP POP JUMP JUMPDEST PUSH1 0x0 PUSH20 0xFFFFFFFFFFFFFFFFFFFFFFFFFFFFFFFFFFFFFFFF AND DUP3 PUSH20 0xFFFFFFFFFFFFFFFFFFFFFFFFFFFFFFFFFFFFFFFF AND SUB PUSH2 0x1E70 JUMPI DUP2 PUSH1 0x40 MLOAD PUSH32 0x5B08BA1800000000000000000000000000000000000000000000000000000000 DUP2 MSTORE PUSH1 0x4 ADD PUSH2 0x1E67 SWAP2 SWAP1 PUSH2 0x3881 JUMP JUMPDEST PUSH1 0x40 MLOAD DUP1 SWAP2 SUB SWAP1 REVERT JUMPDEST DUP1 PUSH1 0x5 PUSH1 0x0 DUP6 PUSH20 0xFFFFFFFFFFFFFFFFFFFFFFFFFFFFFFFFFFFFFFFF AND PUSH20 0xFFFFFFFFFFFFFFFFFFFFFFFFFFFFFFFFFFFFFFFF AND DUP2 MSTORE PUSH1 0x20 ADD SWAP1 DUP2 MSTORE PUSH1 0x20 ADD PUSH1 0x0 KECCAK256 PUSH1 0x0 DUP5 PUSH20 0xFFFFFFFFFFFFFFFFFFFFFFFFFFFFFFFFFFFFFFFF AND PUSH20 0xFFFFFFFFFFFFFFFFFFFFFFFFFFFFFFFFFFFFFFFF AND DUP2 MSTORE PUSH1 0x20 ADD SWAP1 DUP2 MSTORE PUSH1 0x20 ADD PUSH1 0x0 KECCAK256 PUSH1 0x0 PUSH2 0x100 EXP DUP2 SLOAD DUP2 PUSH1 0xFF MUL NOT AND SWAP1 DUP4 ISZERO ISZERO MUL OR SWAP1 SSTORE POP DUP2 PUSH20 0xFFFFFFFFFFFFFFFFFFFFFFFFFFFFFFFFFFFFFFFF AND DUP4 PUSH20 0xFFFFFFFFFFFFFFFFFFFFFFFFFFFFFFFFFFFFFFFF AND PUSH32 0x17307EAB39AB6107E8899845AD3D59BD9653F200F220920489CA2B5937696C31 DUP4 PUSH1 0x40 MLOAD PUSH2 0x1F61 SWAP2 SWAP1 PUSH2 0x3710 JUMP JUMPDEST PUSH1 0x40 MLOAD DUP1 SWAP2 SUB SWAP1 LOG3 POP POP POP JUMP JUMPDEST PUSH1 0xA PUSH1 0x1 SWAP1 SLOAD SWAP1 PUSH2 0x100 EXP SWAP1 DIV PUSH20 0xFFFFFFFFFFFFFFFFFFFFFFFFFFFFFFFFFFFFFFFF AND PUSH20 0xFFFFFFFFFFFFFFFFFFFFFFFFFFFFFFFFFFFFFFFF AND CALLER PUSH20 0xFFFFFFFFFFFFFFFFFFFFFFFFFFFFFFFFFFFFFFFF AND EQ PUSH2 0x1FFE JUMPI PUSH1 0x40 MLOAD PUSH32 0x8C379A000000000000000000000000000000000000000000000000000000000 DUP2 MSTORE PUSH1 0x4 ADD PUSH2 0x1FF5 SWAP1 PUSH2 0x4B73 JUMP JUMPDEST PUSH1 0x40 MLOAD DUP1 SWAP2 SUB SWAP1 REVERT JUMPDEST JUMP JUMPDEST PUSH1 0x0 PUSH1 0xD PUSH1 0x0 DUP8 DUP2 MSTORE PUSH1 0x20 ADD SWAP1 DUP2 MSTORE PUSH1 0x20 ADD PUSH1 0x0 KECCAK256 SWAP1 POP DUP4 DUP2 PUSH1 0x0 ADD SWAP1 DUP2 PUSH2 0x2028 SWAP2 SWAP1 PUSH2 0x4BEE JUMP JUMPDEST POP DUP5 DUP2 PUSH1 0x2 ADD SWAP1 DUP2 PUSH2 0x203A SWAP2 SWAP1 PUSH2 0x4BEE JUMP JUMPDEST POP DUP3 DUP2 PUSH1 0x1 ADD SWAP1 DUP2 PUSH2 0x204C SWAP2 SWAP1 PUSH2 0x4BEE JUMP JUMPDEST POP DUP2 DUP2 PUSH1 0x3 ADD SWAP1 DUP2 PUSH2 0x205E SWAP2 SWAP1 PUSH2 0x4BEE JUMP JUMPDEST POP TIMESTAMP DUP2 PUSH1 0x5 ADD DUP2 SWAP1 SSTORE POP PUSH1 0x0 DUP2 PUSH1 0x4 ADD SLOAD SUB PUSH2 0x207E JUMPI TIMESTAMP DUP2 PUSH1 0x4 ADD DUP2 SWAP1 SSTORE POP JUMPDEST DUP6 PUSH32 0x2F3899D70B9A27DD00CD1D0B1CFCB427258A4AA0F1BA5873847546F4327D26A1 DUP6 DUP6 DUP6 PUSH1 0x40 MLOAD PUSH2 0x20B2 SWAP4 SWAP3 SWAP2 SWAP1 PUSH2 0x4CC0 JUMP JUMPDEST PUSH1 0x40 MLOAD DUP1 SWAP2 SUB SWAP1 LOG2 POP POP POP POP POP POP JUMP JUMPDEST PUSH1 0x0 DUP4 PUSH20 0xFFFFFFFFFFFFFFFFFFFFFFFFFFFFFFFFFFFFFFFF AND EXTCODESIZE GT ISZERO PUSH2 0x2273 JUMPI DUP3 PUSH20 0xFFFFFFFFFFFFFFFFFFFFFFFFFFFFFFFFFFFFFFFF AND PUSH4 0x150B7A02 PUSH2 0x2106 PUSH2 0x1519 JUMP JUMPDEST DUP7 DUP6 DUP6 PUSH1 0x40 MLOAD DUP6 PUSH4 0xFFFFFFFF AND PUSH1 0xE0 SHL DUP2 MSTORE PUSH1 0x4 ADD PUSH2 0x2128 SWAP5 SWAP4 SWAP3 SWAP2 SWAP1 PUSH2 0x4D0C JUMP JUMPDEST PUSH1 0x20 PUSH1 0x40 MLOAD DUP1 DUP4 SUB DUP2 PUSH1 0x0 DUP8 GAS CALL SWAP3 POP POP POP DUP1 ISZERO PUSH2 0x2164 JUMPI POP PUSH1 0x40 MLOAD RETURNDATASIZE PUSH1 0x1F NOT PUSH1 0x1F DUP3 ADD AND DUP3 ADD DUP1 PUSH1 0x40 MSTORE POP DUP2 ADD SWAP1 PUSH2 0x2161 SWAP2 SWAP1 PUSH2 0x4D6D JUMP JUMPDEST PUSH1 0x1 JUMPDEST PUSH2 0x21E8 JUMPI RETURNDATASIZE DUP1 PUSH1 0x0 DUP2 EQ PUSH2 0x2194 JUMPI PUSH1 0x40 MLOAD SWAP2 POP PUSH1 0x1F NOT PUSH1 0x3F RETURNDATASIZE ADD AND DUP3 ADD PUSH1 0x40 MSTORE RETURNDATASIZE DUP3 MSTORE RETURNDATASIZE PUSH1 0x0 PUSH1 0x20 DUP5 ADD RETURNDATACOPY PUSH2 0x2199 JUMP JUMPDEST PUSH1 0x60 SWAP2 POP JUMPDEST POP PUSH1 0x0 DUP2 MLOAD SUB PUSH2 0x21E0 JUMPI DUP4 PUSH1 0x40 MLOAD PUSH32 0x64A0AE9200000000000000000000000000000000000000000000000000000000 DUP2 MSTORE PUSH1 0x4 ADD PUSH2 0x21D7 SWAP2 SWAP1 PUSH2 0x3881 JUMP JUMPDEST PUSH1 0x40 MLOAD DUP1 SWAP2 SUB SWAP1 REVERT JUMPDEST DUP1 MLOAD DUP2 PUSH1 0x20 ADD REVERT JUMPDEST PUSH4 0x150B7A02 PUSH1 0xE0 SHL PUSH28 0xFFFFFFFFFFFFFFFFFFFFFFFFFFFFFFFFFFFFFFFFFFFFFFFFFFFFFFFF NOT AND DUP2 PUSH28 0xFFFFFFFFFFFFFFFFFFFFFFFFFFFFFFFFFFFFFFFFFFFFFFFFFFFFFFFF NOT AND EQ PUSH2 0x2271 JUMPI DUP4 PUSH1 0x40 MLOAD PUSH32 0x64A0AE9200000000000000000000000000000000000000000000000000000000 DUP2 MSTORE PUSH1 0x4 ADD PUSH2 0x2268 SWAP2 SWAP1 PUSH2 0x3881 JUMP JUMPDEST PUSH1 0x40 MLOAD DUP1 SWAP2 SUB SWAP1 REVERT JUMPDEST POP JUMPDEST POP POP POP POP JUMP JUMPDEST PUSH1 0x60 PUSH1 0x40 MLOAD DUP1 PUSH1 0x20 ADD PUSH1 0x40 MSTORE DUP1 PUSH1 0x0 DUP2 MSTORE POP SWAP1 POP SWAP1 JUMP JUMPDEST CALLER PUSH20 0xFFFFFFFFFFFFFFFFFFFFFFFFFFFFFFFFFFFFFFFF AND DUP2 PUSH20 0xFFFFFFFFFFFFFFFFFFFFFFFFFFFFFFFFFFFFFFFF AND SUB PUSH2 0x22FE JUMPI PUSH1 0x40 MLOAD PUSH32 0x8C379A000000000000000000000000000000000000000000000000000000000 DUP2 MSTORE PUSH1 0x4 ADD PUSH2 0x22F5 SWAP1 PUSH2 0x4DE6 JUMP JUMPDEST PUSH1 0x40 MLOAD DUP1 SWAP2 SUB SWAP1 REVERT JUMPDEST DUP1 PUSH1 0xB PUSH1 0x0 PUSH2 0x100 EXP DUP2 SLOAD DUP2 PUSH20 0xFFFFFFFFFFFFFFFFFFFFFFFFFFFFFFFFFFFFFFFF MUL NOT AND SWAP1 DUP4 PUSH20 0xFFFFFFFFFFFFFFFFFFFFFFFFFFFFFFFFFFFFFFFF AND MUL OR SWAP1 SSTORE POP DUP1 PUSH20 0xFFFFFFFFFFFFFFFFFFFFFFFFFFFFFFFFFFFFFFFF AND PUSH1 0xA PUSH1 0x1 SWAP1 SLOAD SWAP1 PUSH2 0x100 EXP SWAP1 DIV PUSH20 0xFFFFFFFFFFFFFFFFFFFFFFFFFFFFFFFFFFFFFFFF AND PUSH20 0xFFFFFFFFFFFFFFFFFFFFFFFFFFFFFFFFFFFFFFFF AND PUSH32 0xED8889F560326EB138920D842192F0EB3DD22B4F139C87A2C57538E05BAE1278 PUSH1 0x40 MLOAD PUSH1 0x40 MLOAD DUP1 SWAP2 SUB SWAP1 LOG3 POP JUMP JUMPDEST PUSH1 0x0 PUSH32 0x1FFC9A700000000000000000000000000000000000000000000000000000000 PUSH28 0xFFFFFFFFFFFFFFFFFFFFFFFFFFFFFFFFFFFFFFFFFFFFFFFFFFFFFFFF NOT AND DUP3 PUSH28 0xFFFFFFFFFFFFFFFFFFFFFFFFFFFFFFFFFFFFFFFFFFFFFFFFFFFFFFFF NOT AND EQ SWAP1 POP SWAP2 SWAP1 POP JUMP JUMPDEST PUSH1 0x0 PUSH1 0x2 PUSH1 0x0 DUP4 DUP2 MSTORE PUSH1 0x20 ADD SWAP1 DUP2 MSTORE PUSH1 0x20 ADD PUSH1 0x0 KECCAK256 PUSH1 0x0 SWAP1 SLOAD SWAP1 PUSH2 0x100 EXP SWAP1 DIV PUSH20 0xFFFFFFFFFFFFFFFFFFFFFFFFFFFFFFFFFFFFFFFF AND SWAP1 POP SWAP2 SWAP1 POP JUMP JUMPDEST DUP1 DUP1 PUSH2 0x249E JUMPI POP PUSH1 0x0 PUSH20 0xFFFFFFFFFFFFFFFFFFFFFFFFFFFFFFFFFFFFFFFF AND DUP3 PUSH20 0xFFFFFFFFFFFFFFFFFFFFFFFFFFFFFFFFFFFFFFFF AND EQ ISZERO JUMPDEST ISZERO PUSH2 0x25D2 JUMPI PUSH1 0x0 PUSH2 0x24AE DUP5 PUSH2 0x1454 JUMP JUMPDEST SWAP1 POP PUSH1 0x0 PUSH20 0xFFFFFFFFFFFFFFFFFFFFFFFFFFFFFFFFFFFFFFFF AND DUP4 PUSH20 0xFFFFFFFFFFFFFFFFFFFFFFFFFFFFFFFFFFFFFFFF AND EQ ISZERO DUP1 ISZERO PUSH2 0x2519 JUMPI POP DUP3 PUSH20 0xFFFFFFFFFFFFFFFFFFFFFFFFFFFFFFFFFFFFFFFF AND DUP2 PUSH20 0xFFFFFFFFFFFFFFFFFFFFFFFFFFFFFFFFFFFFFFFF AND EQ ISZERO JUMPDEST DUP1 ISZERO PUSH2 0x252C JUMPI POP PUSH2 0x252A DUP2 DUP5 PUSH2 0x12CA JUMP JUMPDEST ISZERO JUMPDEST ISZERO PUSH2 0x256E JUMPI DUP3 PUSH1 0x40 MLOAD PUSH32 0xA9FBF51F00000000000000000000000000000000000000000000000000000000 DUP2 MSTORE PUSH1 0x4 ADD PUSH2 0x2565 SWAP2 SWAP1 PUSH2 0x3881 JUMP JUMPDEST PUSH1 0x40 MLOAD DUP1 SWAP2 SUB SWAP1 REVERT JUMPDEST DUP2 ISZERO PUSH2 0x25D0 JUMPI DUP4 DUP6 PUSH20 0xFFFFFFFFFFFFFFFFFFFFFFFFFFFFFFFFFFFFFFFF AND DUP3 PUSH20 0xFFFFFFFFFFFFFFFFFFFFFFFFFFFFFFFFFFFFFFFF AND PUSH32 0x8C5BE1E5EBEC7D5BD14F71427D1E84F3DD0314C0F7B2291E5B200AC8C7C3B925 PUSH1 0x40 MLOAD PUSH1 0x40 MLOAD DUP1 SWAP2 SUB SWAP1 LOG4 JUMPDEST POP JUMPDEST DUP4 PUSH1 0x4 PUSH1 0x0 DUP6 DUP2 MSTORE PUSH1 0x20 ADD SWAP1 DUP2 MSTORE PUSH1 0x20 ADD PUSH1 0x0 KECCAK256 PUSH1 0x0 PUSH2 0x100 EXP DUP2 SLOAD DUP2 PUSH20 0xFFFFFFFFFFFFFFFFFFFFFFFFFFFFFFFFFFFFFFFF MUL NOT AND SWAP1 DUP4 PUSH20 0xFFFFFFFFFFFFFFFFFFFFFFFFFFFFFFFFFFFFFFFF AND MUL OR SWAP1 SSTORE POP POP POP POP POP JUMP JUMPDEST PUSH2 0x2644 DUP3 DUP3 PUSH1 0x40 MLOAD DUP1 PUSH1 0x20 ADD PUSH1 0x40 MSTORE DUP1 PUSH1 0x0 DUP2 MSTORE POP PUSH2 0x2E7E JUMP JUMPDEST POP POP JUMP JUMPDEST PUSH1 0x0 DUP1 PUSH2 0x2654 DUP5 PUSH2 0x2428 JUMP JUMPDEST SWAP1 POP PUSH1 0x0 PUSH20 0xFFFFFFFFFFFFFFFFFFFFFFFFFFFFFFFFFFFFFFFF AND DUP4 PUSH20 0xFFFFFFFFFFFFFFFFFFFFFFFFFFFFFFFFFFFFFFFF AND EQ PUSH2 0x2696 JUMPI PUSH2 0x2695 DUP2 DUP5 DUP7 PUSH2 0x2E9A JUMP JUMPDEST JUMPDEST PUSH1 0x0 PUSH20 0xFFFFFFFFFFFFFFFFFFFFFFFFFFFFFFFFFFFFFFFF AND DUP2 PUSH20 0xFFFFFFFFFFFFFFFFFFFFFFFFFFFFFFFFFFFFFFFF AND EQ PUSH2 0x2727 JUMPI PUSH2 0x26D8 PUSH1 0x0 DUP6 PUSH1 0x0 DUP1 PUSH2 0x2465 JUMP JUMPDEST PUSH1 0x1 PUSH1 0x3 PUSH1 0x0 DUP4 PUSH20 0xFFFFFFFFFFFFFFFFFFFFFFFFFFFFFFFFFFFFFFFF AND PUSH20 0xFFFFFFFFFFFFFFFFFFFFFFFFFFFFFFFFFFFFFFFF AND DUP2 MSTORE PUSH1 0x20 ADD SWAP1 DUP2 MSTORE PUSH1 0x20 ADD PUSH1 0x0 KECCAK256 PUSH1 0x0 DUP3 DUP3 SLOAD SUB SWAP3 POP POP DUP2 SWAP1 SSTORE POP JUMPDEST PUSH1 0x0 PUSH20 0xFFFFFFFFFFFFFFFFFFFFFFFFFFFFFFFFFFFFFFFF AND DUP6 PUSH20 0xFFFFFFFFFFFFFFFFFFFFFFFFFFFFFFFFFFFFFFFF AND EQ PUSH2 0x27AA JUMPI PUSH1 0x1 PUSH1 0x3 PUSH1 0x0 DUP8 PUSH20 0xFFFFFFFFFFFFFFFFFFFFFFFFFFFFFFFFFFFFFFFF AND PUSH20 0xFFFFFFFFFFFFFFFFFFFFFFFFFFFFFFFFFFFFFFFF AND DUP2 MSTORE PUSH1 0x20 ADD SWAP1 DUP2 MSTORE PUSH1 0x20 ADD PUSH1 0x0 KECCAK256 PUSH1 0x0 DUP3 DUP3 SLOAD ADD SWAP3 POP POP DUP2 SWAP1 SSTORE POP JUMPDEST DUP5 PUSH1 0x2 PUSH1 0x0 DUP7 DUP2 MSTORE PUSH1 0x20 ADD SWAP1 DUP2 MSTORE PUSH1 0x20 ADD PUSH1 0x0 KECCAK256 PUSH1 0x0 PUSH2 0x100 EXP DUP2 SLOAD DUP2 PUSH20 0xFFFFFFFFFFFFFFFFFFFFFFFFFFFFFFFFFFFFFFFF MUL NOT AND SWAP1 DUP4 PUSH20 0xFFFFFFFFFFFFFFFFFFFFFFFFFFFFFFFFFFFFFFFF AND MUL OR SWAP1 SSTORE POP DUP4 DUP6 PUSH20 0xFFFFFFFFFFFFFFFFFFFFFFFFFFFFFFFFFFFFFFFF AND DUP3 PUSH20 0xFFFFFFFFFFFFFFFFFFFFFFFFFFFFFFFFFFFFFFFF AND PUSH32 0xDDF252AD1BE2C89B69C2B068FC378DAA952BA7F163C4A11628F55A4DF523B3EF PUSH1 0x40 MLOAD PUSH1 0x40 MLOAD DUP1 SWAP2 SUB SWAP1 LOG4 DUP1 SWAP2 POP POP SWAP4 SWAP3 POP POP POP JUMP JUMPDEST PUSH1 0x8 DUP1 SLOAD SWAP1 POP PUSH1 0x9 PUSH1 0x0 DUP4 DUP2 MSTORE PUSH1 0x20 ADD SWAP1 DUP2 MSTORE PUSH1 0x20 ADD PUSH1 0x0 KECCAK256 DUP2 SWAP1 SSTORE POP PUSH1 0x8 DUP2 SWAP1 DUP1 PUSH1 0x1 DUP2 SLOAD ADD DUP1 DUP3 SSTORE DUP1 SWAP2 POP POP PUSH1 0x1 SWAP1 SUB SWAP1 PUSH1 0x0 MSTORE PUSH1 0x20 PUSH1 0x0 KECCAK256 ADD PUSH1 0x0 SWAP1 SWAP2 SWAP1 SWAP2 SWAP1 SWAP2 POP SSTORE POP JUMP JUMPDEST PUSH1 0x0 PUSH2 0x28B6 DUP4 PUSH2 0xE89 JUMP JUMPDEST SWAP1 POP PUSH1 0x0 PUSH1 0x7 PUSH1 0x0 DUP5 DUP2 MSTORE PUSH1 0x20 ADD SWAP1 DUP2 MSTORE PUSH1 0x20 ADD PUSH1 0x0 KECCAK256 SLOAD SWAP1 POP DUP2 DUP2 EQ PUSH2 0x299B JUMPI PUSH1 0x0 PUSH1 0x6 PUSH1 0x0 DUP7 PUSH20 0xFFFFFFFFFFFFFFFFFFFFFFFFFFFFFFFFFFFFFFFF AND PUSH20 0xFFFFFFFFFFFFFFFFFFFFFFFFFFFFFFFFFFFFFFFF AND DUP2 MSTORE PUSH1 0x20 ADD SWAP1 DUP2 MSTORE PUSH1 0x20 ADD PUSH1 0x0 KECCAK256 PUSH1 0x0 DUP5 DUP2 MSTORE PUSH1 0x20 ADD SWAP1 DUP2 MSTORE PUSH1 0x20 ADD PUSH1 0x0 KECCAK256 SLOAD SWAP1 POP DUP1 PUSH1 0x6 PUSH1 0x0 DUP8 PUSH20 0xFFFFFFFFFFFFFFFFFFFFFFFFFFFFFFFFFFFFFFFF AND PUSH20 0xFFFFFFFFFFFFFFFFFFFFFFFFFFFFFFFFFFFFFFFF AND DUP2 MSTORE PUSH1 0x20 ADD SWAP1 DUP2 MSTORE PUSH1 0x20 ADD PUSH1 0x0 KECCAK256 PUSH1 0x0 DUP5 DUP2 MSTORE PUSH1 0x20 ADD SWAP1 DUP2 MSTORE PUSH1 0x20 ADD PUSH1 0x0 KECCAK256 DUP2 SWAP1 SSTORE POP DUP2 PUSH1 0x7 PUSH1 0x0 DUP4 DUP2 MSTORE PUSH1 0x20 ADD SWAP1 DUP2 MSTORE PUSH1 0x20 ADD PUSH1 0x0 KECCAK256 DUP2 SWAP1 SSTORE POP POP JUMPDEST PUSH1 0x7 PUSH1 0x0 DUP5 DUP2 MSTORE PUSH1 0x20 ADD SWAP1 DUP2 MSTORE PUSH1 0x20 ADD PUSH1 0x0 KECCAK256 PUSH1 0x0 SWAP1 SSTORE PUSH1 0x6 PUSH1 0x0 DUP6 PUSH20 0xFFFFFFFFFFFFFFFFFFFFFFFFFFFFFFFFFFFFFFFF AND PUSH20 0xFFFFFFFFFFFFFFFFFFFFFFFFFFFFFFFFFFFFFFFF AND DUP2 MSTORE PUSH1 0x20 ADD SWAP1 DUP2 MSTORE PUSH1 0x20 ADD PUSH1 0x0 KECCAK256 PUSH1 0x0 DUP4 DUP2 MSTORE PUSH1 0x20 ADD SWAP1 DUP2 MSTORE PUSH1 0x20 ADD PUSH1 0x0 KECCAK256 PUSH1 0x0 SWAP1 SSTORE POP POP POP POP JUMP JUMPDEST PUSH1 0x0 PUSH1 0x1 PUSH1 0x8 DUP1 SLOAD SWAP1 POP PUSH2 0x2A20 SWAP2 SWAP1 PUSH2 0x4E06 JUMP JUMPDEST SWAP1 POP PUSH1 0x0 PUSH1 0x9 PUSH1 0x0 DUP5 DUP2 MSTORE PUSH1 0x20 ADD SWAP1 DUP2 MSTORE PUSH1 0x20 ADD PUSH1 0x0 KECCAK256 SLOAD SWAP1 POP PUSH1 0x0 PUSH1 0x8 DUP4 DUP2 SLOAD DUP2 LT PUSH2 0x2A50 JUMPI PUSH2 0x2A4F PUSH2 0x438D JUMP JUMPDEST JUMPDEST SWAP1 PUSH1 0x0 MSTORE PUSH1 0x20 PUSH1 0x0 KECCAK256 ADD SLOAD SWAP1 POP DUP1 PUSH1 0x8 DUP4 DUP2 SLOAD DUP2 LT PUSH2 0x2A72 JUMPI PUSH2 0x2A71 PUSH2 0x438D JUMP JUMPDEST JUMPDEST SWAP1 PUSH1 0x0 MSTORE PUSH1 0x20 PUSH1 0x0 KECCAK256 ADD DUP2 SWAP1 SSTORE POP DUP2 PUSH1 0x9 PUSH1 0x0 DUP4 DUP2 MSTORE PUSH1 0x20 ADD SWAP1 DUP2 MSTORE PUSH1 0x20 ADD PUSH1 0x0 KECCAK256 DUP2 SWAP1 SSTORE POP PUSH1 0x9 PUSH1 0x0 DUP6 DUP2 MSTORE PUSH1 0x20 ADD SWAP1 DUP2 MSTORE PUSH1 0x20 ADD PUSH1 0x0 KECCAK256 PUSH1 0x0 SWAP1 SSTORE PUSH1 0x8 DUP1 SLOAD DUP1 PUSH2 0x2AC1 JUMPI PUSH2 0x2AC0 PUSH2 0x4E3A JUMP JUMPDEST JUMPDEST PUSH1 0x1 SWAP1 SUB DUP2 DUP2 SWAP1 PUSH1 0x0 MSTORE PUSH1 0x20 PUSH1 0x0 KECCAK256 ADD PUSH1 0x0 SWAP1 SSTORE SWAP1 SSTORE POP POP POP POP JUMP JUMPDEST PUSH1 0x0 PUSH1 0x1 PUSH2 0x2AEA DUP5 PUSH2 0xE89 JUMP JUMPDEST PUSH2 0x2AF4 SWAP2 SWAP1 PUSH2 0x4E06 JUMP JUMPDEST SWAP1 POP DUP2 PUSH1 0x6 PUSH1 0x0 DUP6 PUSH20 0xFFFFFFFFFFFFFFFFFFFFFFFFFFFFFFFFFFFFFFFF AND PUSH20 0xFFFFFFFFFFFFFFFFFFFFFFFFFFFFFFFFFFFFFFFF AND DUP2 MSTORE PUSH1 0x20 ADD SWAP1 DUP2 MSTORE PUSH1 0x20 ADD PUSH1 0x0 KECCAK256 PUSH1 0x0 DUP4 DUP2 MSTORE PUSH1 0x20 ADD SWAP1 DUP2 MSTORE PUSH1 0x20 ADD PUSH1 0x0 KECCAK256 DUP2 SWAP1 SSTORE POP DUP1 PUSH1 0x7 PUSH1 0x0 DUP5 DUP2 MSTORE PUSH1 0x20 ADD SWAP1 DUP2 MSTORE PUSH1 0x20 ADD PUSH1 0x0 KECCAK256 DUP2 SWAP1 SSTORE POP POP POP POP JUMP JUMPDEST PUSH1 0x0 DUP1 PUSH1 0x0 SWAP1 POP PUSH27 0x184F03E93FF9F4DAA797ED6E38ED64BF6A1F010000000000000000 DUP4 LT PUSH2 0x2BC6 JUMPI PUSH27 0x184F03E93FF9F4DAA797ED6E38ED64BF6A1F010000000000000000 DUP4 DUP2 PUSH2 0x2BBC JUMPI PUSH2 0x2BBB PUSH2 0x49E2 JUMP JUMPDEST JUMPDEST DIV SWAP3 POP PUSH1 0x40 DUP2 ADD SWAP1 POP JUMPDEST PUSH14 0x4EE2D6D415B85ACEF8100000000 DUP4 LT PUSH2 0x2C03 JUMPI PUSH14 0x4EE2D6D415B85ACEF8100000000 DUP4 DUP2 PUSH2 0x2BF9 JUMPI PUSH2 0x2BF8 PUSH2 0x49E2 JUMP JUMPDEST JUMPDEST DIV SWAP3 POP PUSH1 0x20 DUP2 ADD SWAP1 POP JUMPDEST PUSH7 0x2386F26FC10000 DUP4 LT PUSH2 0x2C32 JUMPI PUSH7 0x2386F26FC10000 DUP4 DUP2 PUSH2 0x2C28 JUMPI PUSH2 0x2C27 PUSH2 0x49E2 JUMP JUMPDEST JUMPDEST DIV SWAP3 POP PUSH1 0x10 DUP2 ADD SWAP1 POP JUMPDEST PUSH4 0x5F5E100 DUP4 LT PUSH2 0x2C5B JUMPI PUSH4 0x5F5E100 DUP4 DUP2 PUSH2 0x2C51 JUMPI PUSH2 0x2C50 PUSH2 0x49E2 JUMP JUMPDEST JUMPDEST DIV SWAP3 POP PUSH1 0x8 DUP2 ADD SWAP1 POP JUMPDEST PUSH2 0x2710 DUP4 LT PUSH2 0x2C80 JUMPI PUSH2 0x2710 DUP4 DUP2 PUSH2 0x2C76 JUMPI PUSH2 0x2C75 PUSH2 0x49E2 JUMP JUMPDEST JUMPDEST DIV SWAP3 POP PUSH1 0x4 DUP2 ADD SWAP1 POP JUMPDEST PUSH1 0x64 DUP4 LT PUSH2 0x2CA3 JUMPI PUSH1 0x64 DUP4 DUP2 PUSH2 0x2C99 JUMPI PUSH2 0x2C98 PUSH2 0x49E2 JUMP JUMPDEST JUMPDEST DIV SWAP3 POP PUSH1 0x2 DUP2 ADD SWAP1 POP JUMPDEST PUSH1 0xA DUP4 LT PUSH2 0x2CB2 JUMPI PUSH1 0x1 DUP2 ADD SWAP1 POP JUMPDEST DUP1 SWAP2 POP POP SWAP2 SWAP1 POP JUMP JUMPDEST PUSH1 0x0 DUP2 MLOAD SUB PUSH2 0x2CF6 JUMPI PUSH1 0x40 MLOAD PUSH32 0x22CE3EDD00000000000000000000000000000000000000000000000000000000 DUP2 MSTORE PUSH1 0x4 ADD PUSH1 0x40 MLOAD DUP1 SWAP2 SUB SWAP1 REVERT JUMPDEST DUP3 DUP5 PUSH1 0x0 ADD SWAP1 PUSH1 0x2 DUP2 GT ISZERO PUSH2 0x2D0E JUMPI PUSH2 0x2D0D PUSH2 0x4A11 JUMP JUMPDEST JUMPDEST SWAP1 DUP2 PUSH1 0x2 DUP2 GT ISZERO PUSH2 0x2D22 JUMPI PUSH2 0x2D21 PUSH2 0x4A11 JUMP JUMPDEST JUMPDEST DUP2 MSTORE POP POP DUP2 DUP5 PUSH1 0x40 ADD SWAP1 PUSH1 0x0 DUP2 GT ISZERO PUSH2 0x2D3E JUMPI PUSH2 0x2D3D PUSH2 0x4A11 JUMP JUMPDEST JUMPDEST SWAP1 DUP2 PUSH1 0x0 DUP2 GT ISZERO PUSH2 0x2D52 JUMPI PUSH2 0x2D51 PUSH2 0x4A11 JUMP JUMPDEST JUMPDEST DUP2 MSTORE POP POP DUP1 DUP5 PUSH1 0x60 ADD DUP2 SWAP1 MSTORE POP POP POP POP POP JUMP JUMPDEST PUSH2 0x2D6D PUSH2 0x3622 JUMP JUMPDEST PUSH2 0x2D7B DUP2 PUSH1 0x0 ADD MLOAD DUP4 PUSH2 0x2F5E JUMP JUMPDEST POP PUSH1 0x0 DUP2 PUSH1 0x20 ADD DUP2 DUP2 MSTORE POP POP SWAP2 SWAP1 POP JUMP JUMPDEST PUSH2 0x2D99 DUP3 PUSH1 0x3 DUP4 MLOAD PUSH2 0x2FD7 JUMP JUMPDEST PUSH2 0x2DB0 DUP2 DUP4 PUSH1 0x0 ADD MLOAD PUSH2 0x3180 SWAP1 SWAP2 SWAP1 PUSH4 0xFFFFFFFF AND JUMP JUMPDEST POP POP POP JUMP JUMPDEST PUSH2 0x2DD7 PUSH1 0x2 PUSH1 0x5 PUSH1 0x6 PUSH1 0xFF AND SWAP1 SHL OR DUP4 PUSH1 0x0 ADD MLOAD PUSH2 0x319C SWAP1 SWAP2 SWAP1 PUSH4 0xFFFFFFFF AND JUMP JUMPDEST POP PUSH2 0x2E01 DUP3 DUP3 PUSH1 0x40 MLOAD PUSH1 0x20 ADD PUSH2 0x2DED SWAP2 SWAP1 PUSH2 0x3B0D JUMP JUMPDEST PUSH1 0x40 MLOAD PUSH1 0x20 DUP2 DUP4 SUB SUB DUP2 MSTORE SWAP1 PUSH1 0x40 MSTORE PUSH2 0x2E55 JUMP JUMPDEST POP POP JUMP JUMPDEST PUSH2 0x2E10 DUP2 PUSH1 0x4 PUSH2 0x3206 JUMP JUMPDEST PUSH1 0x1 DUP2 PUSH1 0x20 ADD DUP2 DUP2 MLOAD PUSH2 0x2E23 SWAP2 SWAP1 PUSH2 0x4359 JUMP JUMPDEST SWAP2 POP DUP2 DUP2 MSTORE POP POP POP JUMP JUMPDEST PUSH2 0x2E38 DUP2 PUSH1 0x7 PUSH2 0x3206 JUMP JUMPDEST PUSH1 0x1 DUP2 PUSH1 0x20 ADD DUP2 DUP2 MLOAD PUSH2 0x2E4B SWAP2 SWAP1 PUSH2 0x4E06 JUMP JUMPDEST SWAP2 POP DUP2 DUP2 MSTORE POP POP POP JUMP JUMPDEST PUSH2 0x2E62 DUP3 PUSH1 0x2 DUP4 MLOAD PUSH2 0x2FD7 JUMP JUMPDEST PUSH2 0x2E79 DUP2 DUP4 PUSH1 0x0 ADD MLOAD PUSH2 0x3180 SWAP1 SWAP2 SWAP1 PUSH4 0xFFFFFFFF AND JUMP JUMPDEST POP POP POP JUMP JUMPDEST PUSH2 0x2E88 DUP4 DUP4 PUSH2 0x322C JUMP JUMPDEST PUSH2 0x2E95 PUSH1 0x0 DUP5 DUP5 DUP5 PUSH2 0x20C2 JUMP JUMPDEST POP POP POP JUMP JUMPDEST PUSH2 0x2EA5 DUP4 DUP4 DUP4 PUSH2 0x3325 JUMP JUMPDEST PUSH2 0x2F59 JUMPI PUSH1 0x0 PUSH20 0xFFFFFFFFFFFFFFFFFFFFFFFFFFFFFFFFFFFFFFFF AND DUP4 PUSH20 0xFFFFFFFFFFFFFFFFFFFFFFFFFFFFFFFFFFFFFFFF AND SUB PUSH2 0x2F1A JUMPI DUP1 PUSH1 0x40 MLOAD PUSH32 0x7E27328900000000000000000000000000000000000000000000000000000000 DUP2 MSTORE PUSH1 0x4 ADD PUSH2 0x2F11 SWAP2 SWAP1 PUSH2 0x3B0D JUMP JUMPDEST PUSH1 0x40 MLOAD DUP1 SWAP2 SUB SWAP1 REVERT JUMPDEST DUP2 DUP2 PUSH1 0x40 MLOAD PUSH32 0x177E802F00000000000000000000000000000000000000000000000000000000 DUP2 MSTORE PUSH1 0x4 ADD PUSH2 0x2F50 SWAP3 SWAP2 SWAP1 PUSH2 0x4295 JUMP JUMPDEST PUSH1 0x40 MLOAD DUP1 SWAP2 SUB SWAP1 REVERT JUMPDEST POP POP POP JUMP JUMPDEST PUSH2 0x2F66 PUSH2 0x3642 JUMP JUMPDEST PUSH1 0x0 PUSH1 0x20 DUP4 PUSH2 0x2F75 SWAP2 SWAP1 PUSH2 0x4E69 JUMP JUMPDEST EQ PUSH2 0x2FA1 JUMPI PUSH1 0x20 DUP3 PUSH2 0x2F87 SWAP2 SWAP1 PUSH2 0x4E69 JUMP JUMPDEST PUSH1 0x20 PUSH2 0x2F93 SWAP2 SWAP1 PUSH2 0x4E06 JUMP JUMPDEST DUP3 PUSH2 0x2F9E SWAP2 SWAP1 PUSH2 0x4359 JUMP JUMPDEST SWAP2 POP JUMPDEST DUP2 DUP4 PUSH1 0x20 ADD DUP2 DUP2 MSTORE POP POP PUSH1 0x40 MLOAD DUP1 DUP5 MSTORE PUSH1 0x0 DUP2 MSTORE DUP3 DUP2 ADD PUSH1 0x20 ADD DUP2 DUP2 LT ISZERO PUSH2 0x2FC8 JUMPI PUSH1 0x0 DUP1 REVERT JUMPDEST DUP1 PUSH1 0x40 MSTORE POP POP DUP3 SWAP1 POP SWAP3 SWAP2 POP POP JUMP JUMPDEST PUSH1 0x17 DUP2 PUSH8 0xFFFFFFFFFFFFFFFF AND GT PUSH2 0x3012 JUMPI PUSH2 0x300C DUP2 PUSH1 0x5 DUP5 PUSH1 0xFF AND SWAP1 SHL PUSH1 0xFF AND OR DUP5 PUSH1 0x0 ADD MLOAD PUSH2 0x319C SWAP1 SWAP2 SWAP1 PUSH4 0xFFFFFFFF AND JUMP JUMPDEST POP PUSH2 0x317B JUMP JUMPDEST PUSH1 0xFF DUP2 PUSH8 0xFFFFFFFFFFFFFFFF AND GT PUSH2 0x3070 JUMPI PUSH2 0x3045 PUSH1 0x18 PUSH1 0x5 DUP5 PUSH1 0xFF AND SWAP1 SHL OR DUP5 PUSH1 0x0 ADD MLOAD PUSH2 0x319C SWAP1 SWAP2 SWAP1 PUSH4 0xFFFFFFFF AND JUMP JUMPDEST POP PUSH2 0x306A DUP2 PUSH8 0xFFFFFFFFFFFFFFFF AND PUSH1 0x1 DUP6 PUSH1 0x0 ADD MLOAD PUSH2 0x33E6 SWAP1 SWAP3 SWAP2 SWAP1 PUSH4 0xFFFFFFFF AND JUMP JUMPDEST POP PUSH2 0x317A JUMP JUMPDEST PUSH2 0xFFFF DUP2 PUSH8 0xFFFFFFFFFFFFFFFF AND GT PUSH2 0x30CF JUMPI PUSH2 0x30A4 PUSH1 0x19 PUSH1 0x5 DUP5 PUSH1 0xFF AND SWAP1 SHL OR DUP5 PUSH1 0x0 ADD MLOAD PUSH2 0x319C SWAP1 SWAP2 SWAP1 PUSH4 0xFFFFFFFF AND JUMP JUMPDEST POP PUSH2 0x30C9 DUP2 PUSH8 0xFFFFFFFFFFFFFFFF AND PUSH1 0x2 DUP6 PUSH1 0x0 ADD MLOAD PUSH2 0x33E6 SWAP1 SWAP3 SWAP2 SWAP1 PUSH4 0xFFFFFFFF AND JUMP JUMPDEST POP PUSH2 0x3179 JUMP JUMPDEST PUSH4 0xFFFFFFFF DUP2 PUSH8 0xFFFFFFFFFFFFFFFF AND GT PUSH2 0x3130 JUMPI PUSH2 0x3105 PUSH1 0x1A PUSH1 0x5 DUP5 PUSH1 0xFF AND SWAP1 SHL OR DUP5 PUSH1 0x0 ADD MLOAD PUSH2 0x319C SWAP1 SWAP2 SWAP1 PUSH4 0xFFFFFFFF AND JUMP JUMPDEST POP PUSH2 0x312A DUP2 PUSH8 0xFFFFFFFFFFFFFFFF AND PUSH1 0x4 DUP6 PUSH1 0x0 ADD MLOAD PUSH2 0x33E6 SWAP1 SWAP3 SWAP2 SWAP1 PUSH4 0xFFFFFFFF AND JUMP JUMPDEST POP PUSH2 0x3178 JUMP JUMPDEST PUSH2 0x3151 PUSH1 0x1B PUSH1 0x5 DUP5 PUSH1 0xFF AND SWAP1 SHL OR DUP5 PUSH1 0x0 ADD MLOAD PUSH2 0x319C SWAP1 SWAP2 SWAP1 PUSH4 0xFFFFFFFF AND JUMP JUMPDEST POP PUSH2 0x3176 DUP2 PUSH8 0xFFFFFFFFFFFFFFFF AND PUSH1 0x8 DUP6 PUSH1 0x0 ADD MLOAD PUSH2 0x33E6 SWAP1 SWAP3 SWAP2 SWAP1 PUSH4 0xFFFFFFFF AND JUMP JUMPDEST POP JUMPDEST JUMPDEST JUMPDEST JUMPDEST POP POP POP JUMP JUMPDEST PUSH2 0x3188 PUSH2 0x3642 JUMP JUMPDEST PUSH2 0x3194 DUP4 DUP4 DUP5 MLOAD PUSH2 0x3473 JUMP JUMPDEST SWAP1 POP SWAP3 SWAP2 POP POP JUMP JUMPDEST PUSH2 0x31A4 PUSH2 0x3642 JUMP JUMPDEST PUSH1 0x0 DUP4 PUSH1 0x0 ADD MLOAD MLOAD SWAP1 POP PUSH1 0x0 PUSH1 0x1 DUP3 PUSH2 0x31BD SWAP2 SWAP1 PUSH2 0x4359 JUMP JUMPDEST SWAP1 POP DUP5 PUSH1 0x20 ADD MLOAD DUP3 LT PUSH2 0x31E1 JUMPI PUSH2 0x31E0 DUP6 PUSH1 0x2 DUP4 PUSH2 0x31DB SWAP2 SWAP1 PUSH2 0x4E9A JUMP JUMPDEST PUSH2 0x3556 JUMP JUMPDEST JUMPDEST DUP5 MLOAD PUSH1 0x20 DUP4 DUP3 ADD ADD DUP6 DUP2 MSTORE8 DUP2 MLOAD DUP4 GT ISZERO PUSH2 0x31F9 JUMPI DUP3 DUP3 MSTORE JUMPDEST POP POP DUP5 SWAP3 POP POP POP SWAP3 SWAP2 POP POP JUMP JUMPDEST PUSH2 0x3227 PUSH1 0x1F PUSH1 0x5 DUP4 PUSH1 0xFF AND SWAP1 SHL OR DUP4 PUSH1 0x0 ADD MLOAD PUSH2 0x319C SWAP1 SWAP2 SWAP1 PUSH4 0xFFFFFFFF AND JUMP JUMPDEST POP POP POP JUMP JUMPDEST PUSH1 0x0 PUSH20 0xFFFFFFFFFFFFFFFFFFFFFFFFFFFFFFFFFFFFFFFF AND DUP3 PUSH20 0xFFFFFFFFFFFFFFFFFFFFFFFFFFFFFFFFFFFFFFFF AND SUB PUSH2 0x329E JUMPI PUSH1 0x0 PUSH1 0x40 MLOAD PUSH32 0x64A0AE9200000000000000000000000000000000000000000000000000000000 DUP2 MSTORE PUSH1 0x4 ADD PUSH2 0x3295 SWAP2 SWAP1 PUSH2 0x3881 JUMP JUMPDEST PUSH1 0x40 MLOAD DUP1 SWAP2 SUB SWAP1 REVERT JUMPDEST PUSH1 0x0 PUSH2 0x32AC DUP4 DUP4 PUSH1 0x0 PUSH2 0x1643 JUMP JUMPDEST SWAP1 POP PUSH1 0x0 PUSH20 0xFFFFFFFFFFFFFFFFFFFFFFFFFFFFFFFFFFFFFFFF AND DUP2 PUSH20 0xFFFFFFFFFFFFFFFFFFFFFFFFFFFFFFFFFFFFFFFF AND EQ PUSH2 0x3320 JUMPI PUSH1 0x0 PUSH1 0x40 MLOAD PUSH32 0x73C6AC6E00000000000000000000000000000000000000000000000000000000 DUP2 MSTORE PUSH1 0x4 ADD PUSH2 0x3317 SWAP2 SWAP1 PUSH2 0x3881 JUMP JUMPDEST PUSH1 0x40 MLOAD DUP1 SWAP2 SUB SWAP1 REVERT JUMPDEST POP POP POP JUMP JUMPDEST PUSH1 0x0 DUP1 PUSH20 0xFFFFFFFFFFFFFFFFFFFFFFFFFFFFFFFFFFFFFFFF AND DUP4 PUSH20 0xFFFFFFFFFFFFFFFFFFFFFFFFFFFFFFFFFFFFFFFF AND EQ ISZERO DUP1 ISZERO PUSH2 0x33DD JUMPI POP DUP3 PUSH20 0xFFFFFFFFFFFFFFFFFFFFFFFFFFFFFFFFFFFFFFFF AND DUP5 PUSH20 0xFFFFFFFFFFFFFFFFFFFFFFFFFFFFFFFFFFFFFFFF AND EQ DUP1 PUSH2 0x339E JUMPI POP PUSH2 0x339D DUP5 DUP5 PUSH2 0x12CA JUMP JUMPDEST JUMPDEST DUP1 PUSH2 0x33DC JUMPI POP DUP3 PUSH20 0xFFFFFFFFFFFFFFFFFFFFFFFFFFFFFFFFFFFFFFFF AND PUSH2 0x33C4 DUP4 PUSH2 0x14DC JUMP JUMPDEST PUSH20 0xFFFFFFFFFFFFFFFFFFFFFFFFFFFFFFFFFFFFFFFF AND EQ JUMPDEST JUMPDEST SWAP1 POP SWAP4 SWAP3 POP POP POP JUMP JUMPDEST PUSH2 0x33EE PUSH2 0x3642 JUMP JUMPDEST PUSH1 0x0 DUP5 PUSH1 0x0 ADD MLOAD MLOAD SWAP1 POP PUSH1 0x0 DUP2 DUP5 PUSH2 0x3406 SWAP2 SWAP1 PUSH2 0x4359 JUMP JUMPDEST SWAP1 POP DUP6 PUSH1 0x20 ADD MLOAD DUP2 GT ISZERO PUSH2 0x342B JUMPI PUSH2 0x342A DUP7 PUSH1 0x2 DUP4 PUSH2 0x3425 SWAP2 SWAP1 PUSH2 0x4E9A JUMP JUMPDEST PUSH2 0x3556 JUMP JUMPDEST JUMPDEST PUSH1 0x0 PUSH1 0x1 DUP6 PUSH2 0x100 PUSH2 0x343D SWAP2 SWAP1 PUSH2 0x500F JUMP JUMPDEST PUSH2 0x3447 SWAP2 SWAP1 PUSH2 0x4E06 JUMP JUMPDEST SWAP1 POP DUP7 MLOAD DUP3 DUP2 ADD DUP8 DUP4 NOT DUP3 MLOAD AND OR DUP2 MSTORE DUP2 MLOAD DUP5 GT ISZERO PUSH2 0x3464 JUMPI DUP4 DUP3 MSTORE JUMPDEST POP POP DUP7 SWAP4 POP POP POP POP SWAP4 SWAP3 POP POP POP JUMP JUMPDEST PUSH2 0x347B PUSH2 0x3642 JUMP JUMPDEST DUP3 MLOAD DUP3 GT ISZERO PUSH2 0x3489 JUMPI PUSH1 0x0 DUP1 REVERT JUMPDEST PUSH1 0x0 DUP5 PUSH1 0x0 ADD MLOAD MLOAD SWAP1 POP PUSH1 0x0 DUP4 DUP3 PUSH2 0x34A1 SWAP2 SWAP1 PUSH2 0x4359 JUMP JUMPDEST SWAP1 POP DUP6 PUSH1 0x20 ADD MLOAD DUP2 GT ISZERO PUSH2 0x34C6 JUMPI PUSH2 0x34C5 DUP7 PUSH1 0x2 DUP4 PUSH2 0x34C0 SWAP2 SWAP1 PUSH2 0x4E9A JUMP JUMPDEST PUSH2 0x3556 JUMP JUMPDEST JUMPDEST PUSH1 0x0 DUP1 DUP8 MLOAD DUP1 MLOAD DUP6 PUSH1 0x20 DUP4 ADD ADD SWAP4 POP DUP1 DUP6 GT ISZERO PUSH2 0x34E1 JUMPI DUP5 DUP3 MSTORE JUMPDEST PUSH1 0x20 DUP10 ADD SWAP3 POP POP POP JUMPDEST PUSH1 0x20 DUP7 LT PUSH2 0x3528 JUMPI DUP1 MLOAD DUP3 MSTORE PUSH1 0x20 DUP3 PUSH2 0x3503 SWAP2 SWAP1 PUSH2 0x4359 JUMP JUMPDEST SWAP2 POP PUSH1 0x20 DUP2 PUSH2 0x3512 SWAP2 SWAP1 PUSH2 0x4359 JUMP JUMPDEST SWAP1 POP PUSH1 0x20 DUP7 PUSH2 0x3521 SWAP2 SWAP1 PUSH2 0x4E06 JUMP JUMPDEST SWAP6 POP PUSH2 0x34EA JUMP JUMPDEST PUSH1 0x0 PUSH1 0x1 DUP8 PUSH1 0x20 SUB PUSH2 0x100 EXP SUB SWAP1 POP DUP1 NOT DUP3 MLOAD AND DUP2 DUP5 MLOAD AND DUP2 DUP2 OR DUP6 MSTORE POP POP POP DUP8 SWAP5 POP POP POP POP POP SWAP4 SWAP3 POP POP POP JUMP JUMPDEST PUSH1 0x0 DUP3 PUSH1 0x0 ADD MLOAD SWAP1 POP PUSH2 0x3569 DUP4 DUP4 PUSH2 0x2F5E JUMP JUMPDEST POP PUSH2 0x3574 DUP4 DUP3 PUSH2 0x3180 JUMP JUMPDEST POP POP POP POP JUMP JUMPDEST PUSH1 0x40 MLOAD DUP1 PUSH1 0xE0 ADD PUSH1 0x40 MSTORE DUP1 PUSH1 0x0 PUSH1 0x2 DUP2 GT ISZERO PUSH2 0x3599 JUMPI PUSH2 0x3598 PUSH2 0x4A11 JUMP JUMPDEST JUMPDEST DUP2 MSTORE PUSH1 0x20 ADD PUSH1 0x0 PUSH1 0x2 DUP2 GT ISZERO PUSH2 0x35B2 JUMPI PUSH2 0x35B1 PUSH2 0x4A11 JUMP JUMPDEST JUMPDEST DUP2 MSTORE PUSH1 0x20 ADD PUSH1 0x0 DUP1 DUP2 GT ISZERO PUSH2 0x35CA JUMPI PUSH2 0x35C9 PUSH2 0x4A11 JUMP JUMPDEST JUMPDEST DUP2 MSTORE PUSH1 0x20 ADD PUSH1 0x60 DUP2 MSTORE PUSH1 0x20 ADD PUSH1 0x60 DUP2 MSTORE PUSH1 0x20 ADD PUSH1 0x60 DUP2 MSTORE PUSH1 0x20 ADD PUSH1 0x60 DUP2 MSTORE POP SWAP1 JUMP JUMPDEST PUSH1 0x40 MLOAD DUP1 PUSH1 0xC0 ADD PUSH1 0x40 MSTORE DUP1 PUSH1 0x60 DUP2 MSTORE PUSH1 0x20 ADD PUSH1 0x60 DUP2 MSTORE PUSH1 0x20 ADD PUSH1 0x60 DUP2 MSTORE PUSH1 0x20 ADD PUSH1 0x60 DUP2 MSTORE PUSH1 0x20 ADD PUSH1 0x0 DUP2 MSTORE PUSH1 0x20 ADD PUSH1 0x0 DUP2 MSTORE POP SWAP1 JUMP JUMPDEST PUSH1 0x40 MLOAD DUP1 PUSH1 0x40 ADD PUSH1 0x40 MSTORE DUP1 PUSH2 0x3635 PUSH2 0x3642 JUMP JUMPDEST DUP2 MSTORE PUSH1 0x20 ADD PUSH1 0x0 DUP2 MSTORE POP SWAP1 JUMP JUMPDEST PUSH1 0x40 MLOAD DUP1 PUSH1 0x40 ADD PUSH1 0x40 MSTORE DUP1 PUSH1 0x60 DUP2 MSTORE PUSH1 0x20 ADD PUSH1 0x0 DUP2 MSTORE POP SWAP1 JUMP JUMPDEST PUSH1 0x0 PUSH1 0x40 MLOAD SWAP1 POP SWAP1 JUMP JUMPDEST PUSH1 0x0 DUP1 REVERT JUMPDEST PUSH1 0x0 DUP1 REVERT JUMPDEST PUSH1 0x0 PUSH32 0xFFFFFFFF00000000000000000000000000000000000000000000000000000000 DUP3 AND SWAP1 POP SWAP2 SWAP1 POP JUMP JUMPDEST PUSH2 0x36A5 DUP2 PUSH2 0x3670 JUMP JUMPDEST DUP2 EQ PUSH2 0x36B0 JUMPI PUSH1 0x0 DUP1 REVERT JUMPDEST POP JUMP JUMPDEST PUSH1 0x0 DUP2 CALLDATALOAD SWAP1 POP PUSH2 0x36C2 DUP2 PUSH2 0x369C JUMP JUMPDEST SWAP3 SWAP2 POP POP JUMP JUMPDEST PUSH1 0x0 PUSH1 0x20 DUP3 DUP5 SUB SLT ISZERO PUSH2 0x36DE JUMPI PUSH2 0x36DD PUSH2 0x3666 JUMP JUMPDEST JUMPDEST PUSH1 0x0 PUSH2 0x36EC DUP5 DUP3 DUP6 ADD PUSH2 0x36B3 JUMP JUMPDEST SWAP2 POP POP SWAP3 SWAP2 POP POP JUMP JUMPDEST PUSH1 0x0 DUP2 ISZERO ISZERO SWAP1 POP SWAP2 SWAP1 POP JUMP JUMPDEST PUSH2 0x370A DUP2 PUSH2 0x36F5 JUMP JUMPDEST DUP3 MSTORE POP POP JUMP JUMPDEST PUSH1 0x0 PUSH1 0x20 DUP3 ADD SWAP1 POP PUSH2 0x3725 PUSH1 0x0 DUP4 ADD DUP5 PUSH2 0x3701 JUMP JUMPDEST SWAP3 SWAP2 POP POP JUMP JUMPDEST PUSH1 0x0 DUP2 MLOAD SWAP1 POP SWAP2 SWAP1 POP JUMP JUMPDEST PUSH1 0x0 DUP3 DUP3 MSTORE PUSH1 0x20 DUP3 ADD SWAP1 POP SWAP3 SWAP2 POP POP JUMP JUMPDEST PUSH1 0x0 JUMPDEST DUP4 DUP2 LT ISZERO PUSH2 0x3765 JUMPI DUP1 DUP3 ADD MLOAD DUP2 DUP5 ADD MSTORE PUSH1 0x20 DUP2 ADD SWAP1 POP PUSH2 0x374A JUMP JUMPDEST PUSH1 0x0 DUP5 DUP5 ADD MSTORE POP POP POP POP JUMP JUMPDEST PUSH1 0x0 PUSH1 0x1F NOT PUSH1 0x1F DUP4 ADD AND SWAP1 POP SWAP2 SWAP1 POP JUMP JUMPDEST PUSH1 0x0 PUSH2 0x378D DUP3 PUSH2 0x372B JUMP JUMPDEST PUSH2 0x3797 DUP2 DUP6 PUSH2 0x3736 JUMP JUMPDEST SWAP4 POP PUSH2 0x37A7 DUP2 DUP6 PUSH1 0x20 DUP7 ADD PUSH2 0x3747 JUMP JUMPDEST PUSH2 0x37B0 DUP2 PUSH2 0x3771 JUMP JUMPDEST DUP5 ADD SWAP2 POP POP SWAP3 SWAP2 POP POP JUMP JUMPDEST PUSH1 0x0 PUSH1 0x20 DUP3 ADD SWAP1 POP DUP2 DUP2 SUB PUSH1 0x0 DUP4 ADD MSTORE PUSH2 0x37D5 DUP2 DUP5 PUSH2 0x3782 JUMP JUMPDEST SWAP1 POP SWAP3 SWAP2 POP POP JUMP JUMPDEST PUSH1 0x0 DUP2 SWAP1 POP SWAP2 SWAP1 POP JUMP JUMPDEST PUSH2 0x37F0 DUP2 PUSH2 0x37DD JUMP JUMPDEST DUP2 EQ PUSH2 0x37FB JUMPI PUSH1 0x0 DUP1 REVERT JUMPDEST POP JUMP JUMPDEST PUSH1 0x0 DUP2 CALLDATALOAD SWAP1 POP PUSH2 0x380D DUP2 PUSH2 0x37E7 JUMP JUMPDEST SWAP3 SWAP2 POP POP JUMP JUMPDEST PUSH1 0x0 PUSH1 0x20 DUP3 DUP5 SUB SLT ISZERO PUSH2 0x3829 JUMPI PUSH2 0x3828 PUSH2 0x3666 JUMP JUMPDEST JUMPDEST PUSH1 0x0 PUSH2 0x3837 DUP5 DUP3 DUP6 ADD PUSH2 0x37FE JUMP JUMPDEST SWAP2 POP POP SWAP3 SWAP2 POP POP JUMP JUMPDEST PUSH1 0x0 PUSH20 0xFFFFFFFFFFFFFFFFFFFFFFFFFFFFFFFFFFFFFFFF DUP3 AND SWAP1 POP SWAP2 SWAP1 POP JUMP JUMPDEST PUSH1 0x0 PUSH2 0x386B DUP3 PUSH2 0x3840 JUMP JUMPDEST SWAP1 POP SWAP2 SWAP1 POP JUMP JUMPDEST PUSH2 0x387B DUP2 PUSH2 0x3860 JUMP JUMPDEST DUP3 MSTORE POP POP JUMP JUMPDEST PUSH1 0x0 PUSH1 0x20 DUP3 ADD SWAP1 POP PUSH2 0x3896 PUSH1 0x0 DUP4 ADD DUP5 PUSH2 0x3872 JUMP JUMPDEST SWAP3 SWAP2 POP POP JUMP JUMPDEST PUSH2 0x38A5 DUP2 PUSH2 0x3860 JUMP JUMPDEST DUP2 EQ PUSH2 0x38B0 JUMPI PUSH1 0x0 DUP1 REVERT JUMPDEST POP JUMP JUMPDEST PUSH1 0x0 DUP2 CALLDATALOAD SWAP1 POP PUSH2 0x38C2 DUP2 PUSH2 0x389C JUMP JUMPDEST SWAP3 SWAP2 POP POP JUMP JUMPDEST PUSH1 0x0 DUP1 PUSH1 0x40 DUP4 DUP6 SUB SLT ISZERO PUSH2 0x38DF JUMPI PUSH2 0x38DE PUSH2 0x3666 JUMP JUMPDEST JUMPDEST PUSH1 0x0 PUSH2 0x38ED DUP6 DUP3 DUP7 ADD PUSH2 0x38B3 JUMP JUMPDEST SWAP3 POP POP PUSH1 0x20 PUSH2 0x38FE DUP6 DUP3 DUP7 ADD PUSH2 0x37FE JUMP JUMPDEST SWAP2 POP POP SWAP3 POP SWAP3 SWAP1 POP JUMP JUMPDEST PUSH1 0x0 DUP2 SWAP1 POP SWAP2 SWAP1 POP JUMP JUMPDEST PUSH2 0x391B DUP2 PUSH2 0x3908 JUMP JUMPDEST DUP2 EQ PUSH2 0x3926 JUMPI PUSH1 0x0 DUP1 REVERT JUMPDEST POP JUMP JUMPDEST PUSH1 0x0 DUP2 CALLDATALOAD SWAP1 POP PUSH2 0x3938 DUP2 PUSH2 0x3912 JUMP JUMPDEST SWAP3 SWAP2 POP POP JUMP JUMPDEST PUSH1 0x0 DUP1 REVERT JUMPDEST PUSH1 0x0 DUP1 REVERT JUMPDEST PUSH32 0x4E487B7100000000000000000000000000000000000000000000000000000000 PUSH1 0x0 MSTORE PUSH1 0x41 PUSH1 0x4 MSTORE PUSH1 0x24 PUSH1 0x0 REVERT JUMPDEST PUSH2 0x3980 DUP3 PUSH2 0x3771 JUMP JUMPDEST DUP2 ADD DUP2 DUP2 LT PUSH8 0xFFFFFFFFFFFFFFFF DUP3 GT OR ISZERO PUSH2 0x399F JUMPI PUSH2 0x399E PUSH2 0x3948 JUMP JUMPDEST JUMPDEST DUP1 PUSH1 0x40 MSTORE POP POP POP JUMP JUMPDEST PUSH1 0x0 PUSH2 0x39B2 PUSH2 0x365C JUMP JUMPDEST SWAP1 POP PUSH2 0x39BE DUP3 DUP3 PUSH2 0x3977 JUMP JUMPDEST SWAP2 SWAP1 POP JUMP JUMPDEST PUSH1 0x0 PUSH8 0xFFFFFFFFFFFFFFFF DUP3 GT ISZERO PUSH2 0x39DE JUMPI PUSH2 0x39DD PUSH2 0x3948 JUMP JUMPDEST JUMPDEST PUSH2 0x39E7 DUP3 PUSH2 0x3771 JUMP JUMPDEST SWAP1 POP PUSH1 0x20 DUP2 ADD SWAP1 POP SWAP2 SWAP1 POP JUMP JUMPDEST DUP3 DUP2 DUP4 CALLDATACOPY PUSH1 0x0 DUP4 DUP4 ADD MSTORE POP POP POP JUMP JUMPDEST PUSH1 0x0 PUSH2 0x3A16 PUSH2 0x3A11 DUP5 PUSH2 0x39C3 JUMP JUMPDEST PUSH2 0x39A8 JUMP JUMPDEST SWAP1 POP DUP3 DUP2 MSTORE PUSH1 0x20 DUP2 ADD DUP5 DUP5 DUP5 ADD GT ISZERO PUSH2 0x3A32 JUMPI PUSH2 0x3A31 PUSH2 0x3943 JUMP JUMPDEST JUMPDEST PUSH2 0x3A3D DUP5 DUP3 DUP6 PUSH2 0x39F4 JUMP JUMPDEST POP SWAP4 SWAP3 POP POP POP JUMP JUMPDEST PUSH1 0x0 DUP3 PUSH1 0x1F DUP4 ADD SLT PUSH2 0x3A5A JUMPI PUSH2 0x3A59 PUSH2 0x393E JUMP JUMPDEST JUMPDEST DUP2 CALLDATALOAD PUSH2 0x3A6A DUP5 DUP3 PUSH1 0x20 DUP7 ADD PUSH2 0x3A03 JUMP JUMPDEST SWAP2 POP POP SWAP3 SWAP2 POP POP JUMP JUMPDEST PUSH1 0x0 DUP1 PUSH1 0x0 PUSH1 0x60 DUP5 DUP7 SUB SLT ISZERO PUSH2 0x3A8C JUMPI PUSH2 0x3A8B PUSH2 0x3666 JUMP JUMPDEST JUMPDEST PUSH1 0x0 PUSH2 0x3A9A DUP7 DUP3 DUP8 ADD PUSH2 0x3929 JUMP JUMPDEST SWAP4 POP POP PUSH1 0x20 DUP5 ADD CALLDATALOAD PUSH8 0xFFFFFFFFFFFFFFFF DUP2 GT ISZERO PUSH2 0x3ABB JUMPI PUSH2 0x3ABA PUSH2 0x366B JUMP JUMPDEST JUMPDEST PUSH2 0x3AC7 DUP7 DUP3 DUP8 ADD PUSH2 0x3A45 JUMP JUMPDEST SWAP3 POP POP PUSH1 0x40 DUP5 ADD CALLDATALOAD PUSH8 0xFFFFFFFFFFFFFFFF DUP2 GT ISZERO PUSH2 0x3AE8 JUMPI PUSH2 0x3AE7 PUSH2 0x366B JUMP JUMPDEST JUMPDEST PUSH2 0x3AF4 DUP7 DUP3 DUP8 ADD PUSH2 0x3A45 JUMP JUMPDEST SWAP2 POP POP SWAP3 POP SWAP3 POP SWAP3 JUMP JUMPDEST PUSH2 0x3B07 DUP2 PUSH2 0x37DD JUMP JUMPDEST DUP3 MSTORE POP POP JUMP JUMPDEST PUSH1 0x0 PUSH1 0x20 DUP3 ADD SWAP1 POP PUSH2 0x3B22 PUSH1 0x0 DUP4 ADD DUP5 PUSH2 0x3AFE JUMP JUMPDEST SWAP3 SWAP2 POP POP JUMP JUMPDEST PUSH1 0x0 DUP1 PUSH1 0x0 PUSH1 0x60 DUP5 DUP7 SUB SLT ISZERO PUSH2 0x3B41 JUMPI PUSH2 0x3B40 PUSH2 0x3666 JUMP JUMPDEST JUMPDEST PUSH1 0x0 PUSH2 0x3B4F DUP7 DUP3 DUP8 ADD PUSH2 0x38B3 JUMP JUMPDEST SWAP4 POP POP PUSH1 0x20 PUSH2 0x3B60 DUP7 DUP3 DUP8 ADD PUSH2 0x38B3 JUMP JUMPDEST SWAP3 POP POP PUSH1 0x40 PUSH2 0x3B71 DUP7 DUP3 DUP8 ADD PUSH2 0x37FE JUMP JUMPDEST SWAP2 POP POP SWAP3 POP SWAP3 POP SWAP3 JUMP JUMPDEST PUSH1 0x0 DUP2 MLOAD SWAP1 POP SWAP2 SWAP1 POP JUMP JUMPDEST PUSH1 0x0 DUP3 DUP3 MSTORE PUSH1 0x20 DUP3 ADD SWAP1 POP SWAP3 SWAP2 POP POP JUMP JUMPDEST PUSH1 0x0 PUSH2 0x3BA2 DUP3 PUSH2 0x3B7B JUMP JUMPDEST PUSH2 0x3BAC DUP2 DUP6 PUSH2 0x3B86 JUMP JUMPDEST SWAP4 POP PUSH2 0x3BBC DUP2 DUP6 PUSH1 0x20 DUP7 ADD PUSH2 0x3747 JUMP JUMPDEST PUSH2 0x3BC5 DUP2 PUSH2 0x3771 JUMP JUMPDEST DUP5 ADD SWAP2 POP POP SWAP3 SWAP2 POP POP JUMP JUMPDEST PUSH1 0x0 PUSH1 0x20 DUP3 ADD SWAP1 POP DUP2 DUP2 SUB PUSH1 0x0 DUP4 ADD MSTORE PUSH2 0x3BEA DUP2 DUP5 PUSH2 0x3B97 JUMP JUMPDEST SWAP1 POP SWAP3 SWAP2 POP POP JUMP JUMPDEST PUSH1 0x0 PUSH8 0xFFFFFFFFFFFFFFFF DUP3 GT ISZERO PUSH2 0x3C0D JUMPI PUSH2 0x3C0C PUSH2 0x3948 JUMP JUMPDEST JUMPDEST PUSH2 0x3C16 DUP3 PUSH2 0x3771 JUMP JUMPDEST SWAP1 POP PUSH1 0x20 DUP2 ADD SWAP1 POP SWAP2 SWAP1 POP JUMP JUMPDEST PUSH1 0x0 PUSH2 0x3C36 PUSH2 0x3C31 DUP5 PUSH2 0x3BF2 JUMP JUMPDEST PUSH2 0x39A8 JUMP JUMPDEST SWAP1 POP DUP3 DUP2 MSTORE PUSH1 0x20 DUP2 ADD DUP5 DUP5 DUP5 ADD GT ISZERO PUSH2 0x3C52 JUMPI PUSH2 0x3C51 PUSH2 0x3943 JUMP JUMPDEST JUMPDEST PUSH2 0x3C5D DUP5 DUP3 DUP6 PUSH2 0x39F4 JUMP JUMPDEST POP SWAP4 SWAP3 POP POP POP JUMP JUMPDEST PUSH1 0x0 DUP3 PUSH1 0x1F DUP4 ADD SLT PUSH2 0x3C7A JUMPI PUSH2 0x3C79 PUSH2 0x393E JUMP JUMPDEST JUMPDEST DUP2 CALLDATALOAD PUSH2 0x3C8A DUP5 DUP3 PUSH1 0x20 DUP7 ADD PUSH2 0x3C23 JUMP JUMPDEST SWAP2 POP POP SWAP3 SWAP2 POP POP JUMP JUMPDEST PUSH1 0x0 PUSH8 0xFFFFFFFFFFFFFFFF DUP3 GT ISZERO PUSH2 0x3CAE JUMPI PUSH2 0x3CAD PUSH2 0x3948 JUMP JUMPDEST JUMPDEST PUSH1 0x20 DUP3 MUL SWAP1 POP PUSH1 0x20 DUP2 ADD SWAP1 POP SWAP2 SWAP1 POP JUMP JUMPDEST PUSH1 0x0 DUP1 REVERT JUMPDEST PUSH1 0x0 PUSH2 0x3CD7 PUSH2 0x3CD2 DUP5 PUSH2 0x3C93 JUMP JUMPDEST PUSH2 0x39A8 JUMP JUMPDEST SWAP1 POP DUP1 DUP4 DUP3 MSTORE PUSH1 0x20 DUP3 ADD SWAP1 POP PUSH1 0x20 DUP5 MUL DUP4 ADD DUP6 DUP2 GT ISZERO PUSH2 0x3CFA JUMPI PUSH2 0x3CF9 PUSH2 0x3CBF JUMP JUMPDEST JUMPDEST DUP4 JUMPDEST DUP2 DUP2 LT ISZERO PUSH2 0x3D41 JUMPI DUP1 CALLDATALOAD PUSH8 0xFFFFFFFFFFFFFFFF DUP2 GT ISZERO PUSH2 0x3D1F JUMPI PUSH2 0x3D1E PUSH2 0x393E JUMP JUMPDEST JUMPDEST DUP1 DUP7 ADD PUSH2 0x3D2C DUP10 DUP3 PUSH2 0x3C65 JUMP JUMPDEST DUP6 MSTORE PUSH1 0x20 DUP6 ADD SWAP5 POP POP POP PUSH1 0x20 DUP2 ADD SWAP1 POP PUSH2 0x3CFC JUMP JUMPDEST POP POP POP SWAP4 SWAP3 POP POP POP JUMP JUMPDEST PUSH1 0x0 DUP3 PUSH1 0x1F DUP4 ADD SLT PUSH2 0x3D60 JUMPI PUSH2 0x3D5F PUSH2 0x393E JUMP JUMPDEST JUMPDEST DUP2 CALLDATALOAD PUSH2 0x3D70 DUP5 DUP3 PUSH1 0x20 DUP7 ADD PUSH2 0x3CC4 JUMP JUMPDEST SWAP2 POP POP SWAP3 SWAP2 POP POP JUMP JUMPDEST PUSH1 0x0 PUSH8 0xFFFFFFFFFFFFFFFF DUP3 AND SWAP1 POP SWAP2 SWAP1 POP JUMP JUMPDEST PUSH2 0x3D96 DUP2 PUSH2 0x3D79 JUMP JUMPDEST DUP2 EQ PUSH2 0x3DA1 JUMPI PUSH1 0x0 DUP1 REVERT JUMPDEST POP JUMP JUMPDEST PUSH1 0x0 DUP2 CALLDATALOAD SWAP1 POP PUSH2 0x3DB3 DUP2 PUSH2 0x3D8D JUMP JUMPDEST SWAP3 SWAP2 POP POP JUMP JUMPDEST PUSH1 0x0 DUP1 PUSH1 0x0 DUP1 PUSH1 0x80 DUP6 DUP8 SUB SLT ISZERO PUSH2 0x3DD3 JUMPI PUSH2 0x3DD2 PUSH2 0x3666 JUMP JUMPDEST JUMPDEST PUSH1 0x0 DUP6 ADD CALLDATALOAD PUSH8 0xFFFFFFFFFFFFFFFF DUP2 GT ISZERO PUSH2 0x3DF1 JUMPI PUSH2 0x3DF0 PUSH2 0x366B JUMP JUMPDEST JUMPDEST PUSH2 0x3DFD DUP8 DUP3 DUP9 ADD PUSH2 0x3C65 JUMP JUMPDEST SWAP5 POP POP PUSH1 0x20 DUP6 ADD CALLDATALOAD PUSH8 0xFFFFFFFFFFFFFFFF DUP2 GT ISZERO PUSH2 0x3E1E JUMPI PUSH2 0x3E1D PUSH2 0x366B JUMP JUMPDEST JUMPDEST PUSH2 0x3E2A DUP8 DUP3 DUP9 ADD PUSH2 0x3A45 JUMP JUMPDEST SWAP4 POP POP PUSH1 0x40 DUP6 ADD CALLDATALOAD PUSH8 0xFFFFFFFFFFFFFFFF DUP2 GT ISZERO PUSH2 0x3E4B JUMPI PUSH2 0x3E4A PUSH2 0x366B JUMP JUMPDEST JUMPDEST PUSH2 0x3E57 DUP8 DUP3 DUP9 ADD PUSH2 0x3D4B JUMP JUMPDEST SWAP3 POP POP PUSH1 0x60 PUSH2 0x3E68 DUP8 DUP3 DUP9 ADD PUSH2 0x3DA4 JUMP JUMPDEST SWAP2 POP POP SWAP3 SWAP6 SWAP2 SWAP5 POP SWAP3 POP JUMP JUMPDEST PUSH2 0x3E7D DUP2 PUSH2 0x3908 JUMP JUMPDEST DUP3 MSTORE POP POP JUMP JUMPDEST PUSH1 0x0 PUSH1 0x20 DUP3 ADD SWAP1 POP PUSH2 0x3E98 PUSH1 0x0 DUP4 ADD DUP5 PUSH2 0x3E74 JUMP JUMPDEST SWAP3 SWAP2 POP POP JUMP JUMPDEST PUSH1 0x0 DUP3 DUP3 MSTORE PUSH1 0x20 DUP3 ADD SWAP1 POP SWAP3 SWAP2 POP POP JUMP JUMPDEST PUSH1 0x0 PUSH2 0x3EBA DUP3 PUSH2 0x372B JUMP JUMPDEST PUSH2 0x3EC4 DUP2 DUP6 PUSH2 0x3E9E JUMP JUMPDEST SWAP4 POP PUSH2 0x3ED4 DUP2 DUP6 PUSH1 0x20 DUP7 ADD PUSH2 0x3747 JUMP JUMPDEST PUSH2 0x3EDD DUP2 PUSH2 0x3771 JUMP JUMPDEST DUP5 ADD SWAP2 POP POP SWAP3 SWAP2 POP POP JUMP JUMPDEST PUSH2 0x3EF1 DUP2 PUSH2 0x37DD JUMP JUMPDEST DUP3 MSTORE POP POP JUMP JUMPDEST PUSH1 0x0 PUSH1 0xC0 DUP4 ADD PUSH1 0x0 DUP4 ADD MLOAD DUP5 DUP3 SUB PUSH1 0x0 DUP7 ADD MSTORE PUSH2 0x3F14 DUP3 DUP3 PUSH2 0x3EAF JUMP JUMPDEST SWAP2 POP POP PUSH1 0x20 DUP4 ADD MLOAD DUP5 DUP3 SUB PUSH1 0x20 DUP7 ADD MSTORE PUSH2 0x3F2E DUP3 DUP3 PUSH2 0x3EAF JUMP JUMPDEST SWAP2 POP POP PUSH1 0x40 DUP4 ADD MLOAD DUP5 DUP3 SUB PUSH1 0x40 DUP7 ADD MSTORE PUSH2 0x3F48 DUP3 DUP3 PUSH2 0x3EAF JUMP JUMPDEST SWAP2 POP POP PUSH1 0x60 DUP4 ADD MLOAD DUP5 DUP3 SUB PUSH1 0x60 DUP7 ADD MSTORE PUSH2 0x3F62 DUP3 DUP3 PUSH2 0x3EAF JUMP JUMPDEST SWAP2 POP POP PUSH1 0x80 DUP4 ADD MLOAD PUSH2 0x3F77 PUSH1 0x80 DUP7 ADD DUP3 PUSH2 0x3EE8 JUMP JUMPDEST POP PUSH1 0xA0 DUP4 ADD MLOAD PUSH2 0x3F8A PUSH1 0xA0 DUP7 ADD DUP3 PUSH2 0x3EE8 JUMP JUMPDEST POP DUP1 SWAP2 POP POP SWAP3 SWAP2 POP POP JUMP JUMPDEST PUSH1 0x0 PUSH1 0x20 DUP3 ADD SWAP1 POP DUP2 DUP2 SUB PUSH1 0x0 DUP4 ADD MSTORE PUSH2 0x3FAF DUP2 DUP5 PUSH2 0x3EF7 JUMP JUMPDEST SWAP1 POP SWAP3 SWAP2 POP POP JUMP JUMPDEST PUSH1 0x0 PUSH1 0x20 DUP3 DUP5 SUB SLT ISZERO PUSH2 0x3FCD JUMPI PUSH2 0x3FCC PUSH2 0x3666 JUMP JUMPDEST JUMPDEST PUSH1 0x0 PUSH2 0x3FDB DUP5 DUP3 DUP6 ADD PUSH2 0x38B3 JUMP JUMPDEST SWAP2 POP POP SWAP3 SWAP2 POP POP JUMP JUMPDEST PUSH2 0x3FED DUP2 PUSH2 0x36F5 JUMP JUMPDEST DUP2 EQ PUSH2 0x3FF8 JUMPI PUSH1 0x0 DUP1 REVERT JUMPDEST POP JUMP JUMPDEST PUSH1 0x0 DUP2 CALLDATALOAD SWAP1 POP PUSH2 0x400A DUP2 PUSH2 0x3FE4 JUMP JUMPDEST SWAP3 SWAP2 POP POP JUMP JUMPDEST PUSH1 0x0 DUP1 PUSH1 0x40 DUP4 DUP6 SUB SLT ISZERO PUSH2 0x4027 JUMPI PUSH2 0x4026 PUSH2 0x3666 JUMP JUMPDEST JUMPDEST PUSH1 0x0 PUSH2 0x4035 DUP6 DUP3 DUP7 ADD PUSH2 0x38B3 JUMP JUMPDEST SWAP3 POP POP PUSH1 0x20 PUSH2 0x4046 DUP6 DUP3 DUP7 ADD PUSH2 0x3FFB JUMP JUMPDEST SWAP2 POP POP SWAP3 POP SWAP3 SWAP1 POP JUMP JUMPDEST PUSH1 0x0 DUP1 PUSH1 0x0 DUP1 PUSH1 0x0 PUSH1 0xA0 DUP7 DUP9 SUB SLT ISZERO PUSH2 0x406C JUMPI PUSH2 0x406B PUSH2 0x3666 JUMP JUMPDEST JUMPDEST PUSH1 0x0 PUSH2 0x407A DUP9 DUP3 DUP10 ADD PUSH2 0x37FE JUMP JUMPDEST SWAP6 POP POP PUSH1 0x20 DUP7 ADD CALLDATALOAD PUSH8 0xFFFFFFFFFFFFFFFF DUP2 GT ISZERO PUSH2 0x409B JUMPI PUSH2 0x409A PUSH2 0x366B JUMP JUMPDEST JUMPDEST PUSH2 0x40A7 DUP9 DUP3 DUP10 ADD PUSH2 0x3C65 JUMP JUMPDEST SWAP5 POP POP PUSH1 0x40 DUP7 ADD CALLDATALOAD PUSH8 0xFFFFFFFFFFFFFFFF DUP2 GT ISZERO PUSH2 0x40C8 JUMPI PUSH2 0x40C7 PUSH2 0x366B JUMP JUMPDEST JUMPDEST PUSH2 0x40D4 DUP9 DUP3 DUP10 ADD PUSH2 0x3C65 JUMP JUMPDEST SWAP4 POP POP PUSH1 0x60 DUP7 ADD CALLDATALOAD PUSH8 0xFFFFFFFFFFFFFFFF DUP2 GT ISZERO PUSH2 0x40F5 JUMPI PUSH2 0x40F4 PUSH2 0x366B JUMP JUMPDEST JUMPDEST PUSH2 0x4101 DUP9 DUP3 DUP10 ADD PUSH2 0x3C65 JUMP JUMPDEST SWAP3 POP POP PUSH1 0x80 DUP7 ADD CALLDATALOAD PUSH8 0xFFFFFFFFFFFFFFFF DUP2 GT ISZERO PUSH2 0x4122 JUMPI PUSH2 0x4121 PUSH2 0x366B JUMP JUMPDEST JUMPDEST PUSH2 0x412E DUP9 DUP3 DUP10 ADD PUSH2 0x3C65 JUMP JUMPDEST SWAP2 POP POP SWAP3 SWAP6 POP SWAP3 SWAP6 SWAP1 SWAP4 POP JUMP JUMPDEST PUSH1 0x0 DUP1 PUSH1 0x0 DUP1 PUSH1 0x80 DUP6 DUP8 SUB SLT ISZERO PUSH2 0x4155 JUMPI PUSH2 0x4154 PUSH2 0x3666 JUMP JUMPDEST JUMPDEST PUSH1 0x0 PUSH2 0x4163 DUP8 DUP3 DUP9 ADD PUSH2 0x38B3 JUMP JUMPDEST SWAP5 POP POP PUSH1 0x20 PUSH2 0x4174 DUP8 DUP3 DUP9 ADD PUSH2 0x38B3 JUMP JUMPDEST SWAP4 POP POP PUSH1 0x40 PUSH2 0x4185 DUP8 DUP3 DUP9 ADD PUSH2 0x37FE JUMP JUMPDEST SWAP3 POP POP PUSH1 0x60 DUP6 ADD CALLDATALOAD PUSH8 0xFFFFFFFFFFFFFFFF DUP2 GT ISZERO PUSH2 0x41A6 JUMPI PUSH2 0x41A5 PUSH2 0x366B JUMP JUMPDEST JUMPDEST PUSH2 0x41B2 DUP8 DUP3 DUP9 ADD PUSH2 0x3A45 JUMP JUMPDEST SWAP2 POP POP SWAP3 SWAP6 SWAP2 SWAP5 POP SWAP3 POP JUMP JUMPDEST PUSH1 0x0 DUP1 PUSH1 0x40 DUP4 DUP6 SUB SLT ISZERO PUSH2 0x41D5 JUMPI PUSH2 0x41D4 PUSH2 0x3666 JUMP JUMPDEST JUMPDEST PUSH1 0x0 PUSH2 0x41E3 DUP6 DUP3 DUP7 ADD PUSH2 0x38B3 JUMP JUMPDEST SWAP3 POP POP PUSH1 0x20 PUSH2 0x41F4 DUP6 DUP3 DUP7 ADD PUSH2 0x38B3 JUMP JUMPDEST SWAP2 POP POP SWAP3 POP SWAP3 SWAP1 POP JUMP JUMPDEST PUSH32 0x4E487B7100000000000000000000000000000000000000000000000000000000 PUSH1 0x0 MSTORE PUSH1 0x22 PUSH1 0x4 MSTORE PUSH1 0x24 PUSH1 0x0 REVERT JUMPDEST PUSH1 0x0 PUSH1 0x2 DUP3 DIV SWAP1 POP PUSH1 0x1 DUP3 AND DUP1 PUSH2 0x4245 JUMPI PUSH1 0x7F DUP3 AND SWAP2 POP JUMPDEST PUSH1 0x20 DUP3 LT DUP2 SUB PUSH2 0x4258 JUMPI PUSH2 0x4257 PUSH2 0x41FE JUMP JUMPDEST JUMPDEST POP SWAP2 SWAP1 POP JUMP JUMPDEST PUSH1 0x0 PUSH1 0x60 DUP3 ADD SWAP1 POP PUSH2 0x4273 PUSH1 0x0 DUP4 ADD DUP7 PUSH2 0x3872 JUMP JUMPDEST PUSH2 0x4280 PUSH1 0x20 DUP4 ADD DUP6 PUSH2 0x3AFE JUMP JUMPDEST PUSH2 0x428D PUSH1 0x40 DUP4 ADD DUP5 PUSH2 0x3872 JUMP JUMPDEST SWAP5 SWAP4 POP POP POP POP JUMP JUMPDEST PUSH1 0x0 PUSH1 0x40 DUP3 ADD SWAP1 POP PUSH2 0x42AA PUSH1 0x0 DUP4 ADD DUP6 PUSH2 0x3872 JUMP JUMPDEST PUSH2 0x42B7 PUSH1 0x20 DUP4 ADD DUP5 PUSH2 0x3AFE JUMP JUMPDEST SWAP4 SWAP3 POP POP POP JUMP JUMPDEST PUSH32 0x4164647265737320616C7265616479206F776E7320616E204E46540000000000 PUSH1 0x0 DUP3 ADD MSTORE POP JUMP JUMPDEST PUSH1 0x0 PUSH2 0x42F4 PUSH1 0x1B DUP4 PUSH2 0x3736 JUMP JUMPDEST SWAP2 POP PUSH2 0x42FF DUP3 PUSH2 0x42BE JUMP JUMPDEST PUSH1 0x20 DUP3 ADD SWAP1 POP SWAP2 SWAP1 POP JUMP JUMPDEST PUSH1 0x0 PUSH1 0x20 DUP3 ADD SWAP1 POP DUP2 DUP2 SUB PUSH1 0x0 DUP4 ADD MSTORE PUSH2 0x4323 DUP2 PUSH2 0x42E7 JUMP JUMPDEST SWAP1 POP SWAP2 SWAP1 POP JUMP JUMPDEST PUSH32 0x4E487B7100000000000000000000000000000000000000000000000000000000 PUSH1 0x0 MSTORE PUSH1 0x11 PUSH1 0x4 MSTORE PUSH1 0x24 PUSH1 0x0 REVERT JUMPDEST PUSH1 0x0 PUSH2 0x4364 DUP3 PUSH2 0x37DD JUMP JUMPDEST SWAP2 POP PUSH2 0x436F DUP4 PUSH2 0x37DD JUMP JUMPDEST SWAP3 POP DUP3 DUP3 ADD SWAP1 POP DUP1 DUP3 GT ISZERO PUSH2 0x4387 JUMPI PUSH2 0x4386 PUSH2 0x432A JUMP JUMPDEST JUMPDEST SWAP3 SWAP2 POP POP JUMP JUMPDEST PUSH32 0x4E487B7100000000000000000000000000000000000000000000000000000000 PUSH1 0x0 MSTORE PUSH1 0x32 PUSH1 0x4 MSTORE PUSH1 0x24 PUSH1 0x0 REVERT JUMPDEST PUSH32 0x4D7573742062652070726F706F736564206F776E657200000000000000000000 PUSH1 0x0 DUP3 ADD MSTORE POP JUMP JUMPDEST PUSH1 0x0 PUSH2 0x43F2 PUSH1 0x16 DUP4 PUSH2 0x3736 JUMP JUMPDEST SWAP2 POP PUSH2 0x43FD DUP3 PUSH2 0x43BC JUMP JUMPDEST PUSH1 0x20 DUP3 ADD SWAP1 POP SWAP2 SWAP1 POP JUMP JUMPDEST PUSH1 0x0 PUSH1 0x20 DUP3 ADD SWAP1 POP DUP2 DUP2 SUB PUSH1 0x0 DUP4 ADD MSTORE PUSH2 0x4421 DUP2 PUSH2 0x43E5 JUMP JUMPDEST SWAP1 POP SWAP2 SWAP1 POP JUMP JUMPDEST PUSH32 0x4F6E6C7920746F6B656E206F776E65722063616E20757064617465206D657461 PUSH1 0x0 DUP3 ADD MSTORE PUSH32 0x6461746100000000000000000000000000000000000000000000000000000000 PUSH1 0x20 DUP3 ADD MSTORE POP JUMP JUMPDEST PUSH1 0x0 PUSH2 0x4484 PUSH1 0x24 DUP4 PUSH2 0x3736 JUMP JUMPDEST SWAP2 POP PUSH2 0x448F DUP3 PUSH2 0x4428 JUMP JUMPDEST PUSH1 0x40 DUP3 ADD SWAP1 POP SWAP2 SWAP1 POP JUMP JUMPDEST PUSH1 0x0 PUSH1 0x20 DUP3 ADD SWAP1 POP DUP2 DUP2 SUB PUSH1 0x0 DUP4 ADD MSTORE PUSH2 0x44B3 DUP2 PUSH2 0x4477 JUMP JUMPDEST SWAP1 POP SWAP2 SWAP1 POP JUMP JUMPDEST PUSH1 0x0 DUP2 SWAP1 POP SWAP3 SWAP2 POP POP JUMP JUMPDEST PUSH1 0x0 PUSH2 0x44D0 DUP3 PUSH2 0x372B JUMP JUMPDEST PUSH2 0x44DA DUP2 DUP6 PUSH2 0x44BA JUMP JUMPDEST SWAP4 POP PUSH2 0x44EA DUP2 DUP6 PUSH1 0x20 DUP7 ADD PUSH2 0x3747 JUMP JUMPDEST DUP1 DUP5 ADD SWAP2 POP POP SWAP3 SWAP2 POP POP JUMP JUMPDEST PUSH1 0x0 PUSH2 0x4502 DUP3 DUP6 PUSH2 0x44C5 JUMP JUMPDEST SWAP2 POP PUSH2 0x450E DUP3 DUP5 PUSH2 0x44C5 JUMP JUMPDEST SWAP2 POP DUP2 SWAP1 POP SWAP4 SWAP3 POP POP POP JUMP JUMPDEST PUSH1 0x0 DUP2 SWAP1 POP DUP2 PUSH1 0x0 MSTORE PUSH1 0x20 PUSH1 0x0 KECCAK256 SWAP1 POP SWAP2 SWAP1 POP JUMP JUMPDEST PUSH1 0x0 PUSH1 0x20 PUSH1 0x1F DUP4 ADD DIV SWAP1 POP SWAP2 SWAP1 POP JUMP JUMPDEST PUSH1 0x0 DUP3 DUP3 SHL SWAP1 POP SWAP3 SWAP2 POP POP JUMP JUMPDEST PUSH1 0x0 PUSH1 0x8 DUP4 MUL PUSH2 0x457C PUSH32 0xFFFFFFFFFFFFFFFFFFFFFFFFFFFFFFFFFFFFFFFFFFFFFFFFFFFFFFFFFFFFFFFF DUP3 PUSH2 0x453F JUMP JUMPDEST PUSH2 0x4586 DUP7 DUP4 PUSH2 0x453F JUMP JUMPDEST SWAP6 POP DUP1 NOT DUP5 AND SWAP4 POP DUP1 DUP7 AND DUP5 OR SWAP3 POP POP POP SWAP4 SWAP3 POP POP POP JUMP JUMPDEST PUSH1 0x0 DUP2 SWAP1 POP SWAP2 SWAP1 POP JUMP JUMPDEST PUSH1 0x0 PUSH2 0x45C3 PUSH2 0x45BE PUSH2 0x45B9 DUP5 PUSH2 0x37DD JUMP JUMPDEST PUSH2 0x459E JUMP JUMPDEST PUSH2 0x37DD JUMP JUMPDEST SWAP1 POP SWAP2 SWAP1 POP JUMP JUMPDEST PUSH1 0x0 DUP2 SWAP1 POP SWAP2 SWAP1 POP JUMP JUMPDEST PUSH2 0x45DD DUP4 PUSH2 0x45A8 JUMP JUMPDEST PUSH2 0x45F1 PUSH2 0x45E9 DUP3 PUSH2 0x45CA JUMP JUMPDEST DUP5 DUP5 SLOAD PUSH2 0x454C JUMP JUMPDEST DUP3 SSTORE POP POP POP POP JUMP JUMPDEST PUSH1 0x0 SWAP1 JUMP JUMPDEST PUSH2 0x4606 PUSH2 0x45F9 JUMP JUMPDEST PUSH2 0x4611 DUP2 DUP5 DUP5 PUSH2 0x45D4 JUMP JUMPDEST POP POP POP JUMP JUMPDEST JUMPDEST DUP2 DUP2 LT ISZERO PUSH2 0x4635 JUMPI PUSH2 0x462A PUSH1 0x0 DUP3 PUSH2 0x45FE JUMP JUMPDEST PUSH1 0x1 DUP2 ADD SWAP1 POP PUSH2 0x4617 JUMP JUMPDEST POP POP JUMP JUMPDEST PUSH1 0x1F DUP3 GT ISZERO PUSH2 0x467A JUMPI PUSH2 0x464B DUP2 PUSH2 0x451A JUMP JUMPDEST PUSH2 0x4654 DUP5 PUSH2 0x452F JUMP JUMPDEST DUP2 ADD PUSH1 0x20 DUP6 LT ISZERO PUSH2 0x4663 JUMPI DUP2 SWAP1 POP JUMPDEST PUSH2 0x4677 PUSH2 0x466F DUP6 PUSH2 0x452F JUMP JUMPDEST DUP4 ADD DUP3 PUSH2 0x4616 JUMP JUMPDEST POP POP JUMPDEST POP POP POP JUMP JUMPDEST PUSH1 0x0 DUP3 DUP3 SHR SWAP1 POP SWAP3 SWAP2 POP POP JUMP JUMPDEST PUSH1 0x0 PUSH2 0x469D PUSH1 0x0 NOT DUP5 PUSH1 0x8 MUL PUSH2 0x467F JUMP JUMPDEST NOT DUP1 DUP4 AND SWAP2 POP POP SWAP3 SWAP2 POP POP JUMP JUMPDEST PUSH1 0x0 PUSH2 0x46B6 DUP4 DUP4 PUSH2 0x468C JUMP JUMPDEST SWAP2 POP DUP3 PUSH1 0x2 MUL DUP3 OR SWAP1 POP SWAP3 SWAP2 POP POP JUMP JUMPDEST PUSH2 0x46CF DUP3 PUSH2 0x3B7B JUMP JUMPDEST PUSH8 0xFFFFFFFFFFFFFFFF DUP2 GT ISZERO PUSH2 0x46E8 JUMPI PUSH2 0x46E7 PUSH2 0x3948 JUMP JUMPDEST JUMPDEST PUSH2 0x46F2 DUP3 SLOAD PUSH2 0x422D JUMP JUMPDEST PUSH2 0x46FD DUP3 DUP3 DUP6 PUSH2 0x4639 JUMP JUMPDEST PUSH1 0x0 PUSH1 0x20 SWAP1 POP PUSH1 0x1F DUP4 GT PUSH1 0x1 DUP2 EQ PUSH2 0x4730 JUMPI PUSH1 0x0 DUP5 ISZERO PUSH2 0x471E JUMPI DUP3 DUP8 ADD MLOAD SWAP1 POP JUMPDEST PUSH2 0x4728 DUP6 DUP3 PUSH2 0x46AA JUMP JUMPDEST DUP7 SSTORE POP PUSH2 0x4790 JUMP JUMPDEST PUSH1 0x1F NOT DUP5 AND PUSH2 0x473E DUP7 PUSH2 0x451A JUMP JUMPDEST PUSH1 0x0 JUMPDEST DUP3 DUP2 LT ISZERO PUSH2 0x4766 JUMPI DUP5 DUP10 ADD MLOAD DUP3 SSTORE PUSH1 0x1 DUP3 ADD SWAP2 POP PUSH1 0x20 DUP6 ADD SWAP5 POP PUSH1 0x20 DUP2 ADD SWAP1 POP PUSH2 0x4741 JUMP JUMPDEST DUP7 DUP4 LT ISZERO PUSH2 0x4783 JUMPI DUP5 DUP10 ADD MLOAD PUSH2 0x477F PUSH1 0x1F DUP10 AND DUP3 PUSH2 0x468C JUMP JUMPDEST DUP4 SSTORE POP JUMPDEST PUSH1 0x1 PUSH1 0x2 DUP9 MUL ADD DUP9 SSTORE POP POP POP JUMPDEST POP POP POP POP POP POP JUMP JUMPDEST PUSH1 0x0 DUP2 SLOAD PUSH2 0x47A5 DUP2 PUSH2 0x422D JUMP JUMPDEST PUSH2 0x47AF DUP2 DUP7 PUSH2 0x3B86 JUMP JUMPDEST SWAP5 POP PUSH1 0x1 DUP3 AND PUSH1 0x0 DUP2 EQ PUSH2 0x47CA JUMPI PUSH1 0x1 DUP2 EQ PUSH2 0x47E0 JUMPI PUSH2 0x4813 JUMP JUMPDEST PUSH1 0xFF NOT DUP4 AND DUP7 MSTORE DUP2 ISZERO ISZERO PUSH1 0x20 MUL DUP7 ADD SWAP4 POP PUSH2 0x4813 JUMP JUMPDEST PUSH2 0x47E9 DUP6 PUSH2 0x451A JUMP JUMPDEST PUSH1 0x0 JUMPDEST DUP4 DUP2 LT ISZERO PUSH2 0x480B JUMPI DUP2 SLOAD DUP2 DUP10 ADD MSTORE PUSH1 0x1 DUP3 ADD SWAP2 POP PUSH1 0x20 DUP2 ADD SWAP1 POP PUSH2 0x47EC JUMP JUMPDEST DUP1 DUP9 ADD SWAP6 POP POP POP JUMPDEST POP POP POP SWAP3 SWAP2 POP POP JUMP JUMPDEST PUSH1 0x0 PUSH1 0x40 DUP3 ADD SWAP1 POP DUP2 DUP2 SUB PUSH1 0x0 DUP4 ADD MSTORE PUSH2 0x4836 DUP2 DUP6 PUSH2 0x4798 JUMP JUMPDEST SWAP1 POP DUP2 DUP2 SUB PUSH1 0x20 DUP4 ADD MSTORE PUSH2 0x484A DUP2 DUP5 PUSH2 0x4798 JUMP JUMPDEST SWAP1 POP SWAP4 SWAP3 POP POP POP JUMP JUMPDEST PUSH1 0x0 PUSH2 0x4866 PUSH2 0x4861 DUP5 PUSH2 0x3BF2 JUMP JUMPDEST PUSH2 0x39A8 JUMP JUMPDEST SWAP1 POP DUP3 DUP2 MSTORE PUSH1 0x20 DUP2 ADD DUP5 DUP5 DUP5 ADD GT ISZERO PUSH2 0x4882 JUMPI PUSH2 0x4881 PUSH2 0x3943 JUMP JUMPDEST JUMPDEST PUSH2 0x488D DUP5 DUP3 DUP6 PUSH2 0x3747 JUMP JUMPDEST POP SWAP4 SWAP3 POP POP POP JUMP JUMPDEST PUSH1 0x0 DUP3 PUSH1 0x1F DUP4 ADD SLT PUSH2 0x48AA JUMPI PUSH2 0x48A9 PUSH2 0x393E JUMP JUMPDEST JUMPDEST DUP2 MLOAD PUSH2 0x48BA DUP5 DUP3 PUSH1 0x20 DUP7 ADD PUSH2 0x4853 JUMP JUMPDEST SWAP2 POP POP SWAP3 SWAP2 POP POP JUMP JUMPDEST PUSH1 0x0 DUP1 PUSH1 0x0 DUP1 PUSH1 0x80 DUP6 DUP8 SUB SLT ISZERO PUSH2 0x48DD JUMPI PUSH2 0x48DC PUSH2 0x3666 JUMP JUMPDEST JUMPDEST PUSH1 0x0 DUP6 ADD MLOAD PUSH8 0xFFFFFFFFFFFFFFFF DUP2 GT ISZERO PUSH2 0x48FB JUMPI PUSH2 0x48FA PUSH2 0x366B JUMP JUMPDEST JUMPDEST PUSH2 0x4907 DUP8 DUP3 DUP9 ADD PUSH2 0x4895 JUMP JUMPDEST SWAP5 POP POP PUSH1 0x20 DUP6 ADD MLOAD PUSH8 0xFFFFFFFFFFFFFFFF DUP2 GT ISZERO PUSH2 0x4928 JUMPI PUSH2 0x4927 PUSH2 0x366B JUMP JUMPDEST JUMPDEST PUSH2 0x4934 DUP8 DUP3 DUP9 ADD PUSH2 0x4895 JUMP JUMPDEST SWAP4 POP POP PUSH1 0x40 DUP6 ADD MLOAD PUSH8 0xFFFFFFFFFFFFFFFF DUP2 GT ISZERO PUSH2 0x4955 JUMPI PUSH2 0x4954 PUSH2 0x366B JUMP JUMPDEST JUMPDEST PUSH2 0x4961 DUP8 DUP3 DUP9 ADD PUSH2 0x4895 JUMP JUMPDEST SWAP3 POP POP PUSH1 0x60 DUP6 ADD MLOAD PUSH8 0xFFFFFFFFFFFFFFFF DUP2 GT ISZERO PUSH2 0x4982 JUMPI PUSH2 0x4981 PUSH2 0x366B JUMP JUMPDEST JUMPDEST PUSH2 0x498E DUP8 DUP3 DUP9 ADD PUSH2 0x4895 JUMP JUMPDEST SWAP2 POP POP SWAP3 SWAP6 SWAP2 SWAP5 POP SWAP3 POP JUMP JUMPDEST PUSH1 0x0 PUSH2 0x49A5 DUP3 PUSH2 0x37DD JUMP JUMPDEST SWAP2 POP PUSH32 0xFFFFFFFFFFFFFFFFFFFFFFFFFFFFFFFFFFFFFFFFFFFFFFFFFFFFFFFFFFFFFFFF DUP3 SUB PUSH2 0x49D7 JUMPI PUSH2 0x49D6 PUSH2 0x432A JUMP JUMPDEST JUMPDEST PUSH1 0x1 DUP3 ADD SWAP1 POP SWAP2 SWAP1 POP JUMP JUMPDEST PUSH32 0x4E487B7100000000000000000000000000000000000000000000000000000000 PUSH1 0x0 MSTORE PUSH1 0x12 PUSH1 0x4 MSTORE PUSH1 0x24 PUSH1 0x0 REVERT JUMPDEST PUSH32 0x4E487B7100000000000000000000000000000000000000000000000000000000 PUSH1 0x0 MSTORE PUSH1 0x21 PUSH1 0x4 MSTORE PUSH1 0x24 PUSH1 0x0 REVERT JUMPDEST PUSH2 0x4A49 DUP2 PUSH2 0x3D79 JUMP JUMPDEST DUP3 MSTORE POP POP JUMP JUMPDEST PUSH1 0x0 PUSH2 0xFFFF DUP3 AND SWAP1 POP SWAP2 SWAP1 POP JUMP JUMPDEST PUSH2 0x4A66 DUP2 PUSH2 0x4A4F JUMP JUMPDEST DUP3 MSTORE POP POP JUMP JUMPDEST PUSH1 0x0 PUSH4 0xFFFFFFFF DUP3 AND SWAP1 POP SWAP2 SWAP1 POP JUMP JUMPDEST PUSH2 0x4A85 DUP2 PUSH2 0x4A6C JUMP JUMPDEST DUP3 MSTORE POP POP JUMP JUMPDEST PUSH1 0x0 PUSH1 0xA0 DUP3 ADD SWAP1 POP PUSH2 0x4AA0 PUSH1 0x0 DUP4 ADD DUP9 PUSH2 0x4A40 JUMP JUMPDEST DUP2 DUP2 SUB PUSH1 0x20 DUP4 ADD MSTORE PUSH2 0x4AB2 DUP2 DUP8 PUSH2 0x3B97 JUMP JUMPDEST SWAP1 POP PUSH2 0x4AC1 PUSH1 0x40 DUP4 ADD DUP7 PUSH2 0x4A5D JUMP JUMPDEST PUSH2 0x4ACE PUSH1 0x60 DUP4 ADD DUP6 PUSH2 0x4A7C JUMP JUMPDEST PUSH2 0x4ADB PUSH1 0x80 DUP4 ADD DUP5 PUSH2 0x3E74 JUMP JUMPDEST SWAP7 SWAP6 POP POP POP POP POP POP JUMP JUMPDEST PUSH1 0x0 DUP2 MLOAD SWAP1 POP PUSH2 0x4AF4 DUP2 PUSH2 0x3912 JUMP JUMPDEST SWAP3 SWAP2 POP POP JUMP JUMPDEST PUSH1 0x0 PUSH1 0x20 DUP3 DUP5 SUB SLT ISZERO PUSH2 0x4B10 JUMPI PUSH2 0x4B0F PUSH2 0x3666 JUMP JUMPDEST JUMPDEST PUSH1 0x0 PUSH2 0x4B1E DUP5 DUP3 DUP6 ADD PUSH2 0x4AE5 JUMP JUMPDEST SWAP2 POP POP SWAP3 SWAP2 POP POP JUMP JUMPDEST PUSH32 0x4F6E6C792063616C6C61626C65206279206F776E657200000000000000000000 PUSH1 0x0 DUP3 ADD MSTORE POP JUMP JUMPDEST PUSH1 0x0 PUSH2 0x4B5D PUSH1 0x16 DUP4 PUSH2 0x3736 JUMP JUMPDEST SWAP2 POP PUSH2 0x4B68 DUP3 PUSH2 0x4B27 JUMP JUMPDEST PUSH1 0x20 DUP3 ADD SWAP1 POP SWAP2 SWAP1 POP JUMP JUMPDEST PUSH1 0x0 PUSH1 0x20 DUP3 ADD SWAP1 POP DUP2 DUP2 SUB PUSH1 0x0 DUP4 ADD MSTORE PUSH2 0x4B8C DUP2 PUSH2 0x4B50 JUMP JUMPDEST SWAP1 POP SWAP2 SWAP1 POP JUMP JUMPDEST PUSH1 0x0 DUP2 SWAP1 POP DUP2 PUSH1 0x0 MSTORE PUSH1 0x20 PUSH1 0x0 KECCAK256 SWAP1 POP SWAP2 SWAP1 POP JUMP JUMPDEST PUSH1 0x1F DUP3 GT ISZERO PUSH2 0x4BE9 JUMPI PUSH2 0x4BBA DUP2 PUSH2 0x4B93 JUMP JUMPDEST PUSH2 0x4BC3 DUP5 PUSH2 0x452F JUMP JUMPDEST DUP2 ADD PUSH1 0x20 DUP6 LT ISZERO PUSH2 0x4BD2 JUMPI DUP2 SWAP1 POP JUMPDEST PUSH2 0x4BE6 PUSH2 0x4BDE DUP6 PUSH2 0x452F JUMP JUMPDEST DUP4 ADD DUP3 PUSH2 0x4616 JUMP JUMPDEST POP POP JUMPDEST POP POP POP JUMP JUMPDEST PUSH2 0x4BF7 DUP3 PUSH2 0x372B JUMP JUMPDEST PUSH8 0xFFFFFFFFFFFFFFFF DUP2 GT ISZERO PUSH2 0x4C10 JUMPI PUSH2 0x4C0F PUSH2 0x3948 JUMP JUMPDEST JUMPDEST PUSH2 0x4C1A DUP3 SLOAD PUSH2 0x422D JUMP JUMPDEST PUSH2 0x4C25 DUP3 DUP3 DUP6 PUSH2 0x4BA8 JUMP JUMPDEST PUSH1 0x0 PUSH1 0x20 SWAP1 POP PUSH1 0x1F DUP4 GT PUSH1 0x1 DUP2 EQ PUSH2 0x4C58 JUMPI PUSH1 0x0 DUP5 ISZERO PUSH2 0x4C46 JUMPI DUP3 DUP8 ADD MLOAD SWAP1 POP JUMPDEST PUSH2 0x4C50 DUP6 DUP3 PUSH2 0x46AA JUMP JUMPDEST DUP7 SSTORE POP PUSH2 0x4CB8 JUMP JUMPDEST PUSH1 0x1F NOT DUP5 AND PUSH2 0x4C66 DUP7 PUSH2 0x4B93 JUMP JUMPDEST PUSH1 0x0 JUMPDEST DUP3 DUP2 LT ISZERO PUSH2 0x4C8E JUMPI DUP5 DUP10 ADD MLOAD DUP3 SSTORE PUSH1 0x1 DUP3 ADD SWAP2 POP PUSH1 0x20 DUP6 ADD SWAP5 POP PUSH1 0x20 DUP2 ADD SWAP1 POP PUSH2 0x4C69 JUMP JUMPDEST DUP7 DUP4 LT ISZERO PUSH2 0x4CAB JUMPI DUP5 DUP10 ADD MLOAD PUSH2 0x4CA7 PUSH1 0x1F DUP10 AND DUP3 PUSH2 0x468C JUMP JUMPDEST DUP4 SSTORE POP JUMPDEST PUSH1 0x1 PUSH1 0x2 DUP9 MUL ADD DUP9 SSTORE POP POP POP JUMPDEST POP POP POP POP POP POP JUMP JUMPDEST PUSH1 0x0 PUSH1 0x60 DUP3 ADD SWAP1 POP DUP2 DUP2 SUB PUSH1 0x0 DUP4 ADD MSTORE PUSH2 0x4CDA DUP2 DUP7 PUSH2 0x3782 JUMP JUMPDEST SWAP1 POP DUP2 DUP2 SUB PUSH1 0x20 DUP4 ADD MSTORE PUSH2 0x4CEE DUP2 DUP6 PUSH2 0x3782 JUMP JUMPDEST SWAP1 POP DUP2 DUP2 SUB PUSH1 0x40 DUP4 ADD MSTORE PUSH2 0x4D02 DUP2 DUP5 PUSH2 0x3782 JUMP JUMPDEST SWAP1 POP SWAP5 SWAP4 POP POP POP POP JUMP JUMPDEST PUSH1 0x0 PUSH1 0x80 DUP3 ADD SWAP1 POP PUSH2 0x4D21 PUSH1 0x0 DUP4 ADD DUP8 PUSH2 0x3872 JUMP JUMPDEST PUSH2 0x4D2E PUSH1 0x20 DUP4 ADD DUP7 PUSH2 0x3872 JUMP JUMPDEST PUSH2 0x4D3B PUSH1 0x40 DUP4 ADD DUP6 PUSH2 0x3AFE JUMP JUMPDEST DUP2 DUP2 SUB PUSH1 0x60 DUP4 ADD MSTORE PUSH2 0x4D4D DUP2 DUP5 PUSH2 0x3B97 JUMP JUMPDEST SWAP1 POP SWAP6 SWAP5 POP POP POP POP POP JUMP JUMPDEST PUSH1 0x0 DUP2 MLOAD SWAP1 POP PUSH2 0x4D67 DUP2 PUSH2 0x369C JUMP JUMPDEST SWAP3 SWAP2 POP POP JUMP JUMPDEST PUSH1 0x0 PUSH1 0x20 DUP3 DUP5 SUB SLT ISZERO PUSH2 0x4D83 JUMPI PUSH2 0x4D82 PUSH2 0x3666 JUMP JUMPDEST JUMPDEST PUSH1 0x0 PUSH2 0x4D91 DUP5 DUP3 DUP6 ADD PUSH2 0x4D58 JUMP JUMPDEST SWAP2 POP POP SWAP3 SWAP2 POP POP JUMP JUMPDEST PUSH32 0x43616E6E6F74207472616E7366657220746F2073656C66000000000000000000 PUSH1 0x0 DUP3 ADD MSTORE POP JUMP JUMPDEST PUSH1 0x0 PUSH2 0x4DD0 PUSH1 0x17 DUP4 PUSH2 0x3736 JUMP JUMPDEST SWAP2 POP PUSH2 0x4DDB DUP3 PUSH2 0x4D9A JUMP JUMPDEST PUSH1 0x20 DUP3 ADD SWAP1 POP SWAP2 SWAP1 POP JUMP JUMPDEST PUSH1 0x0 PUSH1 0x20 DUP3 ADD SWAP1 POP DUP2 DUP2 SUB PUSH1 0x0 DUP4 ADD MSTORE PUSH2 0x4DFF DUP2 PUSH2 0x4DC3 JUMP JUMPDEST SWAP1 POP SWAP2 SWAP1 POP JUMP JUMPDEST PUSH1 0x0 PUSH2 0x4E11 DUP3 PUSH2 0x37DD JUMP JUMPDEST SWAP2 POP PUSH2 0x4E1C DUP4 PUSH2 0x37DD JUMP JUMPDEST SWAP3 POP DUP3 DUP3 SUB SWAP1 POP DUP2 DUP2 GT ISZERO PUSH2 0x4E34 JUMPI PUSH2 0x4E33 PUSH2 0x432A JUMP JUMPDEST JUMPDEST SWAP3 SWAP2 POP POP JUMP JUMPDEST PUSH32 0x4E487B7100000000000000000000000000000000000000000000000000000000 PUSH1 0x0 MSTORE PUSH1 0x31 PUSH1 0x4 MSTORE PUSH1 0x24 PUSH1 0x0 REVERT JUMPDEST PUSH1 0x0 PUSH2 0x4E74 DUP3 PUSH2 0x37DD JUMP JUMPDEST SWAP2 POP PUSH2 0x4E7F DUP4 PUSH2 0x37DD JUMP JUMPDEST SWAP3 POP DUP3 PUSH2 0x4E8F JUMPI PUSH2 0x4E8E PUSH2 0x49E2 JUMP JUMPDEST JUMPDEST DUP3 DUP3 MOD SWAP1 POP SWAP3 SWAP2 POP POP JUMP JUMPDEST PUSH1 0x0 PUSH2 0x4EA5 DUP3 PUSH2 0x37DD JUMP JUMPDEST SWAP2 POP PUSH2 0x4EB0 DUP4 PUSH2 0x37DD JUMP JUMPDEST SWAP3 POP DUP3 DUP3 MUL PUSH2 0x4EBE DUP2 PUSH2 0x37DD JUMP JUMPDEST SWAP2 POP DUP3 DUP3 DIV DUP5 EQ DUP4 ISZERO OR PUSH2 0x4ED5 JUMPI PUSH2 0x4ED4 PUSH2 0x432A JUMP JUMPDEST JUMPDEST POP SWAP3 SWAP2 POP POP JUMP JUMPDEST PUSH1 0x0 DUP2 PUSH1 0x1 SHR SWAP1 POP SWAP2 SWAP1 POP JUMP JUMPDEST PUSH1 0x0 DUP1 DUP3 SWAP2 POP DUP4 SWAP1 POP JUMPDEST PUSH1 0x1 DUP6 GT ISZERO PUSH2 0x4F33 JUMPI DUP1 DUP7 DIV DUP2 GT ISZERO PUSH2 0x4F0F JUMPI PUSH2 0x4F0E PUSH2 0x432A JUMP JUMPDEST JUMPDEST PUSH1 0x1 DUP6 AND ISZERO PUSH2 0x4F1E JUMPI DUP1 DUP3 MUL SWAP2 POP JUMPDEST DUP1 DUP2 MUL SWAP1 POP PUSH2 0x4F2C DUP6 PUSH2 0x4EDC JUMP JUMPDEST SWAP5 POP PUSH2 0x4EF3 JUMP JUMPDEST SWAP5 POP SWAP5 SWAP3 POP POP POP JUMP JUMPDEST PUSH1 0x0 DUP3 PUSH2 0x4F4C JUMPI PUSH1 0x1 SWAP1 POP PUSH2 0x5008 JUMP JUMPDEST DUP2 PUSH2 0x4F5A JUMPI PUSH1 0x0 SWAP1 POP PUSH2 0x5008 JUMP JUMPDEST DUP2 PUSH1 0x1 DUP2 EQ PUSH2 0x4F70 JUMPI PUSH1 0x2 DUP2 EQ PUSH2 0x4F7A JUMPI PUSH2 0x4FA9 JUMP JUMPDEST PUSH1 0x1 SWAP2 POP POP PUSH2 0x5008 JUMP JUMPDEST PUSH1 0xFF DUP5 GT ISZERO PUSH2 0x4F8C JUMPI PUSH2 0x4F8B PUSH2 0x432A JUMP JUMPDEST JUMPDEST DUP4 PUSH1 0x2 EXP SWAP2 POP DUP5 DUP3 GT ISZERO PUSH2 0x4FA3 JUMPI PUSH2 0x4FA2 PUSH2 0x432A JUMP JUMPDEST JUMPDEST POP PUSH2 0x5008 JUMP JUMPDEST POP PUSH1 0x20 DUP4 LT PUSH2 0x133 DUP4 LT AND PUSH1 0x4E DUP5 LT PUSH1 0xB DUP5 LT AND OR ISZERO PUSH2 0x4FDE JUMPI DUP3 DUP3 EXP SWAP1 POP DUP4 DUP2 GT ISZERO PUSH2 0x4FD9 JUMPI PUSH2 0x4FD8 PUSH2 0x432A JUMP JUMPDEST JUMPDEST PUSH2 0x5008 JUMP JUMPDEST PUSH2 0x4FEB DUP5 DUP5 DUP5 PUSH1 0x1 PUSH2 0x4EE9 JUMP JUMPDEST SWAP3 POP SWAP1 POP DUP2 DUP5 DIV DUP2 GT ISZERO PUSH2 0x5002 JUMPI PUSH2 0x5001 PUSH2 0x432A JUMP JUMPDEST JUMPDEST DUP2 DUP2 MUL SWAP1 POP JUMPDEST SWAP4 SWAP3 POP POP POP JUMP JUMPDEST PUSH1 0x0 PUSH2 0x501A DUP3 PUSH2 0x37DD JUMP JUMPDEST SWAP2 POP PUSH2 0x5025 DUP4 PUSH2 0x37DD JUMP JUMPDEST SWAP3 POP PUSH2 0x5052 PUSH32 0xFFFFFFFFFFFFFFFFFFFFFFFFFFFFFFFFFFFFFFFFFFFFFFFFFFFFFFFFFFFFFFFF DUP5 DUP5 PUSH2 0x4F3C JUMP JUMPDEST SWAP1 POP SWAP3 SWAP2 POP POP JUMP INVALID LOG2 PUSH5 0x6970667358 0x22 SLT KECCAK256 CODESIZE GASLIMIT DUP2 0xCC 0x24 LT SWAP1 PUSH31 0x170C7EB1DB08E0C35FAFE2766950FDEB615E0B43029796D864736F6C634300 ADDMOD EQ STOP CALLER "},"methodIdentifiers":{"acceptOwnership()":"79ba5097","approve(address,uint256)":"095ea7b3","balanceOf(address)":"70a08231","getApproved(uint256)":"081812fc","getTokenMetadata(uint256)":"60316801","handleOracleFulfillment(bytes32,bytes,bytes)":"0ca76175","isApprovedForAll(address,address)":"e985e9c5","mintRequest(string,bytes,string[],uint64)":"4d598342","name()":"06fdde03","owner()":"8da5cb5b","ownerOf(uint256)":"6352211e","paused()":"5c975abb","s_lastError()":"4b0795a8","s_lastRequestId()":"b1e21749","s_lastResponse()":"3944ea3a","safeTransferFrom(address,address,uint256)":"42842e0e","safeTransferFrom(address,address,uint256,bytes)":"b88d4fde","setApprovalForAll(address,bool)":"a22cb465","supportsInterface(bytes4)":"01ffc9a7","symbol()":"95d89b41","tokenByIndex(uint256)":"4f6ccce7","tokenOfOwnerByIndex(address,uint256)":"2f745c59","tokenURI(uint256)":"c87b56dd","totalSupply()":"18160ddd","transferFrom(address,address,uint256)":"23b872dd","transferOwnership(address)":"f2fde38b","updateTokenMetadata(uint256,string,string,string,string)":"ac2f541a"}}}}}